:020000040026D4
:10400000601E00208D422600E3952600E1952600E3
:10401000E1952600E1952600E195260000000000CC
:10402000000000000000000000000000E1952600F4
:10403000E195260000000000E19526009D4926003C
:104040005D96260063962600699626006F962600E8
:10405000000000004196260047962600E1952600C4
:10406000E1952600000000000000000000000000B4
:104070000000000000000000E195260000000000A4
:104080000000000000000000E1952600E1952600F8
:10409000E1952600E1952600E1952600E1952600B0
:1040A000E1952600E1952600E1952600E1952600A0
:1040B000E1952600E1952600E1952600E195260090
:1040C000E1952600E1952600E1952600E195260080
:1040D000E195260000000000000000000000000044
:1040E00000000000000000000000000000000000D0
:1040F000000000000000000099592600A959260080
:1041000000000000000000000000000000000000AF
:10411000000000000000000000000000000000009F
:10412000000000000000000000000000000000008F
:10413000000000000000000000000000000000007F
:10414000000000000000000000000000000000006F
:10415000000000000000000000000000000000005F
:10416000000000000000000000000000000000004F
:10417000000000000000000000000000000000003F
:10418000000000000000000000000000000000002F
:10419000000000000000000000000000000000001F
:1041A000000000000000000000000000000000000F
:1041B00000000000000000000000000000000000FF
:1041C00000000000000000000000000000000000EF
:1041D00000000000000000000000000000000000DF
:1041E00000000000000000000000000000000000CF
:1041F00000000000000000000000000000000000BF
:1042000000000000000000000000000000000000AE
:10421000000000000000000000000000000000009E
:10422000000000000000000000000000000000008E
:10423000000000000000000000000000000000007E
:10424000000000000000000000000000000000006E
:10425000000000000000000000000000000000005E
:10426000000000000000000000000000000000004E
:10427000E195260021582600695826002150260085
:10428000255C2600694A2600E195260008B5094B01
:10429000FF221A600848094A4824E3690849121AAB
:1042A00098470848084AA3690021121A984700F065
:1042B0000DF8FEE7B4200D40400000201309002057
:1042C000C0A72600180900205D16002073B500F075
:1042D00057FD00F03FFE00F0A7FD00F00FFB01F0DE
:1042E0008FFC05F02CFB00F02DFE00F075F920206E
:1042F00005F07AF902F00EFF00F02EFD002000F02C
:104300003FFC012000F03CFC6149002000F00EFD64
:1043100003F060F805F09AF9082005F065F95D48AA
:1043200005F0C9F95C4805F0C6F9002003F074F8FF
:1043300001F0CCFA0021594802F092FF02F07EFC15
:1043400005F07CF902F0BAFDC82004F0E3FA044657
:10435000534904F05FFF204604F0BAFF514D024676
:104360002146286801F0A2FF01464F4802F070F88C
:10437000204604F0D7FA4D4805F09DF9C82004F016
:10438000C9FA044602F090FF49490246204602F06D
:104390006FF8204604F09CFF21460246286801F091
:1043A00085FF0146404802F053F8204604F0BAFA6F
:1043B00002F07AFF01463E4802F04AF83D4805F017
:1043C0007AF900F0F7F900F067FE00F083FE03F0E1
:1043D000E3FA0821684601F051FC9DF807309DF88A
:1043E0000650354C43EA0525BDF806303348238096
:1043F00002F02EF8324E2178324802F029F8617826
:10440000314802F025F8F46A4AF6CD310220A0477F
:1044100029460320A0471A210120A0470822694607
:10442000736B0B209847294802F012F8284B186844
:1044300005F041F9274802F00BF8274B186805F002
:104440003AF9264802F004F8254B186805F033F9CC
:104450000021244802F004FF02F046FC00F0C2FAFA
:10446000214B01221860214B21481A7005F049FAAE
:1044700000F078FC102005F0B7F800F079FC02F0AD
:1044800061FE10F0FF0FF8D101F016FBF5E700BF59
:104490009173260086A2260096A22600A004002082
:1044A000B0A2260010160020C9A22600DBA226001A
:1044B000F3A226000CA326001816002011A3260044
:1044C000E4A026002FA3260035A326003BA3260048
:1044D00000A2260042A3260018A2260049A3260017
:1044E00034A22600C0040020E0150020D4150020CE
:1044F00078A22600F8B5334C257820704540EA06AE
:1045000018D500F0100000F0FF072F4E30B100F07A
:1045100069FA2E4BD8600123F3700BE0F3784BB1AE
:1045200000F060FA2A4A2949D368C968F7705B1A13
:104530001844D06015F0300F17D02378224F13F0B5
:10454000300606D000F04EFA204B186101233B7173
:104550000BE03B794BB100F045FA1D4A1B4913694A
:1045600009693E715B1A18441061AB0619D52378AE
:10457000154D03F0200303F0FF0633B100F032FACB
:10458000124B586101236B710BE06B794BB100F05A
:1045900029FA0F4A0D49536949696E715B1A18442B
:1045A00050610C4D2B7823B92078BDE8F84000F01D
:1045B00035B8012B05D1002000F030F82B780133FD
:1045C0002B70F8BD08140020D4150020E015002041
:1045D000A01500205D15002008B500F017F8024B6B
:1045E00000221A7008BD00BF08140020024B1B787F
:1045F0001843FFF77FBF00BF08140020024B1B7851
:1046000023EA0000FFF776BF08140020024A13686F
:1046100043F038031360704700C40D40014B18602D
:10462000704700BFE0C00D4020B1012805D1044B08
:1046300018787047034B186870470020704700BF18
:104640000914002020900D4010B5094A002013786D
:1046500001331370074B197802F0D6FDBDE8104006
:10466000054B06481968064A002302F01DBB00BF2F
:1046700009140020561600205009002028090020A7
:1046800049462600812810B50C462AD0B0F5807F17
:1046900039D0802839D102F035FD1D4B1D4A1870E4
:1046A0001368002023F00803136052F8203C032114
:1046B00023F0080342F8203C52F81C3C23F0080386
:1046C00042F81C3C52F8183C43F0080342F8183CEE
:1046D000042200F04DFC10480021032200F0D0FB22
:1046E00013E00E4B1A6831B142F008021A60002044
:1046F00000F064FB05E022F008021A60084600F0B2
:1047000069FB204610BD064B1960012010BD00BF9B
:104710005616002020940D402547260010940D4089
:104720005009002008B50F4805F012F9C0B1082162
:104730000C4805F006F90C4B196861B10B4B0022CF
:104740001A700B4B0B481B681BB90B4A02F0ACFAF2
:1047500001E002F0B3FABDE80840084802F002BFE9
:1047600008BD00BF4809002050090020091400209E
:1047700020900D4028090020494626006CA0260004
:10478000044B1868C0F30720030904BF1030C0B2FF
:10479000704700BF1C300D40054B1868C0F3C210B5
:1047A00001289ABFC0F1020040034FF40040704757
:1047B00014300D402DE9F04F8DB0FFF7E1FF384B7D
:1047C0000446C8201D6804F0A5F84826B3680746CB
:1047D00098470B90736898470A90FFF7DDFF834670
:1047E00000F036FB099000F03FFB089000F012FB50
:1047F000DDF828C009994FEA9C2301934FEA9B23D7
:10480000DFF8A8A00293089BC4F30718C5F340097A
:1048100004F00F0405F001050B9A0591069351462B
:10482000434607900094CDF80C900495384601F06B
:104830001FFE384604F04CFD1A4B024639461868F4
:1048400001F034FD0146184801F002FE384604F03C
:1048500069F8B36898477368834698470746FFF737
:104860009BFF064600F0F4FA099000F0FDFA08906C
:1048700000F0D0FA099A089BBF0AB60A0492059381
:10488000069000970196CDF808900395504659463A
:104890004246234601F0DCFD0DB0BDE8F08F00BFBD
:1048A0001C300D4010160020C9A2260057A3260078
:1048B000F8B500F097F80F4B0024D3E900673A46AB
:1048C000B04238BF7A1C15460443C3E90045DFF8FF
:1048D00028E0DEE90001821B61EB070312196B413E
:1048E000CEE9002302F0C8FA18B1BDE8F84002F0A2
:1048F00053BAF8BD18090020200900200F4B104AB8
:104900001A6053F8042C42F0050243F8042C53F8C3
:10491000042C42F0020243F8042C0A4A136843F0C4
:1049200001031360084B00221A60042243F80C2C88
:10493000012243F8082C0F22DA62704714E000E0ED
:1049400047E8010008200D400C000340034BD3E969
:104950000023100A40EA0360704700BF18090020D6
:10496000054B18601C3B1A6842F001021A601A6875
:10497000D207FCD4704700BF2800034010B5064C96
:10498000236823F001032360FFF792FF236843F0BD
:104990000103236010BD00BF10E000E038B500F057
:1049A00021F80A4C0A4D0123A370A860FFF780FF8D
:1049B000A3784BB100F016F8064AA96893685B1A11
:1049C000184400239060A37038BD00BFD4150020A8
:1049D000E0150020A0150020014B1868704700BFAB
:1049E00054090020074B084A196804331B681268F1
:1049F000120442EA0323054A0B43106843EA0060AD
:104A0000704700BF40500D4048500D404C500D4085
:104A100010B50446114B1B68DB07FBD504F01AFEEA
:104A2000FFF7E0FF231A062BD8BFC41D0C4B220E44
:104A30001A60C4F3074243F8042CC4F3072243F876
:104A4000082CE2B243F80C2C04F000FE054B912038
:104A50001C60BDE8104000F0B1B900BF50500D40DF
:104A60004C500D405409002070B500F0EFFFFFF7E7
:104A7000B9FF0E4C01230E4EA3700E4BB060002503
:104A800091201D6000F0B2F9912000F0A3F902F02E
:104A90001FFCA37843B1FFF7A5FF074AB1689368ED
:104AA000A5705B1A1844906070BD00BFD41500203B
:104AB000E015002054090020A01500200023084A1A
:104AC0001068084A9958084205D01A44D26890697B
:104AD00010F0800003D02C33582BF0D10120704708
:104AE00028200D407CA02600F8B50646FFF77AFF87
:104AF0001E4A01231E4993702C2303FB06134FF615
:104B0000BF711C4DDC68A860236C61649BB213F01C
:104B1000500117460CD0A369DB0618D4164B53F886
:104B200026301BB12068C0B29847F4E72368F2E74B
:104B300013F4D06F0BD04FF440732363FF236360F3
:104B4000E36AE162E362236B43F001032363BB7812
:104B500053B1FFF747FF094AA96893685B1A1844E5
:104B6000024B906000229A70F8BD00BFD41500205F
:104B70007CA02600E015002058090020A015002088
:104B80002DE9F04F012885B0064600F2BF802C24A5
:104B90004443604B1D1995F920A005F12007BAF197
:104BA000000F9946C0F2B28095F92230002BC0F276
:104BB000AD80594801F014F8584A59F8043011688A
:104BC000EC680B43136051686B6895F921B00B4397
:104BD00053609168AB6895F822800B439360002383
:104BE000C4F8C83F2B690BEBCA021A6095F8233052
:104BF0005FFA88FC01939DF80430604619462A7DCF
:104C0000CDF80CC0029300F0BDF9029BDDF80CC09A
:104C100019466046082200F0ABF94FFA88F840497F
:104C20004FEA08389DF9042058F80100012303FADF
:104C300002F2024348F801204FEA0A3A5AF801000A
:104C400003FA0BF202434AF801205022A263A26B3E
:104C500095F8240042F4D062A263022262634FF40A
:104C600040722263AA696262EA69A2627022E26209
:104C700042B2002A0C4614DB95F92510294D41EA71
:104C8000C20129607979120315594FB2BB402B43F9
:104C90001351002200F06CF9234A136843F40043D7
:104CA00013602C2303FB069393F8265020336FB236
:104CB000002F1CDB93F807A0EDB25FFA8AF82846B4
:104CC000414601223F0300F05DF94FFA8AFA3A5952
:104CD000012303FA0AF313433B51082228464146B5
:104CE00000F046F9104A136843F4804313602C2304
:104CF00003FB0696F26896F82800136B43F0010355
:104D0000136305B0BDE8F04F00F058B805B0BDE83A
:104D1000F08F00BF7CA02600BD4A260028200D4051
:104D200020940D4004410D4030D0004001289CBF2C
:104D3000014B43F82010704758090020012808D87B
:104D4000044B2C2202FB0030C3689A699206FCD403
:104D5000196070477CA02600014B00221A60704742
:104D600000500D40014B08221A60704700500D4062
:104D7000024BA0221A6050221A60704700500D406A
:104D8000074A084B1A60084B80321A60074B803282
:104D90001A60074B80321A60064B074A1A60704748
:104DA00000E100E06C090020600900206409002097
:104DB0006809002008ED00E000402600044B41098E
:104DC0001A6800F01F000123834042F82130704729
:104DD0006C090020044B41091A6800F01F000123F0
:104DE000834042F82130704760090020044B41099C
:104DF0001A6800F01F000123834042F821307047F9
:104E000068090020024B1868C0F38150704700BF4A
:104E100004200D4008B5FFF7F5FF024B53F82000C2
:104E200008BD00BFD4A02600054A064B1A60064BF9
:104E30001A68064B1340B3F1807FF8D1704700BF6A
:104E40000101020100200D4004200D40000001017D
:104E5000034B04481B6803F007031841704700BF69
:104E600004200D400048E801034B04481B68C3F3CD
:104E700002231841704700BF04200D400048E8019C
:104E8000024B02EBC10243F8220070477009002078
:104E9000F8B507460E46094D002405EB411547FAC3
:104EA00004F3DB07E1B204D555F824300BB13046EA
:104EB00098470134082CF2D1F8BD00BF70090020DA
:104EC0002DE9F74F019000F0C1FDFFF78BFD01992F
:104ED000184E4FEA0139184F0123DFF864A009F199
:104EE0008045B860B37005F55925D5F8188459F890
:104EF0000A404FEAC10B24FA0BF448EA0400C0B29E
:104F0000E4B2FFF7C5FF04FA0BF45FFA88F3C5F8C3
:104F10001C3449F80A40B3784BB1FFF763FD074AE8
:104F2000B96893685B1A184400239060B37003B0AB
:104F3000BDE8F08FD4150020E0150020A01500205A
:104F400018970D4002480021802204F021B800BFCC
:104F500070090020034A044B1A60044B803A1A601F
:104F6000704700BF80400D40F4090020F009002088
:104F7000034B01EBC0011B6843F82120704700BFC1
:104F8000F4090020034B01EBC0011B6843F821200A
:104F9000704700BFF00900200E2870B50BD1164BEA
:104FA000164E1C6844F002051D60356825F03F036D
:104FB00043F001033360124E336823F0FF031A43BA
:104FC0001143014331600F4B1B681B06FBD50E4B91
:104FD0000E4A1B6812680E2803F0FC0343EA022302
:104FE00008BF064A9BB204BF1560034A9BB208BFC4
:104FF000146018B270BD00BF34000144F48608404C
:1050000008700D4000700D400C700D4010700D4088
:10501000024B1868B0FA80F04009704700B70840AA
:1050200070B5FFF7DFFC104E104C0123B060104D3F
:105030008F20A370FFF7DAFE8F20FFF7CBFE2868E2
:1050400018B102F025F900232B60A37853B1FFF7C4
:10505000C9FC084AB16893685B1A1844034B906016
:1050600000229A7070BD00BFE0150020D41500200A
:10507000F8090020A0150020064A136843F0020337
:105080001360536843F002035360936843F00203D4
:105090009360704748200D4007B50C4800F0A0FD14
:1050A000FFF7EAFF0A4B1A6842F002021A60002278
:1050B0000192019A0F2A02DC019A0132F8E71A687C
:1050C00022F002021A6003B05DF804FB11502600C2
:1050D00054200D40064A136823F0020313605368FE
:1050E00023F002035360936823F002039360704738
:1050F00048200D40044B186800F02200A0F1200366
:1051000058425841704700BF4C860840024B18680F
:1051100000F04000704700BF4C86084008B50B4BBC
:1051200093F90020002A09DB094AED211160116082
:10513000E32111601A7862F07F021A70FFF752FCC7
:10514000044BD861044B0120D87108BD0A1400201B
:1051500038880840E0150020D415002038B50546F1
:105160000C46134B1B689B07FBD4124B93F9003082
:10517000002B01DBFFF7D2FF0F4BEE221A60691EF6
:105180001A60A21C43F8102C2144022000F0B6FB48
:10519000013C0A4924012143022000F0C1FB022006
:1051A00000F0C8FB022000F0DDFB002038BD00BF8E
:1051B0004C8608400A1400203888084002C001C00C
:1051C000044B1A6810B142F0010201E022F0010222
:1051D0001A607047008608400B280DD1082A0DD1AF
:1051E00061B1074B013953F8042D01F8012F054A2D
:1051F0009342F8D100207047012070470220704789
:10520000C8850840A88508400B280DD1082A0DD173
:1052100061B1074B083111F8012D43F8042F054AFD
:105220009342F8D100207047012070470220704758
:10523000A4850840C485084070B52B4E336813F030
:10524000400308D0294D2B68DCB21B0605D5284B3E
:10525000ED221A601A60002070BD042CF7D9023CC0
:105260008C42F4DCE4B2032C1BD001190139032079
:1052700000F04CFB631E1F491B010320194300F083
:105280004FFB032000F056FB032000F06BFB0320D4
:1052900000F074FB0028FAD129682D682806D6D5BD
:1052A00006E02B6803702B6843702B688370F3E76C
:1052B000493949B289B2042002F062FC032005F0AA
:1052C0007F0102F05DFC33685A060BD5064B1B6864
:1052D0001B0603D5084801F0DBFF03E0044BED2279
:1052E0001A601A60204670BD4C8608402888084025
:1052F0003888084002C0010C7804002010B5114B1A
:105300001B689B07FBD4104BED221A601A600F4AF2
:1053100012680AB1EF221A600D4A0E4C137803F09E
:105320007F031370E37953B1FFF75CFB0A4A0B4923
:10533000D369C9695B1A18440023D061E371012065
:1053400010BD00BF4C860840388808402C860840B5
:105350000A140020D4150020A0150020E01500201C
:1053600038B5A0F10B04E3B20F2B054613D80B4B55
:105370001B6813F03F0302D0FFF7C0FF012304EBCB
:105380008404074A0B3414600BB1FFF7C7FE054BCA
:10539000E8B21D7000E0FF2040B238BD48860840EA
:1053A0003C8608401209002038B50C46072855D81D
:1053B000DFE800F0040F1B1F26543B4F012903D1E7
:1053C000FFF7ACFE002038BD002949D1FFF796FF5A
:1053D000F8E7A1F10B030F2B42D8C8B2FFF7C0FFCB
:1053E000431C0CBF0320002038BD8CB2E2B21D4B21
:1053F00002E08CB21C4BE2B2240A1A605C60E1E766
:1054000031F003052CD101F00100FFF7D9FE174B55
:1054100014F002001A681BBF284642F0200222F056
:1054200020021A6008BF1A6038BD01F118031F2B53
:1054300016D80D230E49DA0051F83300844204DCFB
:105440008B181A790B4B1A60BCE713F1FF33F1D2BA
:10545000B8E7CCB2084B49341C60B3E7012038BD33
:10546000022038BDC8850840D08508402486084001
:105470001CA12600408608405886084038B50C46D6
:1054800000296ED010286ED8DFE800F0090F1A1C32
:10549000236D3344496D6D6D6D6062646900334BFB
:1054A0001B68003318BF012356E0314B05221B68EF
:1054B00003F07F030B3B93FBF2F30B33DBB24BE0C8
:1054C0002C4B00E02C4B1A68043B1B6843EA022378
:1054D00042E02A4B002008601A68243302F00102DF
:1054E0000A601B6813F0200337D042F002020A6002
:1054F00038BD234B1A680023D2B2224901EBC30006
:105500000079904202D851F8333025E001330E2B58
:10551000F3D11FE01C4B1B685BB2493B1CE01B4BEB
:105520001B68990603D1FFF7F9FD012300E0002372
:10553000174A1268D207FBD5164A1568493DEDB2E5
:105540000BB1FFF7DBFE6DB2256006E00B2303E035
:105550001A2301E06FF017032360002038BD0723F2
:10556000FAE7022038BD012038BD00BF2C86084074
:105570003C860840CC850840D48508400086084019
:10558000408608401CA126005886084048860840EE
:10559000648608406086084010B50B4B1B6899066E
:1055A00003D1FFF7BBFD012300E00023074A126887
:1055B000D207FBD5064A1468C4F300140BB1FFF7F9
:1055C0009DFE204610BD00BF488608406486084006
:1055D0004C8608402DE9F843364B93F90030002BF8
:1055E0000EDBFFF7FFF90446FFF798FDFFF7FAF926
:1055F0006FF009031B1BC342F8D44FF0010801E010
:105600004FF00008FFF7C8FF00284CD02A4E33683F
:1056100013F0200447D1294D294FEB7943B1FFF70F
:10562000E1F9284AF969D369EC715B1A1844D06131
:10563000FFF7D8F9244C0123AB71E923B8614FF08F
:105640000409236033689A0708D409F1FF3919F077
:10565000FF0903D00620FFF783F9F3E733689B07C0
:1056600004D4EE2323602360012404E0306810F0AA
:105670000200FBD10446AB7953B1FFF7B3F9114AED
:10568000B96993695B1A18440C4B906100229A71B6
:10569000FFF7A8F90123F861EB71B8F1000F05D00D
:1056A000FFF72CFE02E00220BDE8F8832046BDE8AB
:1056B000F88300BF0A1400204C860840D41500204F
:1056C000E0150020A015002038880840F8B52E4EBF
:1056D000357815F0010554D12C4B01241C605C6019
:1056E0009C60A3F59323A3F51473F8221A60092292
:1056F000C3F89021152270331A6003F59B230B2207
:1057000003F59E731A60A3F59B23A3F5F073402263
:105710001A601A687F2742F020021A60D52243F8E7
:105720001C5CDF62DA611A4B1878FFF719FE194A20
:105730008D20136843F004031360FFF73FFB164B03
:105740008E201F60FFF73AFB022000F0FFF813499C
:10575000022000F0DBF8032000F0F8F803200F49E6
:1057600000F0CCF829460E4801F07AFD3378234347
:105770003370FFF737F90B4BD8610B4B2046DC71C8
:10578000F8BD0020F8BD00BF0A140020A8200D407D
:10579000120900208C86084094860840288808401A
:1057A00078040020E0150020D415002038B50388C7
:1057B0000446E3B140F2C532934203D00023038094
:1057C000032038BD822915D102F0A0F902F058F962
:1057D0008021FFF731FD002805DD80B202F00EF9CF
:1057E0000C4B1B6998470C4B1A78520604D440F2B4
:1057F000C5332380012038BD00221A70074B1D6875
:10580000FFF77CFDFFF762FFAB06F0D0FFF786FCE9
:10581000EDE700BF34A226000A14002048860840A5
:1058200070B5FFF7DFF80B4E0B4C0123B0600B484F
:10583000A37001F02DFD0A4B00251D60A37843B134
:10584000FFF7D0F8074AB1689368A5705B1A18444F
:10585000906070BDE0150020D41500207804002071
:1058600034880840A015002070B5FFF7BBF8114B35
:1058700001221D46104C9A70104AA0601168002643
:10588000042918BF0E490F481EBF0B7843F0400390
:105890000B70166001F0FCFCAB784BB1FFF7A2F87F
:1058A000094AA16893685B1A1844024B90609E7085
:1058B00070BD00BFD4150020E01500202C880840E2
:1058C0000A14002078040020A015002010B5094C0F
:1058D00000212046402203F05BFB074B01221A60A7
:1058E0002E205C60FFF76AFABDE810402F20FFF71A
:1058F00065BA00BF0000002004F00F4003289EBFDF
:10590000014B0001195070470000002003289EBF82
:10591000024B03EB00104160704700BF0000002005
:1059200003289EBF024B03EB00108160704700BF4D
:105930000000002003289FBF034901230A68834019
:105940009CBF13430B60704728F00F4003289FBF94
:10595000034901230A6883409CBF13430B607047CF
:1059600020F00F4003289FBF034901230A688340AA
:105970009CBF13430B60704714F00F4003289FBF78
:10598000044B03EB0010806800F0070088BF002084
:10599000704700BF00000020024B4FF0FF321A603A
:1059A000704700BF04F50F40014B01221A60704799
:1059B0004CF00F40094B1A6812F4801F1A46F9D1B7
:1059C000043B196821F4803119601168C903FCD4C3
:1059D0001A6842F400321A60704700BF04200D407C
:1059E00070B5164CFEF7FEFF2378154D3BB1154AF6
:1059F000296813685B1A0344136000232370124E56
:105A00006860012302203168637001F09DF930BFA6
:105A1000022001F07DF93060FEF7E4FF63784BB1BE
:105A2000084A0749536849685B1A03445360034BAB
:105A300000225A7001232860237070BDD415002005
:105A4000E0150020A0150020FC09002070B5144BC3
:105A50001A681C4612F0030F21D0124B1A6851012C
:105A6000FBD41A685201FCD50025FEF787FFFFF72B
:105A7000A1FF2560022001F04BF90B4B1860FEF7E7
:105A8000B1FF0A4B0A495A7832B10A4C4E68626833
:105A90005D70921B02446260012208601A7070BD42
:105AA00058200D4004200D40FC090020D415002092
:105AB000E0150020A01500202DE9F0413E4B1C68A8
:105AC00014F03F0413D13D4B53F8243023B19847D1
:105AD00068B10134052CF6D1394D2B783BB1FEF776
:105AE0007BFF0446FEF77EFF201A092803D8BDE895
:105AF000F041FFF775BF002CF9D0324B1A6822F441
:105B000000321A60304A1168C902FBD4196841F4A6
:105B1000803119601368DB03FCD5FEF763FF201AA0
:105B2000092803D8BDE8F041FFF744BF6328274F99
:105B300002D92B78022B00D00123254E3B60254C47
:105B40000220316801F000F9FEF74CFF2378224D66
:105B50003BB1224A296813685B1A0344136000238F
:105B6000237001236860637001F044FBB8B14FF00B
:105B70000008FFF71FFFC7F80080022001F0C8F8F7
:105B80003060FEF72FFF637883B1144A6968536869
:105B90005B1A034453600F4B83F8018006E0FEF765
:105BA0001BFF0028E3D030BFBDE8F081012328604F
:105BB0002370BDE8F08100BF48860840000A00203D
:105BC0000B14002000200D4004200D4058200D40F3
:105BD000FC090020D4150020E0150020A0150020AD
:105BE0000023064A52F82310814206D011B942F828
:105BF000230070470133052BF3D17047000A0020C2
:105C0000054B00221A60054A136843F00403136031
:105C1000034B01221A70704758200D4010ED00E030
:105C20000B14002070B5FEF7DDFE104E104C012362
:105C3000B060104D9020A370FFF7D8F89020FFF7C8
:105C4000C9F8286818B101F023FB00232B60A37862
:105C500053B1FEF7C7FE084AB16893685B1A18444F
:105C6000034B906000229A7070BD00BFE0150020C9
:105C7000D4150020140A0020A015002030B5184BC0
:105C80001A78431E3AB9174A1278122A03D1164AD3
:105C900012784B2A03D001F52011273117E04A086A
:105CA00002F12814B4F1281F04D014F8015D03F8A0
:105CB000015FF7E701F5201127310023934205DA50
:105CC00011F801598418E5540133F7E730BD074A4C
:105CD000914204D011F8012903F8012FF7E730BDF4
:105CE0002B0028002A00280029002800270028006F
:105CF000164A70B515464FF0FF340023B2F906601E
:105D000056B1967A0C32002E08BF1C460133052B83
:105D1000F4D12346013417D00C2404FB03F6AA194E
:105D200090804FF0FF30A851C8880026D080D672EE
:105D3000497A04FB0353090744BF0121D1724FF68E
:105D4000FF711981104670BD002070BD540A0020FB
:105D5000F0B5224D06462F468FB00024B5F9063027
:105D6000A3B101A8B5F9041003F0ECFC9DF80D30C7
:105D700003F03603022B09D130460DF10E0103F07A
:105D80006BF918B90C2000FB047025E00134052CD8
:105D900005F10C05E2D1002004B2214601A803F070
:105DA000D1FC9DF80D5005F03603022B0AD1304688
:105DB0000DF10E0103F050F920B9204601A9FFF7BB
:105DC00097FF09E02046BDF90A102A4603F0EEFCD1
:105DD000B0F5C86FE0DB00200FB0F0BD540A002022
:105DE0001F4B2DE9F04107464FF6FF7498461E8879
:105DF0008EB035B2B5F5C86F0EDA01A8294603F0AA
:105E0000A1FC9DF80D2093071DD423B2013307D1C7
:105E1000EB19B3F5C86F02DB4FF6FF701CE0344698
:105E20002846BDF90A1003F0C1FC23B2DA198242F8
:105E30000646DEDCB8F9002020469A4202BF084B35
:105E40003F191F8008E02846BDF90A1003F0AEFC98
:105E50004FF6FF740646CCE700B20EB0BDE8F08105
:105E6000D20D002070B504468EB00E4601A8214622
:105E7000154603F067FC9DF80D3003F00602022A78
:105E800002D04FF0FF3041E003F0200202F0FF01AA
:105E9000002AF6D176B99DF80D3001A843F004032D
:105EA00021468DF80D3003F079FC194A0023137058
:105EB00055B916E01B07EED5BDF904000A46FFF7F9
:105EC000D1FF0028E7DADCE7124A1A44516829B109
:105ED000B1F90410A14204BF002111720C333C2B14
:105EE000F2D10D4B03F13C01B3F904200C33A24273
:105EF00001BF4FF6FF7223F8082C002203F8022C92
:105F000008BF23F8062C8B42EED100200EB070BDE6
:105F10000C140020180A0020540A00202DE9F04F2C
:105F200095B0019088463AB14046FFF759FF411CB1
:105F3000044640F0D98004E0FFF70AFF0028F3D0C0
:105F4000D0E0794A13780292002B40F0CB809A4639
:105F5000082600230593ADF81830DFF8D4B1734B51
:105F6000BAF1000F03D1ABF800A083F800A01FFA2C
:105F70008AF91D784FEAC907BFB25DB1BBF800507E
:105F80002BB2072B16DD0823ADF81430684B083D03
:105F90001D806BE0BBF8004023B2072B0BDD08230C
:105FA000083CA4B2ADF81630614BA2B2072C1A809F
:105FB0005DD95BE00024BBF800303B449BB219B2D2
:105FC00032B291422ADA07A8039303F0BBFB574889
:105FD000002202709DF82520039B02F00601022991
:105FE00002F0200109D141B901220270BDF822203E
:105FF000134415449BB2ADB2E1E719B101339BB232
:10600000013406E0520706D5BDF8222013449BB2A6
:106010001444A4B2D3E7F31A9BB200E00023A9B260
:10602000A0B20A18083A1A4492B20FFA82FEBEF1E0
:10603000000FABF80020DFF8F4C00BDD9CF800B0D7
:10604000BBF1000F03D0C0F10805ADB202E0C1F111
:106050000804A4B2ADF818309CF80030ADF8145024
:10606000ADF8164013B9BEF1070F00DD0022BDF9EF
:106070001430002B25DCBDF91630002B21DD2D4B13
:10608000B9B2B3F9004008B2844214B2C8BF198053
:10609000002C13DD07A80021322202F079FF222311
:1060A0008DF82530002507F10801294407A809B219
:1060B000013503F073FB2BB2A342F4DB484603F037
:1060C00082FB0AF1010A0836BAF1C80FB6B27FF4B2
:1060D00040AF4046FFF784FE431C044604D1029AB9
:1060E0000123137000201BE00021322207A802F0D8
:1060F0004FFF24B2019927220DF1260003F016F973
:10610000022307A82146ADF822808DF8253003F040
:1061100045FB204607A9FFF7EBFD08B1002303600C
:1061200015B0BDE8F08F00BF0C1400200D14002046
:10613000D00D0020D20D00202DE9F84381460D46F8
:106140000024234E4FF00C0808FB046898F8083030
:106150004BB988F808304846FFF7FAFD0746C8F8FB
:106160000400B0B906E00134052CEAD14FF0FF304D
:10617000BDE8F88305F00303012BF7D0484608215A
:106180000122FFF7CBFEC8F804000028EED007601C
:1061900007E00368013304D1B0F9040003F0D6FA34
:1061A00038600C2303FB0462117A6343294315F022
:1061B0000405117218BF5268204618BF1568F218FE
:1061C0005268F550937A01339372BDE8F88300BFAB
:1061D000180A002004280CD8064B0C2202FB0030C1
:1061E000037A33B14168002202728B7A013B8B72D1
:1061F00042607047180A0020042870B525D80C2486
:106200004443134B1E19357AFDB142B1022A02D123
:106210007268126802E0012A17D11A591144002944
:1062200013DB0C2202FB00325268B2F90640B1EBDC
:10623000042F0ADC14688C4202DAAC0705D5116021
:106240000C2250431950084670BD4FF0FF3070BD0E
:10625000180A00200428F8B50646144621D80C2355
:106260004343114DEA18177ADFB1F80719D557687B
:10627000EA583B68A018984288BF9C1AFB7ADB0753
:106280000DD4B7F904303232084602EB032221461E
:1062900003F012FB0C2070432B5823442B50204654
:1062A000F8BD4FF0FF30F8BD180A00202DE9F04F7F
:1062B0009FB0042800AF8046B960144602D94FF061
:1062C000FF30BFE0614D0C2303FB00531A7A002A14
:1062D000F5D09207F3D55E680C2303FB08F305EBBA
:1062E0000309EB58B6F9061003F132022244B2EB6F
:1062F000012F40F29080B6F904A007F1100051463A
:1063000003F020FA07F11A000121FFF715FF061E1E
:10631000D5DBB7F9161007F11A00490009B20122BE
:10632000FFF7FCFD8346002852D04FF00009BA8ADF
:10633000C7F80CD0002A08BF4FF48072D11D21F09D
:106340000701ADEB010D30466946FFF783FF031EE1
:106350000BDA00210A46BBF90400FFF783FD304643
:10636000FFF738FFD7F80CD0A9E70BD0BBF9042012
:10637000194609EB0222684632327B6003F035FA97
:106380007B689944D7F80CD0002BD0D12F4A02F16A
:106390003C00117A59B15168B1F90410514501BF5F
:1063A000C2F804B09BF80A1001318BF80A100C32C5
:1063B0008242EED1012150460022FFF753FD002812
:1063C000BBF9041008DA084600210A46FFF74AFD27
:1063D0003046FFF7FFFE72E707F1440003F0B2F921
:1063E000BA8A07F14400A7F848207A8ABBF904105A
:1063F000A7F8462003F0D2F99BF80B20CBF80090C9
:1064000022F001028BF80B203046FFF7E3FE0C234D
:1064100003FB08535FE732689342FFF650AFB6F9CB
:106420000420B86803EB02223232214603F0DDF982
:106430002046D9F800302344C9F80030326893422E
:10644000C8BF33607C37BD46BDE8F08F180A002016
:106450000FB407B504AA52F8041B0448019200F0D7
:1064600039F803B05DF804EB04B0704788040020ED
:106470000EB43FB5094B07AA52F8041B01900493D0
:1064800004A801AB0392059300F024F8019B0022BD
:106490001A7006B05DF804EB03B07047ED98260063
:1064A00070B505460C46102C07D92B68686808495A
:1064B0001022984750B9103CF5E734B12B68686852
:1064C0002246BDE8704002491847204670BD00BF13
:1064D00085A426002DE9F04F80468FB006910792E3
:1064E0000026069B1B78002B00F05F83069B1C4652
:1064F00013F8012B1AB9069B9C4203D10FE0252A01
:10650000F5D1F8E7069BD8F80400E51A0699D8F803
:1065100000302A469847002840F02A832E442378EA
:10652000002B00F042836378611C002B00F03D8358
:1065300000240A4611F8013B2B2B11D006D8202B42
:1065400011D0232B12D144F00804F2E72D2B04D0F4
:10655000302B0BD144F01004EBE744F00104E8E7E2
:1065600044F00604E5E744F00204E2E7A3F1310158
:1065700008290DD8134600251A4613F8011BA1F16E
:106580003000092811D80A2202FB0515303DF3E737
:106590002A2B09D1079B01321D68191D002D079177
:1065A000B8BF44F0010400E0002513782E2B1CD165
:1065B0005178531CA1F1300009280ED81946002744
:1065C0000A780B46A2F13000092801F101010FD829
:1065D0000A2303FB0727303FF2E72A2906D1931C41
:1065E000079A111D0791176802E013464FF0FF3715
:1065F0001A786C2A09D15A786C2A02D144F08004A6
:106600000AE0013344F060040BE0682A09D15A78AB
:10661000682A03D144F02004023302E0013344F03D
:1066200040041A78642A3CD01FD8462A48D00DD896
:10663000252A5AD003D8002A00F0B78257E0412A11
:106640004AD0452A53D144F4424450E0582A31D02C
:1066500004D8472A4BD144F4A13448E0612A38D009
:10666000632A44D144F4A06441E06E2A3AD007D8AA
:10667000662A22D027D3672A28D0692A11D036E08B
:10668000732A2CD006D86F2A11D0702A2FD144F447
:1066900040742CE0752A07D0782A28D144F4C854D5
:1066A00025E044F4245422E044F410641FE044F450
:1066B00088541CE044F4B24419E044F4007416E039
:1066C00044F4844413E044F4024410E044F481347C
:1066D0000DE044F4C1340AE044F4E13407E044F44A
:1066E000806404E044F4E06401E044F4C0640133F5
:1066F000069304F4E063B3F5806F00F0AA8116D826
:10670000B3F5807F2BD0B3F5407F7FF4EAAE079BD3
:10671000A04914F4804F03F104029F4818BF0846B3
:106720000DF1330107920F461A680023C5E1B3F556
:10673000C06F08D0B3F5E06F00F03182B3F5A06F01
:106740007FF4CFAE00E2D8F80030D8F804009349C7
:1067500001229847002840F00B820136C1E6002F45
:10676000ACBF24F01004012714F40053039304F089
:10677000E00337D0402B17D008D8DBB1202B2AD12B
:10678000079B1A1D079293F9002017E0602B11D088
:10679000802B20D1079B073323F0070303F1080266
:1067A0000792D3E900230AE0079B1A1D0792B3F969
:1067B000002003E0079B1A1D07921A68D317002ACE
:1067C00073F1000109DA524263EB4303CDE9002380
:1067D0004FF0010933E000220023CDE900234FF000
:1067E00000092CE0402B16D007D8CBB1202B20D1AC
:1067F000079B1A1D07921A78EEE7602B10D0802BAA
:1068000017D1079B073323F0070303F10802079210
:10681000D3E90023E1E7079B1A1D07921A88DBE7FB
:10682000079B00211A1D07921B681846CDE900013D
:10683000D5E700220023CDE900234FF0000904F43E
:10684000C053B3F5805F0CD0B3F5C05F33D0B3F560
:10685000006F4FD1DDE900230DF1360ACDE90423A5
:1068600004E0DDE900230DF1360A15E0DDE904233B
:1068700013433AD0DDE904010A22002301F072FD3E
:10688000DDE9040130320AF8012D00230A2201F06B
:1068900069FDCDE90401E9E752EA030125D002F0E0
:1068A000070130310AF8011DD10841EA4371D808C7
:1068B0000A460346F0E7384B14F4804F0DF1360AD0
:1068C000344908BF1946DDE9002352EA03000CD021
:1068D00002F00F00085C4FEA131E0AF8010D1009C0
:1068E00040EA037002467346EFE70DF1360BCAEB40
:1068F0000B0B03E00DF1360A4FF0000B41F60802D6
:1069000041F208035F4502EA04028CBFCBEB0707A4
:1069100000279A4202D1002F08BF012741F6080143
:106920008A4207EB0B030DD1DDE9000150EA0102B9
:1069300008D01B4914F4804F1A4A4FF0020C18BFBC
:106940000A4602E04FF0000C62460399A1B1B9F18A
:10695000000F0AD104F0060102290AD006291249C3
:1069600004BF4FF0010C0A4606E04FF0010C0F4A3D
:1069700002E00F4A4FF0010C63449D428CBFED1AB8
:10698000002514F0010922D1E30613D52F444D460A
:106990001DE000BF52A4260063A4260083A42600A5
:1069A00077A4260074A426007AA42600F4A5260065
:1069B00047A3260040462946CDF80CC00092FFF7B9
:1069C0006FFD009ADDF80CC0002840F0D180BCF1CA
:1069D000000F0DD01146D8F800306246D8F80400F8
:1069E000CDF800C09847DDF800C0002840F0C08016
:1069F0003C465E44102CD8F800300DD9D8F804007D
:106A00006C491022CDF800C09847002840F0B080B3
:106A1000103CDDF800C0EDE75CB1D8F80400654932
:106A20002246CDF800C09847DDF800C0002840F0AD
:106A30009F80D8F80030D8F8040051465A46664482
:106A40009847002840F094803E44B9F1000F79D077
:106A500073E0079BD3F800A01A1D0792BAF1000F4C
:106A600009D05346994699F800200133002AF9D1FC
:106A7000CAEB090903E0DFF840A14FF00609002F37
:106A800002DBB94528BFB9464D458CBFC9EB0505AA
:106A9000002514F0010405D140462946FFF700FD0A
:106AA000002865D1D8F80030D8F8040051464A468D
:106AB000984700285CD14E443EE052EA030E0ED0C7
:106AC00002F00F0E10F80EE04FEA131C01F801ED72
:106AD0004FEA121E4EEA037E72466346EDE70B460E
:106AE0007F1A01BF3022012701F1FF3301F8012C89
:106AF00003377822BD4203F8012C4FF0300203F82F
:106B0000022C88BFED1B4FF0230298BF002514F024
:106B10000104A3F1030903F8032C04D140462946DC
:106B2000FFF7BEFC20BBD8F80030D8F80400494677
:106B30003A469847E0B93E4424B140462946FFF71B
:106B4000AFFCA8B92E44CCE4079B012D03F104024D
:106B50001B688CBF05F1FF35002514F00104079276
:106B60008DF8203008D140462946FFF799FC10B136
:106B70004FF0FF301AE02E44D8F80030D8F8040067
:106B800008A9012298470028F2D16F1C2CB1404679
:106B90002946FFF785FC0028EAD13E44A1E4079B83
:106BA0001A1D1B6807921E609BE430460FB0BDE8BB
:106BB000F08F00BF42A426007CA42600F8B503880D
:106BC000064615462BB14A2B15D00023038003201F
:106BD000F8BD174802F0CDFE04462CB1201DA16877
:106BE00002F099FE2468F8E7124B01221A704A233A
:106BF00033800120F8BD8829FBD10D4802F0B9FE91
:106C00000446002CF3D0231D9D420ED10848214696
:106C100002F0B9FE084B62691F681A60A2691D463E
:106C20000AB1E06990472F60E1E72468E9E700BF17
:106C3000900A00200E140020A80A002010B5064B70
:106C4000002406481C7002F091FE2146BDE8104069
:106C5000034800F005BB00BF0E140020900A00207E
:106C60009004002070B50446E3610B4B049D1B7833
:106C70006561A26143B1094D094B2E68201D2B604F
:106C800002F049FE2E6000E0A1602146BDE87040A0
:106C9000044802F08CBE00BF0E140020A80A002099
:106CA00090040020900A002013B5034C246800943F
:106CB000FFF7D8FF02B010BDA80A002010B5084B9E
:106CC00004461B781BB1043000F0DEF801E0C3601D
:106CD00003612146BDE81040024802F054BE00BFE7
:106CE0000E140020900A002000230649002241F8DB
:106CF0002320054941F8232004495A5401330C2B21
:106D0000F3D17047E0150020A0150020D415002015
:106D100038B50A4B04461B5C094D63B1FDF762FEB2
:106D2000084A55F8243052F8241042F824005B1A1F
:106D3000034445F8243055F8240038BDD41500200C
:106D4000A0150020E0150020014B43F820107047EB
:106D5000A015002010B50E4C236813B90D4A13601E
:106D600010BDFDF7F3FD216891E80C001A44131AD9
:106D70008A6842B192E812002144091A8B4228BF66
:106D80000B469268F5E71844024B186010BD00BF2F
:106D9000940A0020980A0020014800F079BA00BF48
:106DA000A0040020F8B5038805462BB1582B09D064
:106DB000002303800320F8BD1E4A136058232B8054
:106DC0000120F8BD872920D08229F7D1194F00264C
:106DD0003C68002CF2D0204602F0BAFD90B1E06889
:106DE0008821224600F010FA50B9E060A3680EB185
:106DF000B36000E03B600023A360FFF7ABFFE5E773
:106E0000FFF7CAFF2646A468E3E70A490B680BB9F7
:106E10000B60D3E7D868904201D19B68F7E70B601D
:106E200099680029CAD0C86890420ABF89680B4691
:106E30009960F5E7940A002010B50446FFF7ACFF0F
:106E4000E3680B4A4BB113683BB1A34203D1094A33
:106E50001268DA6007E09B68F6E7064B1B68E360A0
:106E600013681460A360BDE81040FFF773BF00BF54
:106E7000940A0020A80A0020024B1868003018BFAE
:106E800001207047940A002010B50B4A044613688D
:106E9000984206D18368136008E09A68A24203D042
:106EA0001346002BF9D103E0A2689A60FFF752FF66
:106EB0000023A360E36010BD940A0020384B30B576
:106EC00000241C60374BB7B01C60374B01251C6099
:106ED000364B21461C60364B22461C60354B3648EB
:106EE0001C60364B1C60364B1C60364B1C60364BAE
:106EF0001C60364B1C60364B1C60364B1C60364B9E
:106F00001C60364B1C60364B1C60364B1C60364B8D
:106F10001C6002238DE82800029423460394FFF7A7
:106F200097FA324A21463248FFF792FA1E21314839
:106F3000FFF78EFA29463048FFF7FEF82F4D2860FC
:106F40002F4802F0B8FB2B68A34201DA2D4815E068
:106F50002D4802F0B0FB214600222868FFF74CF9CB
:106F6000286804A9C822FFF775F9002804F1C804AD
:106F700011DC224B1868FFF72DF9244802F09BFB27
:106F8000234802F098FB06211B48FFF7D5F8214B58
:106F9000186037B030BD04A91F48FFF759FADAE787
:106FA00044150020841500207415002030150020A1
:106FB0008015002040150020B0A426008C1500206C
:106FC000501500204C1500209C1500206015002055
:106FD0003C15002034150020681500206C15002099
:106FE00090150020481500209415002000CA9A3BF7
:106FF00039A526006EA526007AA526009C0A002049
:1070000086A5260098A52600B1A52600F6A526008F
:107010003CA626001016002039A6260038B5836845
:1070200004460D469BB10A4804600220A07304F197
:107030000C0098470238012801D9832D05D120463C
:107040002146BDE8384000F005B80123A37338BDE0
:10705000A80A00202DE9F8431C4A04461568894611
:107060002B4690461A4E3768A34204D00BB11B68DA
:10707000FAE7BDE8F88334B3A37BABB10023A37375
:1070800045B1AC4204D028468721224602F051FC8B
:107090002D68F5E7A3683BB14C4505D0346004F199
:1070A0000C0083212A469847D8F800309C4203D12F
:1070B0002268064B05E0134623B11A68A242FAD1B2
:1070C00022681A603760BDE8F88300BFAC0A002070
:1070D000A80A002010B5094B00221A70084B1C6842
:1070E0005CB1E37B3BB101230022A373E273204632
:1070F0008221FFF793FF2468F2E710BD12140020ED
:10710000AC0A0020024B1878421C1A70704700BF6E
:1071100014140020064B8A221A70064A00231370AA
:10712000054A1370054A1360054A1360704700BF93
:10713000141400200F14002011140020AC0A0020A9
:10714000A80A00202DE9F041214E33780BB1FFF75A
:10715000C1FF204D2C78002C34D0DFF88CE00C22BD
:107160009EF800301C495A4388181C4F895CDFF890
:107170007C804268DFF878C08068013303F01F0329
:10718000013C3970C8F80020CCF800008EF80030BF
:107190002C7088B9124C134B1B68236023688BB189
:1071A00033780BB1FFF796FF20683978D8F80020C4
:1071B00002F0BFFB2368EFE7812904BF012383733B
:1071C00002F0B7FB337828781844BDE8F08100BF9F
:1071D0001214002011140020B40A002013140020FF
:1071E000A00A0020AC0A00200F140020B00A0020E2
:1071F000A40A0020024A034B10781B7818447047F9
:107200001114002012140020F0B50C4E3478202CFC
:1072100011D00B4B0B4D1B780B4F234403F01F0376
:107220002B700C256B430134FD18A860F9546A607B
:1072300034700020F0BD0120F0BD00BF111400200B
:107240000F14002010140020B40A002038B5034C9D
:10725000256802F06EFB256038BD00BFA80A00203B
:1072600010B50A4609490C68234683420DD00BB17C
:107270001B68FAE748B104600860012181738381CB
:107280008121BDE81040FFF7E1BF10BDAC0A00202E
:1072900038B1837B013B012B9FBF024A0123C3739B
:1072A000137070471214002006480023064A07494D
:1072B00052F8232051F8231001330C2B01FB12004C
:1072C000F4D1704700CA9A3BACA12600A01500205B
:1072D00010B5084C206858B10023236081684368CA
:1072E0009847236823B1BDE810401868FDF790BBAC
:1072F00010BD00BF340C002038B505880446672D4A
:1073000009D0792D2ED0002D32D1FFF7FBFE1B4B7B
:1073100018701B4B1D601B4802F094FB431C01D1ED
:1073200067231DE00A28164B07D01A687E2AF2DC74
:10733000511C1960144B9854EDE7196800254A1C3C
:107340001A60114A0D4B555428461978FFF75CFF17
:107350000E4B852118682A46FFF756FF20B979237E
:10736000238009E0852907D1054B00221A60D2E766
:1073700000230380032038BD012038BD5B160020A8
:10738000400C0020380C002096140020A80A002091
:107390000D2810B5014615D00B4C23782BB90B489E
:1073A00002F03CFB48B9012306E00A2805D1074852
:1073B00002F034FB08B1002323700548FFF768FF93
:1073C000012010BD002010BD95140020380C0020B5
:1073D000B004002008B505480549802202F017FBDB
:1073E000BDE8084003480021FFF73ABF380C0020F1
:1073F00015140020B0040020054A136843F004036C
:107400001360044B1B68906943EA002080B2704708
:1074100000700D4014700D40174A136823F00C03E0
:107420001360164B01221A601A68012AFCD1144B12
:1074300008221A60E322C3F8142203F505731946E3
:10744000104B1B68DB07FBD5102000230E4A0138C8
:10745000126802F0010243EA02034FEA43039BB2BF
:10746000F4D1002BF0D0094A180A03F0FE03106093
:107470001360EF230B60704700700D40A8200D4093
:1074800024860840648608409C86084014700D409D
:1074900070B505880446772D30D07E2D3FD0002D65
:1074A0004DD1FFF72FFE294B1870294B1D601D464B
:1074B0002B68284A264E52F823204AB1264800213C
:1074C000C154936880209847336801333360EFE7F5
:1074D000224A1370772320E01F4AD256002A12DB7B
:1074E0001B4A136801331360194B1C4A1B6812783E
:1074F0009342F1DB1A4B1B68002BEBD0184A002398
:107500001360134AEFE7114A00201178114A52F82C
:107510002320FFF779FE30B97E23238013E00B4B45
:107520001B788B420FD10A4B0B491A688B5C03F016
:107530007F038B540A4A136801331360D0E700239A
:107540000380032070BD012070BD00BF5C160020C9
:10755000480C002068040020571600201615002053
:10756000440C0020094B1A780023934204DA08499E
:1075700051F82310814207D106490748CA5C62F0DE
:107580007F02CA54FFF784BE0133EEE716150020D0
:107590006804002057160020C004002070B505467E
:1075A0000C46164600F064F92E612046BDE8704096
:1075B000014902F0B2BB00BF96A62600014802F0C6
:1075C000D5B900BF4C0C0020014B1860704700BFBC
:1075D000500C0020014802F0CCB900BF4C0C002038
:1075E0002DE9F04106460B480C46174602F0C1F95A
:1075F00070B18388A34208D185684DB131462246D7
:107600003B46AC46BDE8F041604702F0DFF9EFE7EA
:10761000BDE8F0814C0C002010B50B4C0B4A616E9C
:1076200004F138000023FFF73FFBFFF7E5FE636E30
:10763000074AB0FBF3F101FB130104F1180000232A
:10764000BDE81040FFF730BB540C002055762600F3
:107650006D762600044B5A6E196E52008A4294BF12
:107660005A665966FFF7D8BF540C002010B500F0D9
:107670004DFA00F005FA002303800446FFF7AAFF45
:1076800068B1037B5BB12388818804EB830251805E
:10769000C18801339180238002F098F9F0E72088B7
:1076A0008000023080B200F0A9F9238823B1BDE840
:1076B0001040024800F08AB810BD00BF540C0020F2
:1076C0009DF80030012B04D1024B9A6D5A66FFF7EA
:1076D000A3BF7047540C0020F8B586460F461646E7
:1076E0001D46074C71462046064A00F05DF8A76526
:1076F000E66525660448BDE8F840FFF765BF00BFB2
:10770000540C0020E4A12600C17626002DE9F043A8
:10771000134B85B006461A200D46144693F8009088
:1077200093F8018000F046FA07781A2000F042FA38
:10773000437849468DE8280002943B460948424672
:10774000FEF786FE73695B6833B1304629462246F0
:1077500005B0BDE8F043184705B0BDE8F08300BFB1
:10776000181600209CA626001FB504461A2000F01B
:1077700021FA014603A802F0F0FA094B9DF80D002A
:1077800019785A789DF80C3000900648FEF760FE94
:1077900063691B6813B1204603A9984704B010BD64
:1077A00018160020C6A6260070B505460C461646DB
:1077B000044AFFF7F3FE6E612046BDE870400249BF
:1077C00002F0ABBAECA1260098A6260038B5054613
:1077D000074C084821786278FEF73AFE21461A20C5
:1077E00000F0DCF92846BDE8384002F03DB900BFA2
:1077F00018160020E4A6260010B54378047843EA62
:107800000420054B88409B5CC2F1080203EA20205B
:107810001041C0B210BD00BFFBA62600054B10B53D
:107820001B689847044618B10120A18800F0A8F908
:10783000204610BDF4A1260038B5064B05465B680E
:1078400098470446A988012000F09AF9201C18BF27
:10785000012038BDF4A12600014B9B68184700BFEA
:10786000F4A12600014802F081B800BFC00C00203E
:10787000034681800148194602F099B8C00C0020E7
:107880000146014802F07FB8C00C002010B5044644
:10789000054802F06EF828B18388A34202D002F0B6
:1078A00095F8F8E710BD00BFC00C00200129F8B51D
:1078B00007460C46154604D0022904D041B91048A9
:1078C00002E0104800E010482946FEF7C1FD02E042
:1078D0000E48FEF7BDFD0E4802F04BF8064638B1E3
:1078E000B3680BB120469847304602F06FF8F5E7D1
:1078F000384621462A46BDE8F84002F0BCB800BF31
:107900003AA7260004A7260021A7260052A7260092
:10791000C40C002038B5FFF781FF0546094802F086
:1079200028F8044630B1636803B19847204602F056
:107930004DF8F6E725B12846BDE8384002F096B884
:1079400038BD00BFC40C002010B50446FFF774FF1B
:1079500038B100F06FF8034B034821469B68984705
:10796000012010BD60A22600AD782600074A084914
:1079700013681844884283BF064B0C224FF0FF3037
:1079800010608CBF1A601846704700BFD0040020FA
:107990000080002014160020084B10B51B68984783
:1079A000074B5B689847074B5B689847064B5B68DB
:1079B0009847BDE81040054B5B681847E4A02600D7
:1079C00034A2260060A2260018A2260000A22600EB
:1079D00010B508490B888342A1BF074C80B22288AA
:1079E0001218A1BF181A088022800120B8BF0020F9
:1079F00010BD00BFD40D0020D60D0020014B188013
:107A0000704700BFD40D002000487047C80C00200C
:107A1000014B1888704700BFD40D0020034A044B67
:107A200010781B781844C0B2704700BF17150020AB
:107A3000D60D00202DE9F0410D4B1A881D46A2B14C
:107A40000C4B00261F880C4B93F8008034B2BC42CC
:107A500006F1010607DAFFF7E1FF084B1C44235C3F
:107A600004F80830F2E700232B80BDE8F08100BF66
:107A7000D60D0020D40D002017150020C80C0020C2
:107A800008B5FFF7CBFF014B184408BDC80C002018
:107A900008B5FFF7C3FF024B1B88184480B208BD2E
:107AA000D40D002010B50446FFF7F2FF2318802BF9
:107AB0000FDC013880B202B2002A04DB064B995C6D
:107AC00023449954F5E7054B187820441870012099
:107AD00010BD002010BD00BFC80C002017150020ED
:107AE00010B507480021342201F052FA002405485D
:107AF00005492044023402F030F9082CF7D110BDBA
:107B0000221600201A16002084A22600044A002310
:107B10001380044A1380044A1370FFF7E1BF00BFCB
:107B2000D60D0020D40D00201715002038B50C46C6
:107B30000546FFF7EBFF802C28BF8024294622460C
:107B4000034801F0AFF9034B20461C8038BD00BF4D
:107B5000C80C0020D40D002010B5074B00F13402F2
:107B600050F8044B904243F8044BF9D10B68034A98
:107B700013604B68536010BD221600201A160020B7
:107B8000024B23F810100120704700BF221600207E
:107B9000014B33F8100070472216002008B5044B43
:107BA0001A3803EB400002F0D8F8012008BD00BFEE
:107BB0001A160020024B1A3803EB4000704700BF32
:107BC0001A1600200148024902F0CAB81C1600200B
:107BD00084A2260008B5044801F0FBFEBDE8084079
:107BE000024801F0F6BE00BFE0040020D4040020EB
:107BF00010B504460948214601F0FBFE68B124682F
:107C0000B4F880102046FFF791FF04F1820004F1E0
:107C1000B601BDE81040FFF79FBF10BDD40400209F
:107C2000014B1888704700BF100900202DE9F04172
:107C3000012986B006460F46144640F3AA80037811
:107C400003F007028DF80C20C3F3C0028DF80D205D
:107C5000C3F300128DF80E20C3F34012C3F3801358
:107C60008DF8103043788DF80F20C3F340028DF863
:107C70001220C3F3810203F001058DF81320C3F332
:107C800001129B098DF815308DF814208DF81150D4
:107C900003AB03CB1B882061616123830DB1B51C4D
:107CA00002E0B378F51CA37603A801A902AA02F0AA
:107CB0005FF89DF81380B8F1000F23D0029B23B129
:107CC0006A7815F8023B03EB0223B8F1020FA38395
:107CD00009D12046314902F040F86B78237015F83D
:107CE000023B637014E0B8F1030F11D105F10802F3
:107CF0001346611E13F8010DAB4201F8010FF9D1D3
:107D0000154605E02046254902F027F8A4F81C8016
:107D10009DF81580B8F1000F2BD0019B53B16A7804
:107D200015F8023B03EB0223029A9BB2E3831AB9D4
:107D3000A38301E0A38BE383B8F1020F0AD104F11E
:107D40000800164902F009F86B78237215F8023B17
:107D5000637215E0B8F1030F12D108352A46E31D0E
:107D600004F10F0112F8010D03F8010F8B42F9D154
:107D700006E004F10800094901F0EFFFA4F81E80B5
:107D8000AE1BBB1BE363A563BE42D4BF30460020DD
:107D900000E0002006B0BDE8F08100BF84A226000C
:107DA00030B591B00546FFF73BFF4FF6FF739842A1
:107DB00002D14FF0FF307EE040226846002101F002
:107DC000E7F83E4B1A782AB901221A70FFF714FB24
:107DD0003B4B18701420FFF7DBFE8DF810001320CA
:107DE000FFF7D6FE8DF81200FFF7ECFE18B1002366
:107DF0008DF8133004E00B20FFF7CAFE8DF8130056
:107E0000002301248DF814308DF815308DF81840BA
:107E1000ADB10A20FFF7BCFE28B10A20FFF7B8FE7B
:107E20008DF81A000BE0264B1A7802B91C701978ED
:107E30000A204A1C1A708DF81A10FFF7A1FE0224BE
:107E40008DF81940FFF7ECFEADF81C00FFF7BAFE05
:107E500038B1FF238DF817408DF800308DF80130D0
:107E600008E01B20FFF7A6FE0146684601F075FFFB
:107E70008DF81740FFF7D4FEADF81E001A20FFF76B
:107E800099FE014602A801F068FFFFF7F9FD0E9088
:107E9000FFF7BEFD0F90684601F0E1FF04464DB1CB
:107EA000FFF700FE002884D0FFF7AEFD01466846CC
:107EB00001F0EEFF204611B030BD00BF29150020B3
:107EC0002815002038B500240A4D1A2005EB84053A
:107ED000FFF770FE294601F043FF38B10A20FFF793
:107EE00057FEAB781B1A5842584138BD0134102C4C
:107EF000EAD138BDC813002038B50025104C1A202F
:107F0000FFF758FE04EB850101F02AFF6B1C10B946
:107F1000102B1D46F2D1013B2BB1013B04EB830238
:107F200011685160F8E70A20FFF732FEA0701A20AE
:107F3000FFF740FEBDE838400146014801F00DBFA3
:107F4000C8130020014B9B68184700BF34A22600CD
:107F5000014BDB68184700BF60A22600014B5B693C
:107F6000184700BF34A22600014B9B69184700BF89
:107F700034A22600014B1B6A184700BFE4A026006C
:107F80002DE9F043054685B00E461A203F49FFF71C
:107F900005FE01210B20FFF7F3FD3D4B5B68984781
:107FA000002868DBFFF730FD3A4C90F802806768E4
:107FB000FFF72AFD8146FFF76BFD01464846B847AB
:107FC000FFF700FED4F818900746C84700284FD1A5
:107FD0005FB1A3680193FFF75BFD019B984748B130
:107FE00002280CBF0122042243E0E36998470028DD
:107FF0003ED1EEE717B1002201243EE0FCF7F2FC8F
:108000000746FCF7B5FEFCF7EDFC6FF00C03DB1B3D
:10801000C342F8D4C84728B1FCF7E4FC0746FCF794
:10802000A7FE09E0E36998470028F5D1194B5B6981
:1080300098470028F0D019E0FCF7D4FC6FF0140347
:10804000DB1BC342F8D4E369984778B1114B03A80E
:1080500003211B69984703280AD19DF80E20B2EB33
:10806000080218BF0122002AC5D002E0022200E067
:108070000122002401E00522FBE7284631460123C6
:1080800001F0CEFF204605B0BDE8F08318160020B1
:1080900054A22600E4A0260082B0044B08B11B6A5B
:1080A00000E05B6A019302B0184700BFE4A026001D
:1080B00007B5FFF7ADFC032807D11B20FFF77AFDBA
:1080C0000E4901F04DFE30B108E00D4B9B6898471A
:1080D00000280FDBF1E7FFF775FD58B1FFF7F2FE5F
:1080E00040B9FFF709FF074BDB68019303B05DF868
:1080F00004EB184703B05DF804FB00BF181600201E
:1081000054A2260018A2260008B5024B1B68984707
:10811000023008BD0CA2260038B50C4B9B6898476E
:10812000041E02DA4FF0FF3038BDFFF7A9FC0378D8
:108130000546002BF6D10220FFF74AFC0028F1D0BB
:108140006878FFF75BFCA01C38BD00BF0CA22600BE
:1081500070B50220FFF7A6FC10B94FF0FF3070BDDC
:10816000FFF752FC002505700446FFF751FC6070D4
:10817000FFF78EFC0446FFF7C7FF20442A2812DCD5
:10818000C0F12B00C4B2FFF77BFC0646FFF740FCB2
:1081900029462246304400F0FBFEFFF739FC20441C
:1081A00080B2FFF72BFC044B5B689847041ED4DBBE
:1081B000FFF740FCA01C70BD0CA22600014B9B6881
:1081C000184700BF00A2260070B505460C461420D3
:1081D0000121FFF7D5FC034B28462146BDE870403E
:1081E0009B68184718A226008329F7B506460D4656
:1081F000174602D1374801F066FC34886F2C1AD03C
:10820000822C33D0002C5DD1334B01219B6881201F
:108210009847324B8121324A2E481C60FFF7C4FA3E
:108220002020FCF7E3F90820FCF7E0F91020FCF728
:10823000DDF96F2318E02B4B1B78AB4246D1264B60
:108240009F4243D12020FCF7D9F90820FCF7D6F94A
:108250001020FCF7D3F9244A244813680C21013379
:10826000136001F058FB822333802FE01F4801F098
:108270005BFB58B3142000F04DFB1B4C1C4D1D49FB
:1082800022682860FEF7F4F814212868FFF74EFCF6
:1082900000238DF8043001A8012317498DF805301B
:1082A00001F05EFD30B90B48FFF790FA13482168E2
:1082B000FEF7CEF8286800F035FB42F21073226812
:1082C0009A42C8D100233380032000E0012003B08C
:1082D000F0BD00BF680D00206CA02600800D0020BE
:1082E00070A226005C160020840D00208C0D00205A
:1082F000880D00208BA726001816002095A72600C1
:1083000008B50B4615485A780978FEF7A1F8FFF72B
:10831000B7FB01F0D0F912490B685A1C032392FBFA
:10832000F3F303EB4303D31A012B0A6007D0022BAC
:108330000AD08BB90820FCF761F9202008E0202042
:10834000FCF75CF9102003E01020FCF757F9082037
:10835000BDE80840FCF74AB908BD00BFA1A7260048
:10836000800D002053B94AB9002908BF00281CBF5E
:108370004FF0FF314FF0FF3000F03CB882B0EC46D8
:108380002DE9005000F01EF8DDF804E002B00CBC4E
:10839000704700BF2DE9F041069C904606460F4607
:1083A0001D4600F029F808FB01FCA8FB002300FB98
:1083B00005C5B21A2B4467EB03038646C4E90023C4
:1083C000BDE8F0812DE9F843089E174680468946AE
:1083D0001D4600F067F900FB05F3A0FB074507FB0E
:1083E0000137B8EB04043D4469EB0505C6E90045D7
:1083F000BDE8F883704700BF00292DE9F043C0F2C3
:10840000A8800026002BC0F29E8081468E469046B2
:108410009C46174604460D46002B3DD18A4259D949
:10842000B2FA82F33BB1C3F120029D4020FA02F27E
:108430009F4015439C40390CB5FBF1F01FFA87FEB5
:1084400001FB10550EFB00F3220C42EA0545AB423E
:1084500009D9ED1900F1FF3280F00B81AB4240F2F7
:10846000088102383D44ED1AB5FBF1F301FB1355C9
:108470000EFB03FEA4B244EA0545AE4508D9ED194A
:1084800003F1FF3280F0F780AE4540F2F480023B0A
:1084900043EA0043002203E08B420FD90022134637
:1084A000341C18BF012460424FF0000565EB450104
:1084B0005840514000196941BDE8F083B3FA83F296
:1084C000002A40F089808B4202D3804500F2E2808E
:1084D0000123E5E712B90123B3FBF2F7B7FA87F8F6
:1084E000B8F1000F3BD1ED1B4FEA174C1FFA87FE86
:1084F0000122B5FBFCF00CFB10550EFB00F3210C28
:1085000041EA0545AB4207D9ED1900F1FF3102D22E
:10851000AB4200F2C3800846ED1AB5FBFCF30CFB3E
:1085200013550EFB03FEA4B244EA0545AE4507D938
:10853000ED1903F1FF3102D2AE4500F2AD800B46DA
:1085400043EA0043ACE752426FEA060663EB43039B
:108550005BE7404261EB41014FF0FF3652E707FA1B
:1085600008F7C8F1200225FA02F34FEA174CB3FBD3
:10857000FCF11FFA87FE0CFB113324FA02F205FA14
:1085800008F50EFB01F92A43100C40EA0343994514
:1085900004FA08F407D9DB1901F1FF3078D29945C4
:1085A00076D902393B44C9EB0303B3FBFCF00CFB67
:1085B00010330EFB00F592B242EA03439D4207D905
:1085C000DB1900F1FF325FD29D425DD902383B4496
:1085D0005D1B40EA01428CE7C2F1200328FA03F157
:1085E0000CFA02FC41EA0C0C4FEA1C402EFA03F193
:1085F000B1FBF0F51FFA8CF700FB151129FA03F314
:108600000EFA02FE07FB05F943EA0E0E4FEA1E437F
:1086100043EA0141894508FA02F808D911EB0C0137
:1086200005F1FF3332D2894530D9023D6144C9EBAF
:108630000101B1FBF0F300FB131107FB03F71FFA75
:108640008EFE4EEA014E774508D91EEB0C0E03F163
:10865000FF3117D2774515D9023BE64443EA05437B
:10866000A3FB0889C7EB0E0ECE4509D305D0002227
:1086700016E71046F7E613460AE794404445F6D25B
:10868000013BF4E70B46E9E71046A1E71D46CEE7BC
:10869000014688E7134603E7023B51E702383D44B1
:1086A0003AE700BF2DE9F043002B44D18A4215463A
:1086B00004464FD9B2FA82F70E464FB1C7F12003F4
:1086C000B94020FA03F602FA07F50E4300FA07F460
:1086D0002F0CB6FBF7F01FFA85FE07FB10620EFBAE
:1086E00000F1260C46EA0243994209D95B1900F1D0
:1086F000FF3280F0EE80994240F2EB8002382B444A
:10870000591AB1FBF7F307FB13110EFB03FEA4B2DA
:1087100044EA01418E4508D9491903F1FF3280F03E
:10872000DA808E4540F2D780023B43EA00400026C3
:108730003146BDE8F0838B4247D8B3FA83F6002E6A
:1087400048D18B4202D3824200F2CF8001203146D1
:10875000BDE8F08312B90125B5FBF2F5B5FA85FC49
:10876000BCF1000F78D1491B2F0C1FFA85FE0126A2
:10877000B1FBF7F007FB10110EFB00F2230C43EAEC
:1087800001418A4207D9491900F1FF3302D28A42D6
:1087900000F2BC801846891AB1FBF7F307FB1311EE
:1087A0000EFB03FEA4B244EA0142964508D95219D1
:1087B00003F1FF3180F09180964540F28E80023BBC
:1087C00043EA00403146BDE8F0830026304631469A
:1087D000BDE8F083C6F1200422FA04F5B3402B4330
:1087E00021FA04F74FEA1348B7FBF8FC1FFA83F9A4
:1087F00008FB1C7720FA04FE01FA06F509FB0CF4CD
:108800004EEA05054FEA154E4EEA0747BC4202FA0A
:1088100006F204D9FF180CF1FF3168D38C463F1BD8
:10882000B7FBF8F408FB147709FB04F9ADB245EA8D
:108830000741894504D9C91804F1FF355DD32C4699
:1088400044EA0C44A4FB0223C9EB0101994249D339
:1088500045D0204600266BE7CCF1200405FA0CF544
:1088600021FA04F32A0CB3FBF2F61FFA85FE02FB91
:10887000163820FA04F701FA0CF10EFB06F90F4343
:108880003C0C44EA0843994500FA0CF407D95B19FB
:1088900006F1FF3138D2994536D9023E2B44C9EB57
:1088A0000303B3FBF2F002FB10330EFB00F1BFB287
:1088B00047EA0343994207D95B1900F1FF3721D2F8
:1088C00099421FD902382B441746591A40EA0646E6
:1088D0004EE7104614E7134627E70B4670E7B04013
:1088E0009042B6D2601E002622E7304620E7BC4206
:1088F00094D9ACF1020C1F4491E789459FD9023C01
:1089000019449DE73846DFE70E46C8E70238294498
:1089100041E700BF024B0146186800F00BB800BFEA
:108920000C090020024B0146186800F081BD00BF11
:108930000C0900202DE9F04F01F10B05162D83B035
:10894000064627D935F0070500F1B680A94200F2A6
:10895000B38000F06BFBB5F5FC7F22D2BC4FE8087A
:1089600007EBC003DC689C4200F0BC816368E168EF
:1089700023F0030323445A68A56842F00102E9602A
:1089800030468D605A6000F053FB0834204603B037
:10899000BDE8F08F102900F28F8000F047FB102512
:1089A000DCE7680A00F08F80042800F24781A809FC
:1089B00038304100A64F07EB8101CC68A14206D1B7
:1089C0000CE0002A80F28280E468A14206D063684D
:1089D00023F003035A1B0F2AF3DD013801309C49B1
:1089E0003C6901F1080E744500F07181636823F061
:1089F00003035A1B0F2A00F35781002AC1F814E021
:108A0000C1F810E066DAB3F5007F80F02D81DB0855
:108A100001EBC3084FEAA30C4A68012303FA0CF3E5
:108A2000D8F808C01343C4F808C0C4F80C804B60E1
:108A3000C8F80840CCF80C408210012494409C42B5
:108A400055D8234206D120F003006400234200F1F0
:108A50000400FAD007EBC008C4468146DCF80C30AD
:108A60009C4507D135E1002980F24581DB689C45B2
:108A700000F02F815A6822F00302511B0F29F2DD0A
:108A80001C46DA6854F808CF45F0010941F00108A6
:108A90001D44C3F804903046CCF80C20C2F808C03E
:108AA0007D613D61C5F80CE0C5F808E0C5F80480BB
:108AB000695000F0BDFA69E7002420460C233360BA
:108AC00003B0BDE8F08F7E213F2073E723445A684E
:108AD000E16851E723445A68304642F001025A6087
:108AE000083400F0A5FA204603B0BDE8F08FBC685A
:108AF000636823F00308454504D8C5EB08030F2B32
:108B000000F38C80534BDFF85CA11A68DAF8003070
:108B10002A44013304EB080B00F0518102F5805226
:108B20000F3222F47F6222F00F021146304601928A
:108B300000F080FAB0F1FF3F8146019A00F04881D1
:108B4000834500F2EF80444BCB451968114419600E
:108B500000F04381DAF80000DFF808E101301BBFC4
:108B6000CBEB090B5944CEF80090196019F00701BE
:108B700000F00881C1F10800C1F58051814408313D
:108B80004A44C2F30B02C2EB010A5146304601933C
:108B900000F050FA431C019B00F02D81C9EB00024C
:108BA000524442F001021968BC425144C7F808908F
:108BB0001960C9F80420DFF8A0A016D0B8F10F0F93
:108BC00040F2EF806268A8F10C0323F0070302F083
:108BD0000102E0184FF0050E1A430F2B6260C0F837
:108BE00004E0C0F808E000F20A811C4BBC681A6877
:108BF000914288BF19601A4B1A689142626888BF17
:108C0000196022F003029542A2EB050301D80F2B55
:108C100004DC304600F00CFA0024B7E645F001020F
:108C200043F00103254462603046BD6008346B6048
:108C300000F0FEF9204603B0BDE8F08F142869D992
:108C4000542800F29880280B6E304100B2E600BF35
:108C5000FC040020A40D0020A80D0020A00D002081
:108C60009C0D0020080900205A0A042A55D9142A0C
:108C700000F2A7805B324FEA420C07EB8C0CDCF869
:108C80000810DFF8B88161457FD04A6822F00302FE
:108C9000934202D289688C45F7D1CA687B68E2604A
:108CA000A1609460CC60C7E645F0010742F0010383
:108CB0002544676030464D610D61C5F80CE0C5F88C
:108CC00008E06B60AA50083400F0B2F95EE64B6829
:108CD000B2E609F1010919F0030F0CF1080C7FF459
:108CE000BDAE2CE004F108036469A34208BF023062
:108CF0003FF475AE3AE61C461A445168DB6854F8F6
:108D0000085F41F0010151603046EB609D6000F06A
:108D10008FF93BE65B3041004CE69A0938324FEA66
:108D2000420CAAE7BC42454B3FF40DAF9C68626819
:108D300022F0030267E7D8F8008098457CD110F054
:108D4000030FA8F1080300F1FF30F4D17B6823EA98
:108D500004037B6064009C423FF6C9AE002C3FF4E4
:108D6000C6AE234248467FF475AE6400234200F14C
:108D70000400FAD06EE6B0F5AA7F18D8E80B773079
:108D8000410017E64FF48051FAE6D8F8043092100B
:108D90004FF0010C0CFA02F21343C8F804300A46F3
:108DA0007DE70123C9F804304C4600222BE740F24E
:108DB000545398421CD8A80C7C304100FAE510327C
:108DC000B3E6542A23D81A0B6E324FEA420C54E70A
:108DD000BC68626822F0030215E7CBF30B000028A1
:108DE0007FF4B8AE4244BB6842F001025A60FCE630
:108DF000FC217E20DEE501224FF0000AD3E604F1DB
:108E00000801304600F014FBDAF80010EDE6B2F588
:108E1000AA7F04D8DA0B77324FEA420C2DE740F2F2
:108E200054518A4204D89A0C7C324FEA420C24E70F
:108E30004FF0FC0C7E2220E77B688BE7FC040020CF
:108E4000032A70B426D940EA01039B0711D00478A5
:108E50000D78AC4222D10244431C05E013F8014BCB
:108E600011F8015FAC4219D19342F7D1002070BCD8
:108E700070470C4603461E6825681846AE422146D8
:108E800003F1040304F1040404D1043A032A18464C
:108E90002146F0D8002ADAD11046E8E7601B70BC02
:108EA000704700BF844641EA000313F0030349D131
:108EB000403A23D30B6803604B6843608B68836040
:108EC000CB68C3600B6903614B6943618B69836144
:108ED000CB69C3610B6A03624B6A43628B6A83622C
:108EE000CB6AC3620B6B03634B6B43638B6B836314
:108EF000CB6BC36340304031403ADBD230320BD3CE
:108F00000B6803604B6843608B688360CB68C36009
:108F100010301031103AF3D20C3205D351F8043B23
:108F200040F8043B043AF9D2043208D0D2071CBFFF
:108F300011F8013B00F8013B01D30B880380604628
:108F4000704700BF082A13D38B07B1D010F003037A
:108F5000AED0C3F10403D21ADB071CBF11F8013BEA
:108F600000F8013BA4D331F8023B20F8023B9FE715
:108F7000043AD9D3013A11F8013B00F8013BF9D288
:108F80000B7803704B7843708B7883706046704722
:108F900070B4840746D0541E002A41D0CDB2034697
:108FA00002E0621EE4B3144603F8015B9A07F8D1AD
:108FB000032C2ED9CDB245EA05250F2C45EA0545EF
:108FC00019D9264603F11002103E0F2E42F8105C0C
:108FD00042F80C5C42F8085C42F8045C02F11002B2
:108FE000F2D8A4F1100222F00F0204F00F041032A4
:108FF000032C13440DD91E462246043A032A46F890
:10900000045BFAD8221F22F003020432134404F056
:1090100003042CB1C9B21C4403F8011BA342FBD1C9
:1090200070BC704714460346C2E700BF704700BFDC
:10903000704700BF38B5074C00230546084623603B
:10904000FEF794FC431C00D038BD2368002BFBD0F6
:109050002B6038BD1416002080EA010C1CF0030FB1
:1090600037D110F0030C20F0030021F0030150F879
:10907000042B08BF51F8043B0ED08CF0030C6FF0AA
:109080007F434FEACC0C23FA0CFC51F8043B42EA34
:109090000C0243EA0C0300BFA2F1013C9A4201BF5B
:1090A0002CEA020C1CF0803F50F8042B51F8043BD2
:1090B000F2D04FEA02604FEA1222012828BFB0EB3B
:1090C000036F08BF1B0AF4D003F0FF03000EC01AA1
:1090D000704710F0030F0AD010F8012B11F8013B74
:1090E000012A28BF9A42F4D0A2EB030070474DF842
:1090F000045D50F8042B01F0030521F0030151F841
:10910000043B022D26D04DD822F07F45B5EB132F1E
:10911000A2F1013C2CEA020C0DD11CF0803C08BFEE
:1091200051F8043B0AD185EA0205B5EB036F0CD177
:1091300050F8042BE8E74FEA13235BE03CF07F4C48
:1091400054D10B784FEA126554E04FEA126503F0F0
:10915000FF034FE04FEA0245A2F1013C4FEA1545FB
:109160002CEA020CB5EB134F18D11CF0803C08BF61
:1091700051F8043B07D185EA0205B5EB034F09D14D
:1091800050F8042BE6E75FEA0C4C2FD10B884FEA2E
:1091900012452FE04FEA03434FEA12454FEA1343CB
:1091A00028E000BF02F0FF05B5EB136FA2F1013C10
:1091B0002CEA020C0DD11CF0803C08BF51F8043B96
:1091C0000AD185EA0205B5EB032F0AD150F8042B2A
:1091D000E8E74FEA13630DE012F0FF0F06D051F8F5
:1091E000043B4FEA122523F07F4303E04FF00000D9
:1091F00020BC704705F0FF0203F0FF00012828BFE4
:10920000904204BF2D0A1B0AF4D0A2EB000020BC40
:10921000704700BF80EA0102844612F0030F4FD16D
:1092200011F0030F32D14DF8044D11F0040F51F835
:10923000043B0BD0A3F101329A4312F0803F04BFEC
:109240004CF8043B51F8043B16D100BF51F8044BD5
:10925000A3F101329A4312F0803FA4F101320BD105
:109260004CF8043BA24312F0803F04BF51F8043B8A
:109270004CF8044BEAD023460CF8013B13F0FF0FE7
:109280004FEA3323F8D15DF8044B704711F0010F1A
:1092900006D011F8012B0CF8012B002A08BF7047EB
:1092A00011F0020FBFD031F8022B12F0FF0F16BFE2
:1092B0002CF8022B8CF8002012F47F4FB3D17047AA
:1092C00011F8012B0CF8012B002AF9D1704700BFCF
:1092D00020F0030110F00300C0F1000051F8043B3E
:1092E00000F1040C4FEACC0C6FF000021CBF22FA14
:1092F0000CF213434FF0010C4CEA0C2C4CEA0C4CD2
:10930000A3EB0C0222EA030212EACC1204BF51F8CA
:10931000043B0430F4D0C2F1000102EA0102B2FAC7
:1093200082F2C2F11F0200EBD200704740EA010353
:109330009B0770B42BD1032A29D90C46034621463A
:1093400054F8046BA6F1013525EA060515F0803FB7
:1093500005D1043A032A43F8046B2146EFD8A2B1A1
:109360000C78013A1C70013101333CB16AB111F83B
:10937000014B013A03F8014B002CF7D12AB11A44F2
:10938000002103F8011B9342FBD170BC70470346D8
:10939000E5E700BFF8B50C46224F0646FFF746FE4C
:1093A000BB685D6825F00305291B01F6EF7121F408
:1093B0007F6121F00F01A1F58054B4F5805F07DBD8
:1093C00030460021FFF736FEBB682B44984204D09C
:1093D0003046FFF72DFE0020F8BD30466142FFF712
:1093E00029FE01300DD0104BBA6819682D1B45F0CD
:1093F00001053046091B55601960FFF719FE012071
:10940000F8BD30460021FFF715FEBA68831A0F2B0E
:10941000DEDD064C0449246843F00103001B536061
:109420000860D5E7FC040020A80D002008090020F2
:1094300000294ED02DE9F0410C468046FFF7F6FD9D
:1094400054F8047C6249A4F1080527F00102AB1826
:109450008E6858689E4220F003005AD0FE0758607C
:109460000BD454F8087C01F1080EED1BAC683A44AB
:10947000744567D0EF68E760BC601C186468E40757
:109480000CD4544F9C680244BC427CD0D86842F053
:109490000103E06084606B60AA5003E042F00103C6
:1094A0006B60AA50B2F5007F14D2D20801EBC20360
:1094B00001244868921004FA02F29C681043AC60E0
:1094C000EB6048609D60E5604046BDE8F041FFF715
:1094D000AFBD7047530A042B47D8930903F13804F2
:1094E000600001EB800083683949834243D05968AA
:1094F00021F00301914202D99B689842F7D1DA68C2
:10950000EA60AB6040469560DD60BDE8F041FFF782
:109510008FBDFF07024407D454F8084C2D1BEB689D
:10952000A8682244C36098602B4B42F001001B687E
:1095300068609A428D60C7D3284B40461968FFF790
:1095400029FFC1E719184968C90709D4D968024435
:109550009B6842F00100D9608B606860AA50B3E755
:1095600042F001036B60AA50AEE7142B14D803F14C
:109570005B046000B5E74A68A4100120A0400243E4
:109580004A601A46BCE742F001034D610D61EC6090
:10959000AC606B60AA5097E7542B04D8130B03F10F
:1095A0006E0460009DE7B3F5AA7F04D8D30B03F1E6
:1095B0007704600095E740F25450834204D8930C3E
:1095C00003F17C0460008CE7FC207E2489E700BF67
:1095D000FC0400200405002004090020A40D002044
:1095E000FEE708B5FAF752FE73B506460024254695
:1095F0003046FAF7FBFF00230193019BAB4203DAED
:1096000000BF019B0133F7E73046FAF7F7FF00236D
:109610000193019AC5F5C8739A4203DA00BF019B12
:109620000133F5E70134B4F5487F05D0B4F5C87FC0
:10963000DDDDC4F54875DBE702B070BD70477047EB
:109640000020FBF751BA0120FBF74EBAEFF3108070
:1096500062B67047EFF3108072B670470020FBF7D8
:109660002FBC0120FBF72CBC0220FBF729BC0320F8
:10967000FBF726BC10B50C46FBF770FD2046BDE895
:109680001040FBF7A7BF10B504460020E1B2FBF77E
:1096900055FB204610BD70B5054604464618601BB4
:1096A00044B1237833B1B44204D018460134FFF7F3
:1096B000EAFFF4E770BD38B50546002415F8010B44
:1096C00020B1FFF7E0FF0134002DF7D10A20FFF7AA
:1096D000DAFF204638BD002070470120704710B5E2
:1096E000044600210E203022FBF756FC84B1012CE9
:1096F0000CD142F210730011A0F28E5058432A236D
:1097000090FBF3F000F5C340283010BD4FF000404F
:1097100010BD002070470120704710B5044600219D
:109720000F203022FBF738FC5CB1012C07D140F64A
:10973000F253584347F6F07390FBF3F010BD4FF02F
:10974000004010BD0A02322100F0B6B8F0B506465E
:10975000CFB001A83146FFF7F5FFBDF80A40013C44
:10976000A4B225B2002D0DDB0EAF721938464FF4AE
:109770008071120200F0A0F8FF203B5C43B11CB9DD
:10978000312801DC002007E000EB0520313803E040
:1097900010F1FF30F1D2E2E74FB0F0BD437A0A0298
:1097A00043F001034372322100F01FB8930703D442
:1097B000083020F0070003E093064CBF013040184A
:1097C00080B200B2704710B50446FBF7D1FAFFF73C
:1097D00041FF04F580604823DB68C0024FF400615C
:1097E0009847BDE81040FFF731BF2DE9F04106462C
:1097F000C2B002F500150C4609B315F003011ED0E6
:10980000C1F10407A74228BF27460123FA0093406D
:109810005A1E0368C90013408B40DB430193FBF7DA
:10982000A7FAFFF717FF48231B6925F0030104225D
:1098300001A89847FFF70AFF3E44E41B3D44032C70
:1098400022D924F00307B7F5807F28BF4FF4807733
:10985000B90800238B420DF1080806D056F82320E2
:10986000D24348F823200133F4E706EB8306FBF7E5
:109870007FFAFFF7EFFE48231B6929463A46404628
:109880009847FFF7E3FED8E79CB13268E4004FF059
:10989000FF33A34063EA02030193FBF769FAFFF782
:1098A000D9FE48231B692946042201A89847FFF7DF
:1098B000CDFE42B0BDE8F08170B5054614460E46B7
:1098C000FBF756FA04F50012681E36B112F8013B98
:1098D000013EDB4300F8013FF7E770BD08B51AB160
:1098E00008461146FFF7D7FE002008BD38B50446EC
:1098F00015460068FFF7D6FA236800201D4425604E
:1099000038BD10B5041F54F8040F18B10021FDF73D
:10991000A7FCF8E710BD10B5044600F012F8204689
:10992000BDE81040FDF788BAC068B0FA80F0400981
:109930007047837BDB0701D5FDF770BB7047FFF7EE
:109940007EBE10B541600446FBF700F8206010BDF4
:1099500010B50446FAF7FAFF2368C3F10103034484
:10996000606898422CBF0020012010BD00230360D6
:10997000704700687047006800B9704703680BB112
:109980001846FBE77047036810B57BB100228B4295
:1099900007D10B680AB9036000E0136000230B6075
:1099A00010BD1C681A460CB12346F0E710BD38B54F
:1099B00005460C46FFF7E7FF002323602846FFF724
:1099C000DAFF08B92C6038BD046038BD00B100680A
:1099D000704710B50446002162884068FFF7D8FA46
:1099E00023886288A06800215A43BDE81040FFF731
:1099F000CFBA8268914208D34388008800FB0320D5
:109A000081422CBF002001207047002070470023B6
:109A1000013A0160027143718371704710B5427958
:109A200083790479D31A2340A3421FBF0368995452
:109A300043795A1C1FBF037913404371012008BFAB
:109A4000002010BD837942790179D21A0A421FBFE2
:109A50000268D25C01330B401ABF837110464FF08D
:109A6000FF307047FDF70CBFFDF76EBF03691B6841
:109A700003B11847704703695B6803B11847704723
:109A80007047F7B50F46FDF7FBFF03880446ADF8B6
:109A90000030BDF80060FDF7BBFFB3000233834226
:109AA0000FD802340025B5420BDA54F8040B013507
:109AB0000190BDF804103846BDF80620FDF790FD72
:109AC000F1E703B0F0BDFFF7CDBF831C00200233E8
:109AD00013F8042C1AB113F8032C1044F7E770475D
