:020000040026D4
:10400000F01F00208D42260083A4260081A42600F4
:1040100081A4260081A4260081A4260000000000BF
:1040200000000000000000000000000081A4260045
:1040300081A426000000000081A426007D4C2600FB
:1040400007A526000DA5260013A5260019A5260004
:1040500000000000EBA42600F1A4260081A42600A5
:1040600081A4260000000000000000000000000005
:10407000000000000000000081A4260000000000F5
:10408000000000000000000081A4260081A426009A
:1040900081A4260081A4260081A4260081A42600F4
:1040A00081A4260081A4260081A4260081A42600E4
:1040B00081A4260081A4260081A4260081A42600D4
:1040C00081A4260081A4260081A4260081A42600C4
:1040D00081A4260000000000000000000000000095
:1040E00000000000000000000000000000000000D0
:1040F0000000000000000000A1592600B159260070
:1041000000000000000000000000000000000000AF
:10411000000000000000000000000000000000009F
:10412000000000000000000000000000000000008F
:10413000000000000000000000000000000000007F
:10414000000000000000000000000000000000006F
:10415000000000000000000000000000000000005F
:10416000000000000000000000000000000000004F
:10417000000000000000000000000000000000003F
:10418000000000000000000000000000000000002F
:10419000000000000000000000000000000000001F
:1041A000000000000000000000000000000000000F
:1041B00000000000000000000000000000000000FF
:1041C00000000000000000000000000000000000EF
:1041D00000000000000000000000000000000000DF
:1041E00000000000000000000000000000000000CF
:1041F00000000000000000000000000000000000BF
:1042000000000000000000000000000000000000AE
:10421000000000000000000000000000000000009E
:10422000000000000000000000000000000000008E
:10423000000000000000000000000000000000007E
:10424000000000000000000000000000000000006E
:10425000000000000000000000000000000000005E
:10426000000000000000000000000000000000004E
:1042700081A4260029582600715826005154260092
:104280002D5C2600494D260081A4260008B5094B67
:10429000FF221A600848094A4824E3690849121AAB
:1042A00098470848084AA3690021121A984700F065
:1042B0000DF8FEE7B4200D40400000202309002047
:1042C00070BA260028090020E917002073B500F015
:1042D000C7FE00F0AFFF00F017FF00F075FC01F023
:1042E00093FC06F078FA00F09DFF00F075F92020AD
:1042F00006F0CAF802F012FF00F09EFE002000F067
:10430000AFFD012000F0ACFD6149002000F07EFE11
:1043100003F064F806F0EFF8082006F0B5F85D4801
:1043200006F015F95C4806F012F9002003F078F861
:1043300001F0D0FA0021594802F096FF02F082FC09
:1043400006F0CEF802F0BEFDC82005F033FA0446B0
:10435000534905F0AFFE204605F00AFF514D0246D5
:104360002146286801F0A6FF01464F4802F074F884
:10437000204605F027FA4D4806F0E9F8C82005F078
:1043800019FA044602F094FF49490246204602F019
:1043900073F8204605F0ECFE21460246286801F03D
:1043A00089FF0146404802F057F8204605F00AFA16
:1043B00002F07EFF01463E4802F04EF83D4806F00E
:1043C000C6F800F05DFB01F07FF801F09BF803F008
:1043D00097FB0821684601F055FC9DF807309DF8D1
:1043E0000650354C43EA0525BDF806303348238096
:1043F00002F032F8324E2178324802F02DF861781E
:10440000314802F029F8F46A4AF6CD310220A0477B
:1044100029460320A0471A210120A0470822694607
:10442000736B0B209847294802F016F8284B186840
:1044300006F08DF8274802F00FF8274B186806F0B1
:1044400086F8264802F008F8254B186806F07FF831
:104450000021244802F008FF02F04AFC00F032FC80
:10446000214B01221860214B21481A7006F095F962
:1044700000F0E8FD102006F007F800F0E9FD02F07A
:1044800065FE10F0FF0FF8D101F01AFBF5E700BF51
:10449000997326009AB22600AAB22600A004002032
:1044A000C4B226009C170020DDB22600EFB2260021
:1044B00007B3260020B32600A417002025B326004A
:1044C0007CB1260043B3260049B326004FB3260033
:1044D000F0B0260056B3260008B126005DB32600D2
:1044E00024B12600C00400206C17002060170020B3
:1044F000BCB12600F8B5334C257820704540EA065B
:1045000018D500F0100000F0FF072F4E30B100F07A
:10451000D9FB2E4BD8600123F3700BE0F3784BB13D
:1045200000F0D0FB2A4A2949D368C968F7705B1AA2
:104530001844D06015F0300F17D02378224F13F0B5
:10454000300606D000F0BEFB204B186101233B7102
:104550000BE03B794BB100F0B5FB1D4A1B491369D9
:1045600009693E715B1A18441061AB0619D52378AE
:10457000154D03F0200303F0FF0633B100F0A2FB5A
:10458000124B586101236B710BE06B794BB100F05A
:1045900099FB0F4A0D49536949696E715B1A1844BA
:1045A00050610C4D2B7823B92078BDE8F84000F01D
:1045B00035B8012B05D1002000F030F82B780133FD
:1045C0002B70F8BD28140020601700206C17002005
:1045D0002C1700200117002008B500F017F8024B37
:1045E00000221A7008BD00BF28140020024B1B785F
:1045F0001843FFF77FBF00BF28140020024B1B7831
:1046000023EA0000FFF776BF28140020024A13684F
:1046100043F038031360704700C40D40014B18602D
:10462000704700BFE0C00D40034B00221A60034BEF
:104630001B68002BFBD1704780A00D4020A00D40CF
:10464000014BFF221A60704780A00D40054B186097
:10465000054A1168C806FBD411684907FCD51868DB
:10466000C0B27047088000400C80004070B508B9A7
:1046700049BB00E00AB9012070BD99B901460B1A87
:10468000934201DB002070BD184C00232360184BBF
:104690001D68EE06FBD41D686D07FCD5236801F884
:1046A000013BECE700239342ECDACC5C0F4D2C602D
:1046B0000F4C2668F606FBD426687607FCD52C68D6
:1046C000C4540133EFE7002AD5D00846431A934279
:1046D000D8DA10F8013B054C2360054B1D68EE0647
:1046E000FBD41D686D07FCD52368EFE70880004008
:1046F0000C80004008B51A4A136823F010031360B9
:1047000052F8203C23F0100342F8203C52F81C3CA5
:1047100023F0100342F81C3C52F8183C23F010031D
:1047200042F8183C0F4B1A6810B142F0100201E039
:1047300022F010021A600C4A04211368012043F091
:10474000100313600A4600F083FD012000F0A6FC70
:10475000BDE8084005480121042200F001BD00BF6A
:1047600020A40D400CA40D4010A40D40DDA4260093
:1047700008B51A4A136823F00103136052F8203C6D
:1047800023F0010342F8203C52F81C3C23F00103C3
:1047900042F81C3C52F8183C23F0010342F8183C44
:1047A0000F4B1A6810B142F0010201E022F0010241
:1047B0001A600C4A00211368012043F001031360C2
:1047C000042200F045FD012000F068FCBDE808402F
:1047D00005480121002200F0C3BC00BF20A40D4009
:1047E0000CA40D4010A40D40DDA4260008B5074A16
:1047F00004211368012043F0100313600A4600F0FF
:1048000027FDBDE80840012000F048BC10A40D4081
:10481000024A136823F010031360704710A40D4080
:1048200008B5074A01201368002143F00103136013
:10483000042200F00DFDBDE80840012000F02EBC70
:1048400010A40D40024A136823F00103136070475F
:1048500010A40D40024B1868003018BF01207047AB
:1048600040A00D40014B1868704700BF04A00D40E8
:1048700010B51B4A02201368072123F08003136040
:1048800052F8203CFF2443F0800342F8203C0822E9
:1048900000F0DEFC134B05211C60012000F078FDC8
:1048A000002000F0F5FC104A136823F01003136099
:1048B0000E4B1968A3F5607321F01001C3F8801343
:1048C000116821F001011160D3F8802322F0010268
:1048D000C3F880231C60064B1B68002BFBD010BD67
:1048E00020B40D4000B20D4020A40D4000A40D40A6
:1048F00020A00D4020B1012805D1044B1878704745
:10490000034B186870470020704700BF291400202F
:1049100020900D4010B5094A002013780133137020
:10492000074B197802F074FCBDE81040054B0648AF
:104930001968064A002302F0BBB900BF2914002001
:10494000E2170020600900203809002015492600E0
:10495000812810B50C462AD0B0F5807F39D0802848
:1049600039D102F0D3FB1D4B1D4A1870136800208B
:1049700023F00803136052F8203C032123F00803BE
:1049800042F8203C52F81C3C23F0080342F81C3C3F
:1049900052F8183C43F0080342F8183C042200F097
:1049A00057FC10480021032200F0DAFB13E00E4B05
:1049B0001A6831B142F008021A60002000F06EFB64
:1049C00005E022F008021A60084600F073FB20465A
:1049D00010BD064B1960012010BD00BFE21700207A
:1049E00020940D40F149260010940D4060090020EC
:1049F00008B50F4805F0F8FEC0B108210C4805F0D5
:104A0000ECFE0C4B196861B10B4B00221A700B4B7A
:104A10000B481B681BB90B4A02F04AF901E002F08F
:104A200051F9BDE80840084802F0A0BD08BD00BF2C
:104A300058090020600900202914002020900D4012
:104A40003809002015492600D4AF2600044B186809
:104A5000C0F30720030904BF1030C0B2704700BF85
:104A60001C300D40054B1868C0F3C21001289ABFD6
:104A7000C0F1020040034FF40040704714300D4075
:104A80002DE9F04F8DB0FFF7E1FF384B0446C82009
:104A90001D6804F08FFE4826B368074698470B90C0
:104AA000736898470A90FFF7DDFF834600F040FBEC
:104AB000099000F049FB089000F01CFBDDF828C0CD
:104AC00009994FEA9C2301934FEA9B23DFF8A8A0A2
:104AD0000293089BC4F30718C5F3400904F00F04C0
:104AE00005F001050B9A0591069351464346079040
:104AF0000094CDF80C900495384601F0BDFC384682
:104B000005F036FB1A4B02463946186801F0D2FB15
:104B10000146184801F0A0FC384604F053FEB36883
:104B200098477368834698470746FFF79BFF0646FA
:104B300000F0FEFA099000F007FB089000F0DAFAA6
:104B4000099A089BBF0AB60A04920593069000973B
:104B50000196CDF8089003955046594642462346A3
:104B600001F07AFC0DB0BDE8F08F00BF1C300D40A5
:104B70009C170020DDB226006BB32600F8B500F0CC
:104B8000A1F80F4B0024D3E900673A46B04238BF82
:104B90007A1C15460443C3E90045DFF828E0DEE946
:104BA0000001821B61EB070312196B41CEE9002360
:104BB00002F066F918B1BDE8F84002F0F1B8F8BDAE
:104BC00028090020300900200F4B104A1A6053F8C2
:104BD000042C42F0050243F8042C53F8042C42F054
:104BE000020243F8042C0A4A136843F001031360DD
:104BF000084B00221A60042243F80C2C012243F8CF
:104C0000082C0F22DA62704714E000E047E8010048
:104C100008200D400C000340034BD3E90023100A89
:104C200040EA0360704700BF28090020034BD3E926
:104C30000023D00B40EA4340704700BF30090020FA
:104C4000054B18601C3B1A6842F001021A601A6892
:104C5000D207FCD4704700BF2800034010B5064CB3
:104C6000236823F001032360FFF788FF236843F0E4
:104C70000103236010BD00BF10E000E038B500F074
:104C800021F80A4C0A4D0123A370A860FFF776FFB4
:104C9000A3784BB100F016F8064AA96893685B1A2E
:104CA000184400239060A37038BD00BF6017002037
:104CB0006C1700202C170020014B1868704700BFAC
:104CC00064090020074B084A196804331B681268FE
:104CD000120442EA0323054A0B43106843EA0060CA
:104CE000704700BF40500D4048500D404C500D40A3
:104CF00010B50446114B1B68DB07FBD505F0FFFB25
:104D0000FFF7E0FF231A062BD8BFC41D0C4B220E61
:104D10001A60C4F3074243F8042CC4F3072243F893
:104D2000082CE2B243F80C2C05F0E5FB054B912072
:104D30001C60BDE8104000F0B1B900BF50500D40FC
:104D40004C500D406409002070B500F083FEFFF761
:104D5000B9FF0E4C01230E4EA3700E4BB060002520
:104D600091201D6000F0B2F9912000F0A3F902F04B
:104D7000B3FAA37843B1FFF7A5FF074AB168936878
:104D8000A5705B1A1844906070BD00BF60170020CA
:104D90006C170020640900202C1700200023084A0B
:104DA0001068084A9958084205D01A44D268906998
:104DB00010F0800003D02C33582BF0D10120704725
:104DC00028200D40E4AF2600F8B50646FFF77AFF2D
:104DD0001E4A01231E4993702C2303FB06134FF632
:104DE000BF711C4DDC68A860236C61649BB213F03A
:104DF000500117460CD0A369DB0618D4164B53F8A4
:104E000026301BB12068C0B29847F4E72368F2E768
:104E100013F4D06F0BD04FF440732363FF23636010
:104E2000E36AE162E362236B43F001032363BB782F
:104E300053B1FFF747FF094AA96893685B1A184402
:104E4000024B906000229A70F8BD00BF60170020EE
:104E5000E4AF26006C170020680900202C17002002
:104E60002DE9F04F012885B0064600F2BF802C24C2
:104E70004443604B1D1995F920A005F12007BAF1B4
:104E8000000F9946C0F2B28095F92230002BC0F293
:104E9000AD80594800F0A8FE584A59F8043011680E
:104EA000EC680B43136051686B6895F921B00B43B4
:104EB00053609168AB6895F822800B4393600023A0
:104EC000C4F8C83F2B690BEBCA021A6095F823306F
:104ED0005FFA88FC01939DF80430604619462A7DEC
:104EE000CDF80CC0029300F0BDF9029BDDF80CC0B8
:104EF00019466046082200F0ABF94FFA88F840499D
:104F00004FEA08389DF9042058F80100012303FAFC
:104F100002F2024348F801204FEA0A3A5AF8010027
:104F200003FA0BF202434AF801205022A263A26B5B
:104F300095F8240042F4D062A263022262634FF427
:104F400040722263AA696262EA69A2627022E26226
:104F500042B2002A0C4614DB95F92510294D41EA8E
:104F6000C20129607979120315594FB2BB402B4316
:104F70001351002200F06CF9234A136843F40043F4
:104F800013602C2303FB069393F8265020336FB253
:104F9000002F1CDB93F807A0EDB25FFA8AF82846D1
:104FA000414601223F0300F05DF94FFA8AFA3A596F
:104FB000012303FA0AF313433B51082228464146D2
:104FC00000F046F9104A136843F4804313602C2321
:104FD00003FB0696F26896F82800136B43F0010372
:104FE000136305B0BDE8F04F00F058B805B0BDE858
:104FF000F08F00BFE4AF26009D4D260028200D4015
:1050000020940D4004410D4030D0004001289CBF49
:10501000014B43F82010704768090020012808D888
:10502000044B2C2202FB0030C3689A699206FCD420
:1050300019607047E4AF2600014B00221A607047E8
:1050400000500D40014B08221A60704700500D407F
:10505000024BA0221A6050221A60704700500D4087
:10506000074A084B1A60084B80321A60074B80329F
:105070001A60074B80321A60064B074A1A60704765
:1050800000E100E07C090020700900207409002084
:105090007809002008ED00E000402600044B41099B
:1050A0001A6800F01F000123834042F82130704746
:1050B0007C090020044B41091A6800F01F000123FD
:1050C000834042F82130704770090020044B4109A9
:1050D0001A6800F01F000123834042F82130704716
:1050E00078090020024B1868C0F38150704700BF58
:1050F00004200D4008B5FFF7F5FF024B53F82000E0
:1051000008BD00BF3CB02600054A064B1A60064B9E
:105110001A68064B1340B3F1807FF8D1704700BF87
:105120000101020100200D4004200D40000001019A
:10513000034B04481B6803F007031841704700BF86
:1051400004200D400048E801034B04481B68C3F3EA
:1051500002231841704700BF04200D400048E801B9
:10516000024B02EBC10243F8220070478009002085
:10517000F8B507460E46094D002405EB411547FAE0
:1051800004F3DB07E1B204D555F824300BB1304607
:1051900098470134082CF2D1F8BD00BF80090020E7
:1051A0002DE9F74F019000F055FCFFF78BFD0199B9
:1051B000184E4FEA0139184F0123DFF864A009F1B6
:1051C0008045B860B37005F55925D5F8188459F8AD
:1051D0000A404FEAC10B24FA0BF448EA0400C0B2BB
:1051E000E4B2FFF7C5FF04FA0BF45FFA88F3C5F8E1
:1051F0001C3449F80A40B3784BB1FFF763FD074A06
:10520000B96893685B1A184400239060B37003B0C8
:10521000BDE8F08F601700206C1700202C170020CD
:1052200018970D4002480021802204F001BE00BF03
:1052300080090020034A044B1A60044B803A1A602C
:10524000704700BF80400D40040A0020000A002083
:10525000034B01EBC0011B6843F82120704700BFDE
:10526000040A0020034B01EBC0011B6843F8212016
:10527000704700BF000A002001289FBF0349012397
:105280000A6883409CBF13430B60704718200D4091
:105290002DE9F04F012887B0044671D818235C43EC
:1052A000394D2E1996F811804FFA88FCBCF1000F89
:1052B000CDF814C064DBFFF7DFFFB37C2D59002766
:1052C0005FFA83FB5FFA88F86F6040465946327A8E
:1052D000C5F8C87F0493FFF7C5FFF47C327BE3B2C7
:1052E0000093337D009801939DF8043064B2194611
:1052F0000293FFF7B7FF96F815A096F8169072681C
:105300004FFA8AF34FFA89F101EBC300DDF814C0BC
:10531000106003931D4A049B4FEA0C3C5CF80200AA
:105320004FFA83FE012303FA0EFE40EA0E004CF80A
:10533000020024039DF9040054F802E003FA00F08F
:105340004EEA0000A05003988B4000038458594651
:105350002343835040463A46FFF77AFF009802996C
:105360003A46FFF775FF504649463A46FFF770FF49
:10537000337C2B61C7232B606B6843F002036B60A7
:1053800007B0BDE8F08F00BF4CB0260020940D4060
:1053900038B50B4A0403A35801258D4023EA0503C1
:1053A000A3500022FFF754FF064AA3582B43A350F3
:1053B00004F1804404F55924FF2344F8253038BD16
:1053C00020940D4000940D400E2870B50BD1164B63
:1053D000164E1C6844F002051D60356825F03F0339
:1053E00043F001033360124E336823F0FF031A4386
:1053F0001143014331600F4B1B681B06FBD50E4B5D
:105400000E4A1B6812680E2803F0FC0343EA0223CD
:1054100008BF064A9BB204BF1560034A9BB208BF8F
:10542000146018B270BD00BF34000144F486084017
:1054300008700D4000700D400C700D4010700D4054
:10544000024B1868B0FA80F04009704700B7084076
:1054500070B5FFF737FC104E104C0123B060104DB3
:105460008F20A370FFF732FE8F20FFF723FE2868FE
:1054700018B101F011FF00232B60A37853B1FFF79F
:1054800021FC084AB16893685B1A1844034B90608A
:1054900000229A7070BD00BF6C17002060170020BA
:1054A000080A00202C170020064A136843F0020364
:1054B0001360536843F002035360936843F00203A0
:1054C0009360704748200D4007B50C4800F08CFBF6
:1054D000FFF7EAFF0A4B1A6842F002021A60002244
:1054E0000192019A0F2A02DC019A0132F8E71A6848
:1054F00022F002021A6003B05DF804FB415426005A
:1055000054200D40064A136823F0020313605368C9
:1055100023F002035360936823F002039360704703
:1055200048200D4008B50B4B93F90020002A09DBF9
:10553000094AED2111601160E32111601A7862F0CF
:105540007F021A70FFF7BEFB044BD861044B0120A9
:10555000D87108BD2A140020388808406C17002034
:105560006017002070B52B4E336813F0400308D04D
:10557000294D2B68DCB21B0605D5284BED221A609D
:105580001A60002070BD042CF7D9023C8C42F4DC78
:10559000E4B2032C1BD001190139032000F0BAF941
:1055A000631E1F491B010320194300F0BDF90320AE
:1055B00000F0C4F9032000F0D9F9032000F0E2F96B
:1055C0000028FAD129682D682806D6D506E02B6870
:1055D00003702B6843702B688370F3E7493949B235
:1055E00089B2042002F080FB032005F07F0102F065
:1055F0007BFB33685A060BD5064B1B681B0603D58D
:10560000084801F049FE03E0044BED221A601A60DD
:10561000204670BD4C8608402888084038880840DD
:1056200002C0010C7804002010B5114B1B689B07C9
:10563000FBD4104BED221A601A600F4A12680AB1AF
:10564000EF221A600D4A0E4C137803F07F0313709B
:10565000E37953B1FFF736FB0A4A0B49D369C969AD
:105660005B1A18440023D061E371012010BD00BF14
:105670004C860840388808402C8608402A140020B0
:10568000601700202C1700206C17002038B5A0F1FF
:105690000B04E3B20F2B054613D80B4B1B6813F01A
:1056A0003F0302D0FFF7C0FF012304EB8404074A45
:1056B0000B3414600BB1FFF735FF054BE8B21D70DA
:1056C00000E0FF2040B238BD488608403C860840D4
:1056D00022090020F8B52E4E357815F0010554D179
:1056E0002C4B01241C605C609C60A3F59323A3F504
:1056F0001473F8221A600922C3F89021152270331E
:105700001A6003F59B230B2203F59E731A60A3F521
:105710009B23A3F5F07340221A601A687F2742F09A
:1057200020021A60D52243F81C5CDF62DA611A4B52
:105730001878FFF7ABFF194A8D20136843F0040374
:105740001360FFF7ABFC164B8E201F60FFF7A6FC23
:10575000022000F0FFF81349022000F0DBF80320DC
:1057600000F0F8F803200F4900F0CCF829460E4865
:1057700001F07AFD337823433370FFF7A3FA0B4B24
:10578000D8610B4B2046DC71F8BD0020F8BD00BF8E
:105790002A140020A8200D40220900208C860840F1
:1057A0009486084028880840780400206C17002060
:1057B0006017002038B503880446E3B140F2C532D3
:1057C000934203D000230380032038BD822915D1E2
:1057D00002F050FA02F008FA8021FFF7C3FE002819
:1057E00005DD80B202F0BEF90C4B1B6998470C4BEB
:1057F0001A78520604D440F2C5332380012038BD04
:1058000000221A70074B1D68FFF70EFFFFF762FFBB
:10581000AB06F0D0FFF786FEEDE700BF24B126000F
:105820002A1400204886084070B5FFF74BFA0B4E4B
:105830000B4C0123B0600B48A37001F02DFD0A4B07
:1058400000251D60A37843B1FFF73CFA074AB16811
:105850009368A5705B1A1844906070BD6C170020A7
:105860006017002078040020348808402C1700209E
:1058700070B5FFF727FA114B01221D46104C9A70A4
:10588000104AA06011680026042918BF0E490F486D
:105890001EBF0B7843F040030B70166001F0FCFC58
:1058A000AB784BB1FFF70EFA094AA16893685B1A0F
:1058B0001844024B90609E7070BD00BF60170020BE
:1058C0006C1700202C8808402A140020780400203F
:1058D0002C17002010B5094C00212046402204F06E
:1058E000A7FA074B01221A602E205C60FFF7D6FB57
:1058F000BDE810402F20FFF7D1BB00BF0000002003
:1059000004F00F4003289EBF014B0001195070475F
:105910000000002003289EBF024B03EB00104160F3
:10592000704700BF0000002003289EBF024B03EB1E
:1059300000108160704700BF0000002003289FBF57
:10594000034901230A6883409CBF13430B607047DF
:1059500028F00F4003289FBF034901230A688340B2
:105960009CBF13430B60704720F00F4003289FBF7C
:10597000034901230A6883409CBF13430B607047AF
:1059800014F00F4003289FBF044B03EB0010806806
:1059900000F0070088BF0020704700BF0000002013
:1059A000024B4FF0FF321A60704700BF04F50F4002
:1059B000014B01221A6070474CF00F40094B1A68E6
:1059C00012F4801F1A46F9D1043B196821F4803182
:1059D00019601168C903FCD41A6842F400321A60D5
:1059E000704700BF04200D4070B5164CFFF76AF9F0
:1059F0002378154D3BB1154A296813685B1A034497
:105A0000136000232370124E686001230220316866
:105A1000637001F09DF930BF022001F07DF9306024
:105A2000FFF750F963784BB1084A07495368496852
:105A30005B1A03445360034B00225A700123286011
:105A4000237070BD601700206C1700202C170020F9
:105A50000C0A002070B5144B1A681C4612F0030F94
:105A600021D0124B1A685101FBD41A685201FCD59F
:105A70000025FFF7F3F8FFF7A1FF2560022001F0F2
:105A80004BF90B4B1860FFF71DF90A4B0A495A787E
:105A900032B10A4C4E6862685D70921B02446260CB
:105AA000012208601A7070BD58200D4004200D407E
:105AB0000C0A0020601700206C1700202C17002013
:105AC0002DE9F0413E4B1C6814F03F0413D13D4BCF
:105AD00053F8243023B1984768B10134052CF6D12E
:105AE000394D2B783BB1FFF7E7F80446FFF7EAF8AA
:105AF000201A092803D8BDE8F041FFF775BF002C34
:105B0000F9D0324B1A6822F400321A60304A116818
:105B1000C902FBD4196841F4803119601368DB03B2
:105B2000FCD5FFF7CFF8201A092803D8BDE8F041CB
:105B3000FFF744BF6328274F02D92B78022B00D0F0
:105B40000123254E3B60254C0220316801F000F90D
:105B5000FFF7B8F82378224D3BB1224A2968136831
:105B60005B1A034413600023237001236860637091
:105B700001F044FBB8B14FF00008FFF71FFFC7F872
:105B80000080022001F0C8F83060FFF79BF86378CE
:105B900083B1144A696853685B1A034453600F4B1E
:105BA00083F8018006E0FFF787F80028E3D030BFD4
:105BB000BDE8F081012328602370BDE8F08100BFBB
:105BC00048860840100A00202B14002000200D40B9
:105BD00004200D4058200D400C0A002060170020C2
:105BE0006C1700202C1700200023064A52F82310BF
:105BF000814206D011B942F8230070470133052BCA
:105C0000F3D17047100A0020054B00221A60054AA4
:105C1000136843F004031360034B01221A707047AA
:105C200058200D4010ED00E02B14002070B5FFF758
:105C300049F8104E104C0123B060104D9020A37015
:105C4000FFF744FA9020FFF735FA286818B101F001
:105C500023FB00232B60A37853B1FFF733F8084AE6
:105C6000B16893685B1A1844034B906000229A70E5
:105C700070BD00BF6C17002060170020240A0020B0
:105C80002C17002030B5184B1A78431E3AB9174A22
:105C90001278122A03D1164A12784B2A03D001F542
:105CA0002011273117E04A0802F12814B4F1281F07
:105CB00004D014F8015D03F8015FF7E701F5201146
:105CC00027310023934205DA11F801598418E5546D
:105CD0000133F7E730BD074A914204D011F801299A
:105CE00003F8012FF7E730BD2B0028002A00280019
:105CF0002900280027002800164A70B515464FF0E5
:105D0000FF340023B2F9066056B1967A0C32002EA9
:105D100008BF1C460133052BF4D12346013417D0AC
:105D20000C2404FB03F6AA1990804FF0FF30A85111
:105D3000C8880026D080D672497A04FB035309072D
:105D400044BF0121D1724FF6FF711981104670BD19
:105D5000002070BD640A0020F0B5224D06462F4693
:105D60008FB00024B5F90630A3B101A8B5F904102D
:105D700004F034FC9DF80D3003F03603022B09D1FA
:105D800030460DF10E0104F0B7F818B90C2000FBF5
:105D9000047025E00134052C05F10C05E2D100204A
:105DA00004B2214601A804F019FC9DF80D5005F03D
:105DB0003603022B0AD130460DF10E0104F09CF897
:105DC00020B9204601A9FFF797FF09E02046BDF959
:105DD0000A102A4604F036FCB0F5C86FE0DB00205C
:105DE0000FB0F0BD640A00201F4B2DE9F0410746BB
:105DF0004FF6FF7498461E888EB035B2B5F5C86F61
:105E00000EDA01A8294604F0E9FB9DF80D2093075E
:105E10001DD423B2013307D1EB19B3F5C86F02DBF0
:105E20004FF6FF701CE034462846BDF90A1004F016
:105E300009FC23B2DA1982420646DEDCB8F90020FA
:105E400020469A4202BF084B3F191F8008E02846AF
:105E5000BDF90A1004F0F6FB4FF6FF740646CCE7D6
:105E600000B20EB0BDE8F081EA0D002070B5044626
:105E70008EB00E4601A82146154604F0AFFB9DF8F2
:105E80000D3003F00602022A02D04FF0FF3041E04D
:105E900003F0200202F0FF01002AF6D176B99DF846
:105EA0000D3001A843F0040321468DF80D3004F0B5
:105EB000C1FB194A0023137055B916E01B07EED534
:105EC000BDF904000A46FFF7D1FF0028E7DADCE756
:105ED000124A1A44516829B1B1F90410A14204BF11
:105EE000002111720C333C2BF2D10D4B03F13C011C
:105EF000B3F904200C33A24201BF4FF6FF7223F81E
:105F0000082C002203F8022C08BF23F8062C8B4231
:105F1000EED100200EB070BD2C140020280A002005
:105F2000640A00202DE9F04F95B0019088463AB1FF
:105F30004046FFF759FF411C044640F0D98004E079
:105F4000FFF70AFF0028F3D0D0E0794A13780292D5
:105F5000002B40F0CB809A46082600230593ADF82D
:105F60001830DFF8D4B1734BBAF1000F03D1ABF89E
:105F700000A083F800A01FFA8AF91D784FEAC9072C
:105F8000BFB25DB1BBF800502BB2072B16DD082362
:105F9000ADF81430684B083D1D806BE0BBF8004045
:105FA00023B2072B0BDD0823083CA4B2ADF8163052
:105FB000614BA2B2072C1A805DD95BE00024BBF8CC
:105FC00000303B449BB219B232B291422ADA07A8A0
:105FD000039304F003FB5748002202709DF825202C
:105FE000039B02F00601022902F0200109D141B908
:105FF00001220270BDF82220134415449BB2ADB2B9
:10600000E1E719B101339BB2013406E0520706D52E
:10601000BDF8222013449BB21444A4B2D3E7F31A70
:106020009BB200E00023A9B2A0B20A18083A1A44B1
:1060300092B20FFA82FEBEF1000FABF80020DFF83B
:10604000F4C00BDD9CF800B0BBF1000F03D0C0F131
:106050000805ADB202E0C1F10804A4B2ADF81830F1
:106060009CF80030ADF81450ADF8164013B9BEF1ED
:10607000070F00DD0022BDF91430002B25DCBDF92F
:106080001630002B21DD2D4BB9B2B3F9004008B218
:10609000844214B2C8BF1980002C13DD07A8002168
:1060A000322203F0C5FE22238DF82530002507F1AA
:1060B0000801294407A809B2013504F0BBFA2BB244
:1060C000A342F4DB484604F0CAFA0AF1010A083692
:1060D000BAF1C80FB6B27FF440AF4046FFF784FE76
:1060E000431C044604D1029A0123137000201BE0D4
:1060F0000021322207A803F09BFE24B20199272237
:106100000DF1260004F062F8022307A82146ADF83D
:1061100022808DF8253004F08DFA204607A9FFF77C
:10612000EBFD08B10023036015B0BDE8F08F00BFA0
:106130002C1400202D140020E80D0020EA0D002072
:106140002DE9F84381460D460024234E4FF00C08FC
:1061500008FB046898F808304BB988F808304846BE
:10616000FFF7FAFD0746C8F80400B0B906E00134AD
:10617000052CEAD14FF0FF30BDE8F88305F00303AA
:10618000012BF7D0484608210122FFF7CBFEC8F8C3
:1061900004000028EED0076007E00368013304D153
:1061A000B0F9040004F01EFA38600C2303FB04620B
:1061B000117A6343294315F00405117218BF526820
:1061C000204618BF1568F2185268F550937A0133CB
:1061D0009372BDE8F88300BF280A002004280CD879
:1061E000064B0C2202FB0030037A33B141680022D7
:1061F00002728B7A013B8B7242607047280A002042
:10620000042870B525D80C244443134B1E19357A45
:10621000FDB142B1022A02D17268126802E0012A7D
:1062200017D11A591144002913DB0C2202FB00324A
:106230005268B2F90640B1EB042F0ADC14688C42B4
:1062400002DAAC0705D511600C22504319500846FC
:1062500070BD4FF0FF3070BD280A00200428F8B54B
:106260000646144621D80C234343114DEA18177AE9
:10627000DFB1F80719D55768EA583B68A01898426B
:1062800088BF9C1AFB7ADB070DD4B7F90430323291
:10629000084602EB0322214604F05AFA0C20704310
:1062A0002B5823442B502046F8BD4FF0FF30F8BD4B
:1062B000280A00202DE9F04F9FB0042800AF804647
:1062C000B960144602D94FF0FF30BFE0614D0C2396
:1062D00003FB00531A7A002AF5D09207F3D55E68C3
:1062E0000C2303FB08F305EB0309EB58B6F9061082
:1062F00003F132022244B2EB012F40F29080B6F952
:1063000004A007F11000514604F068F907F11A00E3
:106310000121FFF715FF061ED5DBB7F9161007F1AF
:106320001A00490009B20122FFF7FCFD834600284C
:1063300052D04FF00009BA8AC7F80CD0002A08BF23
:106340004FF48072D11D21F00701ADEB010D3046F5
:106350006946FFF783FF031E0BDA00210A46BBF9EB
:106360000400FFF783FD3046FFF738FFD7F80CD065
:10637000A9E70BD0BBF90420194609EB02226846B5
:1063800032327B6004F07DF97B689944D7F80CD0F9
:10639000002BD0D12F4A02F13C00117A59B151683B
:1063A000B1F90410514501BFC2F804B09BF80A10BE
:1063B00001318BF80A100C328242EED10121504695
:1063C0000022FFF753FD0028BBF9041008DA084645
:1063D00000210A46FFF74AFD3046FFF7FFFE72E74D
:1063E00007F1440004F0FAF8BA8A07F14400A7F86C
:1063F00048207A8ABBF90410A7F8462004F01AF95D
:106400009BF80B20CBF8009022F001028BF80B20B8
:106410003046FFF7E3FE0C2303FB08535FE73268C7
:106420009342FFF650AFB6F90420B86803EB02229E
:106430003232214604F025F92046D9F800302344B1
:10644000C9F8003032689342C8BF33607C37BD461C
:10645000BDE8F08F280A00200FB407B504AA52F84F
:10646000041B0448019200F039F803B05DF804EB16
:1064700004B07047880400200EB43FB5094B07AA4A
:1064800052F8041B0190049304A801AB03920593F6
:1064900000F024F8019B00221A7006B05DF804EBAE
:1064A00003B0704785A7260070B505460C46102C32
:1064B00007D92B68686808491022984750B9103CE2
:1064C000F5E734B12B6868682246BDE870400249A0
:1064D0001847204670BD00BF99B426002DE9F04F43
:1064E00080468FB0069107920026069B1B78002BF2
:1064F00000F05F83069B1C4613F8012B1AB9069B1C
:106500009C4203D10FE0252AF5D1F8E7069BD8F885
:106510000400E51A0699D8F800302A469847002862
:1065200040F02A832E442378002B00F042836378C6
:10653000611C002B00F03D8300240A4611F8013B4A
:106540002B2B11D006D8202B11D0232B12D144F0A5
:106550000804F2E72D2B04D0302B0BD144F01004AB
:10656000EBE744F00104E8E744F00604E5E744F013
:106570000204E2E7A3F1310108290DD813460025F2
:106580001A4613F8011BA1F13000092811D80A227C
:1065900002FB0515303DF3E72A2B09D1079B013299
:1065A0001D68191D002D0791B8BF44F0010400E0DB
:1065B000002513782E2B1CD15178531CA1F13000EB
:1065C00009280ED8194600270A780B46A2F1300098
:1065D000092801F101010FD80A2303FB0727303FE7
:1065E000F2E72A2906D1931C079A111D0791176813
:1065F00002E013464FF0FF371A786C2A09D15A7817
:106600006C2A02D144F080040AE0013344F06004B3
:106610000BE0682A09D15A78682A03D144F0200493
:10662000023302E0013344F040041A78642A3CD07B
:106630001FD8462A48D00DD8252A5AD003D8002A78
:1066400000F0B78257E0412A4AD0452A53D144F49A
:10665000424450E0582A31D004D8472A4BD144F460
:10666000A13448E0612A38D0632A44D144F4A064BC
:1066700041E06E2A3AD007D8662A22D027D3672A6B
:1066800028D0692A11D036E0732A2CD006D86F2A78
:1066900011D0702A2FD144F440742CE0752A07D011
:1066A000782A28D144F4C85425E044F4245422E044
:1066B00044F410641FE044F488541CE044F4B244F1
:1066C00019E044F4007416E044F4844413E044F404
:1066D000024410E044F481340DE044F4C1340AE093
:1066E00044F4E13407E044F4806404E044F4E064FA
:1066F00001E044F4C0640133069304F4E063B3F5AD
:10670000806F00F0AA8116D8B3F5807F2BD0B3F547
:10671000407F7FF4EAAE079BA04914F4804F03F159
:1067200004029F4818BF08460DF1330107920F4637
:106730001A680023C5E1B3F5C06F08D0B3F5E06F68
:1067400000F03182B3F5A06F7FF4CFAE00E2D8F84D
:106750000030D8F80400934901229847002840F0FF
:106760000B820136C1E6002FACBF24F010040127D4
:1067700014F40053039304F0E00337D0402B17D0F8
:1067800008D8DBB1202B2AD1079B1A1D079293F959
:10679000002017E0602B11D0802B20D1079B0733FE
:1067A00023F0070303F108020792D3E900230AE06C
:1067B000079B1A1D0792B3F9002003E0079B1A1DDF
:1067C00007921A68D317002A73F1000109DA5242BE
:1067D00063EB4303CDE900234FF0010933E00022CE
:1067E0000023CDE900234FF000092CE0402B16D008
:1067F00007D8CBB1202B20D1079B1A1D07921A78FE
:10680000EEE7602B10D0802B17D1079B073323F0C6
:10681000070303F108020792D3E90023E1E7079B8E
:106820001A1D07921A88DBE7079B00211A1D0792A1
:106830001B681846CDE90001D5E700220023CDE909
:1068400000234FF0000904F4C053B3F5805F0CD06F
:10685000B3F5C05F33D0B3F5006F4FD1DDE900234E
:106860000DF1360ACDE9042304E0DDE900230DF142
:10687000360A15E0DDE9042313433AD0DDE90401CB
:106880000A22002302F0BEFCDDE9040130320AF8DE
:10689000012D00230A2202F0B5FCCDE90401E9E74D
:1068A00052EA030125D002F0070130310AF8011D38
:1068B000D10841EA4371D8080A460346F0E7384B4D
:1068C00014F4804F0DF1360A344908BF1946DDE94A
:1068D000002352EA03000CD002F00F00085C4FEADC
:1068E000131E0AF8010D100940EA037002467346B0
:1068F000EFE70DF1360BCAEB0B0B03E00DF1360A97
:106900004FF0000B41F6080241F208035F4502EA2E
:1069100004028CBFCBEB070700279A4202D1002F5D
:1069200008BF012741F608018A4207EB0B030DD18E
:10693000DDE9000150EA010208D01B4914F4804F40
:106940001A4A4FF0020C18BF0A4602E04FF0000C42
:1069500062460399A1B1B9F1000F0AD104F0060112
:1069600002290AD00629124904BF4FF0010C0A4639
:1069700006E04FF0010C0F4A02E00F4A4FF0010C05
:1069800063449D428CBFED1A002514F0010922D109
:10699000E30613D52F444D461DE000BF66B4260024
:1069A00077B4260097B426008BB4260088B426005E
:1069B0008EB4260008B6260095B726004046294624
:1069C000CDF80CC00092FFF76FFD009ADDF80CC007
:1069D000002840F0D180BCF1000F0DD01146D8F84E
:1069E00000306246D8F80400CDF800C09847DDF8C2
:1069F00000C0002840F0C0803C465E44102CD8F80F
:106A000000300DD9D8F804006C491022CDF800C030
:106A10009847002840F0B080103CDDF800C0EDE75A
:106A20005CB1D8F8040065492246CDF800C098470B
:106A3000DDF800C0002840F09F80D8F80030D8F87A
:106A4000040051465A4666449847002840F0948016
:106A50003E44B9F1000F79D073E0079BD3F800A052
:106A60001A1D0792BAF1000F09D05346994699F8BA
:106A700000200133002AF9D1CAEB090903E0DFF84D
:106A800040A14FF00609002F02DBB94528BFB946E7
:106A90004D458CBFC9EB0505002514F0010405D157
:106AA00040462946FFF700FD002865D1D8F80030A0
:106AB000D8F8040051464A46984700285CD14E4415
:106AC0003EE052EA030E0ED002F00F0E10F80EE078
:106AD0004FEA131C01F801ED4FEA121E4EEA037E45
:106AE00072466346EDE70B467F1A01BF302201274D
:106AF00001F1FF3301F8012C03377822BD4203F87E
:106B0000012C4FF0300203F8022C88BFED1B4FF030
:106B1000230298BF002514F00104A3F1030903F830
:106B2000032C04D140462946FFF7BEFC20BBD8F811
:106B30000030D8F8040049463A469847E0B93E4448
:106B400024B140462946FFF7AFFCA8B92E44CCE457
:106B5000079B012D03F104021B688CBF05F1FF3573
:106B6000002514F0010407928DF8203008D140462A
:106B70002946FFF799FC10B14FF0FF301AE02E4480
:106B8000D8F80030D8F8040008A901229847002856
:106B9000F2D16F1C2CB140462946FFF785FC002836
:106BA000EAD13E44A1E4079B1A1D1B6807921E60B0
:106BB0009BE430460FB0BDE8F08F00BF56B426000E
:106BC00090B42600F8B50388064615462BB14A2B2B
:106BD00015D0002303800320F8BD174803F015FEED
:106BE00004462CB1201DA16803F0E1FD2468F8E7FC
:106BF000124B01221A704A2333800120F8BD8829E4
:106C0000FBD10D4803F001FE0446002CF3D0231DF8
:106C10009D420ED10848214603F001FE084B6269EF
:106C20001F681A60A2691D460AB1E06990472F608B
:106C3000E1E72468E9E700BFA00A00202E14002045
:106C4000B80A002010B5064B002406481C7003F05B
:106C5000D9FD2146BDE81040034800F005BB00BF48
:106C60002E140020A00A00209004002070B50446D5
:106C7000E3610B4B049D1B786561A26143B1094D33
:106C8000094B2E68201D2B6003F091FD2E6000E063
:106C9000A1602146BDE87040044803F0D4BD00BFA8
:106CA0002E140020B80A002090040020A00A002022
:106CB00013B5034C24680094FFF7D8FF02B010BD51
:106CC000B80A002010B5084B04461B781BB10430ED
:106CD00000F0DEF801E0C36003612146BDE810402A
:106CE000024803F09CBD00BF2E140020A00A002023
:106CF00000230649002241F82320054941F82320BA
:106D000004495A5401330C2BF3D170476C170020FF
:106D10002C1700206017002038B50A4B04461B5C76
:106D2000094D63B1FDF7CEFF084A55F8243052F8FB
:106D3000241042F824005B1A034445F8243055F827
:106D4000240038BD601700202C1700206C1700208D
:106D5000014B43F8201070472C17002010B50E4C43
:106D6000236813B90D4A136010BDFDF755FF216864
:106D700091E80C001A44131A8A6842B192E8120092
:106D80002144091A8B4228BF0B469268F5E7184444
:106D9000024B186010BD00BFA40A0020A80A002002
:106DA000014800F079BA00BFA0040020F8B50388BC
:106DB00005462BB1592B09D0002303800320F8BDD1
:106DC0001E4A136059232B800120F8BD872920D04B
:106DD0008229F7D1194F00263C68002CF2D02046BA
:106DE00003F002FD90B1E0688821224600F010FA1D
:106DF00050B9E060A3680EB1B36000E03B600023CF
:106E0000A360FFF7ABFFE5E7FFF7CAFF2646A468DC
:106E1000E3E70A490B680BB90B60D3E7D8689042E7
:106E200001D19B68F7E70B6099680029CAD0C86850
:106E300090420ABF89680B469960F5E7A40A0020D2
:106E400010B50446FFF7ACFFE3680B4A4BB113687B
:106E50003BB1A34203D1094A1268DA6007E09B689C
:106E6000F6E7064B1B68E36013681460A360BDE897
:106E70001040FFF773BF00BFA40A0020B80A00202B
:106E8000024B1868003018BF01207047A40A002088
:106E900010B50B4A04461368984206D18368136004
:106EA00008E09A68A24203D01346002BF9D103E010
:106EB000A2689A60FFF752FF0023A360E36010BD51
:106EC000A40A0020384B30B500241C60374BB7B003
:106ED0001C60374B21461C60364B22461C60364BEB
:106EE00036481C60364B374D1C60374B1C60374BA7
:106EF0001C60374B1C60374B1C60374B1C60374B9A
:106F00001C60374B1C60374B1C60374B1C60374B89
:106F10001C60374B1C60374B1C6002238DE8180047
:106F2000029401230394FFF797FA334A214633482A
:106F3000FFF792FA1E213248FFF78EFA01213148FD
:106F4000FFF7FEF82860304803F001FB2B68A342EE
:106F500001DA2E4815E02E4803F0F9FA2146002206
:106F60002868FFF74DF9286804A9C822FFF776F9C9
:106F7000002804F1C80411DC124B1868FFF72EF941
:106F8000244803F0E4FA244803F0E1FA06211D48FE
:106F9000FFF7D6F8214B186037B030BD04A9204860
:106FA000FFF75AFADAE700BFEC160020E0160020DF
:106FB000F01600202817002014170020C4B4260063
:106FC000E8160020AC0A002018170020FC1600204C
:106FD000F81600202417002004170020E4160020D3
:106FE000D81600200C170020101700201C170020B6
:106FF000F41600202017002000CA9A3B4DB5260049
:1070000082B526008EB526009AB52600ACB52600BE
:10701000C5B526000AB6260050B626009C170020EB
:107020004DB6260038B5836804460D469BB10A4824
:1070300004600220A07304F10C0098470238012874
:1070400001D9832D05D120462146BDE8384000F006
:1070500005B80123A37338BDB80A00202DE9F84311
:107060001C4A0446156889462B4690461A4E3768D6
:10707000A34204D00BB11B68FAE7BDE8F88334B330
:10708000A37BABB10023A37345B1AC4204D0284627
:107090008721224603F099FB2D68F5E7A3683BB1F1
:1070A0004C4505D0346004F10C0083212A469847F2
:1070B000D8F800309C4203D12268064B05E0134605
:1070C00023B11A68A242FAD122681A603760BDE87B
:1070D000F88300BFBC0A0020B80A002010B5094B95
:1070E00000221A70084B1C685CB1E37B3BB10123A2
:1070F0000022A373E27320468221FFF793FF2468E6
:10710000F2E710BD32140020BC0A0020024B1878B0
:10711000421C1A70704700BF34140020064B8A22AC
:107120001A70064A00231370054A1370054A13604B
:10713000054A1360704700BF341400202F1400204C
:1071400031140020BC0A0020B80A00202DE9F041CB
:10715000214E33780BB1FFF7C1FF204D2C78002C66
:1071600034D0DFF88CE00C229EF800301C495A43E2
:1071700088181C4F895CDFF87C804268DFF878C093
:107180008068013303F01F03013C3970C8F8002008
:10719000CCF800008EF800302C7088B9124C134BDC
:1071A0001B68236023688BB133780BB1FFF796FF20
:1071B00020683978D8F8002003F007FB2368EFE750
:1071C000812904BF0123837303F0FFFA3378287801
:1071D0001844BDE8F08100BF3214002031140020B3
:1071E000C40A002033140020B00A0020BC0A00208A
:1071F0002F140020C00A0020B40A0020024A034BCA
:1072000010781B7818447047311400203214002085
:10721000F0B50C4E3478202C11D00B4B0B4D1B7855
:107220000B4F234403F01F032B700C256B430134D9
:10723000FD18A860F9546A6034700020F0BD012088
:10724000F0BD00BF311400202F14002030140020A6
:10725000C40A002038B5034C256803F0B6FA25604F
:1072600038BD00BFB80A002010B50A4609490C68AD
:10727000234683420DD00BB11B68FAE748B1046086
:1072800008600121817383818121BDE81040FFF7EF
:10729000E1BF10BDBC0A002038B1837B013B012B4C
:1072A0009FBF024A0123C37313707047321400203A
:1072B00006480023064A074952F8232051F82310B4
:1072C00001330C2B01FB1200F4D1704700CA9A3B2A
:1072D0009CB026002C17002010B5084C206858B12F
:1072E00000232360816843689847236823B1BDE881
:1072F00010401868FDF7FCBC10BD00BF440C002016
:1073000038B505880446672D09D0792D2ED0002D7B
:1073100032D1FFF7FBFE1B4B18701B4B1D601B4847
:1073200003F0DCFA431C01D167231DE00A28164B49
:1073300007D01A687E2AF2DC511C1960144B98544D
:10734000EDE7196800254A1C1A60114A0D4B555487
:1073500028461978FFF75CFF0E4B852118682A46EE
:10736000FFF756FF20B97923238009E0852907D14B
:10737000054B00221A60D2E700230380032038BDAA
:10738000012038BDE7170020500C0020480C0020D9
:10739000B6140020B80A00200D2810B5014615D0FB
:1073A0000B4C23782BB90B4803F084FA48B901231E
:1073B00006E00A2805D1074803F07CFA08B100234B
:1073C00023700548FFF768FF012010BD002010BDA5
:1073D000B5140020480C0020B004002008B5054872
:1073E0000549802203F05FFABDE808400348002108
:1073F000FFF73ABF480C002035140020B0040020ED
:10740000054A136843F004031360044B1B6890693A
:1074100043EA002080B2704700700D4014700D40A8
:10742000174A136823F00C031360164B01221A60ED
:107430001A68012AFCD1144B08221A60E322C3F80F
:10744000142203F505731946104B1B68DB07FBD5A7
:10745000102000230E4A0138126802F0010243EAAC
:1074600002034FEA43039BB2F4D1002BF0D0094A48
:10747000180A03F0FE0310601360EF230B607047DF
:1074800000700D40A8200D40248608406486084006
:107490009C86084014700D4070B505880446772D11
:1074A00030D07E2D3FD0002D4DD1FFF72FFE294B40
:1074B0001870294B1D601D462B68284A264E52F82D
:1074C00023204AB126480021C15493688020984760
:1074D000336801333360EFE7224A1370772320E0EB
:1074E0001F4AD256002A12DB1B4A1368013313606D
:1074F000194B1C4A1B6812789342F1DB1A4B1B682C
:10750000002BEBD0184A00231360134AEFE7114A0F
:1075100000201178114A52F82320FFF779FE30B984
:107520007E23238013E00B4B1B788B420FD10A4B39
:107530000B491A688B5C03F07F038B540A4A13686B
:1075400001331360D0E700230380032070BD0120C6
:1075500070BD00BFE8170020580C00206804002010
:10756000E317002036150020540C0020094B1A7830
:107570000023934204DA084951F82310814207D1CD
:1075800006490748CA5C62F07F02CA54FFF784BE0E
:107590000133EEE73615002068040020E3170020D1
:1075A000C004002070B505460C46164600F014FADB
:1075B0002E612046BDE87040014903F0EEBA00BFDD
:1075C000AAB6260010B50446054B064819785A7825
:1075D000A388FEF741FF2046BDE8104000F068BADE
:1075E000A4170020ACB6260010B50446074B084887
:1075F00019785A78A388FEF72FFF23691B681BB1FF
:107600002046BDE81040184710BD00BFA417002059
:10761000D0B6260070B50446094B0E4615461978BB
:107620005A780848A388FEF717FF23695B682BB1D7
:10763000204631462A46BDE87040184770BD00BF5D
:10764000A4170020FCB62600014803F0DBB800BFF9
:107650005C0C0020014B1860704700BF600C0020DC
:10766000014803F0D2B800BF5C0C00202DE9F041C6
:1076700006460B480C46174603F0C7F870B18388DE
:10768000A34208D185684DB1314622463B46AC46FF
:10769000BDE8F041604703F0E5F8EFE7BDE8F081B1
:1076A0005C0C002010B50B4C0B4A616E04F13800E5
:1076B0000023FFF7FDFAFFF7A3FE636E074AB0FB56
:1076C000F3F101FB130104F118000023BDE81040A1
:1076D000FFF7EEBA640C0020E1762600F97626006A
:1076E000044B5A6E196E52008A4294BF5A6659660C
:1076F000FFF7D8BF640C002010B500F0BBFA00F013
:1077000073FA002303800446FFF7AAFF68B1037BE6
:107710005BB12388818804EB83025180C1880133E7
:107720009180238003F09EF8F0E7208880000230EB
:1077300080B200F017FA238823B1BDE81040024858
:1077400000F08AB810BD00BF640C00209DF8003026
:10775000012B04D1024B9A6D5A66FFF7A3BF704705
:10776000640C0020F8B586460F4616461D46074CA9
:1077700071462046064A00F05DF8A765E665256675
:107780000448BDE8F840FFF765BF00BF640C002067
:10779000D4B026004D7726002DE9F043134B85B079
:1077A00006461A200D46144693F8009093F801807F
:1077B00000F0B4FA07781A2000F0B0FA437849468E
:1077C0008DE8280002943B4609484246FEF744FEF5
:1077D00073695B6833B130462946224605B0BDE87F
:1077E000F043184705B0BDE8F08300BFA4170020A0
:1077F00024B726001FB504461A2000F08FFA014670
:1078000003A803F0EAF9094B9DF80D0019785A789E
:107810009DF80C3000900648FEF71EFE63691B6859
:1078200013B1204603A9984704B010BDA417002047
:107830004EB7260070B505460C461646044AFFF7BB
:10784000B1FE6E612046BDE87040024903F0A5B963
:10785000DCB0260020B7260038B50546074C08489E
:1078600021786278FEF7F8FD21461A2000F04AFAE6
:107870002846BDE83840FFF7A5BE00BFA41700208A
:107880006CB7260010B54378047843EA0420054B12
:1078900088409B5CC2F1080203EA20201041C0B27C
:1078A00010BD00BF83B726002DE9F04306460F4602
:1078B0000546A1B00024AB1BBB4222DAA9462A78B8
:1078C000072302F0010130310DF8031013F1FF33EB
:1078D0004FEA6202F5D24FF0000868468DF8088042
:1078E0000134FEF7B9FD0A4899F80010FEF7B4FD1F
:1078F0000A2C05F10105DED1204602F010FE4446B7
:10790000D9E714B10A2002F00AFE21B0BDE8F083E5
:107910008CB7260038B5124D12486A782978FEF7E0
:107920009BFD00F061F9044600F026F9014620466F
:10793000FFF7BAFF0C4B1B689847297804466A7812
:1079400040B1A3880948FEF787FDA188012000F017
:10795000CBF902E00648FEF77FFD204638BD00BFA8
:10796000A417002097B72600E4B02600AFB7260082
:10797000D2B7260038B504460E4B0F485A7819780E
:10798000A388FEF769FD0D4B20465B689847A188E8
:107990000546012000F0A8F900F0EAF8044600F0DE
:1079A000F1F801462046FFF77FFF281C18BF012091
:1079B00038BD00BFA417002010B82600E4B0260090
:1079C000014B9B68184700BFE4B02600014802F055
:1079D00019BF00BFD00C0020034681800148194622
:1079E00002F031BFD00C00200146014802F017BF61
:1079F000D00C002010B50446054802F006FF28B15F
:107A00008388A34202D002F02DFFF8E710BD00BF2B
:107A1000D00C00200129F8B507460C46154604D0C5
:107A2000022904D041B9104802E0104800E0104893
:107A30002946FEF711FD02E00E48FEF70DFD0E4847
:107A400002F0E3FE064638B1B3680BB12046984712
:107A5000304602F007FFF5E7384621462A46BDE8E2
:107A6000F840FFF7D7BD00BF6AB8260034B826003B
:107A700051B8260082B82600D40C002038B5FFF794
:107A800049FF0546094802F0C0FE044630B163686C
:107A900003B19847204602F0E5FEF6E725B12846F7
:107AA000BDE83840FFF7A0BD38BD00BFD40C0020B2
:107AB00010B50446FFF75EFF38B100F06FF8034BD6
:107AC000034821469B689847012010BD50B126000D
:107AD000157A2600074A084913681844884283BF6C
:107AE000064B0C224FF0FF3010608CBF1A60184616
:107AF000704700BFD004002000800020A0170020A5
:107B0000084B10B51B689847074B5B689847074BB5
:107B10005B689847064B5B689847BDE81040054B8B
:107B20005B6818477CB1260024B1260050B12600BE
:107B300008B12600F0B0260010B508490B88834232
:107B4000A1BF074C80B222881218A1BF181A088062
:107B500022800120B8BF002010BD00BFEC0D002026
:107B6000EE0D0020014B1880704700BFEC0D002087
:107B700000487047D80C0020014B1888704700BFA0
:107B8000EC0D0020034A044B10781B781844C0B257
:107B9000704700BF37150020EE0D00202DE9F041A1
:107BA0000D4B1A881D46A2B10C4B00261F880C4BAA
:107BB00093F8008034B2BC4206F1010607DAFFF701
:107BC000E1FF084B1C44235C04F80830F2E7002373
:107BD0002B80BDE8F08100BFEE0D0020EC0D0020F1
:107BE00037150020D80C002008B5FFF7CBFF014B5C
:107BF000184408BDD80C002008B5FFF7C3FF024B9E
:107C00001B88184480B208BDEC0D002010B5044656
:107C1000FFF7F2FF2318802B0FDC013880B202B28D
:107C2000002A04DB064B995C23449954F5E7054B85
:107C3000187820441870012010BD002010BD00BF2E
:107C4000D80C00203715002010B507480021342239
:107C500002F0EEF80024054805492044023402F001
:107C6000BCFF082CF7D110BDAE170020A6170020CE
:107C7000C8B12600044A00231380044A1380044A32
:107C80001370FFF7E1BF00BFEE0D0020EC0D0020E8
:107C90003715002038B50C460546FFF7EBFF802C62
:107CA00028BF802429462246034802F04BF8034BA4
:107CB00020461C8038BD00BFD80C0020EC0D0020F1
:107CC00010B5074B00F1340250F8044B904243F8D2
:107CD000044BF9D10B68034A13604B68536010BD25
:107CE000AE170020A6170020024B23F81010012029
:107CF000704700BFAE170020014B33F810007047EB
:107D0000AE17002008B5044B1A3803EB400002F010
:107D100064FF012008BD00BFA6170020024B1A38DF
:107D200003EB4000704700BFA6170020014802493E
:107D300002F056BFA8170020C8B1260008B50448B5
:107D400002F093FDBDE80840024802F08EBD00BF7E
:107D5000E0040020D404002010B504460948214660
:107D600002F093FD68B12468B4F880102046FFF754
:107D700091FF04F1820004F1B601BDE81040FFF765
:107D80009FBF10BDD4040020014B1888704700BF6E
:107D9000200900202DE9F041012986B006460F4652
:107DA000144640F3AA80037803F007028DF80C20F4
:107DB000C3F3C0028DF80D20C3F300128DF80E201E
:107DC000C3F34012C3F380138DF8103043788DF85D
:107DD0000F20C3F340028DF81220C3F3810203F099
:107DE00001058DF81320C3F301129B098DF815309E
:107DF0008DF814208DF8115003AB03CB1B88206144
:107E0000616123830DB1B51C02E0B378F51CA37644
:107E100003A801A902AA02F0EBFE9DF81380B8F1B5
:107E2000000F23D0029B23B16A7815F8023B03EBC5
:107E30000223B8F1020FA38309D12046314902F091
:107E4000CCFE6B78237015F8023B637014E0B8F138
:107E5000030F11D105F108021346611E13F8010D3D
:107E6000AB4201F8010FF9D1154605E0204625493E
:107E700002F0B3FEA4F81C809DF81580B8F1000F45
:107E80002BD0019B53B16A7815F8023B03EB022318
:107E9000029A9BB2E3831AB9A38301E0A38BE38325
:107EA000B8F1020F0AD104F10800164902F095FE5C
:107EB0006B78237215F8023B637215E0B8F1030F7B
:107EC00012D108352A46E31D04F10F0112F8010D05
:107ED00003F8010F8B42F9D106E004F108000949CB
:107EE00002F07BFEA4F81E80AE1BBB1BE363A56300
:107EF000BE42D4BF3046002000E0002006B0BDE8FE
:107F0000F08100BFC8B1260030B591B00546FFF73B
:107F10003BFF4FF6FF73984202D14FF0FF307EE0F7
:107F200040226846002101F083FF3E4B1A782AB9AF
:107F300001221A70FFF764FA3B4B18701420FFF708
:107F4000DBFE8DF810001320FFF7D6FE8DF812002F
:107F5000FFF7ECFE18B100238DF8133004E00B207E
:107F6000FFF7CAFE8DF81300002301248DF81430AA
:107F70008DF815308DF81840ADB10A20FFF7BCFE22
:107F800028B10A20FFF7B8FE8DF81A000BE0264B47
:107F90001A7802B91C7019780A204A1C1A708DF8D8
:107FA0001A10FFF7A1FE02248DF81940FFF7ECFE2E
:107FB000ADF81C00FFF7BAFE38B1FF238DF817406B
:107FC0008DF800308DF8013008E01B20FFF7A6FE89
:107FD0000146684602F001FE8DF81740FFF7D4FE17
:107FE000ADF81E001A20FFF799FE014602A802F024
:107FF000F4FDFFF7F9FD0E90FFF7BEFD0F90684608
:1080000002F06DFE04464DB1FFF700FE002884D05B
:10801000FFF7AEFD0146684602F07AFE204611B039
:1080200030BD00BF491500204815002038B5002498
:108030000A4D1A2005EB8405FFF770FE294602F071
:10804000CFFD38B10A20FFF757FEAB781B1A584214
:10805000584138BD0134102CEAD138BDE01300205E
:1080600038B50025104C1A20FFF758FE04EB8501A7
:1080700002F0B6FD6B1C10B9102B1D46F2D1013B6E
:108080002BB1013B04EB830211685160F8E70A2031
:10809000FFF732FEA0701A20FFF740FEBDE838401F
:1080A0000146014802F099BDE0130020014B9B6896
:1080B000184700BF24B12600014BDB68184700BFFA
:1080C00050B12600014B5B69184700BF24B1260060
:1080D000014B9B69184700BF24B12600014B1B6A66
:1080E000184700BF7CB1260007B51F4802F02FFAE1
:1080F000FFF742FD032803D11C4802F028FA09E0EB
:108100001B4B9B689847002804DAFFF735FD0146B2
:10811000184817E01B20FFF701FE174902F060FD29
:1081200040B9FFF703FE28B9144803B05DF804EB2B
:1081300002F00DBAFFF77AFF48B10A20FFF7DCFD25
:1081400001460F4803B05DF804EBFEF785B9FFF771
:1081500087FF0C4802F0FBF90B4BDB68019303B07F
:108160005DF804EB184700BFABB82600C1B8260085
:1081700044B12600D6B82600A4170020F3B8260084
:1081800007B9260035B9260008B126002DE9F043CD
:10819000054685B00E461A204249FFF7B3FD01217E
:1081A0000B20FFF7A1FD404B5B689847002804DADD
:1081B0003E4802F0CCF9052267E0FFF7D9FC3C4CC1
:1081C00090F802806768FFF7D3FC8146FFF714FD43
:1081D00001464846B847FFF7A9FDD4F8189007466E
:1081E000C847002853D15FB1A3680193FFF704FD8E
:1081F000019B984748B102280CBF0122042244E0A9
:10820000E3699847002842D1EEE717B10022012424
:108210003FE0FCF757FD0746FCF71AFFFCF752FD5D
:108220006FF00C03DB1BC342F8D4C84728B1FCF73E
:1082300049FD0746FCF70CFF0CE0E369984700286E
:10824000F5D11B4B5B6998470028F0D0194802F024
:108250007EF919E0FCF736FD6FF01403DB1BC34217
:10826000F8D4E369984778B1114B03A803211B693F
:10827000984703280BD19DF80E20B2EB080218BFD7
:108280000122002AC2D000E00222002401E00122E3
:10829000FBE728463146012302F002FE204605B0E6
:1082A000BDE8F083A417002044B1260048B9260099
:1082B0007CB126006FB9260082B0044B08B11B6A5E
:1082C00000E05B6A019302B0184700BF7CB1260052
:1082D00008B5024B1B689847023008BDFCB0260069
:1082E00038B50C4B9B689847041E02DA4FF0FF30FC
:1082F00038BDFFF779FC03780546002BF6D1022044
:10830000FFF71AFC0028F1D06878FFF72BFCA01CBF
:1083100038BD00BFFCB0260070B50220FFF776FC28
:1083200010B94FF0FF3070BDFFF722FC002505703B
:108330000446FFF721FC6070FFF75EFC0446FFF780
:10834000C7FF20442A2812DCC0F12B00C4B2FFF77B
:108350004BFC0646FFF710FC29462246304401F04C
:1083600067FDFFF709FC204480B2FFF7FBFB044BDD
:108370005B689847041ED4DBFFF710FCA01C70BD9F
:10838000FCB02600014B9B68184700BFF0B02600E8
:1083900070B505460C4614200121FFF7A5FC034BE0
:1083A00028462146BDE870409B68184708B1260062
:1083B000034B188880B2003018BF0120704700BFFF
:1083C00020140020002934D0102834D8DFE800F031
:1083D00009143333191B1E20333333333324272A34
:1083E0002D00164B1B7803F0020303F0FF000BB1C6
:1083F000012303E008607047114B1B780B600020DD
:108400007047104B00E0104B1B68F7E70F4B00E084
:108410000F4B93F90030F1E70E4B9B7DEEE70D4BD0
:10842000DB7DEBE76FF00F03E8E70A4B93F91830B9
:10843000E4E7022070470120704700BFD2160020F9
:108440004D160020800D00207C0D002050160020CD
:10845000CC15002060B1260010B504462B2002F098
:1084600072FD6300233303F03F0300F0C0011943A2
:108470002B2002F051FD014B1C7010BD5016002046
:1084800010B502F042FDC8B1602801D13A2002E0E7
:10849000702803D13B2002F02CFD0FE0362002F0C3
:1084A00028FDFCF70FFC044602F02FFD30B1FCF76D
:1084B00009FC6FF4A3731B1BC342F5D40E4A137857
:1084C00023F004031370FCF791F9FCF7A9F93A20A3
:1084D00002F00FFD342002F00CFDFCF7F3FB044624
:1084E00002F013FD102806D0FCF7ECFB6FF4A37329
:1084F0001B1BC342F4D410BDD216002010B51B4C78
:1085000023785B060AD52378332023F040032370B9
:1085100002F0EFFCFCF7D6FB04460FE0FCF786FB0D
:10852000134B1B68C01AB0F5617FECD210BDFCF78D
:10853000C9FB6FF4A3731B1BC34203D502F0E5FC18
:108540004028F4D1FCF7BEFB044606E0FCF7BAFB7A
:108550006FF4A3731B1BC34203D502F0D6FC0028A3
:10856000F4D1FCF763FB024B186010BDD21600205B
:10857000780D002010B5FFF7C1FF134A3A20137899
:1085800023F00403137002F0B4FC342002F0B1FCB9
:10859000FCF798FB044602F0B8FC10280BD1FCF75E
:1085A00025F9FCF73DF9FCF78DFB084B0122D8615A
:1085B000074BDA7110BDFCF785FB6FF4A3731B1B2F
:1085C000C342E8D4EBE700BFD21600206C170020AE
:1085D0006017002010B51E4CFCF71AF9FCF732F9B1
:1085E000E37953B1FCF76EFB1A4A1B49D369C96999
:1085F0005B1A18440023D061E371A3795BB1FCF7E7
:1086000061FB144A1449936989695B1A1844104B39
:10861000906100229A7102F078FCC0B1602801D10B
:108620003A2002E0702802D13B2002F062FC3620A2
:1086300002F05FFCFCF746FB044602F066FC30B13A
:10864000FCF740FB6FF4A3731B1BC342F5D410BDB2
:10865000601700202C1700206C17002038B50F4D34
:108660002B789B0716D50E4C2378ABB923780133B2
:10867000DBB22370FFF7AEFF3221032002F04CFC87
:10868000392002F036FC23780120013BDBB2287050
:10869000237038BD012038BD002038BDD21600201F
:1086A0004C16002070B5184D2B7803F0020303F030
:1086B000FF003BBB154C23782BBB23780133DBB287
:1086C0002370FBF7B1FFFCF7FDFA0646FCF7C2F892
:1086D00080B9FBF7B5FF2B78062143F00203032096
:1086E0002B7002F019FCFFF745FF2378013BDBB24A
:1086F000237007E0FCF7E6FA6FF4A3739B1BC342F9
:10870000E4D4E6E7012070BDD21600204C1600200C
:1087100008B5094B1B7803F00A03022B01D0002097
:1087200008BDFCF797F8012805D0044B1B889BB2C5
:10873000002BF4D0012008BDD21600202014002008
:108740003A4B2DE9F3479C7D0746A0429A4667D3F2
:10875000DB7D834264D3364DDFF8E4802B7863B150
:10876000344B35481F7098F80030012643F0100351
:1087700088F80030FEF790FD53E098F800301A07B3
:10878000EED4FFF7C5FF06460028E9D198F800307F
:1087900023F010029B0788F8002004D4FFF782FF23
:1087A0004FF0010900E081462B783C1B0133DBB21E
:1087B0002B70FFF70FFFDAF81020BAF81410E3B2AD
:1087C00001FB03210C0340F27121B4FBF1F142F6ED
:1087D0000E700191C9B202F09FFB9DF8051042F6A0
:1087E0000D7002F099FB42F60C709DF8061002F035
:1087F00093FB124B1F70B9F1000F07D198F80030AE
:1088000043F0400388F80030FFF7B4FE2B78013BBB
:10881000DBB22B70B9F1000F03D0FFF71FFF00E0B0
:108820000226304602B0BDE8F08700BF60B12600E6
:108830004C1600204A150020EC0400204D160020A4
:10884000D216002010B50C46072835D8DFE800F016
:10885000040F343415171A29012902D1FFF722FF1A
:108860001DE009B1022010BDFFF7F8FE17E0C8B205
:10887000FFF766FF022812D1F4E7104B00E0104B1F
:108880001C600CE00F4B93F918106FF00F038C4233
:10889000A8BF0C469C42B8BF1C460B4B1C70002066
:1088A00010BD7F2905DC6FF07E039942B8BF1C46DE
:1088B00000E07F24054BF1E7012010BD800D002072
:1088C0007C0D002060B126004F1600204E160020BF
:1088D000F8B5214D2B7803F0FF06002B3AD11F4B42
:1088E0001B789A0702D4FFF7DDFE01262B780133AF
:1088F000DBB22B70FBF7AEFF012821D0184B194FCC
:108900001C783B789C4204D01720214602F004FBDF
:108910003C70FCF7D7F9074642F6727002F013FB81
:108920008307044604D584F00404C4F3800408E0FB
:10893000FCF7C8F96FF4A373DB1BC342ECD4F2E776
:1089400000242B78013BDBB22B700EB1FFF786FEC3
:108950002046F8BD0020F8BD4C160020D21600209D
:108960004E160020CC1500200A4603397C2908B594
:10897000034607D8044905480A80194601F0E2F980
:10898000002008BD012008BD24140020CD150020C2
:10899000F8B5134D0A462C88A4B2F4B12B881149BE
:1089A0009BB20B4413F8026C2B882C889BB2A4B2A8
:1089B000023C0B44944213F8017C0EDC224601F089
:1089C000C1F971B2002389B204202B80FFF78CF922
:1089D000032007F07F01FFF787F92046F8BD00BFAD
:1089E000201400204B1500202DE9F743804602316A
:1089F0008CB26C4AC4F3022302AE43F0180306F8AB
:108A0000043D1378E5B223F004033A2013708DF887
:108A1000055002F06EFA3B2002F06BFA312002F0B2
:108A200068FA2621032002F077FA0221012002F0E1
:108A300073FA3046022102F09FFA7E2C28BF7E2571
:108A40004046294602F098FAFCF73CF90646641BBA
:108A5000A4B202F05AFA302806D1352002F049FAC1
:108A6000FCF730F906460EE0FCF72CF96FF4A3731F
:108A70009B1BC342EDD4F0E7FCF724F96FF4A3731A
:108A80009B1BC34203D5FBF7E5FE0128F4D1FCF79D
:108A900019F9454F454E0123B861B371FBF7DAFE72
:108AA00080B942F6D67002F04EFA58B1002101208A
:108AB00002F032FAFFF78EFD0320062102F02CFAB5
:108AC00001206BE064B3FCF7FDF8454480469CB19F
:108AD000FBF7C8FE80B91F2C94BF5FFA84F94FF0F2
:108AE00020092846494602F047FA314BC9EB0404F5
:108AF000DB68A4B24D449844FBF7ACFE012806D0D5
:108B000002F003FA00F0BF00102814D10EE0FCF7C9
:108B1000D9F8274BDB684344C01A0028D7DBEFE7BE
:108B2000FCF7D0F80446FBF795FE98B9FBF792FEE8
:108B3000012818D1BAE7FCF7C5F8044602F0E5F9B8
:108B40002028B3D1FCF7BEF86FF4A3731B1BC342FC
:108B5000F4D4ABE7FCF7B6F8154BDB682344C01A36
:108B60000028E0DBE2E70021012002F0D5F9032034
:108B7000062102F0D1F9B37953B1FCF7A3F80D4AFD
:108B8000B96993695B1A1844084B906100229A7185
:108B9000FCF798F80123F861F371002003B0BDE8F9
:108BA000F08300BFD21600206C1700206017002051
:108BB00060B126002C170020F8B5324D2B88834277
:108BC0005ED1314C237843F0080222709A0703D417
:108BD000FFF768FD012700E000272C4B1B68DB072F
:108BE0000BD5FFF775FE40B90FB1FFF737FD2378BE
:108BF000022023F008032370F8BD254E337801339B
:108C0000DBB23370FFF7E6FC224B234A93F90030C6
:108C100092F90000834201D0FFF71EFC0FB9FFF765
:108C20006DFC1E482988FFF7DFFEA0B9FCF74AF863
:108C3000054602F06AF9102805D1FBF7D7FD00259B
:108C4000FBF7EEFD0FE0FCF73DF86FF4A3735B1B41
:108C5000C342EED4F1E72FB9237843F040032370E9
:108C6000FFF788FC01253378013BDBB233700FB18D
:108C7000FFF7F4FC2378284623F008032370F8BD9F
:108C80000120F8BD24140020D21600207C0D002005
:108C90004C160020501600204F160020CD15002045
:108CA0002DE9F041564F387810F0010440F0A480CF
:108CB000544E33780133DBB23370FBF7D9FD5248A1
:108CC00001F045FC2046FBF715FD0120FBF750FDA8
:108CD0004E4801F03CFCFBF7A7FC3020FBF7B6FC4C
:108CE000642001F0FEFBFBF7ABFC494B1C895D687F
:108CF000A4089846002D74D10621032002F00CF937
:108D0000AF21182002F008F92621002002F004F912
:108D10000021012002F000F90621032002F0FCF8F6
:108D20001F2002F010F900F0E7011F2002F0F4F814
:108D3000292002F008F900F0CF0141F03F0129207D
:108D400002F0EAF82A2002F0FEF800F0CF0141F02C
:108D500030012A2002F0E0F82021262002F0DCF881
:108D6000272002F0F0F840F00101C9B2272002F0FC
:108D7000D3F8282002F0E7F800F09F0141F020012D
:108D8000282002F0C9F820211D2002F0C5F8214852
:108D900001F0DDFB204B03221A60204B01221A60F8
:108DA0001F4B0E201870FFF757FB98F819401D4B0A
:108DB000214617201C7002F0AFF81B4B00211B4806
:108DC0001C70FEF751FA3B781A2043F003033B7006
:108DD0003378013BDBB23370FFF7B2FCFFF73EFCA8
:108DE0000AE00435002C87D035F8040C15F8021C75
:108DF00002F092F8013CF4E70120BDE8F08100BFE9
:108E0000D21600204C160020B4B92600DAB926008C
:108E100060B12600FEB92600800D00207C0D0020E8
:108E20004F1600204E160020CC150020EC04002028
:108E30002DE9F041734E92B033783546724F3BB115
:108E40003B78724843F020033B70FEF725FACCE0F4
:108E50003B7823F020033B7033780133DBB233706F
:108E600002F053F800F0EF0060280AD042F6D77005
:108E700002F069F8044630B13B7858072BD4012C36
:108E800006D8FFF7FDFA3378013BDBB23370B4E06C
:108E9000022102A802F08CF89DF808209DF8093004
:108EA00002F0070103EB012312F0100F584A14BF20
:108EB000023B043B13801388022B40F298807F2BE7
:108EC00000F29580534B00221A803B78023C43F01D
:108ED0000403E4B23B703B78590740F18A804D4E61
:108EE000DFF82C813088B8F80030221802339A421B
:108EF0007DDC494F2146384402F05AF83188B8F8F1
:108F00000030214489B202339942318071D17B18FB
:108F100013F9013C002B6ADA404C23889BB2002BEA
:108F200065D10DF1080838464246FEF733FF0028A8
:108F300047D03B4B1A681F4612F0010F03D13B6824
:108F40009A0716D511E09DF81830022BF7D09DF83E
:108F50001F30022B0CBF0223082313F1FF33EED383
:108F600018F80320FF2AF8D024E09DF81820012AE1
:108F700001D0022025E09DF81B20002AF9D0DB0754
:108F800011D402238DF8043000238DF805309DF8AC
:108F900022308DF80630FFF71DFB01A80321FFF7F3
:108FA00023FD03200DE040461E4901F019FE002874
:108FB000E7D1DEE740461B4901F012FE0028BED192
:108FC00001200238012812D83388134923802288CF
:108FD000154892B200F0B6FEFFF752FA0B48FEF7C2
:108FE0005BF92B78013BDBB22B70012006E0FFF729
:108FF00047FA2B78013BDBB22B70002012B0BDE8A2
:10900000F08100BF4C160020D2160020EC04002096
:1090100026140020221400205116002020140020C5
:10902000800D0020A41700204B150020822970B568
:1090300005460E4622D11A4B1A781C4602F022022F
:10904000222A01D1FFF7F4FE2378DB0603D5154B66
:109050001878FFF775FB144B1B889BB273B1FEF7B2
:1090600009FEFEF7C1FD8021FFF792FC002805DD17
:1090700080B2FEF777FD0D4B1B6998472B881BB11B
:10908000B3F51B7F04D005E04FF41B732B8005E084
:10909000832E03D100232B80032070BD012070BDDF
:1090A000D21600204A1500202014002024B12600EA
:1090B0008329F7B504460E46174602D1304801F021
:1090C00042FC25886B2D1AD07D2D33D0002D50D138
:1090D0002C4B01219B68812098472B4B81212B4AE7
:1090E00027481D60FEF7A6FB2020FBF77FFA08202B
:1090F000FBF77CFA1020FBF779FA6B2318E0244B7E
:109100001B78B34239D11F4B9F4236D12020FBF749
:1091100075FA0820FBF772FA1020FBF76FFA1D4A68
:109120001D48136880210133136001F040FB7D234B
:10913000238022E0184801F043FBF0B105211748D5
:10914000FEF7A8FD00238DF8043001A82823144958
:109150008DF8053001F044FD0E4D30B90848FEF79A
:109160007BFB10482968FDF777F92B68B3F57A7F08
:10917000D5D100232380032000E0012003B0F0BDFF
:10918000840D0020D4AF26009C0D0020B4B1260031
:10919000E8170020B00D0020A00D002028BA2600FE
:1091A000A41700202EBA260008B50B4613485A789B
:1091B0000978FDF751F912490B685A1C032392FBF9
:1091C000F3F303EB4303D31A012B0A6007D0022BFE
:1091D0000AD08BB90820FBF711FA202008E02020E4
:1091E000FBF70CFA102003E01020FBF707FA082029
:1091F000BDE80840FBF7FAB908BD00BF3ABA26003F
:109200009C0D002053B94AB9002908BF00281CBF93
:109210004FF0FF314FF0FF3000F03CB882B0EC4629
:109220002DE9005000F01EF8DDF804E002B00CBC9F
:10923000704700BF2DE9F041069C904606460F4658
:109240001D4600F029F808FB01FCA8FB002300FBE9
:1092500005C5B21A2B4467EB03038646C4E9002315
:10926000BDE8F0812DE9F843089E174680468946FF
:109270001D4600F067F900FB05F3A0FB074507FB5F
:109280000137B8EB04043D4469EB0505C6E9004528
:10929000BDE8F883704700BF00292DE9F043C0F214
:1092A000A8800026002BC0F29E8081468E46904604
:1092B0009C46174604460D46002B3DD18A4259D99B
:1092C000B2FA82F33BB1C3F120029D4020FA02F2D0
:1092D0009F4015439C40390CB5FBF1F01FFA87FE07
:1092E00001FB10550EFB00F3220C42EA0545AB4290
:1092F00009D9ED1900F1FF3280F00B81AB4240F249
:10930000088102383D44ED1AB5FBF1F301FB13551A
:109310000EFB03FEA4B244EA0545AE4508D9ED199B
:1093200003F1FF3280F0F780AE4540F2F480023B5B
:1093300043EA0043002203E08B420FD90022134688
:10934000341C18BF012460424FF0000565EB450155
:109350005840514000196941BDE8F083B3FA83F2E7
:10936000002A40F089808B4202D3804500F2E280DF
:109370000123E5E712B90123B3FBF2F7B7FA87F847
:10938000B8F1000F3BD1ED1B4FEA174C1FFA87FED7
:109390000122B5FBFCF00CFB10550EFB00F3210C79
:1093A00041EA0545AB4207D9ED1900F1FF3102D280
:1093B000AB4200F2C3800846ED1AB5FBFCF30CFB90
:1093C00013550EFB03FEA4B244EA0545AE4507D98A
:1093D000ED1903F1FF3102D2AE4500F2AD800B462C
:1093E00043EA0043ACE752426FEA060663EB4303ED
:1093F0005BE7404261EB41014FF0FF3652E707FA6D
:1094000008F7C8F1200225FA02F34FEA174CB3FB24
:10941000FCF11FFA87FE0CFB113324FA02F205FA65
:1094200008F50EFB01F92A43100C40EA0343994565
:1094300004FA08F407D9DB1901F1FF3078D2994515
:1094400076D902393B44C9EB0303B3FBFCF00CFBB8
:1094500010330EFB00F592B242EA03439D4207D956
:10946000DB1900F1FF325FD29D425DD902383B44E7
:109470005D1B40EA01428CE7C2F1200328FA03F1A8
:109480000CFA02FC41EA0C0C4FEA1C402EFA03F1E4
:10949000B1FBF0F51FFA8CF700FB151129FA03F365
:1094A0000EFA02FE07FB05F943EA0E0E4FEA1E43D1
:1094B00043EA0141894508FA02F808D911EB0C0189
:1094C00005F1FF3332D2894530D9023D6144C9EB01
:1094D0000101B1FBF0F300FB131107FB03F71FFAC7
:1094E0008EFE4EEA014E774508D91EEB0C0E03F1B5
:1094F000FF3117D2774515D9023BE64443EA0543CD
:10950000A3FB0889C7EB0E0ECE4509D305D0002278
:1095100016E71046F7E613460AE794404445F6D2AC
:10952000013BF4E70B46E9E71046A1E71D46CEE70D
:10953000014688E7134603E7023B51E702383D4402
:109540003AE700BF2DE9F043002B44D18A4215468B
:1095500004464FD9B2FA82F70E464FB1C7F1200345
:10956000B94020FA03F602FA07F50E4300FA07F4B1
:109570002F0CB6FBF7F01FFA85FE07FB10620EFBFF
:1095800000F1260C46EA0243994209D95B1900F121
:10959000FF3280F0EE80994240F2EB8002382B449B
:1095A000591AB1FBF7F307FB13110EFB03FEA4B22C
:1095B00044EA01418E4508D9491903F1FF3280F090
:1095C000DA808E4540F2D780023B43EA0040002615
:1095D0003146BDE8F0838B4247D8B3FA83F6002EBC
:1095E00048D18B4202D3824200F2CF800120314623
:1095F000BDE8F08312B90125B5FBF2F5B5FA85FC9B
:10960000BCF1000F78D1491B2F0C1FFA85FE0126F3
:10961000B1FBF7F007FB10110EFB00F2230C43EA3D
:1096200001418A4207D9491900F1FF3302D28A4227
:1096300000F2BC801846891AB1FBF7F307FB13113F
:109640000EFB03FEA4B244EA0142964508D9521922
:1096500003F1FF3180F09180964540F28E80023B0D
:1096600043EA00403146BDE8F083002630463146EB
:10967000BDE8F083C6F1200422FA04F5B3402B4381
:1096800021FA04F74FEA1348B7FBF8FC1FFA83F9F5
:1096900008FB1C7720FA04FE01FA06F509FB0CF41E
:1096A0004EEA05054FEA154E4EEA0747BC4202FA5C
:1096B00006F204D9FF180CF1FF3168D38C463F1B2A
:1096C000B7FBF8F408FB147709FB04F9ADB245EADF
:1096D0000741894504D9C91804F1FF355DD32C46EB
:1096E00044EA0C44A4FB0223C9EB0101994249D38B
:1096F00045D0204600266BE7CCF1200405FA0CF596
:1097000021FA04F32A0CB3FBF2F61FFA85FE02FBE2
:10971000163820FA04F701FA0CF10EFB06F90F4394
:109720003C0C44EA0843994500FA0CF407D95B194C
:1097300006F1FF3138D2994536D9023E2B44C9EBA8
:109740000303B3FBF2F002FB10330EFB00F1BFB2D8
:1097500047EA0343994207D95B1900F1FF3721D249
:1097600099421FD902382B441746591A40EA064637
:109770004EE7104614E7134627E70B4670E7B04064
:109780009042B6D2601E002622E7304620E7BC4257
:1097900094D9ACF1020C1F4491E789459FD9023C52
:1097A00019449DE73846DFE70E46C8E702382944EA
:1097B00041E700BF024B0146186800F00BB800BF3C
:1097C0001C090020024B0146186800F081BD00BF53
:1097D0001C0900202DE9F04F01F10B05162D83B077
:1097E000064627D935F0070500F1B680A94200F2F8
:1097F000B38000F06BFBB5F5FC7F22D2BC4FE808CC
:1098000007EBC003DC689C4200F0BC816368E16840
:1098100023F0030323445A68A56842F00102E9607B
:1098200030468D605A6000F053FB0834204603B088
:10983000BDE8F08F102900F28F8000F047FB102563
:10984000DCE7680A00F08F80042800F24781A8094D
:1098500038304100A64F07EB8101CC68A14206D108
:109860000CE0002A80F28280E468A14206D063689E
:1098700023F003035A1B0F2AF3DD013801309C4902
:109880003C6901F1080E744500F07181636823F0B2
:1098900003035A1B0F2A00F35781002AC1F814E072
:1098A000C1F810E066DAB3F5007F80F02D81DB08A7
:1098B00001EBC3084FEAA30C4A68012303FA0CF337
:1098C000D8F808C01343C4F808C0C4F80C804B6033
:1098D000C8F80840CCF80C408210012494409C4207
:1098E00055D8234206D120F003006400234200F142
:1098F0000400FAD007EBC008C4468146DCF80C30FF
:109900009C4507D135E1002980F24581DB689C4503
:1099100000F02F815A6822F00302511B0F29F2DD5B
:109920001C46DA6854F808CF45F0010941F00108F7
:109930001D44C3F804903046CCF80C20C2F808C08F
:109940007D613D61C5F80CE0C5F808E0C5F804800C
:10995000695000F0BDFA69E7002420460C2333600B
:1099600003B0BDE8F08F7E213F2073E723445A689F
:10997000E16851E723445A68304642F001025A60D8
:10998000083400F0A5FA204603B0BDE8F08FBC68AB
:10999000636823F00308454504D8C5EB08030F2B83
:1099A00000F38C80534BDFF85CA11A68DAF80030C2
:1099B0002A44013304EB080B00F0518102F5805278
:1099C0000F3222F47F6222F00F02114630460192DC
:1099D00000F080FAB0F1FF3F8146019A00F0488123
:1099E000834500F2EF80444BCB4519681144196060
:1099F00000F04381DAF80000DFF808E101301BBF16
:109A0000CBEB090B5944CEF80090196019F007010F
:109A100000F00881C1F10800C1F58051814408318E
:109A20004A44C2F30B02C2EB010A5146304601938D
:109A300000F050FA431C019B00F02D81C9EB00029D
:109A4000524442F001021968BC425144C7F80890E0
:109A50001960C9F80420DFF8A0A016D0B8F10F0FE4
:109A600040F2EF806268A8F10C0323F0070302F0D4
:109A70000102E0184FF0050E1A430F2B6260C0F888
:109A800004E0C0F808E000F20A811C4BBC681A68C8
:109A9000914288BF19601A4B1A689142626888BF68
:109AA000196022F003029542A2EB050301D80F2BA7
:109AB00004DC304600F00CFA0024B7E645F0010261
:109AC00043F00103254462603046BD6008346B609A
:109AD00000F0FEF9204603B0BDE8F08F142869D9E4
