:020000040026D4
:10400000A82000208D42260033A4260031A42600DB
:1040100031A4260031A4260031A4260000000000AF
:1040200000000000000000000000000031A4260095
:1040300031A426000000000031A426009D4C26007B
:10404000B7A42600BDA42600C3A42600C9A4260048
:10405000000000009BA42600A1A4260031A4260095
:1040600031A4260000000000000000000000000055
:10407000000000000000000031A426000000000045
:10408000000000000000000031A4260031A426003A
:1040900031A4260031A4260031A4260031A4260034
:1040A00031A4260031A4260031A4260031A4260024
:1040B00031A4260031A4260031A4260031A4260014
:1040C00031A4260031A4260031A4260031A4260004
:1040D00031A42600000000000000000000000000E5
:1040E00000000000000000000000000000000000D0
:1040F0000000000000000000ED5D2600FD5D2600D0
:1041000000000000000000000000000000000000AF
:10411000000000000000000000000000000000009F
:10412000000000000000000000000000000000008F
:10413000000000000000000000000000000000007F
:10414000000000000000000000000000000000006F
:10415000000000000000000000000000000000005F
:10416000000000000000000000000000000000004F
:10417000000000000000000000000000000000003F
:10418000000000000000000000000000000000002F
:10419000000000000000000000000000000000001F
:1041A000000000000000000000000000000000000F
:1041B00000000000000000000000000000000000FF
:1041C00000000000000000000000000000000000EF
:1041D00000000000000000000000000000000000DF
:1041E00000000000000000000000000000000000CF
:1041F00000000000000000000000000000000000BF
:1042000000000000000000000000000000000000AE
:10421000000000000000000000000000000000009E
:10422000000000000000000000000000000000008E
:10423000000000000000000000000000000000007E
:10424000000000000000000000000000000000006E
:10425000000000000000000000000000000000005E
:10426000000000000000000000000000000000004E
:1042700031A42600755C2600BD5C26007154260022
:1042800079602600694D260031A4260008B5094B47
:10429000FF221A600848094A4824E3690849121AAB
:1042A00098470848084AA3690021121A984700F065
:1042B0000DF8FEE7B4200D40400000202709002043
:1042C0007CB9260028090020A718002073B500F04B
:1042D000D7FE00F0BFFF00F027FF00F085FC01F0E3
:1042E000B9FE06F059FA00F0ADFF00F05DF92020AC
:1042F00006F0A2F803F01CF800F0AEFE002000F07B
:10430000BFFD012000F0BCFD5649002000F08EFEEC
:1043100003F06EF906F0C7F8082006F08DF8524851
:1043200006F0F6F8514806F0F3F8002003F082F9A1
:1043300001F0F6FC00214E4803F0A0F802F07AFDEF
:1043400006F0A6F802F0B6FE4A4806F0E1F803F0DF
:10435000B9F80146484802F077F9484806F0D8F81D
:1043600000F0E4FB01F0C0F801F0DCF8012000F0FF
:10437000CFFA03F01FFC022000F0CAFA03F01AFC87
:104380000821684601F0A4FE9DF807309DF806500C
:104390003B4E43EA0525BDF806306FF07F02394CED
:1043A000338062F307032380374802F04DF93178F8
:1043B000364802F049F97178354802F045F9354838
:1043C00002F042F92178314802F03EF96178324C2E
:1043D0002F4802F039F9E36A4AF6CD3102209847B6
:1043E000E36A294603209847E36A1A210120984787
:1043F00008226946636B0B209847284802F024F98D
:10440000274B186806F084F8264802F01DF9264B61
:10441000186806F07DF8254802F016F9244B186854
:1044200006F076F80021234803F028F802F058FD42
:1044300000F058FC204B01221860204B20481A70D5
:1044400006F08CF900F00EFE102005F0F5FF00F0EC
:104450000FFE02F085FF10F0FF0FF8D101F056FDBE
:10446000F5E700BFAD7526001AB326002AB3260073
:10447000A404002044B326005CB3260075B32600D4
:1044800062180020601800207AB3260098B3260036
:104490009EB32600A4B32600DC160020D1B326006C
:1044A00070B12600D8B3260088B12600DFB32600FD
:1044B000A4B12600C40400202018002010180020F9
:1044C0003CB22600F8B5334C257820704540EA060A
:1044D00018D500F0100000F0FF072F4E30B100F0AB
:1044E00001FC2E4BD8600123F3700BE0F3784BB145
:1044F00000F0F8FB2A4A2949D368C968F7705B1AAB
:104500001844D06015F0300F17D02378224F13F0E5
:10451000300606D000F0E6FB204B186101233B710A
:104520000BE03B794BB100F0DDFB1D4A1B491369E1
:1045300009693E715B1A18441061AB0619D52378DE
:10454000154D03F0200303F0FF0633B100F0CAFB62
:10455000124B586101236B710BE06B794BB100F08A
:10456000C1FB0F4A0D49536949696E715B1A1844C2
:1045700050610C4D2B7823B92078BDE8F84000F04D
:1045800035B8012B05D1002000F030F82B7801332D
:104590002B70F8BD301400201018002020180020C7
:1045A000D41700208E17002008B500F017F8024B32
:1045B00000221A7008BD00BF30140020024B1B7887
:1045C0001843FFF77FBF00BF30140020024B1B7859
:1045D00023EA0000FFF776BF30140020024A136878
:1045E00043F038031360704700C40D40014B18605E
:1045F000704700BFE0C00D40034B00221A60034B20
:104600001B68002BFBD1704780A00D4020A00D40FF
:10461000014BFF221A60704780A00D40054B1860C7
:10462000054A1168C806FBD411684907FCD518680B
:10463000C0B27047088000400C80004070B508B9D7
:1046400049BB00E00AB9012070BD99B901460B1AB7
:10465000934201DB002070BD184C00232360184BEF
:104660001D68EE06FBD41D686D07FCD5236801F8B4
:10467000013BECE700239342ECDACC5C0F4D2C605D
:104680000F4C2668F606FBD426687607FCD52C6806
:10469000C4540133EFE7002AD5D00846431A9342A9
:1046A000D8DA10F8013B054C2360054B1D68EE0677
:1046B000FBD41D686D07FCD52368EFE70880004038
:1046C0000C80004008B51A4A136823F010031360E9
:1046D00052F8203C23F0100342F8203C52F81C3CD6
:1046E00023F0100342F81C3C52F8183C23F010034E
:1046F00042F8183C0F4B1A6810B142F0100201E06A
:1047000022F010021A600C4A04211368012043F0C1
:10471000100313600A4600F0ABFD012000F0CEFC50
:10472000BDE8084005480121042200F029BD00BF72
:1047300020A40D400CA40D4010A40D408DA4260013
:1047400008B51A4A136823F00103136052F8203C9D
:1047500023F0010342F8203C52F81C3C23F00103F3
:1047600042F81C3C52F8183C23F0010342F8183C74
:104770000F4B1A6810B142F0010201E022F0010271
:104780001A600C4A00211368012043F001031360F2
:10479000042200F06DFD012000F090FCBDE808400F
:1047A00005480121002200F0EBBC00BF20A40D4011
:1047B0000CA40D4010A40D408DA4260008B5074A96
:1047C00004211368012043F0100313600A4600F02F
:1047D0004FFDBDE80840012000F070BC10A40D4062
:1047E000024A136823F010031360704710A40D40B1
:1047F00008B5074A01201368002143F00103136044
:10480000042200F035FDBDE80840012000F056BC50
:1048100010A40D40024A136823F00103136070478F
:1048200010A40D40024B1868003018BF01207047DB
:1048300040A00D40014B1868704700BF04A00D4018
:1048400010B51B4A02201368072123F08003136070
:1048500052F8203CFF2443F0800342F8203C082219
:1048600000F006FD134B05211C60012000F0A0FDA7
:10487000002000F01DFD104A136823F010031360A0
:104880000E4B1968A3F5607321F01001C3F8801373
:10489000116821F001011160D3F8802322F0010298
:1048A000C3F880231C60064B1B68002BFBD010BD97
:1048B00020B40D4000B20D4020A40D4000A40D40D6
:1048C00020A00D4070B50E4D0E4B2C460E4E012211
:1048D0001A600FCC0FC60FCC0FC60FCC0FC694E8D2
:1048E000030086E803000FCD084E0FC60FCD0FC69C
:1048F0000FCD0FC694E8030086E8030070BD00BF2B
:10490000FCB126003809002014170020DC16002016
:10491000012870B502D1FFF7D5FF1DE002281BD199
:104920000E4B0F4D0F4C00221A600FCC0FC50FCC51
:104930000FC50FCC0FC594E8030085E803000A4DAE
:10494000A4F130060FCE0FC50FCE0FC50FCE0FC589
:1049500094E8030085E80300012070BD38090020B9
:104960001417002054B02600DC160020044B1868F1
:1049700018B1431E5842584170470220704700BF8B
:1049800038090020012802D1044B18607047022822
:1049900003BF024B1860012000207047680400200C
:1049A00020B1012805D1044B18787047034B1868D3
:1049B00070470020704700BF3114002020900D4048
:1049C00010B5094A0020137801331370074B19788A
:1049D00002F028FDBDE81040054B06481968064A5C
:1049E000002302F05DBA00BF31140020A01800209F
:1049F000640900203C090020C1492600812810B527
:104A00000C462AD0B0F5807F39D0802839D102F009
:104A100087FC1D4B1D4A18701368002023F0080303
:104A2000136052F8203C032123F0080342F8203C95
:104A300052F81C3C23F0080342F81C3C52F8183C86
:104A400043F0080342F8183C042200F011FC10481F
:104A50000021032200F094FB13E00E4B1A6831B1E1
:104A600042F008021A60002000F028FB05E022F066
:104A700008021A60084600F02DFB204610BD064BC8
:104A80001960012010BD00BFA018002020940D4027
:104A90009D4A260010940D406409002008B50F4877
:104AA00005F083FEC0B108210C4805F077FE0C4BE1
:104AB000196861B10B4B00221A700B4B0B481B6835
:104AC0001BB90B4A02F0ECF901E002F0F3F9BDE882
:104AD0000840084802F054BE08BD00BF5C09002031
:104AE000640900203114002020900D403C09002072
:104AF000C1492600ACAF2600044B1868C0F307205C
:104B0000030904BF1030C0B2704700BF1C300D4015
:104B1000054B1868C0F3C21001289ABFC0F102000B
:104B200040034FF40040704714300D402DE9F0472A
:104B300088B0FFF7E1FF174B48251C68AB680746B4
:104B400098476B68804698470646FFF7E1FF0546A1
:104B500000F0FEFA824600F007FB814600F0DAFA28
:104B6000B60AC4F34003AD0A04F0010402930690B0
:104B7000009601950394CDF810A0CDF8149041460D
:104B8000C7F3071207F00F03034801F05DFD08B0FB
:104B9000BDE8F0871C300D40EDB32600F8B500F0FD
:104BA000A1F80F4B0024D3E900673A46B04238BF62
:104BB0007A1C15460443C3E90045DFF828E0DEE926
:104BC0000001821B61EB070312196B41CEE9002340
:104BD00002F04EFA18B1BDE8F84002F0D9B9F8BDBC
:104BE00028090020300900200F4B104A1A6053F8A2
:104BF000042C42F0050243F8042C53F8042C42F034
:104C0000020243F8042C0A4A136843F001031360BC
:104C1000084B00221A60042243F80C2C012243F8AE
:104C2000082C0F22DA62704714E000E047E8010028
:104C300008200D400C000340034BD3E90023100A69
:104C400040EA0360704700BF28090020034BD3E906
:104C50000023D00B40EA4340704700BF30090020DA
:104C6000054B18601C3B1A6842F001021A601A6872
:104C7000D207FCD4704700BF2800034010B5064C93
:104C8000236823F001032360FFF788FF236843F0C4
:104C90000103236010BD00BF10E000E038B500F054
:104CA00021F80A4C0A4D0123A370A860FFF776FF94
:104CB000A3784BB100F016F8064AA96893685B1A0E
:104CC000184400239060A37038BD00BF1018002066
:104CD00020180020D4170020014B1868704700BF2F
:104CE00068090020074B084A196804331B681268DA
:104CF000120442EA0323054A0B43106843EA0060AA
:104D0000704700BF40500D4048500D404C500D4082
:104D100010B50446114B1B68DB07FBD505F0C7FB3C
:104D2000FFF7E0FF231A062BD8BFC41D0C4B220E41
:104D30001A60C4F3074243F8042CC4F3072243F873
:104D4000082CE2B243F80C2C05F0ADFB054B91208A
:104D50001C60BDE8104000F0B1B900BF50500D40DC
:104D60004C500D406809002070B501F099F8FFF72C
:104D7000B9FF0E4C01230E4EA3700E4BB060002500
:104D800091201D6000F0B2F9912000F0A3F902F02B
:104D9000ADFBA37843B1FFF7A5FF074AB16893685D
:104DA000A5705B1A1844906070BD00BF10180020F9
:104DB0002018002068090020D41700200023084A8A
:104DC0001068084A9958084205D01A44D268906978
:104DD00010F0800003D02C33582BF0D10120704705
:104DE00028200D40BCAF2600F8B50646FFF77AFF35
:104DF0001E4A01231E4993702C2303FB06134FF612
:104E0000BF711C4DDC68A860236C61649BB213F019
:104E1000500117460CD0A369DB0618D4164B53F883
:104E200026301BB12068C0B29847F4E72368F2E748
:104E300013F4D06F0BD04FF440732363FF236360F0
:104E4000E36AE162E362236B43F001032363BB780F
:104E500053B1FFF747FF094AA96893685B1A1844E2
:104E6000024B906000229A70F8BD00BF101800201D
:104E7000BCAF2600201800206C090020D4170020A9
:104E80002DE9F04F012885B0064600F2BF802C24A2
:104E90004443604B1D1995F920A005F12007BAF194
:104EA000000F9946C0F2B28095F92230002BC0F273
:104EB000AD80594801F0BEF8584A59F804301168DD
:104EC000EC680B43136051686B6895F921B00B4394
:104ED00053609168AB6895F822800B439360002380
:104EE000C4F8C83F2B690BEBCA021A6095F823304F
:104EF0005FFA88FC01939DF80430604619462A7DCC
:104F0000CDF80CC0029300F0BDF9029BDDF80CC097
:104F100019466046082200F0ABF94FFA88F840497C
:104F20004FEA08389DF9042058F80100012303FADC
:104F300002F2024348F801204FEA0A3A5AF8010007
:104F400003FA0BF202434AF801205022A263A26B3B
:104F500095F8240042F4D062A263022262634FF407
:104F600040722263AA696262EA69A2627022E26206
:104F700042B2002A0C4614DB95F92510294D41EA6E
:104F8000C20129607979120315594FB2BB402B43F6
:104F90001351002200F06CF9234A136843F40043D4
:104FA00013602C2303FB069393F8265020336FB233
:104FB000002F1CDB93F807A0EDB25FFA8AF82846B1
:104FC000414601223F0300F05DF94FFA8AFA3A594F
:104FD000012303FA0AF313433B51082228464146B2
:104FE00000F046F9104A136843F4804313602C2301
:104FF00003FB0696F26896F82800136B43F0010352
:10500000136305B0BDE8F04F00F058B805B0BDE837
:10501000F08F00BFBCAF2600BD4D260028200D40FC
:1050200020940D4004410D4030D0004001289CBF29
:10503000014B43F8201070476C090020012808D864
:10504000044B2C2202FB0030C3689A699206FCD400
:1050500019607047BCAF2600014B00221A607047F0
:1050600000500D40014B08221A60704700500D405F
:10507000024BA0221A6050221A60704700500D4067
:10508000074A084B1A60084B80321A60074B80327F
:105090001A60074B80321A60064B074A1A60704745
:1050A00000E100E080090020740900207809002058
:1050B0007C09002008ED00E000402600044B410977
:1050C0001A6800F01F000123834042F82130704726
:1050D00080090020044B41091A6800F01F000123D9
:1050E000834042F82130704774090020044B410985
:1050F0001A6800F01F000123834042F821307047F6
:105100007C090020024B1868C0F38150704700BF33
:1051100004200D4008B5FFF7F5FF024B53F82000BF
:1051200008BD00BF14B02600054A064B1A60064BA6
:105130001A68064B1340B3F1807FF8D1704700BF67
:105140000101020100200D4004200D40000001017A
:10515000034B04481B6803F007031841704700BF66
:1051600004200D400048E801034B04481B68C3F3CA
:1051700002231841704700BF04200D400048E80199
:10518000024B02EBC10243F8220070478409002061
:10519000F8B507460E46094D002405EB411547FAC0
:1051A00004F3DB07E1B204D555F824300BB13046E7
:1051B00098470134082CF2D1F8BD00BF84090020C3
:1051C0002DE9F74F019000F06BFEFFF78BFD019981
:1051D000184E4FEA0139184F0123DFF864A009F196
:1051E0008045B860B37005F55925D5F8188459F88D
:1051F0000A404FEAC10B24FA0BF448EA0400C0B29B
:10520000E4B2FFF7C5FF04FA0BF45FFA88F3C5F8C0
:105210001C3449F80A40B3784BB1FFF763FD074AE5
:10522000B96893685B1A184400239060B37003B0A8
:10523000BDE8F08F1018002020180020D41700209F
:1052400018970D4002480021802204F055BE00BF8F
:1052500084090020034A044B1A60044B803A1A6008
:10526000704700BF80400D40080A0020040A00205B
:10527000034B01EBC0011B6843F82120704700BFBE
:10528000080A0020034B01EBC0011B6843F82120F2
:10529000704700BF040A002001289FBF0349012373
:1052A0000A6883409CBF13430B60704718200D4071
:1052B0002DE9F04F012887B0044671D818235C43CC
:1052C000394D2E1996F811804FFA88FCBCF1000F69
:1052D000CDF814C064DBFFF7DFFFB37C2D59002746
:1052E0005FFA83FB5FFA88F86F6040465946327A6E
:1052F000C5F8C87F0493FFF7C5FFF47C327BE3B2A7
:105300000093337D009801939DF8043064B21946F0
:105310000293FFF7B7FF96F815A096F816907268FB
:105320004FFA8AF34FFA89F101EBC300DDF814C09C
:10533000106003931D4A049B4FEA0C3C5CF802008A
:105340004FFA83FE012303FA0EFE40EA0E004CF8EA
:10535000020024039DF9040054F802E003FA00F06F
:105360004EEA0000A05003988B4000038458594631
:105370002343835040463A46FFF77AFF009802994C
:105380003A46FFF775FF504649463A46FFF770FF29
:10539000337C2B61C7232B606B6843F002036B6087
:1053A00007B0BDE8F08F00BF24B0260020940D4068
:1053B00038B50B4A0403A35801258D4023EA0503A1
:1053C000A3500022FFF754FF064AA3582B43A350D3
:1053D00004F1804404F55924FF2344F8253038BDF6
:1053E00020940D4000940D400E2870B50BD1164B43
:1053F000164E1C6844F002051D60356825F03F0319
:1054000043F001033360124E336823F0FF031A4365
:105410001143014331600F4B1B681B06FBD50E4B3C
:105420000E4A1B6812680E2803F0FC0343EA0223AD
:1054300008BF064A9BB204BF1560034A9BB208BF6F
:10544000146018B270BD00BF34000144F4860840F7
:1054500008700D4000700D400C700D4010700D4034
:10546000024B1868B0FA80F04009704700B7084056
:1054700070B5FFF737FC104E104C0123B060104D93
:105480008F20A370FFF732FE8F20FFF723FE2868DE
:1054900018B102F00BF800232B60A37853B1FFF78B
:1054A00021FC084AB16893685B1A1844034B90606A
:1054B00000229A7070BD00BF201800201018002034
:1054C0000C0A0020D4170020064A136843F0020398
:1054D0001360536843F002035360936843F0020380
:1054E0009360704748200D4007B50C4800F0A2FDBE
:1054F000FFF7EAFF0A4B1A6842F002021A60002224
:105500000192019A0F2A02DC019A0132F8E71A6827
:1055100022F002021A6003B05DF804FB6154260019
:1055200054200D40064A136823F0020313605368A9
:1055300023F002035360936823F0020393607047E3
:1055400048200D40044B186800F02200A0F1200311
:1055500058425841704700BF4C860840024B1868BB
:1055600000F04000704700BF4C86084008B50B4B68
:1055700093F90020002A09DB094AED21116011602E
:10558000E32111601A7862F07F021A70FFF7AAFB1C
:10559000044BD861044B0120D87108BD321400209F
:1055A00038880840201800201018002038B505461B
:1055B0000C46134B1B689B07FBD4124B93F900302E
:1055C000002B01DBFFF7D2FF0F4BEE221A60691EA2
:1055D0001A60A21C43F8102C2144022000F0B8FBF2
:1055E000013C0A4924012143022000F0C3FB0220B0
:1055F00000F0CAFB022000F0DFFB002038BD00BF36
:105600004C860840321400203888084002C001C08F
:10561000044B1A6810B142F0010201E022F00102CD
:105620001A607047008608400B280DD1082A0DD15A
:1056300061B1074B013953F8042D01F8012F054AD8
:105640009342F8D100207047012070470220704734
:10565000C8850840A88508400B280DD1082A0DD11F
:1056600061B1074B083111F8012D43F8042F054AA9
:105670009342F8D100207047012070470220704704
:10568000A4850840C485084070B52B4E336813F0DC
:10569000400308D0294D2B68DCB21B0605D5284BEA
:1056A000ED221A601A60002070BD042CF7D9023C6C
:1056B0008C42F4DCE4B2032C1BD001190139032025
:1056C00000F04EFB631E1F491B010320194300F02D
:1056D00051FB032000F058FB032000F06DFB03207A
:1056E00000F076FB0028FAD129682D682806D6D567
:1056F00006E02B6803702B6843702B688370F3E718
:10570000493949B289B2042002F048FB032005F070
:105710007F0102F043FB33685A060BD5064B1B682A
:105720001B0603D5084801F0C1FE03E0044BED223F
:105730001A601A60204670BD4C86084028880840D0
:105740003888084002C0010C7C04002010B5114BC1
:105750001B689B07FBD4104BED221A601A600F4A9E
:1057600012680AB1EF221A600D4A0E4C137803F04A
:105770007F031370E37953B1FFF7B4FA0A4A0B4978
:10578000D369C9695B1A18440023D061E371012011
:1057900010BD00BF4C860840388808402C86084061
:1057A0003214002010180020D417002020180020E8
:1057B00038B5A0F10B04E3B20F2B054613D80B4B01
:1057C0001B6813F03F0302D0FFF7C0FF012304EB77
:1057D0008404074A0B3414600BB1FFF7C7FE054B76
:1057E000E8B21D7000E0FF2040B238BD4886084096
:1057F0003C8608402609002038B50C46072855D8B5
:10580000DFE800F0040F1B1F26543B4F012903D192
:10581000FFF7ACFE002038BD002949D1FFF796FF05
:10582000F8E7A1F10B030F2B42D8C8B2FFF7C0FF76
:10583000431C0CBF0320002038BD8CB2E2B21D4BCC
:1058400002E08CB21C4BE2B2240A1A605C60E1E711
:1058500031F003052CD101F00100FFF7D9FE174B01
:1058600014F002001A681BBF284642F0200222F002
:1058700020021A6008BF1A6038BD01F118031F2BFF
:1058800016D80D230E49DA0051F83300844204DCA7
:105890008B181A790B4B1A60BCE713F1FF33F1D266
:1058A000B8E7CCB2084B49341C60B3E7012038BDDF
:1058B000022038BDC8850840D085084024860840AD
:1058C0008CB02600408608405886084038B50C4603
:1058D00000296ED010286ED8DFE800F0090F1A1CDE
:1058E000236D3344496D6D6D6D6062646900334BA7
:1058F0001B68003318BF012356E0314B05221B689B
:1059000003F07F030B3B93FBF2F30B33DBB24BE073
:105910002C4B00E02C4B1A68043B1B6843EA022323
:1059200042E02A4B002008601A68243302F001028A
:105930000A601B6813F0200337D042F002020A60AD
:1059400038BD234B1A680023D2B2224901EBC300B1
:105950000079904202D851F8333025E001330E2B04
:10596000F3D11FE01C4B1B685BB2493B1CE01B4B97
:105970001B68990603D1FFF7F9FD012300E000231E
:10598000174A1268D207FBD5164A1568493DEDB291
:105990000BB1FFF7DBFE6DB2256006E00B2303E0E1
:1059A0001A2301E06FF017032360002038BD07239E
:1059B000FAE7022038BD012038BD00BF2C86084020
:1059C0003C860840CC850840D485084000860840C5
:1059D000408608408CB0260058860840488608401B
:1059E000648608406086084010B50B4B1B6899061A
:1059F00003D1FFF7BBFD012300E00023074A126833
:105A0000D207FBD5064A1468C4F300140BB1FFF7A4
:105A10009DFE204610BD00BF4886084064860840B1
:105A20004C8608402DE9F843364B93F90030002BA3
:105A30000EDBFFF757F90446FFF798FDFFF752F921
:105A40006FF009031B1BC342F8D44FF0010801E0BB
:105A50004FF00008FFF7C8FF00284CD02A4E3368EB
:105A600013F0200447D1294D294FEB7943B1FFF7BB
:105A700039F9284AF969D369EC715B1A1844D06185
:105A8000FFF730F9244C0123AB71E923B8614FF0E3
:105A90000409236033689A0708D409F1FF3919F023
:105AA000FF0903D00620FFF7DBF8F3E733689B0715
:105AB00004D4EE2323602360012404E0306810F056
:105AC0000200FBD10446AB7953B1FFF70BF9114A41
:105AD000B96993695B1A18440C4B906100229A7162
:105AE000FFF700F90123F861EB71B8F1000F05D061
:105AF000FFF72CFE02E00220BDE8F8832046BDE857
:105B0000F88300BF321400204C8608401018002093
:105B100020180020D417002038880840F8B52E4EF1
:105B2000357815F0010554D12C4B01241C605C60C4
:105B30009C60A3F59323A3F51473F8221A6009223D
:105B4000C3F89021152270331A6003F59B230B22B2
:105B500003F59E731A60A3F59B23A3F5F07340220F
:105B60001A601A687F2742F020021A60D52243F893
:105B70001C5CDF62DA611A4B1878FFF719FE194ACC
:105B80008D20136843F004031360FFF797FA164B58
:105B90008E201F60FFF792FA022000F001F91349EE
:105BA000022000F0DDF8032000F0FAF803200F498E
:105BB00000F0CEF829460E4801F060FC337823430C
:105BC0003370FFF78FF80B4BD8610B4B2046DC711D
:105BD000F8BD0020F8BD00BF32140020A8200D4001
:105BE000260900208C8608409486084028880840B2
:105BF0007C040020201800201018002038B50388ED
:105C00000446FBB140F2C532934203D00023038027
:105C1000032038BD822918D102F086F802F03EF840
:105C20008021FFF731FD051E08DD0220FEF7AAFEE8
:105C3000A8B201F0F1FF0C4B1B6998470B4B1A7887
:105C4000520604D440F2C5332380012038BD00221F
:105C50001A70074B1D68FFF779FDFFF75FFFAB0672
:105C6000F0D0FFF783FCEDE7A4B12600321400204A
:105C70004886084070B5FFF735F80B4E0B4C0123F2
:105C8000B0600B48A37001F011FC0A4B00251D60A9
:105C9000A37843B1FFF726F8074AB1689368A57067
:105CA0005B1A1844906070BD201800201018002066
:105CB0007C04002034880840D417002070B5FFF71A
:105CC00011F8114B01221D46104C9A70104AA06029
:105CD00011680026042918BF0E490F481EBF0B7813
:105CE00043F040030B70166001F0E0FBAB784BB162
:105CF000FEF7F8FF094AA16893685B1A1844024B43
:105D000090609E7070BD00BF101800202018002009
:105D10002C880840321400207C040020D417002076
:105D200010B5094C00212046402204F0E5F8074B4D
:105D300001221A602E205C60FFF7C0F9BDE8104018
:105D40002F20FFF7BBB900BF0000002004F00F4078
:105D500003289EBF014B000119507047000000202E
:105D600003289EBF024B03EB00104160704700BF49
:105D70000000002003289EBF024B03EB001081604F
:105D8000704700BF0000002003289FBF0349012384
:105D90000A6883409CBF13430B60704728F00F4094
:105DA00003289FBF034901230A6883409CBF134314
:105DB0000B60704720F00F4003289FBF0349012369
:105DC0000A6883409CBF13430B60704714F00F4078
:105DD00003289FBF044B03EB0010806800F007000E
:105DE00088BF0020704700BF00000020024B4FF02A
:105DF000FF321A60704700BF04F50F40014B0122CB
:105E00001A6070474CF00F40094B1A6812F4801F5B
:105E10001A46F9D1043B196821F4803119601168E0
:105E2000C903FCD41A6842F400321A60704700BFFC
:105E300004200D4070B5164CFEF754FF2378154D25
:105E40003BB1154A296813685B1A034413600023A9
:105E50002370124E6860012302203168637001F0E4
:105E60006FF830BF022001F04FF83060FEF73AFFC4
:105E700063784BB1084A0749536849685B1A034481
:105E80005360034B00225A7001232860237070BDB9
:105E90001018002020180020D4170020100A00201D
:105EA00070B5144B1A681C4612F0030F21D0124B28
:105EB0001A685101FBD41A685201FCD50025FEF77F
:105EC000DDFEFFF7A1FF2560022001F01DF80B4B5E
:105ED0001860FEF707FF0A4B0A495A7832B10A4C9C
:105EE0004E6862685D70921B024462600122086025
:105EF0001A7070BD58200D4004200D40100A00207B
:105F00001018002020180020D41700202DE9F0419F
:105F10003E4B1C6814F03F0413D13D4B53F8243022
:105F200023B1984768B10134052CF6D1394D2B784F
:105F30003BB1FEF7D1FE0446FEF7D4FE201A092835
:105F400003D8BDE8F041FFF775BF002CF9D0324B04
:105F50001A6822F400321A60304A1168C902FBD470
:105F6000196841F4803119601368DB03FCD5FEF732
:105F7000B9FE201A092803D8BDE8F041FFF744BF55
:105F80006328274F02D92B78022B00D00123254EFE
:105F90003B60254C0220316800F0D2FFFEF7A2FEE4
:105FA0002378224D3BB1224A296813685B1A0344C7
:105FB00013600023237001236860637001F028FAE6
:105FC000B8B14FF00008FFF71FFFC7F800800220AC
:105FD00000F09AFF3060FEF785FE637883B1144AC3
:105FE000696853685B1A034453600F4B83F8018060
:105FF00006E0FEF771FE0028E3D030BFBDE8F08177
:10600000012328602370BDE8F08100BF4886084066
:10601000140A00203314002000200D4004200D40FD
:1060200058200D40100A00201018002020180020D1
:10603000D41700200023064A52F82310814206D0CC
:1060400011B942F8230070470133052BF3D1704793
:10605000140A0020054B00221A60054A136843F019
:1060600004031360034B01221A70704758200D403F
:1060700010ED00E03314002070B5FEF733FE104E33
:10608000104C0123B060104D9020A370FFF72EF844
:106090009020FFF71FF8286818B101F007FA0023D5
:1060A0002B60A37853B1FEF71DFE084AB1689368D0
:1060B0005B1A1844034B906000229A7070BD00BFB9
:1060C0002018002010180020280A0020D4170020D3
:1060D00030B5184B1A78431E3AB9174A1278122A6B
:1060E00003D1164A12784B2A03D001F5201127312B
:1060F00017E04A0802F12814B4F1281F04D014F85C
:10610000015D03F8015FF7E701F520112731002356
:10611000934205DA11F801598418E5540133F7E781
:1061200030BD074A914204D011F8012903F8012F2C
:10613000F7E730BD2B0028002A002800290028009E
:1061400027002800164A70B515464FF0FF3400238B
:10615000B2F9066056B1967A0C32002E08BF1C4682
:106160000133052BF4D12346013417D00C2404FB52
:1061700003F6AA1990804FF0FF30A851C888002676
:10618000D080D672497A04FB0353090744BF01212A
:10619000D1724FF6FF711981104670BD002070BD9D
:1061A000680A0020F0B5224D06462F468FB0002425
:1061B000B5F90630A3B101A8B5F9041004F0EFF960
:1061C0009DF80D3003F03603022B09D130460DF156
:1061D0000E0103F0F5FE18B90C2000FB047025E059
:1061E0000134052C05F10C05E2D1002004B2214652
:1061F00001A804F0D4F99DF80D5005F03603022BE8
:106200000AD130460DF10E0103F0DAFE20B9204626
:1062100001A9FFF797FF09E02046BDF90A102A46B9
:1062200004F0F1F9B0F5C86FE0DB00200FB0F0BD6D
:10623000680A00201F4B2DE9F04107464FF6FF7416
:1062400098461E888EB035B2B5F5C86F0EDA01A833
:10625000294604F0A4F99DF80D2093071DD423B21C
:10626000013307D1EB19B3F5C86F02DB4FF6FF70AE
:106270001CE034462846BDF90A1004F0C4F923B2E4
:10628000DA1982420646DEDCB8F9002020469A423E
:1062900002BF084B3F191F8008E02846BDF90A10CD
:1062A00004F0B1F94FF6FF740646CCE700B20EB029
:1062B000BDE8F081F20D00202DE9F04F95B001907E
:1062C00088463AB14046FFF7B5FF411C044640F00E
:1062D000D98004E0FFF766FF0028F3D0D0E0794AC8
:1062E00013780292002B40F0CB809A4608260023B8
:1062F0000593ADF81830DFF8D4B1734BBAF1000F45
:1063000003D1ABF800A083F800A01FFA8AF91D782A
:106310004FEAC907BFB25DB1BBF800502BB2072BE3
:1063200016DD0823ADF81430684B083D1D806BE086
:10633000BBF8004023B2072B0BDD0823083CA4B2B6
:10634000ADF81630614BA2B2072C1A805DD95BE024
:106350000024BBF800303B449BB219B232B29142E8
:106360002ADA07A8039304F01AF9574800220270AA
:106370009DF82520039B02F00601022902F020016E
:1063800009D141B901220270BDF8222013441544FD
:106390009BB2ADB2E1E719B101339BB2013406E023
:1063A000520706D5BDF8222013449BB21444A4B270
:1063B000D3E7F31A9BB200E00023A9B2A0B20A18F7
:1063C000083A1A4492B20FFA82FEBEF1000FABF8FF
:1063D0000020DFF8F4C00BDD9CF800B0BBF1000F2B
:1063E00003D0C0F10805ADB202E0C1F10804A4B2C7
:1063F000ADF818309CF80030ADF81450ADF81640E8
:1064000013B9BEF1070F00DD0022BDF91430002BD7
:1064100025DCBDF91630002B21DD2D4BB9B2B3F9C7
:10642000004008B2844214B2C8BF1980002C13DDAA
:1064300007A80021322203F05FFD22238DF82530CA
:10644000002507F10801294407A809B2013504F025
:10645000D2F82BB2A342F4DB484604F0E1F80AF18B
:10646000010A0836BAF1C80FB6B27FF440AF404611
:10647000FFF7E0FE431C044604D1029A0123137087
:1064800000201BE00021322207A803F035FD24B2D2
:10649000019927220DF1260003F070FE022307A8C0
:1064A0002146ADF822808DF8253004F0A4F820466E
:1064B00007A9FFF747FE08B10023036015B0BDE848
:1064C000F08F00BF3514002034140020F00D0020A0
:1064D000F20D00202DE9F84381460D460024234E9D
:1064E0004FF00C0808FB046898F808304BB988F89E
:1064F00008304846FFF756FE0746C8F80400B0B912
:1065000006E00134052CEAD14FF0FF30BDE8F883F6
:1065100005F00303012BF7D0484608210122FFF7BD
:10652000CBFEC8F804000028EED0076007E003683F
:10653000013304D1B0F9040004F035F838600C23BD
:1065400003FB0462117A6343294315F004051172B9
:1065500018BF5268204618BF1568F2185268F550E7
:10656000937A01339372BDE8F88300BF2C0A0020B0
:1065700004280CD8064B0C2202FB0030037A33B1FE
:106580004168002202728B7A013B8B724260704735
:106590002C0A0020042870B525D80C244443134B42
:1065A0001E19357AFDB142B1022A02D17268126811
:1065B00002E0012A17D11A591144002913DB0C22D9
:1065C00002FB00325268B2F90640B1EB042F0ADC3C
:1065D00014688C4202DAAC0705D511600C225043D6
:1065E0001950084670BD4FF0FF3070BD2C0A0020D6
:1065F0000428F8B50646144621D80C234343114D10
:10660000EA18177ADFB1F80719D55768EA583B68D6
:10661000A018984288BF9C1AFB7ADB070DD4B7F903
:1066200004303232084602EB0322214604F071F8AE
:106630000C2070432B5823442B502046F8BD4FF0BC
:10664000FF30F8BD2C0A00200FB407B504AA52F899
:10665000041B0448019200F039F803B05DF804EB24
:1066600004B070478C0400200EB43FB5094B07AA54
:1066700052F8041B0190049304A801AB0392059304
:1066800000F024F8019B00221A7006B05DF804EBBC
:1066900003B0704747A7260070B505460C46102C7E
:1066A00007D92B68686808491022984750B9103CF0
:1066B000F5E734B12B6868682246BDE870400249AE
:1066C0001847204670BD00BF1BB526002DE9F04FCE
:1066D00080468FB0069107920026069B1B78002B00
:1066E00000F05F83069B1C4613F8012B1AB9069B2A
:1066F0009C4203D10FE0252AF5D1F8E7069BD8F894
:106700000400E51A0699D8F800302A469847002870
:1067100040F02A832E442378002B00F042836378D4
:10672000611C002B00F03D8300240A4611F8013B58
:106730002B2B11D006D8202B11D0232B12D144F0B3
:106740000804F2E72D2B04D0302B0BD144F01004B9
:10675000EBE744F00104E8E744F00604E5E744F021
:106760000204E2E7A3F1310108290DD81346002500
:106770001A4613F8011BA1F13000092811D80A228A
:1067800002FB0515303DF3E72A2B09D1079B0132A7
:106790001D68191D002D0791B8BF44F0010400E0E9
:1067A000002513782E2B1CD15178531CA1F13000F9
:1067B00009280ED8194600270A780B46A2F13000A6
:1067C000092801F101010FD80A2303FB0727303FF5
:1067D000F2E72A2906D1931C079A111D0791176821
:1067E00002E013464FF0FF371A786C2A09D15A7825
:1067F0006C2A02D144F080040AE0013344F06004C2
:106800000BE0682A09D15A78682A03D144F02004A1
:10681000023302E0013344F040041A78642A3CD089
:106820001FD8462A48D00DD8252A5AD003D8002A86
:1068300000F0B78257E0412A4AD0452A53D144F4A8
:10684000424450E0582A31D004D8472A4BD144F46E
:10685000A13448E0612A38D0632A44D144F4A064CA
:1068600041E06E2A3AD007D8662A22D027D3672A79
:1068700028D0692A11D036E0732A2CD006D86F2A86
:1068800011D0702A2FD144F440742CE0752A07D01F
:10689000782A28D144F4C85425E044F4245422E052
:1068A00044F410641FE044F488541CE044F4B244FF
:1068B00019E044F4007416E044F4844413E044F412
:1068C000024410E044F481340DE044F4C1340AE0A1
:1068D00044F4E13407E044F4806404E044F4E06408
:1068E00001E044F4C0640133069304F4E063B3F5BB
:1068F000806F00F0AA8116D8B3F5807F2BD0B3F556
:10690000407F7FF4EAAE079BA04914F4804F03F167
:1069100004029F4818BF08460DF1330107920F4645
:106920001A680023C5E1B3F5C06F08D0B3F5E06F76
:1069300000F03182B3F5A06F7FF4CFAE00E2D8F85B
:106940000030D8F80400934901229847002840F00D
:106950000B820136C1E6002FACBF24F010040127E2
:1069600014F40053039304F0E00337D0402B17D006
:1069700008D8DBB1202B2AD1079B1A1D079293F967
:10698000002017E0602B11D0802B20D1079B07330C
:1069900023F0070303F108020792D3E900230AE07A
:1069A000079B1A1D0792B3F9002003E0079B1A1DED
:1069B00007921A68D317002A73F1000109DA5242CC
:1069C00063EB4303CDE900234FF0010933E00022DC
:1069D0000023CDE900234FF000092CE0402B16D016
:1069E00007D8CBB1202B20D1079B1A1D07921A780C
:1069F000EEE7602B10D0802B17D1079B073323F0D5
:106A0000070303F108020792D3E90023E1E7079B9C
:106A10001A1D07921A88DBE7079B00211A1D0792AF
:106A20001B681846CDE90001D5E700220023CDE917
:106A300000234FF0000904F4C053B3F5805F0CD07D
:106A4000B3F5C05F33D0B3F5006F4FD1DDE900235C
:106A50000DF1360ACDE9042304E0DDE900230DF150
:106A6000360A15E0DDE9042313433AD0DDE90401D9
:106A70000A22002302F02AFCDDE9040130320AF880
:106A8000012D00230A2202F021FCCDE90401E9E7EF
:106A900052EA030125D002F0070130310AF8011D46
:106AA000D10841EA4371D8080A460346F0E7384B5B
:106AB00014F4804F0DF1360A344908BF1946DDE958
:106AC000002352EA03000CD002F00F00085C4FEAEA
:106AD000131E0AF8010D100940EA037002467346BE
:106AE000EFE70DF1360BCAEB0B0B03E00DF1360AA5
:106AF0004FF0000B41F6080241F208035F4502EA3D
:106B000004028CBFCBEB070700279A4202D1002F6B
:106B100008BF012741F608018A4207EB0B030DD19C
:106B2000DDE9000150EA010208D01B4914F4804F4E
:106B30001A4A4FF0020C18BF0A4602E04FF0000C50
:106B400062460399A1B1B9F1000F0AD104F0060120
:106B500002290AD00629124904BF4FF0010C0A4647
:106B600006E04FF0010C0F4A02E00F4A4FF0010C13
:106B700063449D428CBFED1A002514F0010922D117
:106B8000E30613D52F444D461DE000BFE8B42600B0
:106B9000F9B4260019B526000DB526000AB5260061
:106BA00010B5260019B72600DDB326004046294659
:106BB000CDF80CC00092FFF76FFD009ADDF80CC015
:106BC000002840F0D180BCF1000F0DD01146D8F85C
:106BD00000306246D8F80400CDF800C09847DDF8D0
:106BE00000C0002840F0C0803C465E44102CD8F81D
:106BF00000300DD9D8F804006C491022CDF800C03F
:106C00009847002840F0B080103CDDF800C0EDE768
:106C10005CB1D8F8040065492246CDF800C0984719
:106C2000DDF800C0002840F09F80D8F80030D8F888
:106C3000040051465A4666449847002840F0948024
:106C40003E44B9F1000F79D073E0079BD3F800A060
:106C50001A1D0792BAF1000F09D05346994699F8C8
:106C600000200133002AF9D1CAEB090903E0DFF85B
:106C700040A14FF00609002F02DBB94528BFB946F5
:106C80004D458CBFC9EB0505002514F0010405D165
:106C900040462946FFF700FD002865D1D8F80030AE
:106CA000D8F8040051464A46984700285CD14E4423
:106CB0003EE052EA030E0ED002F00F0E10F80EE086
:106CC0004FEA131C01F801ED4FEA121E4EEA037E53
:106CD00072466346EDE70B467F1A01BF302201275B
:106CE00001F1FF3301F8012C03377822BD4203F88C
:106CF000012C4FF0300203F8022C88BFED1B4FF03F
:106D0000230298BF002514F00104A3F1030903F83E
:106D1000032C04D140462946FFF7BEFC20BBD8F81F
:106D20000030D8F8040049463A469847E0B93E4456
:106D300024B140462946FFF7AFFCA8B92E44CCE465
:106D4000079B012D03F104021B688CBF05F1FF3581
:106D5000002514F0010407928DF8203008D1404638
:106D60002946FFF799FC10B14FF0FF301AE02E448E
:106D7000D8F80030D8F8040008A901229847002864
:106D8000F2D16F1C2CB140462946FFF785FC002844
:106D9000EAD13E44A1E4079B1A1D1B6807921E60BE
:106DA0009BE430460FB0BDE8F08F00BFD8B426009A
:106DB00012B52600F8B50388064615462BB14A2BB6
:106DC00015D0002303800320F8BD174803F0FEFC14
:106DD00004462CB1201DA16803F0CAFC2468F8E722
:106DE000124B01221A704A2333800120F8BD8829F2
:106DF000FBD10D4803F0EAFC0446002CF3D0231D20
:106E00009D420ED10848214603F0EAFC084B626916
:106E10001F681A60A2691D460AB1E06990472F6099
:106E2000E1E72468E9E700BFA40A00203614002047
:106E3000BC0A002010B5064B002406481C7003F065
:106E4000C2FC2146BDE81040034800F017BB00BF5C
:106E500036140020A40A00209404002070B50446D3
:106E6000E3610B4B049D1B786561A26143B1094D41
:106E7000094B2E68201D2B6003F07AFC2E6000E089
:106E8000A1602146BDE87040044803F0BDBC00BFCE
:106E900036140020BC0A002094040020A40A00201C
:106EA00013B5034C24680094FFF7D8FF02B010BD5F
:106EB000BC0A002010B5084B04461B781BB10430F7
:106EC00000F0DEF801E0C36003612146BDE8104038
:106ED000024803F085BC00BF36140020A40A00203D
:106EE00000230649002241F82320054941F82320C8
:106EF00004495A5401330E2BF3D170472018002057
:106F0000D41700201018002038B50A4B04461B5C2B
:106F1000094D63B1FDF7E6FE084A55F8243052F8F2
:106F2000241042F824005B1A034445F8243055F835
:106F3000240038BD10180020D4170020201800208D
:106F4000014B43F820107047D417002010B50E4CA9
:106F5000236813B90D4A136010BDFDF76DFE21685B
:106F600091E80C001A44131A8A6842B192E81200A0
:106F70002144091A8B4228BF0B469268F5E7184452
:106F8000024B186010BD00BFA80A0020AC0A002008
:106F9000014800F08BBA00BFA4040020F8B50388B4
:106FA00005462BB1582B09D0002303800320F8BDE0
:106FB0001E4A136058232B800120F8BD872920D05A
:106FC0008229F7D1194F00263C68002CF2D02046C8
:106FD00003F0EBFB90B1E0688821224600F022FA32
:106FE00050B9E060A3680EB1B36000E03B600023DD
:106FF000A360FFF7ABFFE5E7FFF7CAFF2646A468EB
:10700000E3E70A490B680BB90B60D3E7D8689042F5
:1070100001D19B68F7E70B6099680029CAD0C8685E
:1070200090420ABF89680B469960F5E7A80A0020DC
:1070300010B50446FFF7ACFFE3680B4A4BB1136889
:107040003BB1A34203D1094A1268DA6007E09B68AA
:10705000F6E7064B1B68E36013681460A360BDE8A5
:107060001040FFF773BF00BFA80A0020BC0A002031
:10707000024B1868003018BF01207047A80A002092
:1070800010B50B4A04461368984206D18368136012
:1070900008E09A68A24203D01346002BF9D103E01E
:1070A000A2689A60FFF752FF0023A360E36010BD5F
:1070B000A80A0020404B70B500241C603F4BB6B0BE
:1070C0001C603F4B01251C603E4B02261C603E4B62
:1070D00029461C603D4B2A461C603D4B3D481C60C8
:1070E0003D4B1C603D4B1C603D4B1C603D4B1C6090
:1070F0003D4B1C603D4B1C603D4B1C603D4B1C6080
:107100003D4B1C603D4B1C603D4B1C602B4603956A
:10711000009601940294FFF797FA4FF448528023A7
:107120008DE80C004FF461332946039303224FF49A
:10713000E13302963348FFF787FA334A2146334852
:10714000FFF782FA1E213248FFF77EFA29463148BE
:10715000FFF7C0F9304D2860304803F0D9F92B68AB
:10716000A34201DA2E4815E02E4803F0D1F921465A
:1071700000222868FFF70EFA286804A9C822FFF742
:1071800037FA002804F1C80411DC234B1868FFF714
:10719000EFF9254803F0BCF9244803F0B9F90621BA
:1071A0001C48FFF797F9224B186036B070BD04A950
:1071B0002048FFF749FADAE76C170020B4170020DF
:1071C000A417002050170020B017002064170020DB
:1071D000BC17002046B52600801700207817002035
:1071E000D0170020901700206017002058170020AB
:1071F000981700209C170020C0170020701700204F
:10720000C4170020CFB5260080841E005EB626007D
:1072100093B626009FB62600B00A0020ABB6260023
:10722000BDB62600D6B626001BB7260061B72600DD
:10723000581800205EB7260038B5836804460D460E
:107240009BB10A4804600220A07304F10C00984727
:107250000238012801D9832D05D120462146BDE8F9
:10726000384000F005B80123A37338BDBC0A0020E4
:107270002DE9F8431C4A0446156889462B4690467A
:107280001A4E3768A34204D00BB11B68FAE7BDE879
:10729000F88334B3A37BABB10023A37345B1AC42F5
:1072A00004D028468721224603F070FA2D68F5E7BE
:1072B000A3683BB14C4505D0346004F10C00832138
:1072C0002A469847D8F800309C4203D12268064BE2
:1072D00005E0134623B11A68A242FAD122681A6067
:1072E0003760BDE8F88300BFC00A0020BC0A002058
:1072F00010B5094B00221A70084B1C685CB1E37B87
:107300003BB101230022A373E27320468221FFF7E1
:1073100093FF2468F2E710BD3A140020C00A002051
:10732000024B1878421C1A70704700BF3B140020B3
:10733000064B8A221A70064A00231370054A1370FE
:10734000054A1360054A1360704700BF3B140020D4
:107350003714002039140020C00A0020BC0A002085
:107360002DE9F041214E33780BB1FFF7C1FF204DDD
:107370002C78002C34D0DFF88CE00C229EF8003002
:107380001C495A4388181C4F895CDFF87C8042688E
:10739000DFF878C08068013303F01F03013C3970C7
:1073A000C8F80020CCF800008EF800302C7088B9A6
:1073B000124C134B1B68236023688BB133780BB1DD
:1073C000FFF796FF20683978D8F8002003F0DEF93F
:1073D0002368EFE7812904BF0123837303F0D6F903
:1073E000337828781844BDE8F08100BF3A140020B3
:1073F00039140020C80A00203C140020C40A0020D0
:10740000C00A002037140020B40A0020B80A002067
:10741000024A034B10781B78184470473914002037
:107420003A140020F0B50C4E3478202C11D00B4BC0
:107430000B4D1B780B4F234403F01F032B700C25BF
:107440006B430134FD18A860F9546A603470002061
:10745000F0BD0120F0BD00BF39140020371400201A
:1074600038140020C80A002038B5034C256803F002
:107470008DF9256038BD00BFBC0A002010B50A4652
:1074800009490C68234683420DD00BB11B68FAE70B
:1074900048B1046008600121817383818121BDE8C6
:1074A0001040FFF7E1BF10BDC00A002038B1837B58
:1074B000013B012B9FBF024A0123C3731370704726
:1074C0003A14002006480023064A074952F82320B0
:1074D00051F8231001330E2B01FB1200F4D1704739
:1074E00080841E001CB12600D417002010B5084C63
:1074F000206858B100232360816843689847236857
:1075000023B1BDE810401868FDF702BC10BD00BFF4
:10751000480C002038B505880446672D09D0792D20
:107520002ED0002D32D1FFF7FBFE1B4B18701B4BEA
:107530001D601B4803F0B3F9431C01D167231DE014
:107540000A28164B07D01A687E2AF2DC511C1960F3
:10755000144B9854EDE7196800254A1C1A60114A2B
:107560000D4B555428461978FFF75CFF0E4B8521CB
:1075700018682A46FFF756FF20B97923238009E0CF
:10758000852907D1054B00221A60D2E7002303802A
:10759000032038BD012038BDA5180020540C002060
:1075A0004C0C0020BE140020BC0A00200D2810B591
:1075B000014615D00B4C23782BB90B4803F05BF92F
:1075C00048B9012306E00A2805D1074803F053F91A
:1075D00008B1002323700548FFF768FF012010BDA4
:1075E000002010BDBD1400204C0C0020B40400206D
:1075F00008B505480549802203F036F9BDE8084082
:1076000003480021FFF73ABF4C0C00203D14002036
:10761000B4040020054A136843F004031360044BCC
:107620001B68906943EA002080B2704700700D40EB
:1076300014700D40174A136823F00C031360164BA7
:1076400001221A601A68012AFCD1144B08221A6020
:10765000E322C3F8142203F505731946104B1B6887
:10766000DB07FBD5102000230E4A0138126802F018
:10767000010243EA02034FEA43039BB2F4D1002B19
:10768000F0D0094A180A03F0FE0310601360EF23DC
:107690000B60704700700D40A8200D402486084004
:1076A000648608409C86084014700D4070B50588BB
:1076B0000446772D30D07E2D3FD0002D4DD1FFF7E1
:1076C0002FFE294B1870294B1D601D462B68284A38
:1076D000264E52F823204AB126480021C15493680F
:1076E00080209847336801333360EFE7224A1370F4
:1076F000772320E01F4AD256002A12DB1B4A136868
:1077000001331360194B1C4A1B6812789342F1DB5A
:107710001A4B1B68002BEBD0184A00231360134A46
:10772000EFE7114A00201178114A52F82320FFF7A1
:1077300079FE30B97E23238013E00B4B1B788B42FC
:107740000FD10A4B0B491A688B5C03F07F038B54F3
:107750000A4A136801331360D0E700230380032033
:1077600070BD012070BD00BFA6180020580C00207D
:107770006C040020A11800203E1500205C0C0020A5
:10778000094B1A780023934204DA084951F8231070
:10779000814207D106490748CA5C62F07F02CA5499
:1077A000FFF784BE0133EEE73E1500206C04002095
:1077B000A1180020C404002070B505460C461646EA
:1077C00000F064F92E612046BDE87040014903F0E5
:1077D000D1B900BFBBB72600014802F0F4BF00BF1B
:1077E000600C0020014B1860704700BF640C002043
:1077F000014802F0EBBF00BF600C00202DE9F04112
:1078000006460B480C46174602F0E0FF70B183882D
:10781000A34208D185684DB1314622463B46AC466D
:10782000BDE8F041604702F0FEFFEFE7BDE8F08100
:10783000600C002010B50B4C0B4A616E04F138004F
:107840000023FFF72DFBFFF7E5FE636E074AB0FB51
:10785000F3F101FB130104F118000023BDE810400F
:10786000FFF71EBB680C002071782600897826007F
:10787000044B5A6E196E52008A4294BF5A6659667A
:10788000FFF7D8BF680C002010B500F04DFA00F0EB
:1078900005FA002303800446FFF7AAFF68B1037BC3
:1078A0005BB12388818804EB83025180C188013356
:1078B0009180238002F0B7FFF0E72088800002303B
:1078C00080B200F0A9F9238823B1BDE81040024836
:1078D00000F08AB810BD00BF680C00209DF8003091
:1078E000012B04D1024B9A6D5A66FFF7A3BF704774
:1078F000680C0020F8B586460F4616461D46074C14
:1079000071462046064A00F05DF8A765E6652566E3
:107910000448BDE8F840FFF765BF00BF680C0020D1
:1079200054B12600DD7826002DE9F043134B85B0D5
:1079300006461A200D46144693F8009093F80180ED
:1079400000F046FA07781A2000F042FA43784946D8
:107950008DE8280002943B4609484246FEF774FE33
:1079600073695B6833B130462946224605B0BDE8ED
:10797000F043184705B0BDE8F08300BF621800204F
:10798000C1B726001FB504461A2000F021FA0146AF
:1079900003A803F00FF9094B9DF80D0019785A78E8
:1079A0009DF80C3000900648FEF74EFE63691B6898
:1079B00013B1204603A9984704B010BD62180020F7
:1079C000EBB7260070B505460C461646044AFFF78D
:1079D000F3FE6E612046BDE87040024903F0CAB86C
:1079E0005CB12600BDB7260038B50546074C0848EF
:1079F00021786278FEF728FE21461A2000F0DCF993
:107A00002846BDE8384002F05CBF00BF6218002085
:107A100009B8260010B54378047843EA0420054BE2
:107A200088409B5CC2F1080203EA20201041C0B2EA
:107A300010BD00BF20B82600054B10B51B68984745
:107A4000044618B10120A18800F0A8F9204610BD15
:107A500064B1260038B5064B05465B689847044676
:107A6000A988012000F09AF9201C18BF012038BD18
:107A700064B12600014B9B68184700BF64B1260023
:107A8000014802F0A0BE00BFD40C00200346818054
:107A90000148194602F0B8BED40C00200146014846
:107AA00002F09EBED40C002010B50446054802F03A
:107AB0008DFE28B18388A34202D002F0B4FEF8E71D
:107AC00010BD00BFD40C00200129F8B507460C46B4
:107AD000154604D0022904D041B9104802E01048EC
:107AE00000E010482946FEF7AFFD02E00E48FEF721
:107AF000ABFD0E4802F06AFE064638B1B3680BB122
:107B000020469847304602F08EFEF5E7384621467B
:107B10002A46BDE8F84002F0DBBE00BF5FB8260091
:107B200029B8260046B8260077B82600D80C0020D1
:107B300038B5FFF781FF0546094802F047FE0446C5
:107B400030B1636803B19847204602F06CFEF6E757
:107B500025B12846BDE8384002F0B5BE38BD00BFAB
:107B6000D80C002010B50446FFF774FF38B100F0C0
:107B70006FF8034B034821469B689847012010BDCE
:107B8000D0B12600C97A2600074A0849136818446C
:107B9000884283BF064B0C224FF0FF3010608CBF31
:107BA0001A601846704700BFD404002000800020EF
:107BB0005C18002010B5084B1B689847074B5B68A2
:107BC0009847074B5B689847064B5B689847BDE84A
:107BD0001040054B5B681847DC160020A4B1260056
:107BE000D0B1260088B1260070B1260010B5084932
:107BF0000B888342A1BF074C80B222881218A1BF14
:107C0000181A088022800120B8BF002010BD00BFD4
:107C1000F40D0020F60D0020014B1880704700BFC6
:107C2000F40D002000487047DC0C0020014B188840
:107C3000704700BFF40D0020034A044B10781B78F6
:107C40001844C0B2704700BF3F150020F60D002059
:107C50002DE9F0410D4B1A881D46A2B10C4B0026B0
:107C60001F880C4B93F8008034B2BC4206F1010629
:107C700007DAFFF7E1FF084B1C44235C04F80830E7
:107C8000F2E700232B80BDE8F08100BFF60D002055
:107C9000F40D00203F150020DC0C002008B5FFF794
:107CA000CBFF014B184408BDDC0C002008B5FFF7E2
:107CB000C3FF024B1B88184480B208BDF40D00209E
:107CC00010B50446FFF7F2FF2318802B0FDC0138B4
:107CD00080B202B2002A04DB064B995C234499541B
:107CE000F5E7054B187820441870012010BD0020DE
:107CF00010BD00BFDC0C00203F15002010B5074868
:107D00000021342202F0F8F80024054805492044F7
:107D1000023402F04FFF082CF7D110BD6C18002080
:107D20006418002048B22600044A00231380044A45
:107D30001380044A1370FFF7E1BF00BFF60D002067
:107D4000F40D00203F15002038B50C460546FFF71E
:107D5000EBFF802C28BF802429462246034802F0EE
:107D600055F8034B20461C8038BD00BFDC0C0020BA
:107D7000F40D002010B5074B00F1340250F8044B0D
:107D8000904243F8044BF9D10B68034A13604B68E7
:107D9000536010BD6C18002064180020024B23F8BB
:107DA00010100120704700BF6C180020014B33F801
:107DB000100070476C18002008B5044B1A3803EB0C
:107DC000400002F0F7FE012008BD00BF641800204B
:107DD000024B1A3803EB4000704700BF64180020C4
:107DE0000148024902F0E9BE6618002048B22600A8
:107DF00008B5044802F01AFDBDE80840024802F048
:107E000015BD00BFE4040020D804002010B50446CE
:107E10000948214602F01AFD68B12468B4F88010C0
:107E20002046FFF791FF04F1820004F1B601BDE89E
:107E30001040FFF79FBF10BDD8040020014B1888E9
:107E4000704700BF240900202DE9F041012986B0C8
:107E500006460F46144640F3AA80037803F0070253
:107E60008DF80C20C3F3C0028DF80D20C3F300126F
:107E70008DF80E20C3F34012C3F380138DF8103039
:107E800043788DF80F20C3F340028DF81220C3F31E
:107E9000810203F001058DF81320C3F301129B0941
:107EA0008DF815308DF814208DF8115003AB03CBED
:107EB0001B882061616123830DB1B51C02E0B3789A
:107EC000F51CA37603A801A902AA02F07EFE9DF884
:107ED0001380B8F1000F23D0029B23B16A7815F804
:107EE000023B03EB0223B8F1020FA38309D1204622
:107EF000314902F05FFE6B78237015F8023B637026
:107F000014E0B8F1030F11D105F108021346611E08
:107F100013F8010DAB4201F8010FF9D1154605E048
:107F20002046254902F046FEA4F81C809DF81580E5
:107F3000B8F1000F2BD0019B53B16A7815F8023BC2
:107F400003EB0223029A9BB2E3831AB9A38301E0F5
:107F5000A38BE383B8F1020F0AD104F1080016499C
:107F600002F028FE6B78237215F8023B637215E06D
:107F7000B8F1030F12D108352A46E31D04F10F01B1
:107F800012F8010D03F8010F8B42F9D106E004F15C
:107F90000800094902F00EFEA4F81E80AE1BBB1BB0
:107FA000E363A563BE42D4BF3046002000E000205A
:107FB00006B0BDE8F08100BF48B2260030B591B0F0
:107FC0000546FFF73BFF4FF6FF73984202D14FF093
:107FD000FF307EE040226846002101F08DFF3E4BDD
:107FE0001A782AB901221A70FFF714FB3B4B18705C
:107FF0001420FFF7DBFE8DF810001320FFF7D6FEEC
:108000008DF81200FFF7ECFE18B100238DF8133045
:1080100004E00B20FFF7CAFE8DF8130000230124B3
:108020008DF814308DF815308DF81840ADB10A2058
:10803000FFF7BCFE28B10A20FFF7B8FE8DF81A0042
:108040000BE0264B1A7802B91C7019780A204A1CDA
:108050001A708DF81A10FFF7A1FE02248DF819404E
:10806000FFF7ECFEADF81C00FFF7BAFE38B1FF23B6
:108070008DF817408DF800308DF8013008E01B2096
:10808000FFF7A6FE0146684602F094FD8DF8174002
:10809000FFF7D4FEADF81E001A20FFF799FE014647
:1080A00002A802F087FDFFF7F9FD0E90FFF7BEFD75
:1080B0000F90684602F000FE04464DB1FFF700FE47
:1080C000002884D0FFF7AEFD0146684602F00DFEA1
:1080D000204611B030BD00BF5115002050150020C2
:1080E00038B500240A4D1A2005EB8405FFF770FE11
:1080F000294602F062FD38B10A20FFF757FEAB783F
:108100001B1A5842584138BD0134102CEAD138BDF1
:10811000E813002038B50025104C1A20FFF758FE50
:1081200004EB850102F049FD6B1C10B9102B1D46B4
:10813000F2D1013B2BB1013B04EB8302116851608A
:10814000F8E70A20FFF732FEA0701A20FFF740FE82
:10815000BDE838400146014802F02CBDE81300207C
:10816000014B9B68184700BFA4B12600014BDB6898
:10817000184700BFD0B12600014B5B69184700BF0C
:10818000A4B12600014B9B69184700BFA4B126008B
:10819000014B1B6A184700BFDC1600202DE9F7438E
:1081A0000E460546FCF7E2FB01280CBF4449454951
:1081B0001A20FFF701FE01210B20FFF7EFFD424BD4
:1081C0005B68984700286FDBFFF72CFD3F4C8778F2
:1081D000D4F80480FFF726FD8146FFF767FD0146CE
:1081E0004846C047FFF7FCFDA36980469847002832
:1081F00057D1B8F1000F0AD0D4F80890FFF756FD18
:10820000C84748B102280CBF012204224AE0E369B2
:108210009847002845D1EFE7B8F1000F02D00022BF
:10822000012443E0FCF75EFD8046FCF721FFFCF7EC
:1082300059FD6FF00C03C8EB0303C342F7D4A369E5
:10824000DFF88880984728B1FCF74CFD8046FCF7A2
:108250000FFF0AE0D8F81C3098470028F4D1D8F86E
:10826000143098470028EFD019E0FCF73BFD6FF081
:108270001403C8EB0303C342F7D4E369984770B112
:10828000124B01A81B6903219847032809D19DF8C7
:108290000620D21B18BF0122002AC0D002E0022211
:1082A00000E00122002401E00522FBE728463146D8
:1082B000012302F0E2FD204603B0BDE8F08300BFD9
:1082C0006018002062180020C4B12600DC160020CF
:1082D000024B08B11B6A00E05B6A1847DC160020FD
:1082E00007B5FFF7A3FC032807D11B20FFF770FD9C
:1082F000124902F062FC30B10CE0114B9B689847C8
:10830000002817DBF1E71B20FFF762FD0D4902F0A3
:1083100054FC58B1FFF7E4FE60B9FFF7FBFE0A4BCF
:10832000DB68019303B05DF804EB1847FFF758FDD5
:108330000028EFD103B05DF804FB00BF62180020F5
:10834000C4B126006018002088B1260008B5024B91
:108350001B689847023008BD7CB1260038B50C4B2D
:108360009B689847041E02DA4FF0FF3038BDFFF7D4
:1083700095FC03780546002BF6D10220FFF736FC6A
:108380000028F1D06878FFF747FCA01C38BD00BF7B
:108390007CB1260070B50220FFF792FC10B94FF0B7
:1083A000FF3070BDFFF73EFC002505700446FFF767
:1083B0003DFC6070FFF77AFC0446FFF7C7FF2044DE
:1083C0002A2812DCC0F12B00C4B2FFF767FC064676
:1083D000FFF72CFC29462246304401F08DFDFFF7C3
:1083E00025FC204480B2FFF717FC044B5B689847DC
:1083F000041ED4DBFFF72CFCA01C70BD7CB1260052
:10840000014B9B68184700BF70B1260070B5054648
:108410000C4614200121FFF7C1FC034B28462146DE
:10842000BDE870409B68184788B12600034B188848
:1084300080B2003018BF0120704700BF2814002010
:10844000002934D0102834D8DFE800F00914333381
:10845000191B1E20333333333324272A2D00164BA8
:108460001B7803F0020303F0FF000BB1012303E0CC
:1084700008607047114B1B780B6000207047104B51
:1084800000E0104B1B68F7E70F4B00E00F4B93F930
:108490000030F1E70E4B9B7DEEE70D4BDB7DEBE70C
:1084A0006FF00F03E8E70A4B93F91830E4E7022076
:1084B00070470120704700BFDA160020D616002052
:1084C000840D0020800D0020D9160020D415002036
:1084D000E0B1260010B504462B2002F021FD630018
:1084E000233303F03F0300F0C00119432B2002F0B7
:1084F00000FD014B1C7010BDD916002010B502F014
:10850000F1FCC8B1602801D13A2002E0702803D103
:108510003B2002F0DBFC0FE0362002F0D7FCFCF73A
:10852000E1FB044602F0DEFC30B1FCF7DBFB6FF44C
:10853000A3731B1BC342F5D40E4A137823F0040324
:108540001370FCF73BF9FCF753F93A2002F0BEFC3C
:10855000342002F0BBFCFCF7C5FB044602F0C2FC71
:10856000102806D0FCF7BEFB6FF4A3731B1BC3429D
:10857000F4D410BDDA16002010B51B4C23785B062E
:108580000AD52378332023F04003237002F09EFCA9
:10859000FCF7A8FB04460FE0FCF758FB134B1B68E5
:1085A000C01AB0F5617FECD210BDFCF79BFB6FF4F5
:1085B000A3731B1BC34203D502F094FC4028F4D1E3
:1085C000FCF790FB044606E0FCF78CFB6FF4A3730A
:1085D0001B1BC34203D502F085FC0028F4D1FCF735
:1085E00035FB024B186010BDDA1600207C0D002010
:1085F00010B5FFF7C1FF134A3A20137823F00403A4
:10860000137002F063FC342002F060FCFCF76AFB9C
:10861000044602F067FC10280BD1FCF7CFF8FCF7FA
:10862000E7F8FCF75FFB084B01225862074B5A72D0
:1086300010BDFCF757FB6FF4A3731B1BC342E8D4B8
:10864000EBE700BFDA1600202018002010180020E9
:1086500010B51E4CFCF7C4F8FCF7DCF8637A53B194
:10866000FCF740FB1A4A1B49536A496A5B1A1844D3
:10867000002350626372237A5BB1FCF733FB144A28
:108680001449136A096A5B1A1844104B10620022DD
:108690001A7202F027FCC0B1602801D13A2002E032
:1086A000702802D13B2002F011FC362002F00EFCB3
:1086B000FCF718FB044602F015FC30B1FCF712FB86
:1086C0006FF4A3731B1BC342F5D410BD1018002018
:1086D000D41700202018002038B50F4D2B789B07A9
:1086E00016D50E4C2378ABB923780133DBB2237057
:1086F000FFF7AEFF3221032002F0FBFB392002F02E
:10870000E5FB23780120013BDBB22870237038BDE4
:10871000012038BD002038BDDA160020D516002013
:1087200070B5184D2B7803F0020303F0FF003BBB3C
:10873000154C23782BBB23780133DBB22370FBF776
:108740005BFFFCF7CFFA0646FCF76CF880B9FBF745
:108750005FFF2B78062143F0020303202B7002F009
:10876000C8FBFFF745FF2378013BDBB2237007E02E
:10877000FCF7B8FA6FF4A3739B1BC342E4D4E6E79B
:10878000012070BDDA160020D516002008B5094B6F
:108790001B7803F00A03022B01D0002008BDFCF770
:1087A00041F8012805D0044B1B889BB2002BF4D064
:1087B000012008BDDA160020281400203A4B2DE9CC
:1087C000F3479C7D0746A0429A4667D3DB7D8342F0
:1087D00064D3364DDFF8E4802B7863B1344B3548F1
:1087E0001F7098F80030012643F0100388F800301D
:1087F000FEF75CFE53E098F800301A07EED4FFF75E
:10880000C5FF06460028E9D198F8003023F0100291
:108810009B0788F8002004D4FFF782FF4FF001097E
:1088200000E081462B783C1B0133DBB22B70FFF755
:108830000FFFDAF81020BAF81410E3B201FB03219D
:108840000C0340F27121B4FBF1F142F60E7001917C
:10885000C9B202F04EFB9DF8051042F60D7002F011
:1088600048FB42F60C709DF8061002F042FB124BDA
:108870001F70B9F1000F07D198F8003043F04003A2
:1088800088F80030FFF7B4FE2B78013BDBB22B7089
:10889000B9F1000F03D0FFF71FFF00E002263046BA
:1088A00002B0BDE8F08700BFE0B12600D516002079
:1088B00052150020F0040020D6160020DA16002001
:1088C00010B50C46072835D8DFE800F0040F343423
:1088D00015171A29012902D1FFF722FF1DE009B15E
:1088E000022010BDFFF7F8FE17E0C8B2FFF766FFE1
:1088F000022812D1F4E7104B00E0104B1C600CE092
:108900000F4B93F918106FF00F038C42A8BF0C4661
:108910009C42B8BF1C460B4B1C70002010BD7F2929
:1089200005DC6FF07E039942B8BF1C4600E07F244F
:10893000054BF1E7012010BD840D0020800D0020C3
:10894000E0B12600D8160020D7160020F8B5214D3A
:108950002B7803F0FF06002B3AD11F4B1B789A07A8
:1089600002D4FFF7DDFE01262B780133DBB22B703A
:10897000FBF758FF012821D0184B194F1C783B7882
:108980009C4204D01720214602F0B3FA3C70FCF759
:10899000A9F9074642F6727002F0C2FA830704464C
:1089A00004D584F00404C4F3800408E0FCF79AF9C9
:1089B0006FF4A373DB1BC342ECD4F2E700242B78E3
:1089C000013BDBB22B700EB1FFF786FE2046F8BDEF
:1089D0000020F8BDD5160020DA160020D71600209A
:1089E000D41500200A4603397C2908B5034607D868
:1089F000044905480A80194601F008FA002008BD1C
:108A0000012008BD2E14002056160020F8B5134D85
:108A10000A462C88A4B2F4B12B8811499BB20B44AE
:108A200013F8026C2B882C889BB2A4B2023C0B4436
:108A3000944213F8017C0EDC224601F0E7F971B292
:108A4000002389B204202B80FFF7A8F9032007F048
:108A50007F01FFF7A3F92046F8BD00BF28140020CE
:108A6000531500202DE9F743804602318CB26C4A41
:108A7000C4F3022302AE43F0180306F8043D137852
:108A8000E5B223F004033A2013708DF8055002F08C
:108A90001DFA3B2002F01AFA312002F017FA2621C3
:108AA000032002F026FA0221012002F022FA3046C9
:108AB000022102F04EFA7E2C28BF7E254046294630
:108AC00002F047FAFCF70EF90646641BA4B202F066
:108AD00009FA302806D1352002F0F8F9FCF702F93E
:108AE00006460EE0FCF7FEF86FF4A3739B1BC3422F
:108AF000EDD4F0E7FCF7F6F86FF4A3739B1BC342C9
:108B000003D5FBF78FFE0128F4D1FCF7EBF8454FB6
:108B1000454E012338623372FBF784FE80B942F67A
:108B2000D67002F0FDF958B10021012002F0E1F900
:108B3000FFF78EFD0320062102F0DBF901206BE038
:108B400064B3FCF7CFF8454480469CB1FBF772FE56
:108B500080B91F2C94BF5FFA84F94FF02009284692
:108B6000494602F0F6F9314BC9EB0404DB68A4B2C4
:108B70004D449844FBF756FE012806D002F0B2F9A6
:108B800000F0BF00102814D10EE0FCF7ABF8274B23
:108B9000DB684344C01A0028D7DBEFE7FCF7A2F8F4
:108BA0000446FBF73FFE98B9FBF73CFE012818D1BD
:108BB000BAE7FCF797F8044602F094F92028B3D1FD
:108BC000FCF790F86FF4A3731B1BC342F4D4ABE71C
:108BD000FCF788F8154BDB682344C01A0028E0DB5B
:108BE000E2E70021012002F084F90320062102F0CF
:108BF00080F9337A53B1FCF775F80D4A396A136A74
:108C00005B1A1844084B106200221A72FCF76AF8CB
:108C1000012378627372002003B0BDE8F08300BFC7
:108C2000DA1600202018002010180020E0B12600DD
:108C3000D4170020F8B5324D2B8883425ED1314CD9
:108C4000237843F0080222709A0703D4FFF768FDE7
:108C5000012700E000272C4B1B68DB070BD5FFF733
:108C600075FE40B90FB1FFF737FD2378022023F0DE
:108C700008032370F8BD254E33780133DBB233701F
:108C8000FFF7E6FC224B234A93F9003092F90000EB
:108C9000834201D0FFF71EFC0FB9FFF76DFC1E48A1
:108CA0002988FFF7DFFEA0B9FCF71CF8054602F0A3
:108CB00019F9102805D1FBF781FD0025FBF798FD78
:108CC0000FE0FCF70FF86FF4A3735B1BC342EED405
:108CD000F1E72FB9237843F040032370FFF788FCB6
:108CE00001253378013BDBB233700FB1FFF7F4FCA1
:108CF0002378284623F008032370F8BD0120F8BD2F
:108D00002E140020DA160020800D0020D516002039
:108D1000D9160020D8160020561600202DE9F04163
:108D2000564F387810F0010440F0A480544E337848
:108D30000133DBB23370FBF783FD524801F0E8FBEF
:108D40002046FBF7BFFC0120FBF7FAFC4E4801F080
:108D5000DFFBFBF751FC3020FBF760FC642001F0E7
:108D600098FBFBF755FC494B1C895D68A4089846A5
:108D7000002D74D10621032002F0BBF8AF2118208A
:108D800002F0B7F82621002002F0B3F800210120FC
:108D900002F0AFF80621032002F0ABF81F2002F02A
:108DA000BFF800F0E7011F2002F0A3F8292002F02D
:108DB000B7F800F0CF0141F03F01292002F099F807
:108DC0002A2002F0ADF800F0CF0141F030012A2056
:108DD00002F08FF82021262002F08BF8272002F0E5
:108DE0009FF840F00101C9B2272002F082F8282044
:108DF00002F096F800F09F0141F02001282002F0D7
:108E000078F820211D2002F074F8214801F080FB41
:108E1000204B03221A60204B01221A601F4B0E20A8
:108E20001870FFF757FB98F819401D4B2146172083
:108E30001C7002F05EF81B4B00211B481C70FEF7F3
:108E40001DFB3B781A2043F003033B703378013B52
:108E5000DBB23370FFF7B2FCFFF73EFC0AE00435EB
:108E6000002C87D035F8040C15F8021C02F041F8EC
:108E7000013CF4E70120BDE8F08100BFDA160020D4
:108E8000D5160020D4B82600FAB82600E0B1260096
:108E90001EB92600840D0020800D0020D816002069
:108EA000D7160020D4150020F00400202DE9F04151
:108EB000794E92B033783546784F3BB13B7878485D
:108EC00043F020033B70FEF7F1FAD9E03B7823F042
:108ED00020033B7033780133DBB2337002F002F8C9
:108EE00000F0EF0060280AD042F6D77002F018F8C0
:108EF000044630B13B7858072BD4012C06D8FFF735
:108F0000FDFA3378013BDBB23370C1E0022102A8E5
:108F100002F03BF89DF808209DF8093002F00701A7
:108F200003EB012312F0100F5E4A14BF023B043B17
:108F300013801388022B40F2A5807F2B00F2A280C1
:108F4000594B00221A803B78023C43F00403E4B200
:108F50003B703B78590740F19780534EDFF84481CE
:108F60003088B8F80030221802339A4200F38A8021
:108F70004E4F2146384402F008F83188B8F80030E6
:108F8000214489B20233994231807DD17B1813F993
:108F9000013C002B76DA464C23889BB2002B71D122
:108FA0000DF1080838464246FEF74EFF002853D020
:108FB000404B1A681F4612F0010F03D13B689A0715
:108FC00016D511E09DF81830022BF7D09DF81F3010
:108FD000022B0CBF0223082313F1FF33EED318F842
:108FE0000320FF2AF8D02AE09DF81820012A01D09A
:108FF000022031E09DF81B20002AF9D0DB0711D4B4
:1090000002238DF8043000238DF805309DF82230BE
:109010008DF80630FFF71CFB01A80321FFF722FDA6
:10902000032019E04046244901F0C7FD0028E7D19C
:109030004046224901F0C1FD0028E1D1D8E7404671
:109040001D4901F0BAFD0028B8D140461B4901F086
:10905000B4FD0028B2D101200238012812D833888B
:10906000124923802288164892B200F0CFFEFFF703
:1090700045FA0B48FEF71AFA2B78013BDBB22B704E
:10908000012006E0FFF73AFA2B78013BDBB22B70A8
:10909000002012B0BDE8F081D5160020DA160020BD
:1090A000F00400202C1400202A140020D5150020E4
:1090B00028140020840D0020621800206018002071
:1090C00053150020822970B505460E4625D11C4B4C
:1090D0001A781C4602F02202222A01D1FFF7E6FE8E
:1090E0002378DB0603D5174B1878FFF767FB164B81
:1090F0001B889BB28BB1FEF717FEFEF7CFFD8021D8
:10910000FFF784FC041E08DD0120FBF73BFCA0B246
:10911000FEF782FD0D4B1B6998472B881BB1B3F5F9
:109120001B7F04D005E04FF41B732B8005E0832EDA
:1091300003D100232B80032070BD012070BD00BF30
:10914000DA1600205215002028140020A4B12600B1
:109150008329F7B506460D46174602D1374801F078
:10916000DFFB34886F2C1AD0822C33D0002C5DD1D9
:10917000334B01219B6881209847324B8121324A31
:109180002E481C60FEF71EFC2020FBF717FA082073
:10919000FBF714FA1020FBF711FA6F2318E02B4BA2
:1091A0001B78AB4246D1264B9F4243D12020FBF790
:1091B0000DFA0820FBF70AFA1020FBF707FA244AF9
:1091C000244813680C210133136001F0D1FA822383
:1091D00033802FE01F4801F0D4FA58B3142000F078
:1091E0004DFB1B4C1C4D1D4922682860FDF73CFAC5
:1091F00014212868FEF7A8FD00238DF8043001A88B
:10920000012317498DF8053001F0D7FC30B90B4820
:10921000FEF7EAFB13482168FDF716FA286800F00C
:1092200035FB42F2107322689A42C8D10023338082
:10923000032000E0012003B0F0BD00BF900D00202E
:10924000ACAF2600A80D002034B22600A6180020DE
:109250008C0D0020AC0D0020880D002048B92600A0
:109260006218002052B9260008B50B4615485A78F6
:109270000978FDF7E9F9FEF711FD01F049F9124906
:109280000B685A1C032392FBF3F303EB4303D31A3B
:10929000012B0A6007D0022B0AD08BB90820FBF7FC
:1092A00095F9202008E02020FBF790F9102003E03A
:1092B0001020FBF78BF90820BDE80840FBF77EB9CA
:1092C00008BD00BF5EB92600A80D002053B94AB9F9
:1092D000002908BF00281CBF4FF0FF314FF0FF30BE
:1092E00000F03CB882B0EC462DE9005000F01EF8CA
:1092F000DDF804E002B00CBC704700BF2DE9F0417E
:10930000069C904606460F461D4600F029F808FBCD
:1093100001FCA8FB002300FB05C5B21A2B4467EB38
:1093200003038646C4E90023BDE8F0812DE9F84334
:10933000089E1746804689461D4600F067F900FBE7
:1093400005F3A0FB074507FB0137B8EB04043D44D8
:1093500069EB0505C6E90045BDE8F883704700BF25
:1093600000292DE9F043C0F2A8800026002BC0F2AE
:109370009E8081468E4690469C46174604460D4682
:10938000002B3DD18A4259D9B2FA82F33BB1C3F1E5
:1093900020029D4020FA02F29F4015439C40390C68
:1093A000B5FBF1F01FFA87FE01FB10550EFB00F331
:1093B000220C42EA0545AB4209D9ED1900F1FF3212
:1093C00080F00B81AB4240F2088102383D44ED1A37
:1093D000B5FBF1F301FB13550EFB03FEA4B244EA07
:1093E0000545AE4508D9ED1903F1FF3280F0F7804D
:1093F000AE4540F2F480023B43EA0043002203E022
:109400008B420FD900221346341C18BF012460423E
:109410004FF0000565EB4501584051400019694186
:10942000BDE8F083B3FA83F2002A40F089808B42D2
:1094300002D3804500F2E2800123E5E712B901235F
:10944000B3FBF2F7B7FA87F8B8F1000F3BD1ED1B89
:109450004FEA174C1FFA87FE0122B5FBFCF00CFB0C
:1094600010550EFB00F3210C41EA0545AB4207D92C
:10947000ED1900F1FF3102D2AB4200F2C380084681
:10948000ED1AB5FBFCF30CFB13550EFB03FEA4B267
:1094900044EA0545AE4507D9ED1903F1FF3102D283
:1094A000AE4500F2AD800B4643EA0043ACE75242C2
:1094B0006FEA060663EB43035BE7404261EB410161
:1094C0004FF0FF3652E707FA08F7C8F1200225FAF5
:1094D00002F34FEA174CB3FBFCF11FFA87FE0CFBBB
:1094E000113324FA02F205FA08F50EFB01F92A43BA
:1094F000100C40EA0343994504FA08F407D9DB1934
:1095000001F1FF3078D2994576D902393B44C9EB55
:109510000303B3FBFCF00CFB10330EFB00F592B21F
:1095200042EA03439D4207D9DB1900F1FF325FD2C3
:109530009D425DD902383B445D1B40EA01428CE705
:10954000C2F1200328FA03F10CFA02FC41EA0C0CE8
:109550004FEA1C402EFA03F1B1FBF0F51FFA8CF72D
:1095600000FB151129FA03F30EFA02FE07FB05F9B9
:1095700043EA0E0E4FEA1E4343EA0141894508FAC9
:1095800002F808D911EB0C0105F1FF3332D28945FD
:1095900030D9023D6144C9EB0101B1FBF0F300FB9E
:1095A000131107FB03F71FFA8EFE4EEA014E7745B3
:1095B00008D91EEB0C0E03F1FF3117D2774515D9F0
:1095C000023BE64443EA0543A3FB0889C7EB0E0EC2
:1095D000CE4509D305D0002216E71046F7E613461C
:1095E0000AE794404445F6D2013BF4E70B46E9E72D
:1095F0001046A1E71D46CEE7014688E7134603E77C
:10960000023B51E702383D443AE700BF2DE9F04301
:10961000002B44D18A42154604464FD9B2FA82F74C
:109620000E464FB1C7F12003B94020FA03F602FA03
:1096300007F50E4300FA07F42F0CB6FBF7F01FFAFC
:1096400085FE07FB10620EFB00F1260C46EA024382
:10965000994209D95B1900F1FF3280F0EE809942FE
:1096600040F2EB8002382B44591AB1FBF7F307FBA9
:1096700013110EFB03FEA4B244EA01418E4508D942
:10968000491903F1FF3280F0DA808E4540F2D7802D
:10969000023B43EA004000263146BDE8F0838B429E
:1096A00047D8B3FA83F6002E48D18B4202D38242C8
:1096B00000F2CF8001203146BDE8F08312B90125C8
:1096C000B5FBF2F5B5FA85FCBCF1000F78D1491B6A
:1096D0002F0C1FFA85FE0126B1FBF7F007FB1011D6
:1096E0000EFB00F2230C43EA01418A4207D94919D3
:1096F00000F1FF3302D28A4200F2BC801846891A78
:10970000B1FBF7F307FB13110EFB03FEA4B244EA0F
:109710000142964508D9521903F1FF3180F091803A
:10972000964540F28E80023B43EA00403146BDE858
:10973000F083002630463146BDE8F083C6F12004B0
:1097400022FA04F5B3402B4321FA04F74FEA1348F9
:10975000B7FBF8FC1FFA83F908FB1C7720FA04FE1C
:1097600001FA06F509FB0CF44EEA05054FEA154E21
:109770004EEA0747BC4202FA06F204D9FF180CF180
:10978000FF3168D38C463F1BB7FBF8F408FB147716
:1097900009FB04F9ADB245EA0741894504D9C91866
:1097A00004F1FF355DD32C4644EA0C44A4FB0223AC
:1097B000C9EB0101994249D345D0204600266BE709
:1097C000CCF1200405FA0CF521FA04F32A0CB3FBC2
:1097D000F2F61FFA85FE02FB163820FA04F701FAAA
:1097E0000CF10EFB06F90F433C0C44EA0843994583
:1097F00000FA0CF407D95B1906F1FF3138D299450C
:1098000036D9023E2B44C9EB0303B3FBF2F002FB53
:1098100010330EFB00F1BFB247EA0343994207D968
:109820005B1900F1FF3721D299421FD902382B442E
:109830001746591A40EA06464EE7104614E7134603
:1098400027E70B4670E7B0409042B6D2601E002674
:1098500022E7304620E7BC4294D9ACF1020C1F4409
:1098600091E789459FD9023C19449DE73846DFE7D7
:109870000E46C8E70238294441E700BF024B0146C3
:10988000186800F00BB800BF20090020024B014609
:10989000186800F0F5BC00BF200900202DE9F04F4A
:1098A00001F10B05162D83B0064627D935F00705C3
:1098B00000F1B680A94200F2B38000F06BFBB5F571
:1098C000FC7F22D2BC4FE80807EBC003DC689C4257
:1098D00000F0BC816368E16823F0030323445A6805
:1098E000A56842F00102E96030468D605A6000F0E0
:1098F00053FB0834204603B0BDE8F08F102900F276
:109900008F8000F047FB1025DCE7680A00F08F80AD
:10991000042800F24781A80938304100A64F07EB20
:109920008101CC68A14206D10CE0002A80F282803D
:10993000E468A14206D0636823F003035A1B0F2A90
:10994000F3DD013801309C493C6901F1080E744592
:1099500000F07181636823F003035A1B0F2A00F3A0
:109960005781002AC1F814E0C1F810E066DAB3F5B7
:10997000007F80F02D81DB0801EBC3084FEAA30CC8
:109980004A68012303FA0CF3D8F808C01343C4F85B
:1099900008C0C4F80C804B60C8F80840CCF80C40F4
:1099A0008210012494409C4255D8234206D120F0D5
:1099B00003006400234200F10400FAD007EBC00862
:1099C000C4468146DCF80C309C4507D135E10029BE
:1099D00080F24581DB689C4500F02F815A6822F0B7
:1099E0000302511B0F29F2DD1C46DA6854F808CF38
:1099F00045F0010941F001081D44C3F804903046C8
:109A0000CCF80C20C2F808C07D613D61C5F80CE0BF
:109A1000C5F808E0C5F80480695000F0BDFA69E7B0
:109A2000002420460C23336003B0BDE8F08F7E2174
:109A30003F2073E723445A68E16851E723445A689A
:109A4000304642F001025A60083400F0A5FA204680
:109A500003B0BDE8F08FBC68636823F00308454598
:109A600004D8C5EB08030F2B00F38C80534BDFF8B1
:109A70005CA11A68DAF800302A44013304EB080BC1
:109A800000F0518102F580520F3222F47F6222F001
:109A90000F0211463046019200F080FAB0F1FF3F0C
:109AA0008146019A00F04881834500F2EF80444BE3
:109AB000CB4519681144196000F04381DAF80000C1
:109AC000DFF808E101301BBFCBEB090B5944CEF89E
:109AD0000090196019F0070100F00881C1F1080039
