:020000040026D4
:10400000483400208D422600DFA52600DDA52600CD
:10401000DDA52600DDA52600DDA5260000000000A8
:10402000000000000000000000000000DDA52600E8
:10403000DDA5260000000000DDA526007D4C260041
:1040400063A6260069A626006FA6260075A6260090
:104050000000000047A626004DA62600DDA526008C
:10406000DDA52600000000000000000000000000A8
:104070000000000000000000DDA526000000000098
:104080000000000000000000DDA52600DDA52600E0
:10409000DDA52600DDA52600DDA52600DDA5260080
:1040A000DDA52600DDA52600DDA52600DDA5260070
:1040B000DDA52600DDA52600DDA52600DDA5260060
:1040C000DDA52600DDA52600DDA52600DDA5260050
:1040D000DDA5260000000000000000000000000038
:1040E00000000000000000000000000000000000D0
:1040F0000000000000000000A1592600B159260070
:1041000000000000000000000000000000000000AF
:10411000000000000000000000000000000000009F
:10412000000000000000000000000000000000008F
:10413000000000000000000000000000000000007F
:10414000000000000000000000000000000000006F
:10415000000000000000000000000000000000005F
:10416000000000000000000000000000000000004F
:10417000000000000000000000000000000000003F
:10418000000000000000000000000000000000002F
:10419000000000000000000000000000000000001F
:1041A000000000000000000000000000000000000F
:1041B00000000000000000000000000000000000FF
:1041C00000000000000000000000000000000000EF
:1041D00000000000000000000000000000000000DF
:1041E00000000000000000000000000000000000CF
:1041F00000000000000000000000000000000000BF
:1042000000000000000000000000000000000000AE
:10421000000000000000000000000000000000009E
:10422000000000000000000000000000000000008E
:10423000000000000000000000000000000000007E
:10424000000000000000000000000000000000006E
:10425000000000000000000000000000000000005E
:10426000000000000000000000000000000000004E
:10427000DDA5260029582600715826005154260035
:104280002D5C2600494D2600DDA5260008B5094B0A
:10429000FF221A600848094A4824E3690849121AAB
:1042A00098470848084AA3690021121A984700F065
:1042B0000DF8FEE7B4200D40400000202309002047
:1042C00074BE260028090020452C002073B500F09C
:1042D000C7FE00F0AFFF00F017FF00F075FC01F023
:1042E00093FC06F026FB00F09DFF00F075F92020FE
:1042F00006F078F902F010FF00F09EFE002000F0BA
:10430000AFFD012000F0ACFD6149002000F07EFE11
:1043100003F062F806F09DF9082006F063F95D48A5
:1043200006F0C3F95C4806F0C0F9002003F076F807
:1043300001F0D0FA0021594802F094FF02F082FC0B
:1043400006F07CF902F0BEFDC82005F0E1FA044653
:10435000534905F05DFF204605F0B8FF514D024678
:104360002146286801F0A6FF01464F4802F074F884
:10437000204605F0D5FA4D4806F097F9C82005F01B
:10438000C7FA044602F092FF49490246204602F06D
:1043900073F8204605F09AFF21460246286801F08E
:1043A00089FF0146404802F057F8204605F0B8FA68
:1043B00002F07CFF01463E4802F04EF83D4806F010
:1043C00074F900F05DFB01F07FF801F09BF803F059
:1043D000E5FA0821684601F055FC9DF807309DF884
:1043E0000650354C43EA0525BDF806303348238096
:1043F00002F032F8324E2178324802F02DF861781E
:10440000314802F029F8F46A4AF6CD310220A0477B
:1044100029460320A0471A210120A0470822694607
:10442000736B0B209847294802F016F8284B186840
:1044300006F03BF9274802F00FF8274B186806F002
:1044400034F9264802F008F8254B186806F02DF9D3
:104450000021244802F006FF02F04AFC00F032FC82
:10446000214B01221860214B21481A7006F043FAB3
:1044700000F0E8FD102006F0B5F800F0E9FD02F0CC
:1044800063FE10F0FF0FF8D101F01AFBF5E700BF53
:1044900095732600F6B3260006B42600A00400207B
:1044A00020B42600F82B002039B426004BB4260097
:1044B00063B426007CB42600002C002081B42600C2
:1044C000D8B226009FB42600A5B42600ABB42600BF
:1044D0004CB22600B2B4260064B22600B9B426005D
:1044E00080B22600C0040020C82B0020BC2B002076
:1044F00010B32600F8B5334C257820704540EA0605
:1045000018D500F0100000F0FF072F4E30B100F07A
:10451000D9FB2E4BD8600123F3700BE0F3784BB13D
:1045200000F0D0FB2A4A2949D368C968F7705B1AA2
:104530001844D06015F0300F17D02378224F13F0B5
:10454000300606D000F0BEFB204B186101233B7102
:104550000BE03B794BB100F0B5FB1D4A1B491369D9
:1045600009693E715B1A18441061AB0619D52378AE
:10457000154D03F0200303F0FF0633B100F0A2FB5A
:10458000124B586101236B710BE06B794BB100F05A
:1045900099FB0F4A0D49536949696E715B1A1844BA
:1045A00050610C4D2B7823B92078BDE8F84000F01D
:1045B00035B8012B05D1002000F030F82B780133FD
:1045C0002B70F8BD20140020BC2B0020C82B00202D
:1045D000882B0020802A002008B500F017F8024B35
:1045E00000221A7008BD00BF20140020024B1B7867
:1045F0001843FFF77FBF00BF20140020024B1B7839
:1046000023EA0000FFF776BF20140020024A136857
:1046100043F038031360704700C40D40014B18602D
:10462000704700BFE0C00D40034B00221A60034BEF
:104630001B68002BFBD1704780A00D4020A00D40CF
:10464000014BFF221A60704780A00D40054B186097
:10465000054A1168C806FBD411684907FCD51868DB
:10466000C0B27047088000400C80004070B508B9A7
:1046700049BB00E00AB9012070BD99B901460B1A87
:10468000934201DB002070BD184C00232360184BBF
:104690001D68EE06FBD41D686D07FCD5236801F884
:1046A000013BECE700239342ECDACC5C0F4D2C602D
:1046B0000F4C2668F606FBD426687607FCD52C68D6
:1046C000C4540133EFE7002AD5D00846431A934279
:1046D000D8DA10F8013B054C2360054B1D68EE0647
:1046E000FBD41D686D07FCD52368EFE70880004008
:1046F0000C80004008B51A4A136823F010031360B9
:1047000052F8203C23F0100342F8203C52F81C3CA5
:1047100023F0100342F81C3C52F8183C23F010031D
:1047200042F8183C0F4B1A6810B142F0100201E039
:1047300022F010021A600C4A04211368012043F091
:10474000100313600A4600F083FD012000F0A6FC70
:10475000BDE8084005480121042200F001BD00BF6A
:1047600020A40D400CA40D4010A40D4039A6260035
:1047700008B51A4A136823F00103136052F8203C6D
:1047800023F0010342F8203C52F81C3C23F00103C3
:1047900042F81C3C52F8183C23F0010342F8183C44
:1047A0000F4B1A6810B142F0010201E022F0010241
:1047B0001A600C4A00211368012043F001031360C2
:1047C000042200F045FD012000F068FCBDE808402F
:1047D00005480121002200F0C3BC00BF20A40D4009
:1047E0000CA40D4010A40D4039A6260008B5074AB8
:1047F00004211368012043F0100313600A4600F0FF
:1048000027FDBDE80840012000F048BC10A40D4081
:10481000024A136823F010031360704710A40D4080
:1048200008B5074A01201368002143F00103136013
:10483000042200F00DFDBDE80840012000F02EBC70
:1048400010A40D40024A136823F00103136070475F
:1048500010A40D40024B1868003018BF01207047AB
:1048600040A00D40014B1868704700BF04A00D40E8
:1048700010B51B4A02201368072123F08003136040
:1048800052F8203CFF2443F0800342F8203C0822E9
:1048900000F0DEFC134B05211C60012000F078FDC8
:1048A000002000F0F5FC104A136823F01003136099
:1048B0000E4B1968A3F5607321F01001C3F8801343
:1048C000116821F001011160D3F8802322F0010268
:1048D000C3F880231C60064B1B68002BFBD010BD67
:1048E00020B40D4000B20D4020A40D4000A40D40A6
:1048F00020A00D4020B1012805D1044B1878704745
:10490000034B186870470020704700BF2114002037
:1049100020900D4010B5094A002013780133137020
:10492000074B197802F072FCBDE81040054B0648B1
:104930001968064A002302F0BBB900BF2114002009
:104940003E2C00206009002038090020154926006F
:10495000812810B50C462AD0B0F5807F39D0802848
:1049600039D102F0D1FB1D4B1D4A1870136800208D
:1049700023F00803136052F8203C032123F00803BE
:1049800042F8203C52F81C3C23F0080342F81C3C3F
:1049900052F8183C43F0080342F8183C042200F097
:1049A00057FC10480021032200F0DAFB13E00E4B05
:1049B0001A6831B142F008021A60002000F06EFB64
:1049C00005E022F008021A60084600F073FB20465A
:1049D00010BD064B1960012010BD00BF3E2C002009
:1049E00020940D40F149260010940D4060090020EC
:1049F00008B50F4805F0A6FFC0B108210C4805F026
:104A00009AFF0C4B196861B10B4B00221A700B4BCB
:104A10000B481B681BB90B4A02F04AF901E002F08F
:104A200051F9BDE80840084802F09EBD08BD00BF2E
:104A300058090020600900202114002020900D401A
:104A4000380900201549260030B12600044B1868AB
:104A5000C0F30720030904BF1030C0B2704700BF85
:104A60001C300D40054B1868C0F3C21001289ABFD6
:104A7000C0F1020040034FF40040704714300D4075
:104A80002DE9F04F8DB0FFF7E1FF384B0446C82009
:104A90001D6804F03DFF4826B368074698470B9011
:104AA000736898470A90FFF7DDFF834600F040FBEC
:104AB000099000F049FB089000F01CFBDDF828C0CD
:104AC00009994FEA9C2301934FEA9B23DFF8A8A0A2
:104AD0000293089BC4F30718C5F3400904F00F04C0
:104AE00005F001050B9A0591069351464346079040
:104AF0000094CDF80C900495384601F0BDFC384682
:104B000005F0E4FB1A4B02463946186801F0D2FB67
:104B10000146184801F0A0FC384604F001FFB368D4
:104B200098477368834698470746FFF79BFF0646FA
:104B300000F0FEFA099000F007FB089000F0DAFAA6
:104B4000099A089BBF0AB60A04920593069000973B
:104B50000196CDF8089003955046594642462346A3
:104B600001F07AFC0DB0BDE8F08F00BF1C300D40A5
:104B7000F82B002039B42600C7B42600F8B500F0A1
:104B8000A1F80F4B0024D3E900673A46B04238BF82
:104B90007A1C15460443C3E90045DFF828E0DEE946
:104BA0000001821B61EB070312196B41CEE9002360
:104BB00002F066F918B1BDE8F84002F0F1B8F8BDAE
:104BC00028090020300900200F4B104A1A6053F8C2
:104BD000042C42F0050243F8042C53F8042C42F054
:104BE000020243F8042C0A4A136843F001031360DD
:104BF000084B00221A60042243F80C2C012243F8CF
:104C0000082C0F22DA62704714E000E047E8010048
:104C100008200D400C000340034BD3E90023100A89
:104C200040EA0360704700BF28090020034BD3E926
:104C30000023D00B40EA4340704700BF30090020FA
:104C4000054B18601C3B1A6842F001021A601A6892
:104C5000D207FCD4704700BF2800034010B5064CB3
:104C6000236823F001032360FFF788FF236843F0E4
:104C70000103236010BD00BF10E000E038B500F074
:104C800021F80A4C0A4D0123A370A860FFF776FFB4
:104C9000A3784BB100F016F8064AA96893685B1A2E
:104CA000184400239060A37038BD00BFBC2B0020C7
:104CB000C82B0020882B0020014B1868704700BFCC
:104CC00064090020074B084A196804331B681268FE
:104CD000120442EA0323054A0B43106843EA0060CA
:104CE000704700BF40500D4048500D404C500D40A3
:104CF00010B50446114B1B68DB07FBD505F0ADFC76
:104D0000FFF7E0FF231A062BD8BFC41D0C4B220E61
:104D10001A60C4F3074243F8042CC4F3072243F893
:104D2000082CE2B243F80C2C05F093FC054B9120C3
:104D30001C60BDE8104000F0B1B900BF50500D40FC
:104D40004C500D406409002070B500F083FEFFF761
:104D5000B9FF0E4C01230E4EA3700E4BB060002520
:104D600091201D6000F0B2F9912000F0A3F902F04B
:104D7000B1FAA37843B1FFF7A5FF074AB16893687A
:104D8000A5705B1A1844906070BD00BFBC2B00205A
:104D9000C82B002064090020882B00200023084A2B
:104DA0001068084A9958084205D01A44D268906998
:104DB00010F0800003D02C33582BF0D10120704725
:104DC00028200D4040B12600F8B50646FFF77AFFCF
:104DD0001E4A01231E4993702C2303FB06134FF632
:104DE000BF711C4DDC68A860236C61649BB213F03A
:104DF000500117460CD0A369DB0618D4164B53F8A4
:104E000026301BB12068C0B29847F4E72368F2E768
:104E100013F4D06F0BD04FF440732363FF23636010
:104E2000E36AE162E362236B43F001032363BB782F
:104E300053B1FFF747FF094AA96893685B1A184402
:104E4000024B906000229A70F8BD00BFBC2B00207E
:104E500040B12600C82B002068090020882B0020C4
:104E60002DE9F04F012885B0064600F2BF802C24C2
:104E70004443604B1D1995F920A005F12007BAF1B4
:104E8000000F9946C0F2B28095F92230002BC0F293
:104E9000AD80594800F0A8FE584A59F8043011680E
:104EA000EC680B43136051686B6895F921B00B43B4
:104EB00053609168AB6895F822800B4393600023A0
:104EC000C4F8C83F2B690BEBCA021A6095F823306F
:104ED0005FFA88FC01939DF80430604619462A7DEC
:104EE000CDF80CC0029300F0BDF9029BDDF80CC0B8
:104EF00019466046082200F0ABF94FFA88F840499D
:104F00004FEA08389DF9042058F80100012303FAFC
:104F100002F2024348F801204FEA0A3A5AF8010027
:104F200003FA0BF202434AF801205022A263A26B5B
:104F300095F8240042F4D062A263022262634FF427
:104F400040722263AA696262EA69A2627022E26226
:104F500042B2002A0C4614DB95F92510294D41EA8E
:104F6000C20129607979120315594FB2BB402B4316
:104F70001351002200F06CF9234A136843F40043F4
:104F800013602C2303FB069393F8265020336FB253
:104F9000002F1CDB93F807A0EDB25FFA8AF82846D1
:104FA000414601223F0300F05DF94FFA8AFA3A596F
:104FB000012303FA0AF313433B51082228464146D2
:104FC00000F046F9104A136843F4804313602C2321
:104FD00003FB0696F26896F82800136B43F0010372
:104FE000136305B0BDE8F04F00F058B805B0BDE858
:104FF000F08F00BF40B126009D4D260028200D40B7
:1050000020940D4004410D4030D0004001289CBF49
:10501000014B43F82010704768090020012808D888
:10502000044B2C2202FB0030C3689A699206FCD420
:105030001960704740B12600014B00221A6070478A
:1050400000500D40014B08221A60704700500D407F
:10505000024BA0221A6050221A60704700500D4087
:10506000074A084B1A60084B80321A60074B80329F
:105070001A60074B80321A60064B074A1A60704765
:1050800000E100E07C090020700900207409002084
:105090007809002008ED00E000402600044B41099B
:1050A0001A6800F01F000123834042F82130704746
:1050B0007C090020044B41091A6800F01F000123FD
:1050C000834042F82130704770090020044B4109A9
:1050D0001A6800F01F000123834042F82130704716
:1050E00078090020024B1868C0F38150704700BF58
:1050F00004200D4008B5FFF7F5FF024B53F82000E0
:1051000008BD00BF98B12600054A064B1A60064B41
:105110001A68064B1340B3F1807FF8D1704700BF87
:105120000101020100200D4004200D40000001019A
:10513000034B04481B6803F007031841704700BF86
:1051400004200D400048E801034B04481B68C3F3EA
:1051500002231841704700BF04200D400048E801B9
:10516000024B02EBC10243F8220070478009002085
:10517000F8B507460E46094D002405EB411547FAE0
:1051800004F3DB07E1B204D555F824300BB1304607
:1051900098470134082CF2D1F8BD00BF80090020E7
:1051A0002DE9F74F019000F055FCFFF78BFD0199B9
:1051B000184E4FEA0139184F0123DFF864A009F1B6
:1051C0008045B860B37005F55925D5F8188459F8AD
:1051D0000A404FEAC10B24FA0BF448EA0400C0B2BB
:1051E000E4B2FFF7C5FF04FA0BF45FFA88F3C5F8E1
:1051F0001C3449F80A40B3784BB1FFF763FD074A06
:10520000B96893685B1A184400239060B37003B0C8
:10521000BDE8F08FBC2B0020C82B0020882B00207D
:1052200018970D4002480021802204F0AFBE00BF55
:1052300080090020034A044B1A60044B803A1A602C
:10524000704700BF80400D40040A0020000A002083
:10525000034B01EBC0011B6843F82120704700BFDE
:10526000040A0020034B01EBC0011B6843F8212016
:10527000704700BF000A002001289FBF0349012397
:105280000A6883409CBF13430B60704718200D4091
:105290002DE9F04F012887B0044671D818235C43EC
:1052A000394D2E1996F811804FFA88FCBCF1000F89
:1052B000CDF814C064DBFFF7DFFFB37C2D59002766
:1052C0005FFA83FB5FFA88F86F6040465946327A8E
:1052D000C5F8C87F0493FFF7C5FFF47C327BE3B2C7
:1052E0000093337D009801939DF8043064B2194611
:1052F0000293FFF7B7FF96F815A096F8169072681C
:105300004FFA8AF34FFA89F101EBC300DDF814C0BC
:10531000106003931D4A049B4FEA0C3C5CF80200AA
:105320004FFA83FE012303FA0EFE40EA0E004CF80A
:10533000020024039DF9040054F802E003FA00F08F
:105340004EEA0000A05003988B4000038458594651
:105350002343835040463A46FFF77AFF009802996C
:105360003A46FFF775FF504649463A46FFF770FF49
:10537000337C2B61C7232B606B6843F002036B60A7
:1053800007B0BDE8F08F00BFA8B1260020940D4003
:1053900038B50B4A0403A35801258D4023EA0503C1
:1053A000A3500022FFF754FF064AA3582B43A350F3
:1053B00004F1804404F55924FF2344F8253038BD16
:1053C00020940D4000940D400E2870B50BD1164B63
:1053D000164E1C6844F002051D60356825F03F0339
:1053E00043F001033360124E336823F0FF031A4386
:1053F0001143014331600F4B1B681B06FBD50E4B5D
:105400000E4A1B6812680E2803F0FC0343EA0223CD
:1054100008BF064A9BB204BF1560034A9BB208BF8F
:10542000146018B270BD00BF34000144F486084017
:1054300008700D4000700D400C700D4010700D4054
:10544000024B1868B0FA80F04009704700B7084076
:1054500070B5FFF737FC104E104C0123B060104DB3
:105460008F20A370FFF732FE8F20FFF723FE2868FE
:1054700018B101F00FFF00232B60A37853B1FFF7A1
:1054800021FC084AB16893685B1A1844034B90608A
:1054900000229A7070BD00BFC82B0020BC2B0020DA
:1054A000080A0020882B0020064A136843F00203F4
:1054B0001360536843F002035360936843F00203A0
:1054C0009360704748200D4007B50C4800F08CFBF6
:1054D000FFF7EAFF0A4B1A6842F002021A60002244
:1054E0000192019A0F2A02DC019A0132F8E71A6848
:1054F00022F002021A6003B05DF804FB415426005A
:1055000054200D40064A136823F0020313605368C9
:1055100023F002035360936823F002039360704703
:1055200048200D4008B50B4B93F90020002A09DBF9
:10553000094AED2111601160E32111601A7862F0CF
:105540007F021A70FFF7BEFB044BD861044B0120A9
:10555000D87108BD2214002038880840C82B0020CC
:10556000BC2B002070B52B4E336813F0400308D0DD
:10557000294D2B68DCB21B0605D5284BED221A609D
:105580001A60002070BD042CF7D9023C8C42F4DC78
:10559000E4B2032C1BD001190139032000F0BAF941
:1055A000631E1F491B010320194300F0BDF90320AE
:1055B00000F0C4F9032000F0D9F9032000F0E2F96B
:1055C0000028FAD129682D682806D6D506E02B6870
:1055D00003702B6843702B688370F3E7493949B235
:1055E00089B2042002F0CEFA032005F07F0102F018
:1055F000C9FA33685A060BD5064B1B681B0603D540
:10560000084801F047FE03E0044BED221A601A60DF
:10561000204670BD4C8608402888084038880840DD
:1056200002C0010C7804002010B5114B1B689B07C9
:10563000FBD4104BED221A601A600F4A12680AB1AF
:10564000EF221A600D4A0E4C137803F07F0313709B
:10565000E37953B1FFF736FB0A4A0B49D369C969AD
:105660005B1A18440023D061E371012010BD00BF14
:105670004C860840388808402C86084022140020B8
:10568000BC2B0020882B0020C82B002038B5A0F1AF
:105690000B04E3B20F2B054613D80B4B1B6813F01A
:1056A0003F0302D0FFF7C0FF012304EB8404074A45
:1056B0000B3414600BB1FFF735FF054BE8B21D70DA
:1056C00000E0FF2040B238BD488608403C860840D4
:1056D00022090020F8B52E4E357815F0010554D179
:1056E0002C4B01241C605C609C60A3F59323A3F504
:1056F0001473F8221A600922C3F89021152270331E
:105700001A6003F59B230B2203F59E731A60A3F521
:105710009B23A3F5F07340221A601A687F2742F09A
:1057200020021A60D52243F81C5CDF62DA611A4B52
:105730001878FFF7ABFF194A8D20136843F0040374
:105740001360FFF7ABFC164B8E201F60FFF7A6FC23
:10575000022000F0FFF81349022000F0DBF80320DC
:1057600000F0F8F803200F4900F0CCF829460E4865
:1057700001F078FD337823433370FFF7A3FA0B4B26
:10578000D8610B4B2046DC71F8BD0020F8BD00BF8E
:1057900022140020A8200D40220900208C860840F9
:1057A000948608402888084078040020C82B0020F0
:1057B000BC2B002038B503880446E3B140F2C53263
:1057C000934203D000230380032038BD822915D1E2
:1057D00002F09EF902F056F98021FFF7C3FE00287F
:1057E00005DD80B202F00CF90C4B1B6998470C4B9D
:1057F0001A78520604D440F2C5332380012038BD04
:1058000000221A70074B1D68FFF70EFFFFF762FFBB
:10581000AB06F0D0FFF786FEEDE700BF80B22600B2
:10582000221400204886084070B5FFF74BFA0B4E53
:105830000B4C0123B0600B48A37001F02BFD0A4B09
:1058400000251D60A37843B1FFF73CFA074AB16811
:105850009368A5705B1A1844906070BDC82B002037
:10586000BC2B00207804002034880840882B0020BE
:1058700070B5FFF727FA114B01221D46104C9A70A4
:10588000104AA06011680026042918BF0E490F486D
:105890001EBF0B7843F040030B70166001F0FAFC5A
:1058A000AB784BB1FFF70EFA094AA16893685B1A0F
:1058B0001844024B90609E7070BD00BFBC2B00204E
:1058C000C82B00202C8808402214002078040020D7
:1058D000882B002010B5094C00212046402204F0FE
:1058E00055FB074B01221A602E205C60FFF7D6FBA8
:1058F000BDE810402F20FFF7D1BB00BF0000002003
:1059000004F00F4003289EBF014B0001195070475F
:105910000000002003289EBF024B03EB00104160F3
:10592000704700BF0000002003289EBF024B03EB1E
:1059300000108160704700BF0000002003289FBF57
:10594000034901230A6883409CBF13430B607047DF
:1059500028F00F4003289FBF034901230A688340B2
:105960009CBF13430B60704720F00F4003289FBF7C
:10597000034901230A6883409CBF13430B607047AF
:1059800014F00F4003289FBF044B03EB0010806806
:1059900000F0070088BF0020704700BF0000002013
:1059A000024B4FF0FF321A60704700BF04F50F4002
:1059B000014B01221A6070474CF00F40094B1A68E6
:1059C00012F4801F1A46F9D1043B196821F4803182
:1059D00019601168C903FCD41A6842F400321A60D5
:1059E000704700BF04200D4070B5164CFFF76AF9F0
:1059F0002378154D3BB1154A296813685B1A034497
:105A0000136000232370124E686001230220316866
:105A1000637001F09DF930BF022001F07DF9306024
:105A2000FFF750F963784BB1084A07495368496852
:105A30005B1A03445360034B00225A700123286011
:105A4000237070BDBC2B0020C82B0020882B0020A9
:105A50000C0A002070B5144B1A681C4612F0030F94
:105A600021D0124B1A685101FBD41A685201FCD59F
:105A70000025FFF7F3F8FFF7A1FF2560022001F0F2
:105A80004BF90B4B1860FFF71DF90A4B0A495A787E
:105A900032B10A4C4E6862685D70921B02446260CB
:105AA000012208601A7070BD58200D4004200D407E
:105AB0000C0A0020BC2B0020C82B0020882B0020C3
:105AC0002DE9F0413E4B1C6814F03F0413D13D4BCF
:105AD00053F8243023B1984768B10134052CF6D12E
:105AE000394D2B783BB1FFF7E7F80446FFF7EAF8AA
:105AF000201A092803D8BDE8F041FFF775BF002C34
:105B0000F9D0324B1A6822F400321A60304A116818
:105B1000C902FBD4196841F4803119601368DB03B2
:105B2000FCD5FFF7CFF8201A092803D8BDE8F041CB
:105B3000FFF744BF6328274F02D92B78022B00D0F0
:105B40000123254E3B60254C0220316801F000F90D
:105B5000FFF7B8F82378224D3BB1224A2968136831
:105B60005B1A034413600023237001236860637091
:105B700001F042FBB8B14FF00008FFF71FFFC7F874
:105B80000080022001F0C8F83060FFF79BF86378CE
:105B900083B1144A696853685B1A034453600F4B1E
:105BA00083F8018006E0FFF787F80028E3D030BFD4
:105BB000BDE8F081012328602370BDE8F08100BFBB
:105BC00048860840100A00202314002000200D40C1
:105BD00004200D4058200D400C0A0020BC2B002052
:105BE000C82B0020882B00200023064A52F82310DF
:105BF000814206D011B942F8230070470133052BCA
:105C0000F3D17047100A0020054B00221A60054AA4
:105C1000136843F004031360034B01221A707047AA
:105C200058200D4010ED00E02314002070B5FFF760
:105C300049F8104E104C0123B060104D9020A37015
:105C4000FFF744FA9020FFF735FA286818B101F001
:105C500021FB00232B60A37853B1FFF733F8084AE8
:105C6000B16893685B1A1844034B906000229A70E5
:105C700070BD00BFC82B0020BC2B0020240A0020D0
:105C8000882B002030B5184B1A78431E3AB9174AB2
:105C90001278122A03D1164A12784B2A03D001F542
:105CA0002011273117E04A0802F12814B4F1281F07
:105CB00004D014F8015D03F8015FF7E701F5201146
:105CC00027310023934205DA11F801598418E5546D
:105CD0000133F7E730BD074A914204D011F801299A
:105CE00003F8012FF7E730BD2B0028002A00280019
:105CF0002900280027002800164A70B515464FF0E5
:105D0000FF340023B2F9066056B1967A0C32002EA9
:105D100008BF1C460133052BF4D12346013417D0AC
:105D20000C2404FB03F6AA1990804FF0FF30A85111
:105D3000C8880026D080D672497A04FB035309072D
:105D400044BF0121D1724FF6FF711981104670BD19
:105D5000002070BD640A0020F0B5224D06462F4693
:105D60008FB00024B5F90630A3B101A8B5F904102D
:105D700004F0E2FC9DF80D3003F03603022B09D14C
:105D800030460DF10E0104F065F918B90C2000FB46
:105D9000047025E00134052C05F10C05E2D100204A
:105DA00004B2214601A804F0C7FC9DF80D5005F08F
:105DB0003603022B0AD130460DF10E0104F04AF9E8
:105DC00020B9204601A9FFF797FF09E02046BDF959
:105DD0000A102A4604F0E4FCB0F5C86FE0DB0020AE
:105DE0000FB0F0BD640A00201F4B2DE9F0410746BB
:105DF0004FF6FF7498461E888EB035B2B5F5C86F61
:105E00000EDA01A8294604F097FC9DF80D209307AF
:105E10001DD423B2013307D1EB19B3F5C86F02DBF0
:105E20004FF6FF701CE034462846BDF90A1004F016
:105E3000B7FC23B2DA1982420646DEDCB8F900204C
:105E400020469A4202BF084B3F191F8008E02846AF
:105E5000BDF90A1004F0A4FC4FF6FF740646CCE727
:105E600000B20EB0BDE8F081E20D002070B504462E
:105E70008EB00E4601A82146154604F05DFC9DF843
:105E80000D3003F00602022A02D04FF0FF3041E04D
:105E900003F0200202F0FF01002AF6D176B99DF846
:105EA0000D3001A843F0040321468DF80D3004F0B5
:105EB0006FFC194A0023137055B916E01B07EED585
:105EC000BDF904000A46FFF7D1FF0028E7DADCE756
:105ED000124A1A44516829B1B1F90410A14204BF11
:105EE000002111720C333C2BF2D10D4B03F13C011C
:105EF000B3F904200C33A24201BF4FF6FF7223F81E
:105F0000082C002203F8022C08BF23F8062C8B4231
:105F1000EED100200EB070BD24140020280A00200D
:105F2000640A00202DE9F04F95B0019088463AB1FF
:105F30004046FFF759FF411C044640F0D98004E079
:105F4000FFF70AFF0028F3D0D0E0794A13780292D5
:105F5000002B40F0CB809A46082600230593ADF82D
:105F60001830DFF8D4B1734BBAF1000F03D1ABF89E
:105F700000A083F800A01FFA8AF91D784FEAC9072C
:105F8000BFB25DB1BBF800502BB2072B16DD082362
:105F9000ADF81430684B083D1D806BE0BBF8004045
:105FA00023B2072B0BDD0823083CA4B2ADF8163052
:105FB000614BA2B2072C1A805DD95BE00024BBF8CC
:105FC00000303B449BB219B232B291422ADA07A8A0
:105FD000039304F0B1FB5748002202709DF825207E
:105FE000039B02F00601022902F0200109D141B908
:105FF00001220270BDF82220134415449BB2ADB2B9
:10600000E1E719B101339BB2013406E0520706D52E
:10601000BDF8222013449BB21444A4B2D3E7F31A70
:106020009BB200E00023A9B2A0B20A18083A1A44B1
:1060300092B20FFA82FEBEF1000FABF80020DFF83B
:10604000F4C00BDD9CF800B0BBF1000F03D0C0F131
:106050000805ADB202E0C1F10804A4B2ADF81830F1
:106060009CF80030ADF81450ADF8164013B9BEF1ED
:10607000070F00DD0022BDF91430002B25DCBDF92F
:106080001630002B21DD2D4BB9B2B3F9004008B218
:10609000844214B2C8BF1980002C13DD07A8002168
:1060A000322203F073FF22238DF82530002507F1FB
:1060B0000801294407A809B2013504F069FB2BB295
:1060C000A342F4DB484604F078FB0AF1010A0836E3
:1060D000BAF1C80FB6B27FF440AF4046FFF784FE76
:1060E000431C044604D1029A0123137000201BE0D4
:1060F0000021322207A803F049FF24B20199272288
:106100000DF1260004F010F9022307A82146ADF88E
:1061100022808DF8253004F03BFB204607A9FFF7CD
:10612000EBFD08B10023036015B0BDE8F08F00BFA0
:106130002414002025140020E00D0020E20D002092
:106140002DE9F84381460D460024234E4FF00C08FC
:1061500008FB046898F808304BB988F808304846BE
:10616000FFF7FAFD0746C8F80400B0B906E00134AD
:10617000052CEAD14FF0FF30BDE8F88305F00303AA
:10618000012BF7D0484608210122FFF7CBFEC8F8C3
:1061900004000028EED0076007E00368013304D153
:1061A000B0F9040004F0CCFA38600C2303FB04625D
:1061B000117A6343294315F00405117218BF526820
:1061C000204618BF1568F2185268F550937A0133CB
:1061D0009372BDE8F88300BF280A002004280CD879
:1061E000064B0C2202FB0030037A33B141680022D7
:1061F00002728B7A013B8B7242607047280A002042
:10620000042870B525D80C244443134B1E19357A45
:10621000FDB142B1022A02D17268126802E0012A7D
:1062200017D11A591144002913DB0C2202FB00324A
:106230005268B2F90640B1EB042F0ADC14688C42B4
:1062400002DAAC0705D511600C22504319500846FC
:1062500070BD4FF0FF3070BD280A00200428F8B54B
:106260000646144621D80C234343114DEA18177AE9
:10627000DFB1F80719D55768EA583B68A01898426B
:1062800088BF9C1AFB7ADB070DD4B7F90430323291
:10629000084602EB0322214604F008FB0C20704361
:1062A0002B5823442B502046F8BD4FF0FF30F8BD4B
:1062B000280A00202DE9F04F9FB0042800AF804647
:1062C000B960144602D94FF0FF30BFE0614D0C2396
:1062D00003FB00531A7A002AF5D09207F3D55E68C3
:1062E0000C2303FB08F305EB0309EB58B6F9061082
:1062F00003F132022244B2EB012F40F29080B6F952
:1063000004A007F11000514604F016FA07F11A0034
:106310000121FFF715FF061ED5DBB7F9161007F1AF
:106320001A00490009B20122FFF7FCFD834600284C
:1063300052D04FF00009BA8AC7F80CD0002A08BF23
:106340004FF48072D11D21F00701ADEB010D3046F5
:106350006946FFF783FF031E0BDA00210A46BBF9EB
:106360000400FFF783FD3046FFF738FFD7F80CD065
:10637000A9E70BD0BBF90420194609EB02226846B5
:1063800032327B6004F02BFA7B689944D7F80CD04A
:10639000002BD0D12F4A02F13C00117A59B151683B
:1063A000B1F90410514501BFC2F804B09BF80A10BE
:1063B00001318BF80A100C328242EED10121504695
:1063C0000022FFF753FD0028BBF9041008DA084645
:1063D00000210A46FFF74AFD3046FFF7FFFE72E74D
:1063E00007F1440004F0A8F9BA8A07F14400A7F8BD
:1063F00048207A8ABBF90410A7F8462004F0C8F9AF
:106400009BF80B20CBF8009022F001028BF80B20B8
:106410003046FFF7E3FE0C2303FB08535FE73268C7
:106420009342FFF650AFB6F90420B86803EB02229E
:106430003232214604F0D3F92046D9F80030234403
:10644000C9F8003032689342C8BF33607C37BD461C
:10645000BDE8F08F280A00200FB407B504AA52F84F
:10646000041B0448019200F039F803B05DF804EB16
:1064700004B07047880400200EB43FB5094B07AA4A
:1064800052F8041B0190049304A801AB03920593F6
:1064900000F024F8019B00221A7006B05DF804EBAE
:1064A00003B07047E1A8260070B505460C46102CD5
:1064B00007D92B68686808491022984750B9103CE2
:1064C000F5E734B12B6868682246BDE870400249A0
:1064D0001847204670BD00BFF5B526002DE9F04FE6
:1064E00080468FB0069107920026069B1B78002BF2
:1064F00000F05F83069B1C4613F8012B1AB9069B1C
:106500009C4203D10FE0252AF5D1F8E7069BD8F885
:106510000400E51A0699D8F800302A469847002862
:1065200040F02A832E442378002B00F042836378C6
:10653000611C002B00F03D8300240A4611F8013B4A
:106540002B2B11D006D8202B11D0232B12D144F0A5
:106550000804F2E72D2B04D0302B0BD144F01004AB
:10656000EBE744F00104E8E744F00604E5E744F013
:106570000204E2E7A3F1310108290DD813460025F2
:106580001A4613F8011BA1F13000092811D80A227C
:1065900002FB0515303DF3E72A2B09D1079B013299
:1065A0001D68191D002D0791B8BF44F0010400E0DB
:1065B000002513782E2B1CD15178531CA1F13000EB
:1065C00009280ED8194600270A780B46A2F1300098
:1065D000092801F101010FD80A2303FB0727303FE7
:1065E000F2E72A2906D1931C079A111D0791176813
:1065F00002E013464FF0FF371A786C2A09D15A7817
:106600006C2A02D144F080040AE0013344F06004B3
:106610000BE0682A09D15A78682A03D144F0200493
:10662000023302E0013344F040041A78642A3CD07B
:106630001FD8462A48D00DD8252A5AD003D8002A78
:1066400000F0B78257E0412A4AD0452A53D144F49A
:10665000424450E0582A31D004D8472A4BD144F460
:10666000A13448E0612A38D0632A44D144F4A064BC
:1066700041E06E2A3AD007D8662A22D027D3672A6B
:1066800028D0692A11D036E0732A2CD006D86F2A78
:1066900011D0702A2FD144F440742CE0752A07D011
:1066A000782A28D144F4C85425E044F4245422E044
:1066B00044F410641FE044F488541CE044F4B244F1
:1066C00019E044F4007416E044F4844413E044F404
:1066D000024410E044F481340DE044F4C1340AE093
:1066E00044F4E13407E044F4806404E044F4E064FA
:1066F00001E044F4C0640133069304F4E063B3F5AD
:10670000806F00F0AA8116D8B3F5807F2BD0B3F547
:10671000407F7FF4EAAE079BA04914F4804F03F159
:1067200004029F4818BF08460DF1330107920F4637
:106730001A680023C5E1B3F5C06F08D0B3F5E06F68
:1067400000F03182B3F5A06F7FF4CFAE00E2D8F84D
:106750000030D8F80400934901229847002840F0FF
:106760000B820136C1E6002FACBF24F010040127D4
:1067700014F40053039304F0E00337D0402B17D0F8
:1067800008D8DBB1202B2AD1079B1A1D079293F959
:10679000002017E0602B11D0802B20D1079B0733FE
:1067A00023F0070303F108020792D3E900230AE06C
:1067B000079B1A1D0792B3F9002003E0079B1A1DDF
:1067C00007921A68D317002A73F1000109DA5242BE
:1067D00063EB4303CDE900234FF0010933E00022CE
:1067E0000023CDE900234FF000092CE0402B16D008
:1067F00007D8CBB1202B20D1079B1A1D07921A78FE
:10680000EEE7602B10D0802B17D1079B073323F0C6
:10681000070303F108020792D3E90023E1E7079B8E
:106820001A1D07921A88DBE7079B00211A1D0792A1
:106830001B681846CDE90001D5E700220023CDE909
:1068400000234FF0000904F4C053B3F5805F0CD06F
:10685000B3F5C05F33D0B3F5006F4FD1DDE900234E
:106860000DF1360ACDE9042304E0DDE900230DF142
:10687000360A15E0DDE9042313433AD0DDE90401CB
:106880000A22002302F06CFDDDE9040130320AF82F
:10689000012D00230A2202F063FDCDE90401E9E79E
:1068A00052EA030125D002F0070130310AF8011D38
:1068B000D10841EA4371D8080A460346F0E7384B4D
:1068C00014F4804F0DF1360A344908BF1946DDE94A
:1068D000002352EA03000CD002F00F00085C4FEADC
:1068E000131E0AF8010D100940EA037002467346B0
:1068F000EFE70DF1360BCAEB0B0B03E00DF1360A97
:106900004FF0000B41F6080241F208035F4502EA2E
:1069100004028CBFCBEB070700279A4202D1002F5D
:1069200008BF012741F608018A4207EB0B030DD18E
:10693000DDE9000150EA010208D01B4914F4804F40
:106940001A4A4FF0020C18BF0A4602E04FF0000C42
:1069500062460399A1B1B9F1000F0AD104F0060112
:1069600002290AD00629124904BF4FF0010C0A4639
:1069700006E04FF0010C0F4A02E00F4A4FF0010C05
:1069800063449D428CBFED1A002514F0010922D109
:10699000E30613D52F444D461DE000BFC2B52600C7
:1069A000D3B52600F3B52600E7B52600E4B52600EA
:1069B000EAB526003EB72600B7B426004046294671
:1069C000CDF80CC00092FFF76FFD009ADDF80CC007
:1069D000002840F0D180BCF1000F0DD01146D8F84E
:1069E00000306246D8F80400CDF800C09847DDF8C2
:1069F00000C0002840F0C0803C465E44102CD8F80F
:106A000000300DD9D8F804006C491022CDF800C030
:106A10009847002840F0B080103CDDF800C0EDE75A
:106A20005CB1D8F8040065492246CDF800C098470B
:106A3000DDF800C0002840F09F80D8F80030D8F87A
:106A4000040051465A4666449847002840F0948016
:106A50003E44B9F1000F79D073E0079BD3F800A052
:106A60001A1D0792BAF1000F09D05346994699F8BA
:106A700000200133002AF9D1CAEB090903E0DFF84D
:106A800040A14FF00609002F02DBB94528BFB946E7
:106A90004D458CBFC9EB0505002514F0010405D157
:106AA00040462946FFF700FD002865D1D8F80030A0
:106AB000D8F8040051464A46984700285CD14E4415
:106AC0003EE052EA030E0ED002F00F0E10F80EE078
:106AD0004FEA131C01F801ED4FEA121E4EEA037E45
:106AE00072466346EDE70B467F1A01BF302201274D
:106AF00001F1FF3301F8012C03377822BD4203F87E
:106B0000012C4FF0300203F8022C88BFED1B4FF030
:106B1000230298BF002514F00104A3F1030903F830
:106B2000032C04D140462946FFF7BEFC20BBD8F811
:106B30000030D8F8040049463A469847E0B93E4448
:106B400024B140462946FFF7AFFCA8B92E44CCE457
:106B5000079B012D03F104021B688CBF05F1FF3573
:106B6000002514F0010407928DF8203008D140462A
:106B70002946FFF799FC10B14FF0FF301AE02E4480
:106B8000D8F80030D8F8040008A901229847002856
:106B9000F2D16F1C2CB140462946FFF785FC002836
:106BA000EAD13E44A1E4079B1A1D1B6807921E60B0
:106BB0009BE430460FB0BDE8F08F00BFB2B52600B1
:106BC000ECB52600F8B50388064615462BB14A2BCE
:106BD00015D0002303800320F8BD174803F0C3FE3F
:106BE00004462CB1201DA16803F08FFE2468F8E74D
:106BF000124B01221A704A2333800120F8BD8829E4
:106C0000FBD10D4803F0AFFE0446002CF3D0231D4A
:106C10009D420ED10848214603F0AFFE084B626941
:106C20001F681A60A2691D460AB1E06990472F608B
:106C3000E1E72468E9E700BFA00A0020261400204D
:106C4000B80A002010B5064B002406481C7003F05B
:106C500087FE2146BDE81040034800F003BB00BF9B
:106C600026140020A00A00209004002070B50446DD
:106C7000E3610B4B049D1B786561A26143B1094D33
:106C8000094B2E68201D2B6003F03FFE2E6000E0B4
:106C9000A1602146BDE87040044803F082BE00BFF9
:106CA00026140020B80A002090040020A00A00202A
:106CB00013B5034C24680094FFF7D8FF02B010BD51
:106CC000B80A002010B5084B04461B781BB10430ED
:106CD00000F0DEF801E0C36003612146BDE810402A
:106CE000024803F04ABE00BF26140020A00A00207C
:106CF00000230649002241F82320054941F82320BA
:106D000004495A5401330C2BF3D17047C82B00208F
:106D1000882B0020BC2B002038B50A4B04461B5C96
:106D2000094D63B1FDF7CEFF084A55F8243052F8FB
:106D3000241042F824005B1A034445F8243055F827
:106D4000240038BDBC2B0020882B0020C82B00203D
:106D5000014B43F820107047882B002010B50E4CD3
:106D6000236813B90D4A136010BDFDF755FF216864
:106D700091E80C001A44131A8A6842B192E8120092
:106D80002144091A8B4228BF0B469268F5E7184444
:106D9000024B186010BD00BFA40A0020A80A002002
:106DA000014800F077BA00BFA0040020F8B50388BE
:106DB00005462BB1582B09D0002303800320F8BDD2
:106DC0001E4A136058232B800120F8BD872920D04C
:106DD0008229F7D1194F00263C68002CF2D02046BA
:106DE00003F0B0FD90B1E0688821224600F00EFA71
:106DF00050B9E060A3680EB1B36000E03B600023CF
:106E0000A360FFF7ABFFE5E7FFF7CAFF2646A468DC
:106E1000E3E70A490B680BB90B60D3E7D8689042E7
:106E200001D19B68F7E70B6099680029CAD0C86850
:106E300090420ABF89680B469960F5E7A40A0020D2
:106E400010B50446FFF7ACFFE3680B4A4BB113687B
:106E50003BB1A34203D1094A1268DA6007E09B689C
:106E6000F6E7064B1B68E36013681460A360BDE897
:106E70001040FFF773BF00BFA40A0020B80A00202B
:106E8000024B1868003018BF01207047A40A002088
:106E900010B50B4A04461368984206D18368136004
:106EA00008E09A68A24203D01346002BF9D103E010
:106EB000A2689A60FFF752FF0023A360E36010BD51
:106EC000A40A0020374B30B500241C60364BB5B007
:106ED0001C60364B01251C60354B21461C60354B30
:106EE00022461C60344B35481C60354B1C60354BCA
:106EF0001C60354B1C60354B1C60354B1C60354BA2
:106F00001C60354B1C60354B1C60354B1C60354B91
:106F10001C60354B1C60354B1C602B460095019462
:106F2000FFF79AFA324A21463248FFF795FA1421C0
:106F30003148FFF791FA29463048FFF701F9304D03
:106F40002860304803F0B1FB2B68A34201DA2E48D9
:106F500015E02E4803F0A9FB214600222868FFF720
:106F60004FF9286802A9C822FFF778F9002804F130
:106F7000C80411DC224B1868FFF730F9244803F0ED
:106F800094FB244803F091FB06211C48FFF7D8F836
:106F9000214B186035B030BD02A92048FFF75CFADC
:106FA000DAE700BFDC160020702B0020602B0020E9
:106FB000CC1600206C2B0020D816002020B626000E
:106FC000742B0020EC160020E8160020842B0020F3
:106FD000842A0020D4160020D01600208C2A0020FD
:106FE000902A0020782B0020E41600207C2B002023
:106FF00000CA9A3B83B62600B8B62600C4B626005F
:10700000AC0A0020D0B62600E2B62600FBB6260069
:1070100040B7260086B72600F82B002083B726004D
:1070200038B5836804460D469BB10A4804600220C7
:10703000A07304F10C0098470238012801D9832D70
:1070400005D120462146BDE8384000F005B80123AF
:10705000A37338BDB80A00202DE9F8431C4A044642
:10706000156889462B4690461A4E3768A34204D0CD
:107070000BB11B68FAE7BDE8F88334B3A37BABB16F
:107080000023A37345B1AC4204D028468721224691
:1070900003F049FC2D68F5E7A3683BB14C4505D0EA
:1070A000346004F10C0083212A469847D8F8003058
:1070B0009C4203D12268064B05E0134623B11A68AF
:1070C000A242FAD122681A603760BDE8F88300BF97
:1070D000BC0A0020B80A002010B5094B00221A7023
:1070E000084B1C685CB1E37B3BB101230022A37316
:1070F000E27320468221FFF793FF2468F2E710BD78
:107100002A140020BC0A0020024B1878421C1A7076
:10711000704700BF2C140020064B8A221A70064AC2
:1071200000231370054A1370054A1360054A136063
:10713000704700BF2C1400202714002029140020C1
:10714000BC0A0020B80A00202DE9F041214E337816
:107150000BB1FFF7C1FF204D2C78002C34D0DFF8A5
:107160008CE00C229EF800301C495A4388181C4FB2
:10717000895CDFF87C804268DFF878C08068013382
:1071800003F01F03013C3970C8F80020CCF8000060
:107190008EF800302C7088B9124C134B1B6823609A
:1071A00023688BB133780BB1FFF796FF20683978ED
:1071B000D8F8002003F0B7FB2368EFE7812904BF6C
:1071C0000123837303F0AFFB337828781844BDE8BC
:1071D000F08100BF2A14002029140020C40A0020D6
:1071E0002B140020B00A0020BC0A00202714002025
:1071F000C00A0020B40A0020024A034B10781B7812
:1072000018447047291400202A140020F0B50C4EB1
:107210003478202C11D00B4B0B4D1B780B4F234493
:1072200003F01F032B700C256B430134FD18A8607D
:10723000F9546A6034700020F0BD0120F0BD00BF39
:10724000291400202714002028140020C40A00203C
:1072500038B5034C256803F066FB256038BD00BFD8
:10726000B80A002010B50A4609490C682346834233
:107270000DD00BB11B68FAE748B10460086001212A
:10728000817383818121BDE81040FFF7E1BF10BD0C
:10729000BC0A002038B1837B013B012B9FBF024A0F
:1072A0000123C373137070472A140020064800237B
:1072B000064A074952F8232051F8231001330C2BBA
:1072C00001FB1200F4D1704700CA9A3BF8B12600C6
:1072D000882B002010B5084C206858B1002323608B
:1072E000816843689847236823B1BDE81040186857
:1072F000FDF7FEBC10BD00BF440C002038B505886A
:107300000446672D09D0792D2ED0002D32D1FFF7FC
:10731000FBFE1B4B18701B4B1D601B4803F08CFBC6
:10732000431C01D167231DE00A28164B07D01A68B9
:107330007E2AF2DC511C1960144B9854EDE7196851
:1073400000254A1C1A60114A0D4B555428461978DD
:10735000FFF75CFF0E4B852118682A46FFF756FFA2
:1073600020B97923238009E0852907D1054B002224
:107370001A60D2E700230380032038BD012038BD06
:10738000432C0020500C0020480C0020AE1400209C
:10739000B80A00200D2810B5014615D00B4C2378F3
:1073A0002BB90B4803F034FB48B9012306E00A2847
:1073B00005D1074803F02CFB08B1002323700548D2
:1073C000FFF768FF012010BD002010BDAD140020A4
:1073D000480C0020B004002008B50548054980226B
:1073E00003F00FFBBDE8084003480021FFF73ABF58
:1073F000480C00202D140020B0040020054A13681A
:1074000043F004031360044B1B68906943EA0020B7
:1074100080B2704700700D4014700D40174A136819
:1074200023F00C031360164B01221A601A68012A1C
:10743000FCD1144B08221A60E322C3F8142203F58E
:1074400005731946104B1B68DB07FBD51020002382
:107450000E4A0138126802F0010243EA02034FEAC1
:1074600043039BB2F4D1002BF0D0094A180A03F071
:10747000FE0310601360EF230B60704700700D4037
:10748000A8200D4024860840648608409C86084059
:1074900014700D4070B505880446772D30D07E2DD0
:1074A0003FD0002D4DD1FFF72FFE294B1870294BEF
:1074B0001D601D462B68284A264E52F823204AB1EB
:1074C00026480021C15493688020984733680133CF
:1074D0003360EFE7224A1370772320E01F4AD25629
:1074E000002A12DB1B4A136801331360194B1C4A34
:1074F0001B6812789342F1DB1A4B1B68002BEBD010
:10750000184A00231360134AEFE7114A002011784C
:10751000114A52F82320FFF779FE30B97E232380E9
:1075200013E00B4B1B788B420FD10A4B0B491A68A7
:107530008B5C03F07F038B540A4A1368013313609A
:10754000D0E700230380032070BD012070BD00BF81
:10755000442C0020580C0020680400203F2C002000
:107560002E150020540C0020094B1A78002393425A
:1075700004DA084951F82310814207D10649074827
:10758000CA5C62F07F02CA54FFF784BE0133EEE7A3
:107590002E150020680400203F2C0020C00400208D
:1075A00070B505460C46164600F064F92E6120467B
:1075B000BDE87040014903F0AABB00BFE0B7260058
:1075C000014803F0CDB900BF5C0C0020014B1860EE
:1075D000704700BF600C0020014803F0C4B900BF31
:1075E0005C0C00202DE9F04106460B480C4617467E
:1075F00003F0B9F970B18388A34208D185684DB111
:10760000314622463B46AC46BDE8F041604703F0B8
:10761000D7F9EFE7BDE8F0815C0C002010B50B4C0A
:107620000B4A616E04F138000023FFF741FBFFF7BE
:10763000E5FE636E074AB0FBF3F101FB130104F1B1
:1076400018000023BDE81040FFF732BB640C002097
:107650005976260071762600044B5A6E196E520038
:107660008A4294BF5A665966FFF7D8BF640C00205F
:1076700010B500F04DFA00F005FA0023038004462F
:10768000FFF7AAFF68B1037B5BB12388818804EB15
:1076900083025180C18801339180238003F090F9E7
:1076A000F0E720888000023080B200F0A9F923883A
:1076B00023B1BDE81040024800F08AB810BD00BFF9
:1076C000640C00209DF80030012B04D1024B9A6D10
:1076D0005A66FFF7A3BF7047640C0020F8B58646D2
:1076E0000F4616461D46074C71462046064A00F0D6
:1076F0005DF8A765E66525660448BDE8F840FFF734
:1077000065BF00BF640C002030B22600C57626009D
:107710002DE9F043134B85B006461A200D4614465A
:1077200093F8009093F8018000F046FA07781A2049
:1077300000F042FA437849468DE8280002943B461F
:1077400009484246FEF788FE73695B6833B13046EC
:107750002946224605B0BDE8F043184705B0BDE80C
:10776000F08300BF002C0020E6B726001FB50446BA
:107770001A2000F021FA014603A803F0E8FA094BA9
:107780009DF80D0019785A789DF80C300090064845
:10779000FEF762FE63691B6813B1204603A9984790
:1077A00004B010BD002C002010B8260070B50546AE
:1077B0000C461646044AFFF7F3FE6E612046BDE80C
:1077C0007040024903F0A3BA38B22600E2B726009F
:1077D00038B50546074C084821786278FEF73CFE2C
:1077E00021461A2000F0DCF92846BDE8384003F0B5
:1077F00035B900BF002C00202EB8260010B5437804
:10780000047843EA0420054B88409B5CC2F10802DF
:1078100003EA20201041C0B210BD00BF45B82600C9
:10782000054B10B51B689847044618B10120A18884
:1078300000F0A8F9204610BD40B2260038B5064B2E
:1078400005465B6898470446A988012000F09AF92C
:10785000201C18BF012038BD40B22600014B9B6898
:10786000184700BF40B22600014803F079B800BFB6
:10787000D00C0020034681800148194603F091B8DE
:10788000D00C00200146014803F077B8D00C00204E
:1078900010B50446054803F066F828B18388A34272
:1078A00002D003F08DF8F8E710BD00BFD00C002027
:1078B0000129F8B507460C46154604D0022904D024
:1078C00041B9104802E0104800E010482946FEF790
:1078D000C3FD02E00E48FEF7BFFD0E4803F043F87B
:1078E000064638B1B3680BB120469847304603F0DE
:1078F00067F8F5E7384621462A46BDE8F84003F028
:10790000B4B800BF84B826004EB826006BB8260075
:107910009CB82600D40C002038B5FFF781FF05463F
:10792000094803F020F8044630B1636803B1984772
:10793000204603F045F8F6E725B12846BDE8384073
:1079400003F08EB838BD00BFD40C002010B504463B
:10795000FFF774FF38B100F06FF8034B034821467E
:107960009B689847012010BDACB22600B178260074
:10797000074A084913681844884283BF064B0C2203
:107980004FF0FF3010608CBF1A601846704700BF80
:10799000D004002000800020FC2B0020084B10B5F4
:1079A0001B689847074B5B689847074B5B6898478D
:1079B000064B5B689847BDE81040054B5B6818476D
:1079C000D8B2260080B22600ACB2260064B22600EF
:1079D0004CB2260010B508490B888342A1BF074C62
:1079E00080B222881218A1BF181A088022800120B4
:1079F000B8BF002010BD00BFE40D0020E60D002040
:107A0000014B1880704700BFE40D0020004870470C
:107A1000D80C0020014B1888704700BFE40D0020EF
:107A2000034A044B10781B781844C0B2704700BF5B
:107A30002F150020E60D00202DE9F0410D4B1A888E
:107A40001D46A2B10C4B00261F880C4B93F80080FA
:107A500034B2BC4206F1010607DAFFF7E1FF084B3A
:107A60001C44235C04F80830F2E700232B80BDE8B7
:107A7000F08100BFE60D0020E40D00202F1500204E
:107A8000D80C002008B5FFF7CBFF014B184408BD08
:107A9000D80C002008B5FFF7C3FF024B1B88184421
:107AA00080B208BDE40D002010B50446FFF7F2FFD8
:107AB0002318802B0FDC013880B202B2002A04DBCD
:107AC000064B995C23449954F5E7054B18782044FC
:107AD0001870012010BD002010BD00BFD80C002080
:107AE0002F15002010B507480021342202F04EFA6D
:107AF0000024054805492044023403F028F9082CE5
:107B0000F7D110BD0A2C0020022C002024B326003F
:107B1000044A00231380044A1380044A1370FFF7B9
:107B2000E1BF00BFE60D0020E40D00202F1500206E
:107B300038B50C460546FFF7EBFF802C28BF8024A4
:107B400029462246034802F0ABF9034B20461C802D
:107B500038BD00BFD80C0020E40D002010B5074B45
:107B600000F1340250F8044B904243F8044BF9D131
:107B70000B68034A13604B68536010BD0A2C002049
:107B8000022C0020024B23F810100120704700BF88
:107B90000A2C0020014B33F8100070470A2C0020FB
:107BA00008B5044B1A3803EB400003F0D0F801206D
:107BB00008BD00BF022C0020024B1A3803EB400026
:107BC000704700BF022C00200148024903F0C2B8F0
:107BD000042C002024B3260008B5044802F0F3FE6C
:107BE000BDE80840024802F0EEBE00BFE0040020FD
:107BF000D404002010B504460948214602F0F3FEE3
:107C000068B12468B4F880102046FFF791FF04F1B2
:107C1000820004F1B601BDE81040FFF79FBF10BD20
:107C2000D4040020014B1888704700BF20090020B1
:107C30002DE9F041012986B006460F46144640F36F
:107C4000AA80037803F007028DF80C20C3F3C0026A
:107C50008DF80D20C3F300128DF80E20C3F34012EF
:107C6000C3F380138DF8103043788DF80F20C3F3E1
:107C700040028DF81220C3F3810203F001058DF854
:107C80001320C3F301129B098DF815308DF81420D1
:107C90008DF8115003AB03CB1B88206161612383F6
:107CA0000DB1B51C02E0B378F51CA37603A801A9B9
:107CB00002AA03F057F89DF81380B8F1000F23D003
:107CC000029B23B16A7815F8023B03EB0223B8F15B
:107CD000020FA38309D12046314903F038F86B78AD
:107CE000237015F8023B637014E0B8F1030F11D153
:107CF00005F108021346611E13F8010DAB4201F8AD
:107D0000010FF9D1154605E02046254903F01FF87B
:107D1000A4F81C809DF81580B8F1000F2BD0019BB2
:107D200053B16A7815F8023B03EB0223029A9BB227
:107D3000E3831AB9A38301E0A38BE383B8F1020FB5
:107D40000AD104F10800164903F001F86B78237298
:107D500015F8023B637215E0B8F1030F12D1083534
:107D60002A46E31D04F10F0112F8010D03F8010F7B
:107D70008B42F9D106E004F10800094902F0E7FF5F
:107D8000A4F81E80AE1BBB1BE363A563BE42D4BF39
:107D90003046002000E0002006B0BDE8F08100BFC2
:107DA00024B3260030B591B00546FFF73BFF4FF6F0
:107DB000FF73984202D14FF0FF307EE040226846C8
:107DC000002102F0E3F83E4B1A782AB901221A701A
:107DD000FFF714FB3B4B18701420FFF7DBFE8DF808
:107DE00010001320FFF7D6FE8DF81200FFF7ECFE0F
:107DF00018B100238DF8133004E00B20FFF7CAFE02
:107E00008DF81300002301248DF814308DF81530FF
:107E10008DF81840ADB10A20FFF7BCFE28B10A204A
:107E2000FFF7B8FE8DF81A000BE0264B1A7802B95E
:107E30001C7019780A204A1C1A708DF81A10FFF766
:107E4000A1FE02248DF81940FFF7ECFEADF81C00EE
:107E5000FFF7BAFE38B1FF238DF817408DF80030D8
:107E60008DF8013008E01B20FFF7A6FE01466846AA
:107E700002F06DFF8DF81740FFF7D4FEADF81E003D
:107E80001A20FFF799FE014602A802F060FFFFF7F3
:107E9000F9FD0E90FFF7BEFD0F90684602F0D9FF86
:107EA00004464DB1FFF700FE002884D0FFF7AEFD79
:107EB0000146684602F0E6FF204611B030BD00BF23
:107EC000411500204015002038B500240A4D1A2025
:107ED00005EB8405FFF770FE294602F03BFF38B141
:107EE0000A20FFF757FEAB781B1A5842584138BD9D
:107EF0000134102CEAD138BDD813002038B5002544
:107F0000104C1A20FFF758FE04EB850102F022FF07
:107F10006B1C10B9102B1D46F2D1013B2BB1013B5C
:107F200004EB830211685160F8E70A20FFF732FE84
:107F3000A0701A20FFF740FEBDE838400146014816
:107F400002F005BFD8130020014B9B68184700BF03
:107F500080B22600014BDB68184700BFACB2260098
:107F6000014B5B69184700BF80B22600014B9B693B
:107F7000184700BF80B22600014B1B6A184700BF9C
:107F8000D8B2260007B51F4802F08FFBFFF742FD6D
:107F9000032803D11C4802F088FB09E01B4B9B68B7
:107FA0009847002804DAFFF735FD0146184817E026
:107FB0001B20FFF701FE174902F0CCFE40B9FFF786
:107FC00003FE28B9144803B05DF804EB02F06DBB62
:107FD000FFF77AFF48B10A20FFF7DCFD01460F48A2
:107FE00003B05DF804EBFEF737BAFFF787FF0C48E4
:107FF00002F05BFB0B4BDB68019303B05DF804EB15
:10800000184700BFC5B82600DBB82600A0B226007E
:10801000F0B82600002C00200DB9260021B926005A
:108020004FB9260064B226002DE9F043054685B01D
:108030000E461A204249FFF7B3FD01210B20FFF73E
:10804000A1FD404B5B689847002804DA3E4802F0E7
:108050002CFB052267E0FFF7D9FC3C4C90F802802E
:108060006768FFF7D3FC8146FFF714FD01464846D9
:10807000B847FFF7A9FDD4F818900746C84700286D
:1080800053D15FB1A3680193FFF704FD019B9847AB
:1080900048B102280CBF0122042244E0E36998475A
:1080A000002842D1EEE717B1002201243FE0FCF79F
:1080B00009FE0746FCF7CCFFFCF704FE6FF00C034B
:1080C000DB1BC342F8D4C84728B1FCF7FBFD0746C9
:1080D000FCF7BEFF0CE0E36998470028F5D11B4B85
:1080E0005B6998470028F0D0194802F0DEFA19E0E1
:1080F000FCF7E8FD6FF01403DB1BC342F8D4E3691F
:10810000984778B1114B03A803211B6998470328AE
:108110000BD19DF80E20B2EB080218BF0122002AF5
:10812000C2D000E00222002401E00122FBE7284641
:108130003146012302F06EFF204605B0BDE8F08312
:10814000002C0020A0B2260062B92600D8B226007A
:1081500089B9260082B0044B08B11B6A00E05B6A53
:10816000019302B0184700BFD8B2260008B5024BF1
:108170001B689847023008BD58B2260038B50C4B32
:108180009B689847041E02DA4FF0FF3038BDFFF7B6
:1081900079FC03780546002BF6D10220FFF71AFC84
:1081A0000028F1D06878FFF72BFCA01C38BD00BF79
:1081B00058B2260070B50220FFF776FC10B94FF0D8
:1081C000FF3070BDFFF722FC002505700446FFF765
:1081D00021FC6070FFF75EFC0446FFF7C7FF2044F8
:1081E0002A2812DCC0F12B00C4B2FFF74BFC064674
:1081F000FFF710FC29462246304401F0C7FEFFF786
:1082000009FC204480B2FFF7FBFB044B5B689847F6
:10821000041ED4DBFFF710FCA01C70BD58B2260072
:10822000014B9B68184700BF4CB2260070B505464D
:108230000C4614200121FFF7A5FC034B28462146DC
:10824000BDE870409B68184764B22600002934D00E
:10825000102834D8DFE800F009143333191B1E202E
:10826000333333333324272A2D00164B1B7803F086
:10827000020303F0FF000BB1012303E00860704725
:10828000114B1B780B6000207047104B00E0104B27
:108290001B68F7E70F4B00E00F4B93F90030F1E755
:1082A0000E4B9B7DEEE70D4BDB7DEBE76FF00F0395
:1082B000E8E70A4B93F91830E4E702207047012001
:1082C000704700BFCA16002046160020800D00200F
:1082D0007C0D0020C9160020C4150020BCB2260069
:1082E00010B5074C0748218889B2003118BF012119
:1082F000FEF7B2F8208880B2003018BF012010BD10
:1083000018140020CEB9260038B5284CFCF780FAA6
:10831000FCF798FAE37953B1FCF7D4FC244A2549D9
:10832000D369C9695B1A18440023D061E371A3794A
:108330005BB1FCF7C7FC1E4A1E49936989695B1A49
:1083400018441A4B906100229A7102F098FE58B3BB
:10835000602804D1184802F0A8F93A2005E07028F6
:1083600005D1164802F0A1F93B2002F07CFE362030
:1083700002F079FEFCF7A6FC054602F080FE6FF4E1
:10838000A374641B20B9FCF79DFCC44205D538BD1D
:10839000FCF798FCC442F0D4F5E7094840F20D71AF
:1083A000BDE83840FEF758B838BD00BFBC2B0020F0
:1083B000882B0020C82B0020E0B92600F3B9260046
:1083C00006BA260010B504462B2002F076FE6300A4
:1083D000233303F03F0300F0C00119432B2002F0C8
:1083E00055FE014B1C7010BDC916002038B502F0B7
:1083F00046FE68B3602804D12C4802F056F93A20B2
:1084000005E0702806D12A4802F04FF93B2002F01F
:108410002AFE1DE0362002F026FEFCF753FC05463E
:1084200002F02DFE6FF4A374641B48B9FCF74AFCFC
:10843000C4420AD440F23F711E48FEF70DF804E032
:10844000FCF740FCC442EBD4F0E71B4802F02DF9E6
:108450001A4A137823F004031370FCF7C7F9FCF7EA
:10846000DFF93A2002F0FFFD342002F0FCFDFCF7BA
:1084700029FC054602F003FE6FF4A3741028A4EB58
:10848000050409D1FCF71EFCC4420AD440F24B712A
:108490000848FDF7E1FF04E0FCF714FCC442E9D40E
:1084A000F0E70748BDE8384002F0FFB8E0B9260021
:1084B000F3B9260006BA260028BA2600CA160020FC
:1084C0003ABA260038B5264C23785B060DD52378BA
:1084D000244823F04003237002F0E7F8332002F031
:1084E000C2FDFCF7EFFB05460CE0FCF79FFB1E4BC3
:1084F0001B68C01AB0F5617FE9D238BDFCF7E2FB1A
:10850000C44207D502F0BBFD6FF4A3744028A4EB6E
:108510000504F3D1FCF7D6FBC44204D4134840F25F
:10852000DE61FDF799FFFCF7CDFB054602F0A7FDE4
:108530006FF4A374641B48B9FCF7C4FBC4420AD4AB
:108540004FF4DC610948FDF787FF04E0FCF7BAFB54
:10855000C442EBD4F0E7FCF769FB034B186038BD6D
:10856000CA1600204CBA2600780D002006BA260054
:1085700038B502F084FD20B11D4840F21571FDF7B9
:108580006BFFFFF79FFF1B4A3A20137823F0040389
:10859000137002F068FD342002F065FDFCF792FBD9
:1085A000054602F06CFD6FF4A3741028A4EB0504DB
:1085B00009D1FCF787FBC4420AD440F221710E486E
:1085C000FDF74AFF04E0FCF77DFBC442E9D4F0E785
:1085D0000A4802F06AF8FCF709F9FCF721F9FCF700
:1085E00071FB074B0122D861064BDA7138BD00BF21
:1085F0005ABA2600CA16002006BA26007BBA260000
:10860000C82B0020BC2B002010B50D4B1B7803F0AD
:108610000A03022B01D000240BE0FCF71BF9012810
:1086200006D0084B1B889BB2002BF4D0012400E03D
:10863000044621460448FDF70FFF204610BD00BF49
:10864000CA1600201814002099BA260038B5124D19
:10865000124802F02AF82B789B0716D5104C237885
:10866000C3B923780133DBB22370FFF74DFE32210B
:10867000032002F00BFD392002F0F5FC23780120E5
:10868000013BDBB22870237038BD064802F00DF8BC
:10869000012038BD002038BDCA160020ADBA260022
:1086A00044160020B5BA260070B5204D204801F0D0
:1086B000FCFF2B7803F0020303F0FF0083BB1D4C8B
:1086C00023788BBB23780133DBB22370FBF7ACFF3D
:1086D000FCF7F8FA0646FCF7BDF840B9FCF7BAF823
:1086E00068B140F25E411448FDF7B6FE07E0FCF7C2
:1086F000E9FA6FF4A3739B1BC342ECD4EEE7FBF7DC
:108700009FFF2B78062143F0020303202B7002F019
:10871000BDFCFFF72DFF2378013BDBB2237002E0A5
:10872000064801F0C2FF012070BD00BFCA1600203C
:10873000C5BA2600441600205ABA2600CCBA260034
:108740003E4B2DE9F3479C7D0746A0429A4670D3E5
:10875000DB7D83426DD33A4DDFF8FC802B787BB113
:10876000384B39481F7098F80030012643F0100349
:1087700088F80030FEF78EFD344801F096FF59E08E
:1087800098F800301A07EBD4FFF73EFF06460028A2
:10879000E6D198F800302E4823F01003394688F8C7
:1087A0000030FDF759FE98F800309B0704D4FFF71E
:1087B0007BFF4FF0010900E0B1462B783C1B0133F1
:1087C000DBB22B70FFF7A0FDDAF81020BAF8141016
:1087D000E3B201FB03210C0340F27121B4FBF1F180
:1087E00042F60E700191C9B202F050FC9DF80510DE
:1087F00042F60D7002F04AFC42F60C709DF806102D
:1088000002F044FC134B1F70B9F1000F07D198F828
:10881000003043F0400388F80030FFF7A9FE2B78C2
:10882000013BDBB22B70B9F1000F03D0FFF70EFF55
:1088300000E00226304602B0BDE8F087BCB2260058
:108840004416002042150020EC040020DBBA26006C
:10885000F8BA260046160020CA16002010B50C46AD
:10886000072835D8DFE800F0040F343415171A292B
:10887000012902D1FFF718FF1DE009B1022010BD48
:10888000FFF7E4FE17E0C8B2FFF75AFF022812D143
:10889000F4E7104B00E0104B1C600CE00F4B93F919
:1088A00018106FF00F038C42A8BF0C469C42B8BF53
:1088B0001C460B4B1C70002010BD7F2905DC6FF09F
:1088C0007E039942B8BF1C4600E07F24054BF1E7C8
:1088D000012010BD800D00207C0D0020BCB22600C0
:1088E00045160020C8160020F8B52E4C237803F05A
:1088F000FF06002B54D12C4B1B78990702D4FFF7AD
:10890000D3FE012623780133DBB2237002F0B7FBDC
:10891000102804D0254840F2E131FDF79DFDFBF71A
:1089200099FF012804D1224801F0BFFE214826E02A
:10893000214B224F1D783B789D4204D017202946B9
:1089400002F0A4FB3D70FCF7BDF9074642F67270D9
:1089500002F0B3FB820705460BD4FCF7B3F96FF4C2
:10896000A373DB1BC342F1D410484FF47F71FDF7B2
:1089700073FD6B0707D50E4801F097FE104801F014
:1089800094FE002503E00F4801F08FFE01252378B7
:10899000013BDBB223700EB1FFF758FE2846F8BD4D
:1089A0000020F8BD44160020CA1600205ABA26003E
:1089B00011BB26001DBB2600C8160020C4150020D0
:1089C00028BB260033BB260070B50E4605460C4872
:1089D000FDF742FDF31E7C2B04D90A4801F065FE29
:1089E000012070BD084C294608482680FDF734FD5B
:1089F00029462288064801F053FA002070BD00BFC6
:108A00003FBB260051BB26001C1400206DBB260076
:108A1000C51500202DE9F843194D06462C88A4B24F
:108A20005CB32B88174F9BB23B4413F8028C2B8806
:108A30002C889BB2A4B2023C3B448C4213F8019CAC
:108A400003DD114801F031FE17E04FFA88F82146A6
:108A500042460E48FDF700FD39462246304601F0F9
:108A60001FFA00231FFA88F104202B80FFF78AF8F1
:108A7000032009F07F01FFF785F82046BDE8F88361
:108A8000181400204315002082BB2600A7BB260037
:108A90002DE9F347804602318CB2764AC4F30223B3
:108AA00002AD43F0180305F8043D1378E6B223F055
:108AB00004033A2013708DF8056002F0D4FA3B20CD
:108AC00002F0D1FA2621032002F0E0FA022101206F
:108AD00002F0DCFA2846022102F008FB7E2C28BFB7
:108AE0007E263146404602F001FB352002F0BBFAFB
:108AF000FCF7E8F80546A41BA4B2FBF7ABFE01287F
:108B00000DD1FCF7DFF8DFF888915B4F0125C9F83C
:108B10001800BD71FBF79EFE8246E0B907E0FCF746
:108B2000D1F86FF4A3735B1BC342E6D4E9E742F6C6
:108B3000D67002F0C2FA70B1504801F0B6FD51464D
:108B4000284602F0A3FAFFF7DFFB0320062102F01C
:108B50009DFA2C468AE064B3FCF7B4F80546464417
:108B60009CB1FBF77FFE80B91F2C94BF5FFA84F89D
:108B70004FF020083046414602F0B8FA404BC8EBAF
:108B80000404DB68A4B246441D44FBF763FE0128DD
:108B900006D002F074FA00F0BF00102822D10EE0D7
:108BA000FCF790F8364BDB682B44C01A0028D7DB63
:108BB000EFE7FCF787F80446FBF74CFE80BBFBF7BA
:108BC00049FE0128044634D12E4801F06EFD0021F3
:108BD000204602F05BFAFFF797FB0621032002F024
:108BE00055FA43E0284801F060FDFCF76BF80446B5
:108BF00002F045FA20280BD00021012002F046FAAD
:108C0000FFF782FB0320062102F040FA01242DE049
:108C1000FCF758F86FF4A3731B1BC342E8D4EBE7CF
:108C2000FCF750F8164BDB682344C01A0028C3DB5E
:108C3000C5E70021012002F029FA0320062102F0F5
:108C400025FABB795BB1FCF73DF8104AD9F818104A
:108C500093695B1A1844084B906100229A71FCF7E3
:108C600031F80123C9F81C00FB710024204602B032
:108C7000BDE8F087CA160020BC2B0020C4BB26002C
:108C8000BCB22600EABB2600DABB2600882B0020F7
:108C9000C82B00202DE9F04104463D4D3D482146BA
:108CA000FDF7DAFB2B88A34205D03B4801F0FDFC21
:108CB0000120BDE8F081394C237843F0080222708E
:108CC0009A0703D4FFF7F0FC012700E00027344B9C
:108CD0001B68DB070CD5FFF707FE48B90FB1FFF79C
:108CE000B5FC2378022023F008032370BDE8F0814F
:108CF0002C4E33780133DBB23370FFF705FB2A4B80
:108D00002A4A93F9003092F90000834201D0FFF71C
:108D100059FB0FB9FFF7D6FB25482988FFF7B8FEA6
:108D2000F8B9FBF7CFFF804602F0A9F96FF4A375FD
:108D30001028C8EB050509D1FBF7C4FFC5420AD4CA
:108D400040F255311B48FDF787FB04E0FBF7BAFF03
:108D5000C542E9D4F0E7FBF749FD0025FBF760FDCC
:108D600007E02FB9237843F040032370FFF700FC9E
:108D700001253378013BDBB233700FB1FFF766FC9E
:108D80002378284623F008032370BDE8F08100BF54
:108D90001C14002000BC260013BC2600CA160020AC
:108DA0007C0D002044160020C91600204516002026
:108DB000C515002006BA260038B505460C460748FA
:108DC000FDF74AFB28462146FFF7FEFD20B9204665
:108DD000BDE83840FFF75EBF38BD00BF2BBC2600A2
:108DE0002DE9F0415B4E5C483168FDF735FB5B4B8C
:108DF0001878984610F0010440F0A980584F3B784D
:108E00000133DBB23B70FBF733FD564801F04DFCFC
:108E10002046FBF76FFC0120FBF7AAFC524801F04B
:108E200044FCFBF701FC3020FBF710FC642001F050
:108E300006FCFBF705FC34897568A408002D7BD17E
:108E40000621032002F022F9AF21182002F01EF9BA
:108E5000464801F02AFC2621002002F017F90021E3
:108E6000012002F013F90621032002F00FF91F2060
:108E700002F023F900F0E7011F2002F007F9292092
:108E800002F01BF900F0CF0141F03F01292002F070
:108E9000FDF82A2002F011F900F0CF0141F0300175
:108EA0002A2002F0F3F82021262002F0EFF82720F4
:108EB00002F003F940F00101C9B2272002F0E6F800
:108EC000282002F0FAF800F09F0141F0200128204C
:108ED00002F0DCF820211D2002F0D8F8244801F02F
:108EE000E4FB244B03221A60234B01221A60234B1C
:108EF0000E201870FFF766FA747E214B214617206A
:108F00001C7002F0C3F81F4B00211F481C70FEF7B5
:108F1000A9F998F800301A2043F0030388F80030CC
:108F20003B78013BDBB23B70FFF70AFCFFF78EFB9F
:108F3000164801F0BAFB0AE00435002C80D035F861
:108F4000040C15F8021C02F0A1F8013CF4E7012022
:108F5000BDE8F081BCB226003ABC2600CA1600204B
:108F60004416002049BC26006FBC260093BC260096
:108F7000AABC2600800D00207C0D00204516002094
:108F8000C8160020C4150020EC040020C6BC260032
:108F90002DE9F0438A4E93B033783546894F3BB183
:108FA0003B78894843F020033B70FEF773F9F4E007
:108FB0003B7823F020033B7033780133DBB233700E
:108FC00002F05DF800F0EF00602801D17F4812E068
:108FD00042F6D77002F071F8044618B97C4801F0E7
:108FE00064FB0CE03B78580739D4012C0CD8794845
:108FF00001F05BFB784801F058FBFFF7F7F9337895
:10900000013BDBB23370D6E0022102A802F07FF808
:109010009DF808209DF8093002F0070103EB0123B9
:1090200012F0100F6D4A14BF023B043B13801388EB
:10903000022B04D86A4801F038FB6A48B3E07F2B62
:1090400004D9694801F031FB6848ACE0684B002264
:109050001A803B78023C43F00403E4B23B703B7857
:10906000590740F1A480624FDFF870913A88B9F84F
:109070000030A018991C88423E4609DD21465D4813
:10908000FDF7EAF95C485D49FDF7E6F95C488AE0DE
:10909000DFF86881214608EB020002F038F83988D1
:1090A000B9F80030214489B20233994239807ED127
:1090B00008EB010313F9013C002B01DB51486FE081
:1090C000514C23889BB20BB1504869E00DF108095F
:1090D00040464A46FEF7ACFD002847D04C4B1A6884
:1090E0001F4612F0010F03D13B689A0716D511E015
:1090F0009DF81830022BF7D09DF81F30022B0CBFC3
:109100000223082313F1FF33EED319F80320FF2ABB
:10911000F8D024E09DF81820012A01D0022025E093
:109120009DF81B20002AF9D0DB0711D402238DF80B
:10913000043000238DF805309DF822308DF806307C
:10914000FFF7E2F801A80321FFF7A2FC03200DE0DE
:109150004846304901F0FEFD0028E7D1DEE74846E9
:109160002C4901F0F7FD0028BED10120023801286A
:1091700015D83388214923802288274892B200F0ED
:109180008FFE264801F091FAFFF730F90E48FEF7FE
:1091900081F82B78013BDBB22B7001200CE02048DA
:1091A00001F083FA1F4801F080FAFFF71FF92B78CE
:1091B000013BDBB22B70002013B0BDE8F08300BF91
:1091C00044160020CA160020EC040020EEBC260045
:1091D000F9BC26000CBD260020BD26001E14002070
:1091E0002BBD260041BD26004CBD260060BD2600DB
:1091F0001A1400206BBD26008DBD260047160020E6
:109200009DBD2600A8BD260018140020B7BD26006D
:10921000800D0020002C002043150020CBBD26002F
:10922000D6BD2600E6BD2600822970B505460E464D
:1092300025D11B4801F039FA1A4B1A781C4602F066
:109240002202222A01D1FFF7A3FE2378DB0603D5F1
:10925000154B1878FFF774FA144B1B889BB273B147
:10926000FEF756FCFEF70EFC8021FFF7D3FB00282B
:1092700005DD80B2FEF7C4FB0D4B1B6998472A88B9
:1092800040F26E2312B19A4202D003E02B8005E037
:10929000832E03D100232B80032070BD012070BDDD
:1092A000F1BD2600CA160020421500201814002027
:1092B00080B22600832913B5044602D11A4801F072
:1092C000FCFB23882BB14E2B10D0002323800320DE
:1092D00028E015488121154AFEF768FA14488021D4
:1092E00001F013FB4E23238001201BE0104801F006
:1092F00015FB0028F8D000238DF8043001A80123C5
:109300000C498DF8053001F025FD0028E6D1062135
:109310000948FEF70DFC0448FEF75AFA074801F029
:10932000C4F9DBE702B010BD840D002018B326009D
:109330009C0D0020002C002015BE26001BBE260020
:1093400070B54C780D78FEF79DFB29460346224602
:10935000BDE870400148FDF77FB800BF32BE26006F
:1093600053B94AB9002908BF00281CBF4FF0FF318C
:109370004FF0FF3000F03CB882B0EC462DE90050D1
:1093800000F01EF8DDF804E002B00CBC704700BF2E
:109390002DE9F041069C904606460F461D4600F01A
:1093A00029F808FB01FCA8FB002300FB05C5B21A45
:1093B0002B4467EB03038646C4E90023BDE8F08134
:1093C0002DE9F843089E1746804689461D4600F061
:1093D00067F900FB05F3A0FB074507FB0137B8EB76
:1093E00004043D4469EB0505C6E90045BDE8F88382
:1093F000704700BF00292DE9F043C0F2A880002685
:10940000002BC0F29E8081468E4690469C461746B1
:1094100004460D46002B3DD18A4259D9B2FA82F357
:109420003BB1C3F120029D4020FA02F29F40154358
:109430009C40390CB5FBF1F01FFA87FE01FB10557B
:109440000EFB00F3220C42EA0545AB4209D9ED19A7
:1094500000F1FF3280F00B81AB4240F2088102380C
:109460003D44ED1AB5FBF1F301FB13550EFB03FE72
:10947000A4B244EA0545AE4508D9ED1903F1FF321F
:1094800080F0F780AE4540F2F480023B43EA0043AF
:10949000002203E08B420FD900221346341C18BF70
:1094A000012460424FF0000565EB450158405140F2
:1094B00000196941BDE8F083B3FA83F2002A40F055
:1094C00089808B4202D3804500F2E2800123E5E7E8
:1094D00012B90123B3FBF2F7B7FA87F8B8F1000F1E
:1094E0003BD1ED1B4FEA174C1FFA87FE0122B5FB5B
:1094F000FCF00CFB10550EFB00F3210C41EA054576
:10950000AB4207D9ED1900F1FF3102D2AB4200F2B4
:10951000C3800846ED1AB5FBFCF30CFB13550EFB9C
:1095200003FEA4B244EA0545AE4507D9ED1903F19F
:10953000FF3102D2AE4500F2AD800B4643EA004354
:10954000ACE752426FEA060663EB43035BE7404237
:1095500061EB41014FF0FF3652E707FA08F7C8F117
:10956000200225FA02F34FEA174CB3FBFCF11FFA75
:1095700087FE0CFB113324FA02F205FA08F50EFB04
:1095800001F92A43100C40EA0343994504FA08F410
:1095900007D9DB1901F1FF3078D2994576D9023924
:1095A0003B44C9EB0303B3FBFCF00CFB10330EFB95
:1095B00000F592B242EA03439D4207D9DB1900F15C
:1095C000FF325FD29D425DD902383B445D1B40EAC9
:1095D00001428CE7C2F1200328FA03F10CFA02FCE5
:1095E00041EA0C0C4FEA1C402EFA03F1B1FBF0F5F6
:1095F0001FFA8CF700FB151129FA03F30EFA02FE8D
:1096000007FB05F943EA0E0E4FEA1E4343EA014108
:10961000894508FA02F808D911EB0C0105F1FF336E
:1096200032D2894530D9023D6144C9EB0101B1FB19
:10963000F0F300FB131107FB03F71FFA8EFE4EEA4F
:10964000014E774508D91EEB0C0E03F1FF3117D2FE
:10965000774515D9023BE64443EA0543A3FB088955
:10966000C7EB0E0ECE4509D305D0002216E71046F3
:10967000F7E613460AE794404445F6D2013BF4E787
:109680000B46E9E71046A1E71D46CEE7014688E70D
:10969000134603E7023B51E702383D443AE700BF77
:1096A0002DE9F043002B44D18A42154604464FD998
:1096B000B2FA82F70E464FB1C7F12003B94020FA43
:1096C00003F602FA07F50E4300FA07F42F0CB6FB77
:1096D000F7F01FFA85FE07FB10620EFB00F1260C67
:1096E00046EA0243994209D95B1900F1FF3280F042
:1096F000EE80994240F2EB8002382B44591AB1FBBC
:10970000F7F307FB13110EFB03FEA4B244EA014179
:109710008E4508D9491903F1FF3280F0DA808E4571
:1097200040F2D780023B43EA004000263146BDE8C4
:10973000F0838B4247D8B3FA83F6002E48D18B4290
:1097400002D3824200F2CF8001203146BDE8F0838F
:1097500012B90125B5FBF2F5B5FA85FCBCF1000F95
:1097600078D1491B2F0C1FFA85FE0126B1FBF7F0BB
:1097700007FB10110EFB00F2230C43EA01418A4261
:1097800007D9491900F1FF3302D28A4200F2BC80A6
:109790001846891AB1FBF7F307FB13110EFB03FE02
:1097A000A4B244EA0142964508D9521903F1FF31A7
:1097B00080F09180964540F28E80023B43EA004063
:1097C0003146BDE8F083002630463146BDE8F083DF
:1097D000C6F1200422FA04F5B3402B4321FA04F722
:1097E0004FEA1348B7FBF8FC1FFA83F908FB1C7714
:1097F00020FA04FE01FA06F509FB0CF44EEA050511
:109800004FEA154E4EEA0747BC4202FA06F204D967
:10981000FF180CF1FF3168D38C463F1BB7FBF8F4FF
:1098200008FB147709FB04F9ADB245EA0741894505
:1098300004D9C91804F1FF355DD32C4644EA0C4421
:10984000A4FB0223C9EB0101994249D345D020462C
:1098500000266BE7CCF1200405FA0CF521FA04F39D
:109860002A0CB3FBF2F61FFA85FE02FB163820FA2B
:1098700004F701FA0CF10EFB06F90F433C0C44EA25
:109880000843994500FA0CF407D95B1906F1FF313A
:1098900038D2994536D9023E2B44C9EB0303B3FBBA
:1098A000F2F002FB10330EFB00F1BFB247EA0343B4
:1098B000994207D95B1900F1FF3721D299421FD98C
:1098C00002382B441746591A40EA06464EE710461E
:1098D00014E7134627E70B4670E7B0409042B6D234
:1098E000601E002622E7304620E7BC4294D9ACF146
:1098F000020C1F4491E789459FD9023C19449DE71A
:109900003846DFE70E46C8E70238294441E700BF82
:10991000024B0146186800F00BB800BF1C0900207C
:10992000024B0146186800F081BD00BF1C090020F1
:109930002DE9F04F01F10B05162D83B0064627D90E
:1099400035F0070500F1B680A94200F2B38000F0BF
:109950006BFBB5F5FC7F22D2BC4FE80807EBC003D8
:10996000DC689C4200F0BC816368E16823F003037B
:1099700023445A68A56842F00102E96030468D60D0
:109980005A6000F053FB0834204603B0BDE8F08F66
:10999000102900F28F8000F047FB1025DCE7680AF1
:1099A00000F08F80042800F24781A8093830410078
:1099B000A64F07EB8101CC68A14206D10CE0002A3A
:1099C00080F28280E468A14206D0636823F003033A
:1099D0005A1B0F2AF3DD013801309C493C6901F123
:1099E000080E744500F07181636823F003035A1B6D
:1099F0000F2A00F35781002AC1F814E0C1F810E0E3
:109A000066DAB3F5007F80F02D81DB0801EBC30837
:109A10004FEAA30C4A68012303FA0CF3D8F808C0F4
:109A20001343C4F808C0C4F80C804B60C8F8084061
:109A3000CCF80C408210012494409C4255D823421B
:109A400006D120F003006400234200F10400FAD0A4
:109A500007EBC008C4468146DCF80C309C4507D1B2
:109A600035E1002980F24581DB689C4500F02F81BB
:109A70005A6822F00302511B0F29F2DD1C46DA68F6
:109A800054F808CF45F0010941F001081D44C3F81E
:109A900004903046CCF80C20C2F808C07D613D61CE
:109AA000C5F80CE0C5F808E0C5F80480695000F07E
:109AB000BDFA69E7002420460C23336003B0BDE8FB
:109AC000F08F7E213F2073E723445A68E16851E715
:109AD00023445A68304642F001025A60083400F0CC
