:020000040026D4
:10400000287300208D422600C71A2700C51A2700F2
:10401000C51A2700C51A2700C51A2700000000008E
:10402000000000000000000000000000C51A27008A
:10403000C51A270000000000C51A27009D4F260062
:10404000851B27008B1B2700911B2700971B270030
:1040500000000000691B27006F1B2700C51A2700FE
:10406000C51A27000000000000000000000000004A
:104070000000000000000000C51A2700000000003A
:104080000000000000000000C51A2700C51A270024
:10409000C51A2700C51A2700C51A2700C51A270008
:1040A000C51A2700C51A2700C51A2700C51A2700F8
:1040B000C51A2700C51A2700C51A2700C51A2700E8
:1040C000C51A2700C51A2700C51A2700C51A2700D8
:1040D000C51A2700000000000000000000000000DA
:1040E00000000000000000000000000000000000D0
:1040F0000000000000000000ED602600FD602600CA
:1041000000000000000000000000000000000000AF
:10411000000000000000000000000000000000009F
:10412000000000000000000000000000000000008F
:10413000000000000000000000000000000000007F
:10414000000000000000000000000000000000006F
:10415000000000000000000000000000000000005F
:10416000000000000000000000000000000000004F
:10417000000000000000000000000000000000003F
:10418000000000000000000000000000000000002F
:10419000000000000000000000000000000000001F
:1041A000000000000000000000000000000000000F
:1041B00000000000000000000000000000000000FF
:1041C00000000000000000000000000000000000EF
:1041D00000000000000000000000000000000000DF
:1041E00000000000000000000000000000000000CF
:1041F00000000000000000000000000000000000BF
:1042000000000000000000000000000000000000AE
:10421000000000000000000000000000000000009E
:10422000000000000000000000000000000000008E
:10423000000000000000000000000000000000007E
:10424000000000000000000000000000000000006E
:10425000000000000000000000000000000000005E
:10426000000000000000000000000000000000004E
:10427000C51A2700755F2600BD5F2600715726000E
:104280007963260069502600C51A270008B5094B36
:10429000FF221A600848094A4824E3690849121AAB
:1042A00098470848084AA3690021121A984700F065
:1042B0000DF8FEE7B4200D4040000020950A0020D4
:1042C000BC3C2700980A0020236B00202DE9F04712
:1042D00088B001F055F801F03DF901F0A5F800F0C3
:1042E00003FE02F037F80DF0E2FD01F02BF900F0CB
:1042F00027FA20200DF0EAFB03F0FAFA01F02CF87F
:10430000002000F03DFF012000F03AFFB1490020FD
:1043100001F00CF803F05CFC0DF02CFC08200DF013
:10432000D5FBAD480DF05BFCAC480DF058FC00200F
:1043300003F070FC01F074FE0021A94803F07EFB3D
:1043400003F026F80DF00BFC03F09AF9C8200CF0EE
:10435000CFFC0446A3490DF0CFF920460DF02AFA10
:10436000A14D02462146286802F04AFB01469F48BB
:1043700002F018FC20460CF0C3FC9D480DF02FFC09
:10438000C8200CF0B5FC044603F07CFB99490246BA
:10439000204602F017FC20460DF00CFA214602469A
:1043A000286802F02DFB0146904802F0FBFB2046F6
:1043B0000CF0A6FC03F066FB01468E4802F0F2FB0F
:1043C0008D480DF00CFC00F0EBFC01F00DFA01F053
:1043D00029FA012000F068FB0AF0F0FB022000F04F
:1043E00063FB0AF0EBFB6846082101F0F1FF9DF842
:1043F00007309DF8068004AE43EA08286B4603CBDD
:10440000802386E803008DF810303346DFF84892A9
:104410007A4C6D462060616003CBC9F80000784893
:10442000C9F80410CA4602F0BDFB0027E15D7548DB
:10443000013702F0B7FB072FF8D1704B7248D979DA
:1044400002F0B0FB714802F0ADFB00271AF807102C
:104450006C48013702F0A6FB072FDFF8FC91F5D17D
:104460006B4F99F80710684802F09CFBFB6A4AF60C
:10447000CD3102209847FB6A414603209847FB6AEA
:104480001A2101209847082229467B6B0B20984768
:10449000604802F087FB604B604F18680DF09FFB8F
:1044A0005F4802F07FFB5F4B4FF0FD0818680DF08E
:1044B00096FB5D4802F076FB5C4B18680DF08FFBB5
:1044C0005B49236828460B60636800244B60D9F879
:1044D0000030ADF800803B60D9F80430ADF8024000
:1044E0007B60ADF80440ADF80640ADF80840ADF88B
:1044F0000A40ADF80C40ADF80E400DF021FE22460A
:104500002146284605F0FAFD30463946ADF81080C0
:10451000ADF81240ADF81440ADF81640ADF81840B3
:10452000ADF81A40ADF81C40ADF81E400DF008FE85
:1045300030462146224605F02BFE3E4802F032FB73
:104540002B19295D3C485A78023402F02BFB0E2CC3
:10455000F6D19DF80E109DF80F20384802F022FB8E
:10456000374802F01FFB00243319315D32485A7876
:10457000023402F017FB0E2CF6D19DF81F209DF897
:104580001E102E4802F00EFB0AF07AFC2D48002186
:1045900003F054FA00212C4803F050FA02F086FF91
:1045A00000F020FD294B01221860294B29481A7080
:1045B0000DF04AFC00F0D6FE10200DF087FA00F056
:1045C000D7FE03F0ADF910F0FF0FF8D101F01EFE99
:1045D000F5E700BF8D7B2600683127007831270082
:1045E000C404002092312700945C0020AB312700E6
:1045F000BD312700D5312700EE3127001B6B00208D
:10460000F33127007632270080322700113227004D
:104610002C5B00203E322700D42F2700CC630020E3
:1046200045322700E02F27004C32270008302700B2
:10463000A45C002053322700723227007C3227000E
:104640008632270058050020E40400205C5C00202E
:104650004C5C00208C302700136B0020F8B5334CE5
:10466000257820704540EA0618D500F0100000F0CB
:10467000FF072F4E30B100F0B5FC2E4BD860012360
:10468000F3700BE0F3784BB100F0ACFC2A4A2949F7
:10469000D368C968F7705B1A1844D06015F0300F02
:1046A00017D02378224F13F0300606D000F09AFC82
:1046B000204B186101233B710BE03B794BB100F0BB
:1046C00091FC1D4A1B49136909693E715B1A184424
:1046D0001061AB0619D52378154D03F0200303F0C4
:1046E000FF0633B100F07EFC124B586101236B7161
:1046F0000BE06B794BB100F075FC0F4A0D49536923
:1047000049696E715B1A184450610C4D2B7823B9BE
:104710002078BDE8F84000F035B8012B05D1002025
:1047200000F030F82B7801332B70F8BDE62A00201A
:104730004C5C00205C5C0020105C0020C95B002009
:1047400008B500F017F8024B00221A7008BD00BF30
:10475000E62A0020024B1B781843FFF77FBF00BFFB
:10476000E62A0020024B1B7823EA0000FFF776BF01
:10477000E62A0020024A136843F0380313607047AA
:1047800000C40D40014B1860704700BFE0C00D40F1
:10479000034B00221A60034B1B68002BFBD17047B0
:1047A00080A00D4020A00D40014BFF221A607047F1
:1047B00080A00D40054B1860054A1168C806FBD45F
:1047C00011684907FCD51868C0B2704708800040DE
:1047D0000C80004070B508B949BB00E00AB901205F
:1047E00070BD99B901460B1A934201DB002070BDE0
:1047F000184C00232360184B1D68EE06FBD41D687F
:104800006D07FCD5236801F8013BECE700239342D8
:10481000ECDACC5C0F4D2C600F4C2668F606FBD40E
:1048200026687607FCD52C68C4540133EFE7002ACC
:10483000D5D00846431A9342D8DA10F8013B054C0C
:104840002360054B1D68EE06FBD41D686D07FCD583
:104850002368EFE7088000400C80004008B51A4A42
:10486000136823F01003136052F8203C23F0100368
:1048700042F8203C52F81C3C23F0100342F81C3C48
:1048800052F8183C23F0100342F8183C0F4B1A68FA
:1048900010B142F0100201E022F010021A600C4A3E
:1048A00004211368012043F0100313600A4600F04E
:1048B0005FFE012000F082FDBDE8084005480121AF
:1048C000042200F0DDBD00BF20A40D400CA40D406B
:1048D00010A40D40211B270008B51A4A136823F0C5
:1048E0000103136052F8203C23F0010342F8203CFE
:1048F00052F81C3C23F0010342F81C3C52F8183CCF
:1049000023F0010342F8183C0F4B1A6810B142F033
:10491000010201E022F001021A600C4A0021136832
:10492000012043F001031360042200F021FE012066
:1049300000F044FDBDE8084005480121002200F0D8
:104940009FBD00BF20A40D400CA40D4010A40D403D
:10495000211B270008B5074A04211368012043F0F2
:10496000100313600A4600F003FEBDE80840012072
:1049700000F024BD10A40D40024A136823F0100378
:104980001360704710A40D4008B5074A0120136852
:10499000002143F001031360042200F0E9FDBDE8AB
:1049A0000840012000F00ABD10A40D40024A13681F
:1049B00023F001031360704710A40D40024B1868E8
:1049C000003018BF0120704740A00D40014B18680F
:1049D000704700BF04A00D4010B51B4A02201368A9
:1049E000072123F08003136052F8203CFF2443F09A
:1049F000800342F8203C082200F0BAFD134B052149
:104A00001C60012000F054FE002000F0D1FD104A8F
:104A1000136823F0100313600E4B1968A3F560733D
:104A200021F01001C3F88013116821F00101116019
:104A3000D3F8802322F00102C3F880231C60064BC8
:104A40001B68002BFBD010BD20B40D4000B20D4000
:104A500020A40D4000A40D4020A00D4070B50E4DC7
:104A60000E4B2C460E4E01221A600FCC0FC60FCCF7
:104A70000FC60FCC0FC694E8030086E803000FCDE5
:104A8000084E0FC60FCD0FC60FCD0FC694E803001A
:104A900086E8030070BD00BF54302700AC0A002038
:104AA000645B00202C5B0020012870B502D1FFF769
:104AB000D5FF1DE002281BD10E4B0F4D0F4C0022DD
:104AC0001A600FCC0FC50FCC0FC50FCC0FC594E8E3
:104AD000030085E803000A4DA4F130060FCE0FC590
:104AE0000FCE0FC50FCE0FC594E8030085E8030075
:104AF000012070BDAC0A0020645B0020D42E27008A
:104B00002C5B002070B506880546BEB90D4CFFF73A
:104B1000A5FF3146206808F09FF800F063FA0646CA
:104B200000F060FA6FF050039B1BC342F8D40220E0
:104B3000FFF7BAFF2068002108F08EF800232B80D1
:104B4000032070BDA80A0020044B186818B1431E4A
:104B50005842584170470220704700BFAC0A0020FD
:104B6000012802D1044B18607047022803BF024B92
:104B7000186001200020704788040020024B18684C
:104B8000012818BF0220704788040020012810B5B2
:104B9000084C02D1FFF762FF08E0022804D0FFF7BB
:104BA0005DFF236A98470220FFF77EFF236A98473C
:104BB000012010BD2C5B0020012810B5084C02D14B
:104BC000FFF74CFF08E0022804D0FFF747FF636AB5
:104BD00098470220FFF768FF636A9847012010BDDD
:104BE0002C5B002008B5044B00211860034802F03C
:104BF00025FF012008BD00BFA80A0020680400208E
:104C000008B50348002102F019FF012008BD00BFCC
:104C10007804002020B1012805D1044B1878704792
:104C2000034B186870470020704700BFE72A002038
:104C300020900D4010B5094A0020137801331370FD
:104C4000074B197802F0CEFEBDE81040054B064830
:104C50001968064A002302F0D1BB00BFE72A0020F2
:104C600016690020D80A0020B00A0020354C260022
:104C7000812810B50C462AD0B0F5807F39D0802825
:104C800039D102F02DFE1D4B1D4A1870136800200B
:104C900023F00803136052F8203C032123F008039B
:104CA00042F8203C52F81C3C23F0080342F81C3C1C
:104CB00052F8183C43F0080342F8183C042200F074
:104CC00057FC10480021032200F0DAFB13E00E4BE2
:104CD0001A6831B142F008021A60002000F06EFB41
:104CE00005E022F008021A60084600F073FB204637
:104CF00010BD064B1960012010BD00BF16690020D1
:104D000020940D40114D260010940D40D80A00202B
:104D100008B50F480DF0EEF8C0B108210C480DF0B1
:104D2000D7F80C4B196861B10B4B00221A700B4B72
:104D30000B481B681BB90B4A02F060FB01E002F054
:104D40009FFBBDE80840084803F00AB808BD00BF53
:104D5000D00A0020D80A0020E72A002020900D4029
:104D6000B00A0020354C26002C2E2700044B186872
:104D7000C0F30720030904BF1030C0B2704700BF62
:104D80001C300D40054B1868C0F3C21001289ABFB3
:104D9000C0F1020040034FF40040704714300D4052
:104DA0002DE9F04F8DB0FFF7E1FF384B0446C820E6
:104DB0001D680BF09DFF4826B368074698470B9087
:104DC000736898470A90FFF7DDFF834600F040FBC9
:104DD000099000F049FB089000F01CFBDDF828C0AA
:104DE00009994FEA9C2301934FEA9B23DFF8A8A07F
:104DF0000293089BC4F30718C5F3400904F00F049D
:104E000005F001050B9A059106935146434607901C
:104E10000094CDF80C900495384601F0D3FE384646
:104E20000CF0C8FC1A4B02463946186801F0E8FD40
:104E30000146184801F0B6FE38460BF061FFB36832
:104E400098477368834698470746FFF79BFF0646D7
:104E500000F0FEFA099000F007FB089000F0DAFA83
:104E6000099A089BBF0AB60A049205930690009718
:104E70000196CDF808900395504659464246234680
:104E800001F090FE0DB0BDE8F08F00BF1C300D406A
:104E9000945C0020AB312700D2322700F8B500F037
:104EA000A1F80F4B0024D3E900673A46B04238BF5F
:104EB0007A1C15460443C3E90045DFF828E0DEE923
:104EC0000001821B61EB070312196B41CEE900233D
:104ED00002F0B4FB18B1BDE8F84002F03FBBF8BDEA
:104EE000980A0020A00A00200F4B104A1A6053F8BD
:104EF000042C42F0050243F8042C53F8042C42F031
:104F0000020243F8042C0A4A136843F001031360B9
:104F1000084B00221A60042243F80C2C012243F8AB
:104F2000082C0F22DA62704714E000E047E8010025
:104F300008200D400C000340034BD3E90023100A66
:104F400040EA0360704700BF980A0020034BD3E992
:104F50000023D00B40EA4340704700BFA00A002066
:104F6000054B18601C3B1A6842F001021A601A686F
:104F7000D207FCD4704700BF2800034010B5064C90
:104F8000236823F001032360FFF788FF236843F0C1
:104F90000103236010BD00BF10E000E038B500F051
:104FA00021F80A4C0A4D0123A370A860FFF776FF91
:104FB000A3784BB100F016F8064AA96893685B1A0B
:104FC000184400239060A37038BD00BF4C5C0020E3
:104FD0005C5C0020105C0020014B1868704700BF2B
:104FE000DC0A0020074B084A196804331B68126862
:104FF000120442EA0323054A0B43106843EA0060A7
:10500000704700BF40500D4048500D404C500D407F
:1050100010B50446114B1B68DB07FBD50CF0AEFD49
:10502000FFF7E0FF231A062BD8BFC41D0C4B220E3E
:105030001A60C4F3074243F8042CC4F3072243F870
:10504000082CE2B243F80C2C0CF094FD054B912097
:105050001C60BDE8104000F0B1B900BF50500D40D9
:105060004C500D40DC0A002070B501F099F8FFF7B4
:10507000B9FF0E4C01230E4EA3700E4BB0600025FD
:1050800091201D6000F0B2F9912000F0A3F902F028
:105090000DFDA37843B1FFF7A5FF074AB1689368F8
:1050A000A5705B1A1844906070BD00BF4C5C002076
:1050B0005C5C0020DC0A0020105C00200023084A11
:1050C0001068084A9958084205D01A44D268906975
:1050D00010F0800003D02C33582BF0D10120704702
:1050E00028200D403C2E2700F8B50646FFF77AFF32
:1050F0001E4A01231E4993702C2303FB06134FF60F
:10510000BF711C4DDC68A860236C61649BB213F016
:10511000500117460CD0A369DB0618D4164B53F880
:1051200026301BB12068C0B29847F4E72368F2E745
:1051300013F4D06F0BD04FF440732363FF236360ED
:10514000E36AE162E362236B43F001032363BB780C
:1051500053B1FFF747FF094AA96893685B1A1844DF
:10516000024B906000229A70F8BD00BF4C5C00209A
:105170003C2E27005C5C0020E00A0020105C002030
:105180002DE9F04F012885B0064600F2BF802C249F
:105190004443604B1D1995F920A005F12007BAF191
:1051A000000F9946C0F2B28095F92230002BC0F270
:1051B000AD80594801F0BEF8584A59F804301168DA
:1051C000EC680B43136051686B6895F921B00B4391
:1051D00053609168AB6895F822800B43936000237D
:1051E000C4F8C83F2B690BEBCA021A6095F823304C
:1051F0005FFA88FC01939DF80430604619462A7DC9
:10520000CDF80CC0029300F0BDF9029BDDF80CC094
:1052100019466046082200F0ABF94FFA88F8404979
:105220004FEA08389DF9042058F80100012303FAD9
:1052300002F2024348F801204FEA0A3A5AF8010004
:1052400003FA0BF202434AF801205022A263A26B38
:1052500095F8240042F4D062A263022262634FF404
:1052600040722263AA696262EA69A2627022E26203
:1052700042B2002A0C4614DB95F92510294D41EA6B
:10528000C20129607979120315594FB2BB402B43F3
:105290001351002200F06CF9234A136843F40043D1
:1052A00013602C2303FB069393F8265020336FB230
:1052B000002F1CDB93F807A0EDB25FFA8AF82846AE
:1052C000414601223F0300F05DF94FFA8AFA3A594C
:1052D000012303FA0AF313433B51082228464146AF
:1052E00000F046F9104A136843F4804313602C23FE
:1052F00003FB0696F26896F82800136B43F001034F
:10530000136305B0BDE8F04F00F058B805B0BDE834
:10531000F08F00BF3C2E2700BD50260028200D40F6
:1053200020940D4004410D4030D0004001289CBF26
:10533000014B43F820107047E00A0020012808D8EC
:10534000044B2C2202FB0030C3689A699206FCD4FD
:10535000196070473C2E2700014B00221A607047ED
:1053600000500D40014B08221A60704700500D405C
:10537000024BA0221A6050221A60704700500D4064
:10538000074A084B1A60084B80321A60074B80327C
:105390001A60074B80321A60064B074A1A60704742
:1053A00000E100E0F40A0020E80A0020EC0A0020F6
:1053B000F00A002008ED00E000402600044B4109FF
:1053C0001A6800F01F000123834042F82130704723
:1053D000F40A0020044B41091A6800F01F00012361
:1053E000834042F821307047E80A0020044B41090D
:1053F0001A6800F01F000123834042F821307047F3
:10540000F00A0020024B1868C0F38150704700BFBB
:1054100004200D4008B5FFF7F5FF024B53F82000BC
:1054200008BD00BF942E2700054A064B1A60064BA4
:105430001A68064B1340B3F1807FF8D1704700BF64
:105440000101020100200D4004200D400000010177
:10545000034B04481B6803F007031841704700BF63
:1054600004200D400048E801034B04481B68C3F3C7
:1054700002231841704700BF04200D400048E80196
:10548000024B02EBC10243F822007047F80A0020E9
:10549000F8B507460E46094D002405EB411547FABD
:1054A00004F3DB07E1B204D555F824300BB13046E4
:1054B00098470134082CF2D1F8BD00BFF80A00204B
:1054C0002DE9F74F019000F06BFEFFF78BFD01997E
:1054D000184E4FEA0139184F0123DFF864A009F193
:1054E0008045B860B37005F55925D5F8188459F88A
:1054F0000A404FEAC10B24FA0BF448EA0400C0B298
:10550000E4B2FFF7C5FF04FA0BF45FFA88F3C5F8BD
:105510001C3449F80A40B3784BB1FFF763FD074AE2
:10552000B96893685B1A184400239060B37003B0A5
:10553000BDE8F08F4C5C00205C5C0020105C00201B
:1055400018970D400248002180220BF073BF00BF66
:10555000F80A0020034A044B1A60044B803A1A6090
:10556000704700BF80400D407C0B0020780B00206E
:10557000034B01EBC0011B6843F82120704700BFBB
:105580007C0B0020034B01EBC0011B6843F821207A
:10559000704700BF780B002001289FBF03490123FB
:1055A0000A6883409CBF13430B60704718200D406E
:1055B0002DE9F04F012887B0044671D818235C43C9
:1055C000394D2E1996F811804FFA88FCBCF1000F66
:1055D000CDF814C064DBFFF7DFFFB37C2D59002743
:1055E0005FFA83FB5FFA88F86F6040465946327A6B
:1055F000C5F8C87F0493FFF7C5FFF47C327BE3B2A4
:105600000093337D009801939DF8043064B21946ED
:105610000293FFF7B7FF96F815A096F816907268F8
:105620004FFA8AF34FFA89F101EBC300DDF814C099
:10563000106003931D4A049B4FEA0C3C5CF8020087
:105640004FFA83FE012303FA0EFE40EA0E004CF8E7
:10565000020024039DF9040054F802E003FA00F06C
:105660004EEA0000A05003988B400003845859462E
:105670002343835040463A46FFF77AFF0098029949
:105680003A46FFF775FF504649463A46FFF770FF26
:10569000337C2B61C7232B606B6843F002036B6084
:1056A00007B0BDE8F08F00BFA42E270020940D4066
:1056B00038B50B4A0403A35801258D4023EA05039E
:1056C000A3500022FFF754FF064AA3582B43A350D0
:1056D00004F1804404F55924FF2344F8253038BDF3
:1056E00020940D4000940D400E2870B50BD1164B40
:1056F000164E1C6844F002051D60356825F03F0316
:1057000043F001033360124E336823F0FF031A4362
:105710001143014331600F4B1B681B06FBD50E4B39
:105720000E4A1B6812680E2803F0FC0343EA0223AA
:1057300008BF064A9BB204BF1560034A9BB208BF6C
:10574000146018B270BD00BF34000144F4860840F4
:1057500008700D4000700D400C700D4010700D4031
:10576000024B1868B0FA80F04009704700B7084053
:1057700070B5FFF737FC104E104C0123B060104D90
:105780008F20A370FFF732FE8F20FFF723FE2868DB
:1057900018B102F06BF900232B60A37853B1FFF727
:1057A00021FC084AB16893685B1A1844034B906067
:1057B00000229A7070BD00BF5C5C00204C5C002031
:1057C000800B0020105C0020064A136843F002039F
:1057D0001360536843F002035360936843F002037D
:1057E0009360704748200D4007B50C4800F0A2FDBB
:1057F000FFF7EAFF0A4B1A6842F002021A60002221
:105800000192019A0F2A02DC019A0132F8E71A6824
:1058100022F002021A6003B05DF804FB6157260013
:1058200054200D40064A136823F0020313605368A6
:1058300023F002035360936823F0020393607047E0
:1058400048200D40044B186800F02200A0F120030E
:1058500058425841704700BF4C860840024B1868B8
:1058600000F04000704700BF4C86084008B50B4B65
:1058700093F90020002A09DB094AED21116011602B
:10588000E32111601A7862F07F021A70FFF7AAFB19
:10589000044BD861044B0120D87108BDE82A0020D0
:1058A000388808405C5C00204C5C002038B5054618
:1058B0000C46134B1B689B07FBD4124B93F900302B
:1058C000002B01DBFFF7D2FF0F4BEE221A60691E9F
:1058D0001A60A21C43F8102C2144022000F0B8FBEF
:1058E000013C0A4924012143022000F0C3FB0220AD
:1058F00000F0CAFB022000F0DFFB002038BD00BF33
:105900004C860840E82A00203888084002C001C0C0
:10591000044B1A6810B142F0010201E022F00102CA
:105920001A607047008608400B280DD1082A0DD157
:1059300061B1074B013953F8042D01F8012F054AD5
:105940009342F8D100207047012070470220704731
:10595000C8850840A88508400B280DD1082A0DD11C
:1059600061B1074B083111F8012D43F8042F054AA6
:105970009342F8D100207047012070470220704701
:10598000A4850840C485084070B52B4E336813F0D9
:10599000400308D0294D2B68DCB21B0605D5284BE7
:1059A000ED221A601A60002070BD042CF7D9023C69
:1059B0008C42F4DCE4B2032C1BD001190139032022
:1059C00000F04EFB631E1F491B010320194300F02A
:1059D00051FB032000F058FB032000F06DFB032077
:1059E00000F076FB0028FAD129682D682806D6D564
:1059F00006E02B6803702B6843702B688370F3E715
:105A0000493949B289B2042009F010FA032005F09F
:105A10007F0109F00BFA33685A060BD5064B1B6859
:105A20001B0603D5084802F021F803E0044BED22E1
:105A30001A601A60204670BD4C86084028880840CD
:105A40003888084002C0010C9C04002010B5114B9E
:105A50001B689B07FBD4104BED221A601A600F4A9B
:105A600012680AB1EF221A600D4A0E4C137803F047
:105A70007F031370E37953B1FFF7B4FA0A4A0B4975
:105A8000D369C9695B1A18440023D061E37101200E
:105A900010BD00BF4C860840388808402C8608405E
:105AA000E82A00204C5C0020105C00205C5C002098
:105AB00038B5A0F10B04E3B20F2B054613D80B4BFE
:105AC0001B6813F03F0302D0FFF7C0FF012304EB74
:105AD0008404074A0B3414600BB1FFF7C7FE054B73
:105AE000E8B21D7000E0FF2040B238BD4886084093
:105AF0003C860840920A002038B50C46072855D845
:105B0000DFE800F0040F1B1F26543B4F012903D18F
:105B1000FFF7ACFE002038BD002949D1FFF796FF02
:105B2000F8E7A1F10B030F2B42D8C8B2FFF7C0FF73
:105B3000431C0CBF0320002038BD8CB2E2B21D4BC9
:105B400002E08CB21C4BE2B2240A1A605C60E1E70E
:105B500031F003052CD101F00100FFF7D9FE174BFE
:105B600014F002001A681BBF284642F0200222F0FF
:105B700020021A6008BF1A6038BD01F118031F2BFC
:105B800016D80D230E49DA0051F83300844204DCA4
:105B90008B181A790B4B1A60BCE713F1FF33F1D263
:105BA000B8E7CCB2084B49341C60B3E7012038BDDC
:105BB000022038BDC8850840D085084024860840AA
:105BC0000C2F2700408608405886084038B50C4600
:105BD00000296ED010286ED8DFE800F0090F1A1CDB
:105BE000236D3344496D6D6D6D6062646900334BA4
:105BF0001B68003318BF012356E0314B05221B6898
:105C000003F07F030B3B93FBF2F30B33DBB24BE070
:105C10002C4B00E02C4B1A68043B1B6843EA022320
:105C200042E02A4B002008601A68243302F0010287
:105C30000A601B6813F0200337D042F002020A60AA
:105C400038BD234B1A680023D2B2224901EBC300AE
:105C50000079904202D851F8333025E001330E2B01
:105C6000F3D11FE01C4B1B685BB2493B1CE01B4B94
:105C70001B68990603D1FFF7F9FD012300E000231B
:105C8000174A1268D207FBD5164A1568493DEDB28E
:105C90000BB1FFF7DBFE6DB2256006E00B2303E0DE
:105CA0001A2301E06FF017032360002038BD07239B
:105CB000FAE7022038BD012038BD00BF2C8608401D
:105CC0003C860840CC850840D485084000860840C2
:105CD000408608400C2F2700588608404886084018
:105CE000648608406086084010B50B4B1B68990617
:105CF00003D1FFF7BBFD012300E00023074A126830
:105D0000D207FBD5064A1468C4F300140BB1FFF7A1
:105D10009DFE204610BD00BF4886084064860840AE
:105D20004C8608402DE9F843364B93F90030002BA0
:105D30000EDBFFF757F90446FFF798FDFFF752F91E
:105D40006FF009031B1BC342F8D44FF0010801E0B8
:105D50004FF00008FFF7C8FF00284CD02A4E3368E8
:105D600013F0200447D1294D294FEB7943B1FFF7B8
:105D700039F9284AF969D369EC715B1A1844D06182
:105D8000FFF730F9244C0123AB71E923B8614FF0E0
:105D90000409236033689A0708D409F1FF3919F020
:105DA000FF0903D00620FFF7DBF8F3E733689B0712
:105DB00004D4EE2323602360012404E0306810F053
:105DC0000200FBD10446AB7953B1FFF70BF9114A3E
:105DD000B96993695B1A18440C4B906100229A715F
:105DE000FFF700F90123F861EB71B8F1000F05D05E
:105DF000FFF72CFE02E00220BDE8F8832046BDE854
:105E0000F88300BFE82A00204C8608404C5C002044
:105E10005C5C0020105C002038880840F8B52E4EED
:105E2000357815F0010554D12C4B01241C605C60C1
:105E30009C60A3F59323A3F51473F8221A6009223A
:105E4000C3F89021152270331A6003F59B230B22AF
:105E500003F59E731A60A3F59B23A3F5F07340220C
:105E60001A601A687F2742F020021A60D52243F890
:105E70001C5CDF62DA611A4B1878FFF719FE194AC9
:105E80008D20136843F004031360FFF797FA164B55
:105E90008E201F60FFF792FA022000F001F91349EB
:105EA000022000F0DDF8032000F0FAF803200F498B
:105EB00000F0CEF829460E4801F0C0FD33782343A8
:105EC0003370FFF78FF80B4BD8610B4B2046DC711A
:105ED000F8BD0020F8BD00BFE82A0020A8200D4032
:105EE000920A00208C860840948608402888084042
:105EF0009C0400205C5C00204C5C002038B50388CA
:105F00000446FBB140F2C532934203D00023038024
:105F1000032038BD822918D108F02EFF08F0C2FEF8
:105F20008021FFF731FD051E08DD0220FEF718FE77
:105F3000A8B208F075FE0C4B1B6998470B4B1A78FA
:105F4000520604D440F2C5332380012038BD00221C
:105F50001A70074B1D68FFF779FDFFF75FFFAB066F
:105F6000F0D0FFF783FCEDE708302700E82A002097
:105F70004886084070B5FFF735F80B4E0B4C0123EF
:105F8000B0600B48A37001F071FD0A4B00251D6045
:105F9000A37843B1FFF726F8074AB1689368A57064
:105FA0005B1A1844906070BD5C5C00204C5C002063
:105FB0009C04002034880840105C002070B5FFF776
:105FC00011F8114B01221D46104C9A70104AA06026
:105FD00011680026042918BF0E490F481EBF0B7810
:105FE00043F040030B70166001F040FDAB784BB1FD
:105FF000FEF7F8FF094AA16893685B1A1844024B40
:1060000090609E7070BD00BF4C5C00205C5C002006
:106010002C880840E82A00209C040020105C002006
:1060200010B5094C0021204640220BF003FA074B23
:1060300001221A602E205C60FFF7C0F9BDE8104015
:106040002F20FFF7BBB900BF0000002004F00F4075
:1060500003289EBF014B000119507047000000202B
:1060600003289EBF024B03EB00104160704700BF46
:106070000000002003289EBF024B03EB001081604C
:10608000704700BF0000002003289FBF0349012381
:106090000A6883409CBF13430B60704728F00F4091
:1060A00003289FBF034901230A6883409CBF134311
:1060B0000B60704720F00F4003289FBF0349012366
:1060C0000A6883409CBF13430B60704714F00F4075
:1060D00003289FBF044B03EB0010806800F007000B
:1060E00088BF0020704700BF00000020024B4FF027
:1060F000FF321A60704700BF04F50F40014B0122C8
:106100001A6070474CF00F40094B1A6812F4801F58
:106110001A46F9D1043B196821F4803119601168DD
:10612000C903FCD41A6842F400321A60704700BFF9
:1061300004200D4070B5164CFEF754FF2378154D22
:106140003BB1154A296813685B1A034413600023A6
:106150002370124E6860012302203168637001F0E1
:10616000D5F930BF022001F0B5F93060FEF73AFFF3
:1061700063784BB1084A0749536849685B1A03447E
:106180005360034B00225A7001232860237070BDB6
:106190004C5C00205C5C0020105C0020840B002024
:1061A00070B5144B1A681C4612F0030F21D0124B25
:1061B0001A685101FBD41A685201FCD50025FEF77C
:1061C000DDFEFFF7A1FF2560022001F083F90B4BF4
:1061D0001860FEF707FF0A4B0A495A7832B10A4C99
:1061E0004E6862685D70921B024462600122086022
:1061F0001A7070BD58200D4004200D40840B002003
:106200004C5C00205C5C0020105C00202DE9F0411B
:106210003E4B1C6814F03F0413D13D4B53F824301F
:1062200023B1984768B10134052CF6D1394D2B784C
:106230003BB1FEF7D1FE0446FEF7D4FE201A092832
:1062400003D8BDE8F041FFF775BF002CF9D0324B01
:106250001A6822F400321A60304A1168C902FBD46D
:10626000196841F4803119601368DB03FCD5FEF72F
:10627000B9FE201A092803D8BDE8F041FFF744BF52
:106280006328274F02D92B78022B00D00123254EFB
:106290003B60254C0220316801F038F9FEF7A2FE80
:1062A0002378224D3BB1224A296813685B1A0344C4
:1062B00013600023237001236860637001F088FB82
:1062C000B8B14FF00008FFF71FFFC7F800800220A9
:1062D00001F000F93060FEF785FE637883B1144A5F
:1062E000696853685B1A034453600F4B83F801805D
:1062F00006E0FEF771FE0028E3D030BFBDE8F08174
:10630000012328602370BDE8F08100BF4886084063
:10631000880B0020E92A002000200D4004200D40B9
:1063200058200D40840B00204C5C00205C5C002059
:10633000105C00200023064A52F82310814206D048
:1063400011B942F8230070470133052BF3D1704790
:10635000880B0020054B00221A60054A136843F0A1
:1063600004031360034B01221A70704758200D403C
:1063700010ED00E0E92A002070B5FEF733FE104E64
:10638000104C0123B060104D9020A370FFF72EF841
:106390009020FFF71FF8286818B101F067FB002371
:1063A0002B60A37853B1FEF71DFE084AB1689368CD
:1063B0005B1A1844034B906000229A7070BD00BFB6
:1063C0005C5C00204C5C00209C0B0020105C0020DA
:1063D00030B5184B1A78431E3AB9174A1278122A68
:1063E00003D1164A12784B2A03D001F52011273128
:1063F00017E04A0802F12814B4F1281F04D014F859
:10640000015D03F8015FF7E701F520112731002353
:10641000934205DA11F801598418E5540133F7E77E
:1064200030BD074A914204D011F8012903F8012F29
:10643000F7E730BD2B0028002A002800290028009B
:1064400027002800164A70B515464FF0FF34002388
:10645000B2F9066056B1967A0C32002E08BF1C467F
:106460000133052BF4D12346013417D00C2404FB4F
:1064700003F6AA1990804FF0FF30A851C888002673
:10648000D080D672497A04FB0353090744BF012127
:10649000D1724FF6FF711981104670BD002070BD9A
:1064A000DC0B0020F0B5224D06462F468FB00024AD
:1064B000B5F90630A3B101A8B5F904100BF0D6FB6D
:1064C0009DF80D3003F03603022B09D130460DF153
:1064D0000E010BF033F818B90C2000FB047025E016
:1064E0000134052C05F10C05E2D1002004B221464F
:1064F00001A80BF0BBFB9DF80D5005F03603022BF5
:106500000AD130460DF10E010BF018F820B92046E3
:1065100001A9FFF797FF09E02046BDF90A102A46B6
:106520000BF0D8FBB0F5C86FE0DB00200FB0F0BD7A
:10653000DC0B00201F4B2DE9F04107464FF6FF749E
:1065400098461E888EB035B2B5F5C86F0EDA01A830
:1065500029460BF08BFB9DF80D2093071DD423B229
:10656000013307D1EB19B3F5C86F02DB4FF6FF70AB
:106570001CE034462846BDF90A100BF0ABFB23B2F1
:10658000DA1982420646DEDCB8F9002020469A423B
:1065900002BF084B3F191F8008E02846BDF90A10CA
:1065A0000BF098FB4FF6FF740646CCE700B20EB036
:1065B000BDE8F0812221002070B504468EB00E4661
:1065C00001A8214615460BF051FB9DF80D3003F054
:1065D0000602022A02D04FF0FF3041E003F0200211
:1065E00002F0FF01002AF6D176B99DF80D3001A81E
:1065F00043F0040321468DF80D300BF063FB194A7C
:106600000023137055B916E01B07EED5BDF9040041
:106610000A46FFF7D1FF0028E7DADCE7124A1A44FE
:10662000516829B1B1F90410A14204BF00211172CF
:106630000C333C2BF2D10D4B03F13C01B3F9042098
:106640000C33A24201BF4FF6FF7223F8082C002240
:1066500003F8022C08BF23F8062C8B42EED1002051
:106660000EB070BDEB2A0020A00B0020DC0B002038
:106670002DE9F04F95B0019088463AB14046FFF7BA
:1066800059FF411C044640F0D98004E0FFF70AFF9F
:106690000028F3D0D0E0794A13780292002B40F022
:1066A000CB809A46082600230593ADF81830DFF812
:1066B000D4B1734BBAF1000F03D1ABF800A083F84B
:1066C00000A01FFA8AF91D784FEAC907BFB25DB171
:1066D000BBF800502BB2072B16DD0823ADF81430A1
:1066E000684B083D1D806BE0BBF8004023B2072BD0
:1066F0000BDD0823083CA4B2ADF81630614BA2B202
:10670000072C1A805DD95BE00024BBF800303B44C5
:106710009BB219B232B291422ADA07A803930BF066
:10672000A5FA5748002202709DF82520039B02F02D
:106730000601022902F0200109D141B901220270AB
:10674000BDF82220134415449BB2ADB2E1E719B164
:1067500001339BB2013406E0520706D5BDF8222072
:1067600013449BB21444A4B2D3E7F31A9BB200E0E3
:106770000023A9B2A0B20A18083A1A4492B20FFA3A
:1067800082FEBEF1000FABF80020DFF8F4C00BDD95
:106790009CF800B0BBF1000F03D0C0F10805ADB20A
:1067A00002E0C1F10804A4B2ADF818309CF8003042
:1067B000ADF81450ADF8164013B9BEF1070F00DD67
:1067C0000022BDF91430002B25DCBDF91630002B5A
:1067D00021DD2D4BB9B2B3F9004008B2844214B2A6
:1067E000C8BF1980002C13DD07A8002132220AF04F
:1067F00021FE22238DF82530002507F108012944C8
:1068000007A809B201350BF05DFA2BB2A342F4DB05
:1068100048460BF07BFA0AF1010A0836BAF1C80FB4
:10682000B6B27FF440AF4046FFF784FE431C0446F7
:1068300004D1029A0123137000201BE000213222B0
:1068400007A80AF0F7FD24B2019927220DF12600CE
:106850000AF0DEFF022307A82146ADF822808DF85A
:1068600025300BF02FFA204607A9FFF7EBFD08B102
:106870000023036015B0BDE8F08F00BFEB2A0020B5
:10688000EA2A002020210020222100202DE9F843BF
:1068900081460D460024234E4FF00C0808FB046887
:1068A00098F808304BB988F808304846FFF7FAFDE9
:1068B0000746C8F80400B0B906E00134052CEAD157
:1068C0004FF0FF30BDE8F88305F00303012BF7D04C
:1068D000484608210122FFF7CBFEC8F80400002833
:1068E000EED0076007E00368013304D1B0F904007B
:1068F0000BF0C0F938600C2303FB0462117A634388
:10690000294315F00405117218BF5268204618BFBC
:106910001568F2185268F550937A01339372BDE806
:10692000F88300BFA00B002004280CD8064B0C22D3
:1069300002FB0030037A33B14168002202728B7A85
:10694000013B8B7242607047A00B0020042870B599
:1069500025D80C244443134B1E19357AFDB142B19E
:10696000022A02D17268126802E0012A17D11A596C
:106970001144002913DB0C2202FB00325268B2F9E9
:106980000640B1EB042F0ADC14688C4202DAAC0733
:1069900005D511600C2250431950084670BD4FF0C8
:1069A000FF3070BDA00B00200428F8B50646144641
:1069B00021D80C234343114DEA18177ADFB1F807A9
:1069C00019D55768EA583B68A018984288BF9C1AA6
:1069D000FB7ADB070DD4B7F904303232084602EBFC
:1069E000032221460BF00BFA0C2070432B58234452
:1069F0002B502046F8BD4FF0FF30F8BDA00B002013
:106A00002DE9F04F9FB0042800AF8046B9601446CE
:106A100002D94FF0FF30BFE0614D0C2303FB005360
:106A20001A7A002AF5D09207F3D55E680C2303FB8F
:106A300008F305EB0309EB58B6F9061003F132022F
:106A40002244B2EB012F40F29080B6F904A007F186
:106A5000100051460BF00AF907F11A000121FFF767
:106A600015FF061ED5DBB7F9161007F11A0049000D
:106A700009B20122FFF7FCFD8346002852D04FF0F7
:106A80000009BA8AC7F80CD0002A08BF4FF48072F8
:106A9000D11D21F00701ADEB010D30466946FFF72E
:106AA00083FF031E0BDA00210A46BBF90400FFF73F
:106AB00083FD3046FFF738FFD7F80CD0A9E70BD09D
:106AC000BBF90420194609EB0222684632327B608A
:106AD0000BF02EF97B689944D7F80CD0002BD0D15D
:106AE0002F4A02F13C00117A59B15168B1F90410F2
:106AF000514501BFC2F804B09BF80A1001318BF870
:106B00000A100C328242EED1012150460022FFF7DA
:106B100053FD0028BBF9041008DA084600210A4694
:106B2000FFF74AFD3046FFF7FFFE72E707F144002A
:106B30000BF09CF8BA8A07F14400A7F848207A8A3B
:106B4000BBF90410A7F846200BF0BCF89BF80B200B
:106B5000CBF8009022F001028BF80B203046FFF7B3
:106B6000E3FE0C2303FB08535FE732689342FFF612
:106B700050AFB6F90420B86803EB02223232214646
:106B80000BF0D6F82046D9F800302344C9F800307D
:106B900032689342C8BF33607C37BD46BDE8F08F92
:106BA000A00B00200FB407B504AA52F8041B044838
:106BB000019200F039F803B05DF804EB04B07047BF
:106BC000AC0400200EB43FB5094B07AA52F8041BD1
:106BD0000190049304A801AB0392059300F024F8FC
:106BE000019B00221A7006B05DF804EB03B07047F9
:106BF000331E270070B505460C46102C07D92B68AC
:106C0000686808491022984750B9103CF5E734B13C
:106C10002B6868682246BDE8704002491847204644
:106C200070BD00BF003427002DE9F04F80468FB0C3
:106C3000069107920026069B1B78002B00F05F83CD
:106C4000069B1C4613F8012B1AB9069B9C4203D1E4
:106C50000FE0252AF5D1F8E7069BD8F80400E51ADD
:106C60000699D8F800302A469847002840F02A8331
:106C70002E442378002B00F042836378611C002BA4
:106C800000F03D8300240A4611F8013B2B2B11D064
:106C900006D8202B11D0232B12D144F00804F2E7A0
:106CA0002D2B04D0302B0BD144F01004EBE744F033
:106CB0000104E8E744F00604E5E744F00204E2E7F3
:106CC000A3F1310108290DD8134600251A4613F8FF
:106CD000011BA1F13000092811D80A2202FB051579
:106CE000303DF3E72A2B09D1079B01321D68191D9E
:106CF000002D0791B8BF44F0010400E0002513788F
:106D00002E2B1CD15178531CA1F1300009280ED82C
:106D1000194600270A780B46A2F13000092801F134
:106D200001010FD80A2303FB0727303FF2E72A2986
:106D300006D1931C079A111D0791176802E01346AC
:106D40004FF0FF371A786C2A09D15A786C2A02D191
:106D500044F080040AE0013344F060040BE0682A48
:106D600009D15A78682A03D144F02004023302E0A2
:106D7000013344F040041A78642A3CD01FD8462AD4
:106D800048D00DD8252A5AD003D8002A00F0B7825F
:106D900057E0412A4AD0452A53D144F4424450E0B6
:106DA000582A31D004D8472A4BD144F4A13448E0C2
:106DB000612A38D0632A44D144F4A06441E06E2AA9
:106DC0003AD007D8662A22D027D3672A28D0692A42
:106DD00011D036E0732A2CD006D86F2A11D0702A31
:106DE0002FD144F440742CE0752A07D0782A28D19A
:106DF00044F4C85425E044F4245422E044F41064DC
:106E00001FE044F488541CE044F4B24419E044F414
:106E1000007416E044F4844413E044F4024410E0A7
:106E200044F481340DE044F4C1340AE044F4E13424
:106E300007E044F4806404E044F4E06401E044F4D6
:106E4000C0640133069304F4E063B3F5806F00F08F
:106E5000AA8116D8B3F5807F2BD0B3F5407F7FF49D
:106E6000EAAE079BA04914F4804F03F104029F4847
:106E700018BF08460DF1330107920F461A68002328
:106E8000C5E1B3F5C06F08D0B3F5E06F00F0318213
:106E9000B3F5A06F7FF4CFAE00E2D8F80030D8F899
:106EA0000400934901229847002840F00B820136E4
:106EB000C1E6002FACBF24F01004012714F40053E6
:106EC000039304F0E00337D0402B17D008D8DBB190
:106ED000202B2AD1079B1A1D079293F9002017E057
:106EE000602B11D0802B20D1079B073323F00703A1
:106EF00003F108020792D3E900230AE0079B1A1D59
:106F00000792B3F9002003E0079B1A1D07921A6845
:106F1000D317002A73F1000109DA524263EB4303ED
:106F2000CDE900234FF0010933E000220023CDE931
:106F300000234FF000092CE0402B16D007D8CBB12E
:106F4000202B20D1079B1A1D07921A78EEE7602BA1
:106F500010D0802B17D1079B073323F0070303F1D1
:106F600008020792D3E90023E1E7079B1A1D079265
:106F70001A88DBE7079B00211A1D07921B68184639
:106F8000CDE90001D5E700220023CDE900234FF031
:106F9000000904F4C053B3F5805F0CD0B3F5C05FB3
:106FA00033D0B3F5006F4FD1DDE900230DF1360A80
:106FB000CDE9042304E0DDE900230DF1360A15E0F4
:106FC000DDE9042313433AD0DDE904010A2200235A
:106FD00009F0B6FBDDE9040130320AF8012D002387
:106FE0000A2209F0ADFBCDE90401E9E752EA030109
:106FF00025D002F0070130310AF8011DD10841EA1D
:107000004371D8080A460346F0E7384B14F4804F22
:107010000DF1360A344908BF1946DDE9002352EA6A
:1070200003000CD002F00F00085C4FEA131E0AF8B0
:10703000010D100940EA037002467346EFE70DF1B7
:10704000360BCAEB0B0B03E00DF1360A4FF0000BC9
:1070500041F6080241F208035F4502EA04028CBFD0
:10706000CBEB070700279A4202D1002F08BF012768
:1070700041F608018A4207EB0B030DD1DDE900015F
:1070800050EA010208D01B4914F4804F1A4A4FF00D
:10709000020C18BF0A4602E04FF0000C624603994A
:1070A000A1B1B9F1000F0AD104F0060102290AD0FA
:1070B0000629124904BF4FF0010C0A4606E04FF0C2
:1070C000010C0F4A02E00F4A4FF0010C63449D424D
:1070D0008CBFED1A002514F0010922D1E30613D567
:1070E0002F444D461DE000BFCD332700DE3327007F
:1070F000FE332700F2332700EF332700F533270054
:107100006F3527004A32270040462946CDF80CC08B
:107110000092FFF76FFD009ADDF80CC0002840F0E8
:10712000D180BCF1000F0DD01146D8F80030624676
:10713000D8F80400CDF800C09847DDF800C000285A
:1071400040F0C0803C465E44102CD8F800300DD989
:10715000D8F804006C491022CDF800C098470028E8
:1071600040F0B080103CDDF800C0EDE75CB1D8F82D
:10717000040065492246CDF800C09847DDF800C0FC
:10718000002840F09F80D8F80030D8F8040051461D
:107190005A4666449847002840F094803E44B9F12E
:1071A000000F79D073E0079BD3F800A01A1D079257
:1071B000BAF1000F09D05346994699F800200133DF
:1071C000002AF9D1CAEB090903E0DFF840A14FF02A
:1071D0000609002F02DBB94528BFB9464D458CBFD3
:1071E000C9EB0505002514F0010405D140462946E8
:1071F000FFF700FD002865D1D8F80030D8F804006A
:1072000051464A46984700285CD14E443EE052EA37
:10721000030E0ED002F00F0E10F80EE04FEA131C12
:1072200001F801ED4FEA121E4EEA037E72466346F4
:10723000EDE70B467F1A01BF3022012701F1FF3332
:1072400001F8012C03377822BD4203F8012C4FF0DE
:10725000300203F8022C88BFED1B4FF0230298BFC9
:10726000002514F00104A3F1030903F8032C04D151
:1072700040462946FFF7BEFC20BBD8F80030D8F8BE
:10728000040049463A469847E0B93E4424B1404696
:107290002946FFF7AFFCA8B92E44CCE4079B012D8B
:1072A00003F104021B688CBF05F1FF35002514F0C3
:1072B000010407928DF8203008D140462946FFF797
:1072C00099FC10B14FF0FF301AE02E44D8F800308E
:1072D000D8F8040008A9012298470028F2D16F1CB1
:1072E0002CB140462946FFF785FC0028EAD13E44F0
:1072F000A1E4079B1A1D1B6807921E609BE43046A1
:107300000FB0BDE8F08F00BFBD332700F733270073
:10731000F8B50388064615462BB14A2B15D0002335
:1073200003800320F8BD17480AF0F5FD04462CB190
:10733000201DA1680AF092FD2468F8E7124B012293
:107340001A704A2333800120F8BD8829FBD10D48EB
:107350000AF0E1FD0446002CF3D0231D9D420ED11E
:10736000084821460AF0E1FD084B62691F681A606F
:10737000A2691D460AB1E06990472F60E1E72468E1
:10738000E9E700BF180C0020EC2A0020300C002098
:1073900010B5064B002406481C700AF0B9FD2146C2
:1073A000BDE81040034800F049BB00BFEC2A0020B4
:1073B000180C0020B404002070B50446E3610B4BA8
:1073C000049D1B786561A26143B1094D094B2E688C
:1073D000201D2B600AF042FD2E6000E0A1602146D6
:1073E000BDE8704004480AF0B4BD00BFEC2A00209C
:1073F000300C0020B4040020180C002013B5034CFE
:1074000024680094FFF7D8FF02B010BD300C0020B4
:1074100070B5094B05461B783BB1084C084B2668F4
:10742000043023600AF023FD26602946BDE8704041
:1074300004480AF08EBD00BFEC2A0020300C00206A
:10744000B4040020180C002070B5094B05461B78C9
:107450003BB1084C084B2668043023600AF010FD4D
:1074600026602946BDE8704004480AF072BD00BF9E
:10747000EC2A0020300C0020B4040020180C00205E
:1074800010B5084B04461B781BB1043000F0DEF841
:1074900001E0C36003612146BDE8104002480AF0E4
:1074A00044BD00BFEC2A0020180C00200023064930
:1074B000002241F82320054941F8232004495A5469
:1074C00001330E2BF3D170475C5C0020105C002070
:1074D0004C5C002038B50A4B04461B5C094D63B177
:1074E000FDF780FD084A55F8243052F8241042F880
:1074F00024005B1A034445F8243055F8240038BDB5
:107500004C5C0020105C00205C5C0020014B43F8C8
:1075100020107047105C002010B50E4C236813B982
:107520000D4A136010BDFDF707FD216891E80C00BE
:107530001A44131A8A6842B192E812002144091AC7
:107540008B4228BF0B469268F5E71844024B18603F
:1075500010BD00BF1C0C0020200C0020014800F0D2
:1075600085BA00BFC4040020F8B5038805462BB1D6
:10757000582B09D0002303800320F8BD1E4A136056
:1075800058232B800120F8BD872920D08229F7D1EC
:10759000194F00263C68002CF2D020460AF0AAFCC5
:1075A00090B1E0688821224600F01CFA50B9E060F2
:1075B000A3680EB1B36000E03B600023A360FFF757
:1075C000ABFFE5E7FFF7CAFF2646A468E3E70A49F1
:1075D0000B680BB90B60D3E7D868904201D19B6868
:1075E000F7E70B6099680029CAD0C86890420ABFC3
:1075F00089680B469960F5E71C0C002010B504461D
:10760000FFF7ACFFE3680B4A4BB113683BB1A342F1
:1076100003D1094A1268DA6007E09B68F6E7064B77
:107620001B68E36013681460A360BDE81040FFF7B7
:1076300073BF00BF1C0C0020300C0020024B1868E8
:10764000003018BF012070471C0C002010B50B4AF9
:1076500004461368984206D18368136008E09A686C
:10766000A24203D01346002BF9D103E0A2689A602E
:10767000FFF752FF0023A360E36010BD1C0C002045
:10768000384B30B500241C60374BB7B01C60374B0B
:1076900001251C60364B29461C60364B2A461C606F
:1076A000354B36481C60364B1C60364B1C60364BE5
:1076B0001C60364B1C60364B1C60364B1C60364BD6
:1076C0001C60364B1C60364B1C60364B1C60364BC6
:1076D0001C60364B1C6002238DE81800039523467E
:1076E0000294FFF75FFA324A21463248FFF75AFA0E
:1076F0001E213148FFF756FA29463048FFF7C6F8F1
:107700002F4D28602F480AF06AFA2B68A34201DA4D
:107710002D4815E02D480AF062FA2146002228681B
:10772000FFF714F9286804A9C822FFF73DF90028DB
:1077300004F1C80411DC224B1868FFF7F5F824485F
:107740000AF04DFA23480AF04AFA06211B48FFF7CF
:107750009DF8214B186037B030BD04A91F48FFF7D2
:1077600021FADAE7B05B0020F45B0020E05B002048
:107770009C5B0020F05B0020AC5B00202B342700DA
:10778000F85B0020BC5B0020B85B00200C5C002094
:10779000CC5B0020A85B0020A05B0020D45B002015
:1077A000D85B0020FC5B0020B45B0020005C002064
:1077B00000CA9A3BB4342700E9342700F534270087
:1077C000240C002001352700133527002C35270015
:1077D00071352700B7352700945C0020B4352700A9
:1077E00008B503480621FFF751F8024B186008BDA1
:1077F000F5342700945C002038B5836804460D46B4
:107800009BB10A4804600220A07304F10C00984761
:107810000238012801D9832D05D120462146BDE833
:10782000384000F005B80123A37338BD300C0020A8
:107830002DE9F8431C4A0446156889462B469046B4
:107840001A4E3768A34204D00BB11B68FAE7BDE8B3
:10785000F88334B3A37BABB10023A37345B1AC422F
:1078600004D02846872122460AF01BFB2D68F5E745
:10787000A3683BB14C4505D0346004F10C00832172
:107880002A469847D8F800309C4203D12268064B1C
:1078900005E0134623B11A68A242FAD122681A60A1
:1078A0003760BDE8F88300BF340C0020300C0020A6
:1078B00010B5094B00221A70084B1C685CB1E37BC1
:1078C0003BB101230022A373E27320468221FFF71C
:1078D00093FF2468F2E710BDF02A0020340C00204A
:1078E000024B1878421C1A70704700BFF12A002022
:1078F000064B8A221A70064A00231370054A137039
:10790000054A1360054A1360704700BFF12A002042
:10791000ED2A0020EF2A0020340C0020300C00203B
:107920002DE9F041214E33780BB1FFF7C1FF204D17
:107930002C78002C34D0DFF88CE00C229EF800303C
:107940001C495A4388181C4F895CDFF87C804268C8
:10795000DFF878C08068013303F01F03013C397001
:10796000C8F80020CCF800008EF800302C7088B9E0
:10797000124C134B1B68236023688BB133780BB117
:10798000FFF796FF20683978D8F800200AF089FAC6
:107990002368EFE7812904BF012383730AF081FA8A
:1079A000337828781844BDE8F08100BFF02A002021
:1079B000EF2A00203C0C0020F22A0020380C002086
:1079C000340C0020ED2A0020280C00202C0C002074
:1079D000024A034B10781B7818447047EF2A0020A6
:1079E000F02A0020F0B50C4E3478202C11D00B4B2F
:1079F0000B4D1B780B4F234403F01F032B700C25FA
:107A00006B430134FD18A860F9546A60347000209B
:107A1000F0BD0120F0BD00BFEF2A0020ED2A0020BC
:107A2000EE2A00203C0C002038B5034C25680AF0F3
:107A300038FA256038BD00BF300C002010B50A466A
:107A400009490C68234683420DD00BB11B68FAE745
:107A500048B1046008600121817383818121BDE800
:107A60001040FFF7E1BF10BD340C002038B1837B1C
:107A7000013B012B9FBF024A0123C3731370704760
:107A8000F02A002006480023064A074952F823201E
:107A900051F8231001330E2B01FB1200F4D1704773
:107AA00000CA9A3B9C2F2700105C002010B5084CA0
:107AB000206858B100232360816843689847236891
:107AC00023B1BDE810401868FDF7A2BA10BD00BF91
:107AD000BC0D002010B50446FDF738FA94E80C0000
:107AE0001344C01A024B98428CBF0020012010BDE5
:107AF000FEFFFF7F38B505880446672D09D0792D34
:107B00002ED0002D32D1FFF7EBFE1B4B18701B4B14
:107B10001D601B480AF0B0FA431C01D167231DE029
:107B20000A28164B07D01A687E2AF2DC511C19600D
:107B3000144B9854EDE7196800254A1C1A60114A45
:107B40000D4B555428461978FFF74CFF0E4B8521F5
:107B500018682A46FFF746FF20B97923238009E0F9
:107B6000852907D1054B00221A60D2E70023038044
:107B7000032038BD012038BD1B690020C80D00203E
:107B8000C00D0020742B0020300C00200D2810B5F3
:107B9000014615D00B4C23782BB90B480AF058FA44
:107BA00048B9012306E00A2805D107480AF050FA2F
:107BB00008B1002323700548FFF758FF012010BDCE
:107BC000002010BD732B0020C00D0020D404002025
:107BD00008B50548054980220AF033FABDE8084097
:107BE00003480021FFF72ABFC00D0020F32A002020
:107BF000D4040020054A136843F004031360044BC7
:107C00001B68906943EA002080B2704700700D4005
:107C100014700D40174A136823F00C031360164BC1
:107C200001221A601A68012AFCD1144B08221A603A
:107C3000E322C3F8142203F505731946104B1B68A1
:107C4000DB07FBD5102000230E4A0138126802F032
:107C5000010243EA02034FEA43039BB2F4D1002B33
:107C6000F0D0094A180A03F0FE0310601360EF23F6
:107C70000B60704700700D40A8200D40248608401E
:107C8000648608409C86084014700D4070B50588D5
:107C90000446772D30D07E2D3FD0002D4DD1FFF7FB
:107CA0001FFE294B1870294B1D601D462B68284A62
:107CB000264E52F823204AB126480021C154936829
:107CC00080209847336801333360EFE7224A13700E
:107CD000772320E01F4AD256002A12DB1B4A136882
:107CE00001331360194B1C4A1B6812789342F1DB75
:107CF0001A4B1B68002BEBD0184A00231360134A61
:107D0000EFE7114A00201178114A52F82320FFF7BB
:107D100069FE30B97E23238013E00B4B1B788B4226
:107D20000FD10A4B0B491A688B5C03F07F038B540D
:107D30000A4A136801331360D0E70023038003204D
:107D400070BD012070BD00BF1C690020CC0D00205B
:107D50008C04002017690020F42B0020D00D002097
:107D6000094B1A780023934204DA084951F823108A
:107D7000814207D106490748CA5C62F07F02CA54B3
:107D8000FFF774BE0133EEE7F42B00208C040020D3
:107D900017690020E40400200C4AB82303FB0022EA
:107DA000002330B553821A46094CE1188D782DB165
:107DB0001C5D844202BF00248C70013240F24C51A1
:107DC00071338B42F0D1104630BD00BFF00D002062
:107DD000002C002008B5064803F01CF9054B0122D1
:107DE0001A70FD2100225A709970DA7008BD00BF28
:107DF0003D802600F62B002010B513780446087A43
:107E000083F0020398421DD1487A5378984219D1E1
:107E1000887A9378984215D1C87AD378984211D14C
:107E2000087B137998420DD1487B5379984209D148
:107E3000887B9379984205D1C87BD379984201D148
:107E400003201BE00B890F4A6BB94B89B3F57F4FB9
:107E500009D18B89FE2B06D11368C989022023F82A
:107E6000021B13600AE0136851F8080F083343F847
:107E7000080C486843F8040C13600120A040C0B20D
:107E800010BD00BFDC0D002010B50F4C0220A17901
:107E900006F0CCFFA379112B01D0062B05D1238D41
:107EA000618D9942A8BF194608E03A2B05BF94F8A6
:107EB000281094F82930002143EA01210120BDE86F
:107EC000104006F0B3BF00BFAC5C002010B5084CFA
:107ED00001462378012B08D1A01C082209F09EF945
:107EE00000280CBF2046002010BD002010BD00BFA0
:107EF000F62B002008B50146102006F0A5FF044B24
:107F000004489B6800219847BDE80840FDF730BA57
:107F100028302700197F260010B508460C46114668
:107F200002F00AFC044B1B6813B19B68204698477B
:107F3000024B1C6010BD00BFEC0D0020E80D0020BE
:107F4000F8B505460023114A712404FB0324A278E6
:107F5000B2B9617006F06EFE26460D4F0D4A3B78B1
:107F600006F8035BC01A1568A0701D4406F062FE97
:107F70003A782946821A304609F082F9A078F8BD8D
:107F800001330C2BDFD14FF0FF30F8BD002C002067
:107F90004C310020E00D00202DE9F8434FEA121982
:107FA000B9F10F0F80461D4602F00F040BD00F2CC5
:107FB00005D1B9F1000F0AD11024274619E0B9F113
:107FC000000F09D004E00F2C4FF0100900D110244D
:107FD00040464A4609F054F909EB04020F2A2746A5
:107FE00006DC08EB09000021C2F1100209F022FAB8
:107FF000BCB1114DC7F110002E68404431462246F5
:1080000009F03EF9022C08D1B9F10A0F9FBFFF23F6
:1080100088F80B30FE2388F80C3034442C60BDE81F
:10802000F883B9F1000F05D040462946BDE8F84372
:108030000AF086B8BDE8F883DC0D00202DE9F04F8A
:108040008E4E8F4D002387B033702B70044606F0A0
:1080500093FE06F027FE8B4A8B4B126818608DE862
:10806000600099460AB1FFF70FFF04A80CB98749D1
:1080700000E021460AF0BBFD854B864E1A8803932B
:108080003E2A40F20182D9F800B0834D0BF1020381
:108090002B60009B06F1180093F80080002308F184
:1080A00002080BF80830FFF711FF20B906F10800AD
:1080B000FFF70CFF20B10BF103032B60802400E0DD
:1080C000044672783178130943EA0113DBB2980849
:1080D00040EA8313DBB212F00F0FDEB26E4F01F0F5
:1080E0000F010CD16B48408848B911B912F0F00F5C
:1080F0001FD03B6803F8016B3B6070261AE079B92A
:1081000012F0F00F0CD1296823F03F031A43634BA0
:108110000A701B88033121F8023C6826296009E0B7
:108120005C4A2B681068186003F8046B2B606026AB
:1081300000E07826574B9A790293112A08BF46F03F
:10814000040673075EBF3B6803F8012B3B60029B8C
:10815000DB79402B06D0FF2B07D0012B08D146F04E
:10816000010609E046F0020606E046F0030603E0D9
:108170003A6802F8013B3A60029A464B128982B98A
:108180005A8972B99A8962B9DA8952B91A8A42B996
:108190005A8A32B99A8A22B9DB8A13B944F040006C
:1081A00013E03F48FFF792FE3E4B186078B14278EB
:1081B0001BF80830042043EA02130BF80830384952
:1081C000394AFFF719FE60F03F00C4B227E0029B76
:1081D00030491A8948F2FE039A420CD14B8B53B9AD
:1081E0008B8B43B9CB8B33B9042008312E4AFFF770
:1081F00003FE2043E9E73A68DFF8A4C096460CF195
:10820000100A634603CB5345CEF80000CEF80410A5
:108210009C460EF1080EF4D11F4B10321A60DFF8A5
:1082200074A09AF81830FF2B40F08A809AF8192031
:1082300044F0080E022A5FFA8EFE37D1BAF81A30DF
:10824000A3BBBAF81C308BBBBAF81E3073BBBAF8AC
:1082500020305BBBBAF8223043BBBAF824302BBBCA
:108260009AF8263013BB3B689AF8272044F00B009D
:1082700003F8012BC4B23B609FE000BFF52B002048
:108280004C310020EC0D0020E00D0020533727007A
:10829000985C0020AC5C0020DC0D0020AE5C00206F
:1082A000B45C0020D40D0020A45C00209B4B588BB4
:1082B000194688BB988B78BBD88BA8B9188C98B90D
:1082C000588C88B993F8240070B9296844F00A00E2
:1082D000C4B2084600F8012B33F8252F043121F8E9
:1082E000032C9B78837015E0C98B8C4BA1B9198C3A
:1082F00091B993F8221079B9296844F00900C4B201
:10830000084600F8012B53F8232F063141F8052CBD
:108310001B790371296050E0814ADFF818C21468A4
:108320000CF110082746634603CB4345386079605B
:108330009C4607F10807F6D11034146074463CE0FF
:108340000AF11800FFF7C2FD764B186050B1437870
:108350001BF8081044F004040B43E4B20BF8083097
:1083600000200EE048F2FE03BAF818209A4210D11D
:10837000BAF81A306BB9BAF81C3053B9BAF81E30D3
:108380003BB90AF1180104AAFFF736FD2043C4B235
:1083900013E0634ADFF89CC117680CF11008BE4671
:1083A000634603CB4345CEF80000CEF804109C464C
:1083B0000EF1080EF4D110371760019A574928239F
:1083C00013708B79112B53D14FF2B0030A8D52BA2F
:1083D00092B222F00F0080B2984217D14B8D5BBA57
:1083E00023F00F031B041B0C83420FD12868F323D7
:1083F00003704B8D02301A0A0B8D1B0A02EB03131C
:1084000003F5AA6300F8013C286028E0029B434979
:108410005B8D5BBA03F47F43B3F5704F09D12B68D2
:10842000F1221A700A8DA3F801204A8D120ADA701F
:108430000CE002F47F42B2F5704F2B6808D1F222B3
:108440001A700A8D120A5A704A8D5A80043305E058
:10845000F0221A70886A053343F8040C2B60324B03
:108460001A882B6823F8022B019A2B603023137093
:10847000009BD9F800201B78D65413445C70284B1D
:108480001B689B1A009A1AE0D9F800204123137048
:10849000009B06F128051C78631CDBB213443246AE
:1084A00003CAAA4218605960164603F10803F6D1C0
:1084B000009B29341C70019B019A1B7828331020E3
:1084C00013700DEB000106F0BFFC184BDFF868805D
:1084D0001B68984730EA200028BF1520039BC0F195
:1084E0007D051C88019BDFF854A01E78009BA21B11
:1084F00093F800B00E4FCBEB05039A4240F3CD80CA
:10850000C0F17803019306F0C9FC019B94FBF3F4DE
:108510000134A04214DC0020D1E000BFAC5C00209C
:10852000DC0D0020D40D0020DA5C0020FC2F270099
:108530004C310020C45C0020985C0020F52B00200A
:10854000D9F800B05F4B3C7800221A6059462246A9
:108550000BF10400039308F009FFB8F800205A4912
:108560006FEA82426FEA9242C2F307228BF8002040
:10857000B8F8002004348BF801200A88E4B2501CBB
:108580000880110ADFF850C18BF802102D1B9AF8F1
:10859000001025F007054D4E61448BF803200BEBCE
:1085A00004002A46CDF808C03C70356008F068FE2B
:1085B000281980B206F034FB06F076FC039B0446D3
:1085C0001D460028A7D00DF1100B5846FFF792FC6E
:1085D000204606F0A1FC204606F088FC2B68012B03
:1085E00099D0043B012B96D99AF800A033685344E4
:1085F0001FFA83FA05233B70354B1A68B8F8003030
:108600006FEAC3436FEAD343C3F307231370B8F889
:1086100000305370019B23F0070737602D4B1B88F8
:108620009A454BD2D9F800204FEADA01117132682D
:10863000CAEB03039342B8BF244AD9F80000B8BF7D
:108640001360009B376893F80080029B3A4603EB67
:108650000A01404408F014FE08EB070080B206F05F
:10866000DFFA06F021FC074600283FF454AF5846D5
:10867000FFF740FC384606F04FFC384606F036FC63
:10868000124B1B689A442B681FFA8AFA012B3FF49D
:1086900042AF043B012BC1D83DE7D9F800000E4999
:1086A0005844314408F0ECFDB8F800005844801BF1
:1086B00080B206F0B5FA04A8FFF71CFC012007B051
:1086C000BDE8F08FE80D002024210020E40D0020FB
:1086D000E00D0020985C0020AC5C00202DE9F04704
:1086E000074688461646002A47D0434C0025A14637
:1086F000238ABB4215D1638A9BB10F2006F0B0FBE1
:10870000014620460AF078FA58B1ECB220463146CC
:10871000FFF716FC002827DA0027DFF8E0A0B846AC
:108720000DE0B834002D5DD10125E1E7A8450BD15E
:108730000AF1B80AB8F1000F10D14FF001083AF869
:10874000063C002BF4D0F1E7504609F0D3FB00289B
:10875000EED04046FFF720FB0744E9E7002F41DD5C
:1087600020463146FFF7ECFB00283BDDB82303FB36
:108770000595AB8A1844A8823AE0204DFF2435F8CD
:10878000063C4FFA84F97BB3284609F0B3FB10B1DD
:108790003046FFF701FBB9F1FF3F03D135F8063C46
:1087A00003B9F4B2012E05F1B80501D00126E6E7C0
:1087B00065B26B1C16D0B8235D43DFF83C900F20E8
:1087C00009EB0506A6F81280378206F049FB014640
:1087D00030460AF00CFA05F118004844402109F02F
:1087E00077FB05E0FF2403E0B9F1FF3FDAD1D8E7DA
:1087F00060B2BDE8F08700BFF00D0020080E002039
:108800002DE9F04FA44CDFF8C8A287B000268AF803
:108810000060267006F046FAA04DA04628600420AD
:1088200006F00CFB9E4B2A6800B21860577813784C
:1088300047EA032703F0F803C02B02D0E02B19D03E
:108840003AE090782378D278C7F30A07043342EAF3
:108850000020394632462370FFF740FFB0F1FF3F5A
:10886000814600F081828F4CB82303FB004401262F
:10887000223424E01379D17890782278C7F30A075C
:108880000532227041EA00201A4639460093FFF76C
:1088900025FFB0F1FF3F814600F066828149B82292
:1088A00002FB0012958A4FF0010BBD4234BF002538
:1088B00001253446009BE0E1B1464F467A4C2968D9
:1088C00098F800504A5D02F0E003602B40F0B78159
:1088D000A81C084429444D78744B5FFA85FC1CF0B1
:1088E000800F18601CBF0130186012F0100F02F0EA
:1088F000080130D1D1B9196831F8010FA4F801008D
:108900008978E170196811F8040B1960830803F085
:108910000F0141F060012170617803F0300343EAF8
:10892000801301F00F010B43637030E01868602181
:10893000864621701EF8011B03304FEA910B0BF0A5
:10894000300B01F00F014BEA01016170BEF800101D
:10895000186061801BE001F0FF0E99B91968087872
:10896000C0F3830040F06000207011F801BBA4F850
:1089700002E04FEA9B0000F0300040EA8B1060708C
:10898000196004E06023237000236370638002F0A9
:10899000040303F0FF0100912BB944490B6813F85D
:1089A000010BA0710B6012F003020BBF3F4A404B5A
:1089B00013689B5C09BF13F8011BE3711360E1713D
:1089C0006B06C5F3011233D51CF0800F1DBF334970
:1089D00098F80030096800211EBF5B1899780909D2
:1089E00022B904F1080B9AB9114614E0314B1878FA
:1089F000012805D1587888420CBF1946002100E0B3
:108A000000212D4B19600029EBD1B3460D4633E10F
:108A1000294B19680231294B0F209A5C0391CDF83C
:108A200008C0019206F01CFA0399034658460BE071
:108A3000234B0F209A5CCDF808C0019206F010FA83
:108A40002049034604F10800019AFFF7A5FA05F052
:108A50000800DDF808C005F0030200F0FF0105F092
:108A60000403002836D0002B6CD1174B1B88ADF8BF
:108A70001430531E012B9FBF0C490B6813F8010BD8
:108A80000B60124B98BF8DF815009A5C04F118002A
:108A900005A9002354E000BF4C310020E00D002068
:108AA000D80D0020F00D0020AC5C0020DC0D002073
:108AB00013362700F62B0020D40D00202C3627007B
:108AC000173627001B362700113627001D362700D2
:108AD000F52B002053B31CF0800F1DBFA44998F85C
:108AE000003009680B4618BF5B18A24918BF9D7873
:108AF000087818BF05F00F03012805D14D789D4275
:108B00000CBF0D46002500E000259B4B1D60002D8D
:108B100000F0AE80994B10209A5C019206F0A0F90B
:108B2000A91C0346019A04F1180009E0944B102097
:108B30009D5C06F095F92A469249034604F1180017
:108B4000FFF72AFA9AF800008F4900F128038AF803
:108B50000030009B002B53D00B681A7802F0F8020B
:108B6000F02A4DD11122A2711A7802F0040502F008
:108B7000F302F03AEDB2032A7CD8DFE802F0020AF1
:108B80001622B3F801200533228533F8022C6285C2
:108B90002CE0B3F801202285DA78A2F5805292B257
:108BA000120242F0F002628509E05A78A2F5805282
:108BB00092B2120242F0F00222855A886285043392
:108BC00014E05A7802331209A2F5756292B21202C9
:108BD00042F0F002228513F8012C02F00F02A2F5F8
:108BE000756292B2120242F0F00262850B6025B902
:108BF0000B6833F8022BE2850B6030308AF80000F6
:108C00005B4A0B6812689B1A88F8003067B906F057
:108C100011F85E4B1B78C01A9AF8003018442838B7
:108C200003122371607104E0A7F128031A12227164
:108C30006371A379112B1DD1A388A3851AE0412A62
:108C400040F092806A1CD2B28B18224603F12801B0
:108C500053F8040B8B4242F8040BF9D105F12903B8
:108C600088F800309AF8003028338AF8003001E0A4
:108C7000B34601E0B34600252B46009305F0DAFF2A
:108C800098F8002082426FD805F0D4FF3F4A40494F
:108C90001278009BC2EB0008C1F8008040F214512A
:108CA0009AF800A0DB009BB2534443448B425BD84C
:108CB0003CB12F4B04EB0A0019681144424608F0FE
:108CC000DFFA002F39D056B132484FFA89F3B82471
:108CD00004FB030308EB0A0189B29982198495B356
:108CE000B8224FFA89F402FB04F32A492A48CA1829
:108CF000114697822231128C08F0C2FA274D05F2F4
:108D00004C5615F8012C5AB115F8033CA34207D173
:108D100015F8020C204B294603EBC00008F0B0FA0E
:108D20007135B542EDD15FFA89F0FFF735F8BBF147
:108D3000000F0BD01A4B1F800CE0BBF1000F05D0C9
:108D4000002DF7D110E0BBF1000F0DD1144BD04432
:108D5000A3F80080134C236823B1FFF795F823682C
:108D60005B68984702F07CF907B0BDE8F08F00BF60
:108D7000E00D0020F62B0020D40D00202C3627001B
:108D8000173627001B362700DC0D00204C31002051
:108D9000E40D0020F00D0020AC5C0020032C00202E
:108DA000985C0020EC0D002037B5124B124D1C785A
:108DB0002B796A79C4EB032313449BB2ADF80630D8
:108DC000BDF8063005F108011844202280B209F0F0
:108DD00063F9BDF8062004F12801294492B209F094
:108DE0005BF910B140BA80B201E04FF6FF7003B0FA
:108DF00030BD00BF4D310020AC5C002028492DE97A
:108E0000F04188460D78274E2835AB195C78264806
:108E1000E400073402239C423DDBE9187218715CC0
:108E2000204F012932D002D3632902D013E001334D
:108E30002FE0037018461C4C03F09CF9D8B998F841
:108E400000302278283313443B445B7813440233C8
:108E50002370BDE8F08101F0C001802905D0C02950
:108E600005D0402912D1037005E0037006E03A7E78
:108E70000370FF2A02D10120BDE8F0810420022105
:108E8000EA1801F0ABFF0220BDE8F081527802320F
:108E90001344DBB2BFE703700020BDE8F08100BFE0
:108EA0004D310020AC5C002053310020F0B5C57876
:108EB000124A0D44EDB2D57083780F0A3B44DBB201
:108EC00093704478BB4254700678167005D2601CCB
:108ED000C0B2507008B901361670C9B28D420CDAB2
:108EE0000133DBB2054993703BB94B780133DBB2F8
:108EF0004B7013B90B7801330B70F0BDA05C0020F0
:108F000010B5084C014620681430FFF7CFFF064A21
:108F1000236811781975517859759178D2789975B7
:108F2000DA7510BDD0610020A05C002008B501F00A
:108F3000CFFA02F045F809F03AF90023114900226E
:108F400021F813200133DBB2082BF7D10E4930236F
:108F500003FB02110132D2B200230A2A81F8253024
:108F6000F4D10A4A4FF480611180094A002102EBD2
:108F700043120133DBB20A2B1182F6D1054A13707A
:108F800008BD00BFBC630020D46100202821002060
:108F9000D8630020543100202DE9F041124F3D7874
:108FA00005B3DFF84C8005F12703B8F80040A34271
:108FB00003DB0023A8F8003013E00C4EA4F12802D4
:108FC00005F12801641BA4B206F128003144521BAC
:108FD00008F0CCF9A8F80040283C231233717471D2
:108FE00000233B70BDE8F0814D310020AC5C0020D7
:108FF000985C00202DE9F0410346264802880132A2
:1090000092B2B2F5FA4F28BF4FF4805200240A2CD6
:109010000AD0214D05EB44152E8A55BAADB2AE42A9
:1090200004F10104F3D1EAE7DFF874E002800022E2
:109030000A2A18D0184E55017419B4F81080571C1C
:10904000FFB2B8F1000F0CD18EF8002002886182C7
:1090500052BA228263B920461946102208F0EAF972
:1090600011E03A46E4E78EF800200020BDE8F081E8
:10907000274603F1100E3A4618685968083303C2B0
:1090800073451746F7D1054B35441B7920462B75A0
:10909000BDE8F08128210020D86300202065002051
:1090A0005431002030B50A490023082B0DD0094C5B
:1090B0005A1C34F81350D2B2854204D100220B70EE
:1090C00024F8132030BD1346EFE70B7030BD00BF0E
:1090D00054310020BC6300202DE9F04FA14F04283B
:1090E00093B03C68A04E00F0B382A049A04DA14AC5
:1090F00003280D6015608A4616D194F8253003F0D8
:109100000F03032B08D1A38B002B40F0F5869A4B5D
:1091100008221A7000F0ECBD022B40F0ED8600230F
:1091200005F8073C00F023BC02287AD1934A0023BB
:109130001370934A33801380924AD3780133DBB2A1
:10914000D37063B993780133DBB293703BB9537832
:109150000133DBB2537013B913780133137094F8F1
:10916000253003F0FD02052A0DD194F82630013395
:10917000DBB2782B84F8263040F0BE86002384F8DA
:10918000253000F0B9BE002B00F0B686A28B7A48DD
:10919000002A3DD094F82620511E84F82610002A7B
:1091A00040F0AA8694F82720082A04D0591E0129E5
:1091B0000AD8052A08D1002384F8253080230370BB
:1091C00002F0D6F800F0A2BD042A9CBF0321914012
:1091D00003F00F0394BFC9B230210132013B84F880
:1091E000261084F82720072B00F28686DFE813F08C
:1091F000BB0308000A0047058406470584064705A7
:109200000022B1E30423037002F0B2F800F0A0BD25
:1092100003F00F03032B40F06F860823037000F068
:1092200067BD052811D1584B1B681B8A002B00F025
:1092300063860C3D1560524A002313803B603380E7
:109240004D4B08220D601A7000E215F83C3C3C3D85
:1092500003F0F003602B40F04F862B796A791B02F4
:1092600031889818884200F34786283213443380A7
:109270002B7AFF2B00F04086444BAA1D1A60444C09
:109280003E4A002111702170A97990469946C1B9D2
:1092900001232370FFF7B2FD012800F02D8603D3D0
:1092A000022800F025860CE098F8003003F128022F
:1092B0002A44C9F800205278083303EBC20388F827
:1092C0000030344800F088FE324F002840F0D08053
:1092D000384600F0CDFF002840F0CA80384600F044
:1092E00091FE002840F0C480384601F039F800288B
:1092F00040F0BE802A7E183FFF2A6BD048F2FE0164
:109300003B8B8B4266D03B898B4263D073B97B89A0
:1093100063B9BB8953B9E98941B9398A31B9798AC5
:1093200021B9B98A11B9FB8A002B53D0298B1A4B6A
:1093300079B9598B69B9998B59B9D98B49B9198CB4
:1093400039B9598C29B9998C19B9DB8CB3F5807F5F
:1093500040D03388B3F5A06F20D9022000214FF40C
:10936000A06222E0D0610020985C0020CC61002047
:10937000E85C00209C5C0020C06100204D31002092
:10938000D46300204F310020C8610020C461002058
:109390004E310020C45C0020AC5C0020EB79984C7E
:1093A000012B06D800210A46032001F017FD00F02A
:1093B0009FBD02F069FF002840F09E85E3790122FD
:1093C000013BE3718F4B1A708F4A136801331360AE
:1093D00000F08EBD48F2FE032989994240F08C8549
:1093E000298B874B81B9598B71B9998B61B9D98B0D
:1093F00051B9198C41B9598C31B9998C21B9DB8C8F
:10940000B3F5807F00F07885FF2A00F075857F48EE
:1094100000F0C2FD0246002840F06E8501200221C6
:10942000C3E72ED8BBF1060F00F04381BBF1110F4B
:1094300000F0A180BBF1000F78D121780093CB0719
:1094400074D4734A41F001011170FFF7D7FC012871
:1094500000F05285009B36D298F8002002F12801D6
:10946000294419604B78083202EBC30288F80020C7
:10947000D9F80020674B92F800B0BBF12B0FD0D188
:1094800033E0BBF13A0F55D004D8BBF12C0F00F0FC
:1094900033854BE0BBF13B0F00F02E85BBF13C0F59
:1094A00044D123785A49980704D558063ED443F04E
:1094B000400301E043F002030B70FFF79FFC01281B
:1094C00000F01A8503D3022800F01285D0E798F83F
:1094D000003003F128022A44C9F8002052780833EA
:1094E00003EBC20388F80030C2E7207800F0040ED6
:1094F0000EF0FF01BEF1000F18D1454A40F0040004
:10950000107098F8002002F12800284490F803E039
:10951000BEF1000F02D004202A3246E718604378DB
:10952000083202EBC3023C4B1A70A1E70420012170
:10953000521B3AE708F0CCFD4FF6FF73984240F01B
:10954000DB8498F800302833E85C01F075FD98F86A
:1095500000302833EA18E85C517801F01DFC01283E
:1095600001BF00232C4A338013703388002B00F096
:10957000C38400F0BDBCFFF70FFDB5F82A8085F865
:1095800006B0B8F1000F00F0B784244F244B3B60C5
:109590003C68244B9C422FD294E80F000DF1280E1A
:1095A0008EE80F00238A23B3984522D1638A13B132
:1095B0002A8D9A421DD1BDF82830A3B9BDF82A30B2
:1095C0008BB9BDF82C3073B9BDF82E305BB9BDF83E
:1095D000303043B9BDF832302BB9BDF8343013B94F
:1095E000BDF8363013B310487146102207F016FE4E
:1095F000E0B120343C60CBE7012004210022D4E616
:10960000AC5C0020ED5B0020BC5B0020C45C002053
:109610004E310020C46100204D310020C86100207F
:10962000D863002018650020B45C00203388BC4952
:10963000303B338000230B60BA490220BA4A0870DD
:10964000BA49CAF800200A60B94A138001F090FEB6
:10965000B74B1A88002A00F04F8402F13003B54C52
:109660009BB23380283B63711912B34B08321B68DD
:1096700052BA2171197DA2850022E2851A8AE17110
:1096800022855A8A11216285A17104F1180602AD62
:109690000FCB85E80F0086E80F0004F10800314683
:1096A00000F074FEA54B3C341C6002F033FF00F068
:1096B00019BCFFF771FC85F806B008F00CFD4FF6F9
:1096C000FF7398429B4C40F01784B4F82A90B9F18C
:1096D000000F00F01184B4F828B0BBF1000F00F0C7
:1096E0000B84954B12AC1B680FCB04E90F00944C14
:1096F000234694F825C0BCF1000F13D0228A4A45B6
:1097000010D1628A5A450DD18E480EA910220193BC
:10971000CDF800C007F082FDDDF800C0019B0028F5
:1097200000F03B81884A30349442E2D195F83520EC
:1097300002F03F02022A16D18449DFF820828A46CD
:10974000A1F800900022082A0BD0814931F81210AC
:1097500001328945D2B2F6D1002288F800201446A1
:1097600058E088F8002095F83520724B510700F139
:10977000C383142283F835203C223280502283F8A0
:10978000342093F8332093F8314093F82F0083F876
:109790002F2093F8322093F82E10DFF8C0E183F8E1
:1097A0002E2093F82D2083F82D4093F82C40013083
:1097B0008EF8004093F830E0C0B283F8321083F89E
:1097C000312083F82CE083F8304083F8330060B90F
:1097D0000131C9B283F8321039B90132D2B283F8FB
:1097E000312012B9621C83F830202B8D574A554C1A
:1097F00013806A8D6B852A8594E80F0087E80F0037
:10980000204604F1100100F0C1FD56E3072F0FD0F0
:109810000132D2B20A2A15D0302101FB023101F106
:1098200020004779002FF1D188F800200C460EE087
:1098300024B1807994F826108842E9D9302404FBB9
:109840000234E5E788F80020002C00F05583344B03
:1098500000271C60032384F8263084F82430042376
:1098600084F82330374B84F822700FCB84E80F0044
:10987000384B01201A7884F8250022765A78A08384
:1098800062769A78DB78A276E37695F82C3084F8C5
:109890002770237595F82D30A4F81090637595F80E
:1098A0002E30A4F812B0A37595F82F30E375FFF7AA
:1098B00027FB95F8343003F0F002502A53D9264A9A
:1098C0001B09053B98003B4617461178834247DA4F
:1098D000EA1892F83C10002942D0012901D1013345
:1098E0001CE0022915D192F83DE0BEF1040F10D121
:1098F000397088F8003092F83E1092F83F3043EA11
:109900000123402BAAF8003028BF4023E38323849F
:1099100029E0EA1892F83D2012B31344DBB2D5E7F0
:10992000D0610020C0610020DC5C00209C5C002035
:10993000D4630020AC5C0020C8610020CC61002012
:10994000D4610020B45C0020B463002026210020F4
:10995000BC6300204F3100205531002054310020DD
:10996000397088F800301022AA4B83F83520A94BB3
:1099700093F8352042F0020283F83520022283F862
:109980003C20042283F83D20002283F83E20402220
:1099900083F83F20328060224FE29F4B9F4A1C6039
:1099A00095F83530107003F0040101F0FF0921B182
:1099B000202384F825001370EEE1964A0CF00F0C7A
:1099C00092F83420BCF1020F4FEA12124FEA8201E2
:1099D000934A11703288A2F12802A2EB010292B2DE
:1099E000328003D103F03F01122905E0BCF1010FE1
:1099F00003D103F03F01022916D00AB99A0713D008
:109A0000A98DA28A914204D1824AD18DE28A9142E3
:109A10000AD09F0740F10A82BCF1010FA3D0BCF12C
:109A2000020F40F00382A2E7D80652D5A18B00298D
:109A30004FD004F11800FFF739FA7A4B95F830103F
:109A40001878744A884244D192F8311093F801C0D2
:109A50008C453ED192F832E09978714539D192F82F
:109A60003320DB78934234D1E37694F827302076A4
:109A700084F819C0A1761BBB94F8243094F8261002
:109A800094F82200591AA1EBD001C9B25FFA81FE05
:109A90001EF0800F94F82330084418BF4942A3EB0E
:109AA000930318BF5FFA81FE03EB0E02C0B2D3B27C
:109AB00084F8233003EBD00384F8220084F82430A8
:109AC000564B01221A7094F8243084F82630002373
:109AD000A38394F82510DFF844B101F00F02013A96
