:020000040026D4
:10400000686D00208D4226001FFE26001DFE260042
:104010001DFE26001DFE26001DFE260000000000DD
:104020000000000000000000000000001DFE26004F
:104030001DFE2600000000001DFE2600454A260049
:1040400099FE26009FFE2600A5FE2600ABFE260058
:10405000000000007DFE260083FE26001DFE2600D7
:104060001DFE26000000000000000000000000000F
:1040700000000000000000001DFE260000000000FF
:1040800000000000000000001DFE26001DFE2600AE
:104090001DFE26001DFE26001DFE26001DFE26001C
:1040A0001DFE26001DFE26001DFE26001DFE26000C
:1040B0001DFE26001DFE26001DFE26001DFE2600FC
:1040C0001DFE26001DFE26001DFE26001DFE2600EC
:1040D0001DFE26000000000000000000000000009F
:1040E00000000000000000000000000000000000D0
:1040F0000000000000000000415A2600515A26002E
:1041000000000000000000000000000000000000AF
:10411000000000000000000000000000000000009F
:10412000000000000000000000000000000000008F
:10413000000000000000000000000000000000007F
:10414000000000000000000000000000000000006F
:10415000000000000000000000000000000000005F
:10416000000000000000000000000000000000004F
:10417000000000000000000000000000000000003F
:10418000000000000000000000000000000000002F
:10419000000000000000000000000000000000001F
:1041A000000000000000000000000000000000000F
:1041B00000000000000000000000000000000000FF
:1041C00000000000000000000000000000000000EF
:1041D00000000000000000000000000000000000DF
:1041E00000000000000000000000000000000000CF
:1041F00000000000000000000000000000000000BF
:1042000000000000000000000000000000000000AE
:10421000000000000000000000000000000000009E
:10422000000000000000000000000000000000008E
:10423000000000000000000000000000000000007E
:10424000000000000000000000000000000000006E
:10425000000000000000000000000000000000005E
:10426000000000000000000000000000000000004E
:104270001DFE2600C958260011592600C9502600E7
:10428000CD5C2600114B26001DFE260008B5094B0B
:10429000FF221A600848094A4824E3690849121AAB
:1042A00098470848084AA3690021121A984700F065
:1042B0000DF8FEE7B4200D4040000020410A002028
:1042C000301C2700480A002063650020F0B585B047
:1042D00000F0AAFD00F092FE00F0FAFD00F058FB9D
:1042E00001F0E2FC0BF06DFF00F080FE00F0BEF983
:1042F00020200BF097FD02F0A5FF00F081FD0020CB
:1043000000F092FC012000F08FFC8149002000F0B9
:1043100061FD03F007F90BF0B7FD08200BF082FDFB
:104320007C480BF0E6FD7C480BF0E3FD002003F039
:104330001BF901F01FFB0021784803F029F802F077
:10434000D1FC0BF099FD02F045FEC8200AF07CFE7E
:10435000044673490BF07CFB20460BF0D7FB714DF4
:1043600002462146286801F0F5FF01466E4802F03A
:10437000C3F820460AF070FE6C480BF0BAFDC82066
:104380000AF062FE044603F027F869490246204617
:1043900002F0C2F820460BF0B9FB2146024628681D
:1043A00001F0D8FF0146604802F0A6F820460AF066
:1043B00053FE03F011F801465D4802F09DF85D4898
:1043C0000BF097FD00F040FA00F0BAFE00F0D6FEC8
:1043D00009F04EFC6846082101F0A4FC9DF8073066
:1043E0009DF80670544C43EA07276B4603CB2060C8
:1043F0006160524802F080F80025615D5048013547
:1044000002F07AF8072D4C4EF7D14E4DF1794E4817
:1044100002F072F8EC6A4AF6CD310220A047394624
:104420000320A0471A210120A047082269466B6B90
:104430000B209847454802F05FF8454B0024186868
:104440000BF057FD434802F057F8434B18680BF048
:1044500050FD424802F050F8414B18680BF049FDFE
:104460004049336868460B607368ADF802404B60A2
:10447000FD23ADF80030ADF80440ADF80640ADF8CE
:104480000840ADF80A40ADF80C40ADF80E400BF016
:10449000E1FF68462146224605F08AFA324802F0DA
:1044A0002BF80DEB04031DF8041030485A78023441
:1044B00002F022F80E2CF4D19DF80F209DF80E107A
:1044C0002B4802F019F809F035FD2A48002102F0C6
:1044D0005FFF0021284802F05BFF02F091FC00F032
:1044E000D5FA264B01221860254B26481A700BF08E
:1044F00035FE00F08BFC10200BF094FC00F08CFCDF
:1045000002F0B8FE10F0FF0FF8D101F029FBF5E73B
:10451000E1742600E4112700F4112700A004002014
:104520000E122700D0590020271227003912270029
:10453000511227006A1227005B6500206F122700C6
:10454000C512270074102700CF1227008D122700F4
:104550007411270094122700801127009B12270056
:10456000A8112700E0590020A2122700C11227003D
:10457000CB12270034050020C0040020A0590020E1
:1045800094590020D8112700F8B5334C25782070B5
:104590004540EA0618D500F0100000F0FF072F4E46
:1045A00030B100F073FA2E4BD8600123F3700BE0AA
:1045B000F3784BB100F06AFA2A4A2949D368C968EE
:1045C000F7705B1A1844D06015F0300F17D02378BD
:1045D000224F13F0300606D000F058FA204B186135
:1045E00001233B710BE03B794BB100F04FFA1D4AC0
:1045F0001B49136909693E715B1A18441061AB06C7
:1046000019D52378154D03F0200303F0FF0633B1CD
:1046100000F03CFA124B586101236B710BE06B798F
:104620004BB100F033FA0F4A0D49536949696E7175
:104630005B1A184450610C4D2B7823B92078BDE8E3
:10464000F84000F035B8012B05D1002000F030F81B
:104650002B7801332B70F8BD3A2A002094590020A2
:10466000A0590020605900201D59002008B500F015
:1046700017F8024B00221A7008BD00BF3A2A00202A
:10468000024B1B781843FFF77FBF00BF3A2A002078
:10469000024B1B7823EA0000FFF776BF3A2A00207E
:1046A000024A136843F038031360704700C40D409A
:1046B000014B1860704700BFE0C00D4020B10128D9
:1046C00005D1044B18787047034B186870470020D9
:1046D000704700BF3B2A002020900D4010B5094ACA
:1046E0000020137801331370074B197802F024FE71
:1046F000BDE81040054B06481968064A002302F041
:1047000027BB00BF3B2A002052650020800A002002
:10471000580A0020DD462600812810B50C462AD014
:10472000B0F5807F39D0802839D102F083FD1D4B50
:104730001D4A18701368002023F00803136052F814
:10474000203C032123F0080342F8203C52F81C3C93
:1047500023F0080342F81C3C52F8183C43F00803CD
:1047600042F8183C042200F057FC104800210322B4
:1047700000F0DAFB13E00E4B1A6831B142F0080288
:104780001A60002000F06EFB05E022F008021A60BB
:10479000084600F073FB204610BD064B196001204F
:1047A00010BD00BF5265002020940D40B94726007F
:1047B00010940D40800A002008B50F480BF024FD2E
:1047C000C0B108210C480BF00DFD0C4B196861B10C
:1047D0000B4B00221A700B4B0B481B681BB90B4A82
:1047E00002F0B6FA01E002F0F5FABDE80840084828
:1047F00002F060BF08BD00BF780A0020800A0020D8
:104800003B2A002020900D40580A0020DD4626005B
:10481000FC0F2700044B1868C0F30720030904BFEE
:104820001030C0B2704700BF1C300D40054B1868F7
:10483000C0F3C21001289ABFC0F1020040034FF438
:104840000040704714300D402DE9F04F8DB0FFF758
:10485000E1FF384B0446C8201D680AF0F5FB4826E6
:10486000B368074698470B90736898470A90FFF71C
:10487000DDFF834600F040FB099000F049FB089003
:1048800000F01CFBDDF828C009994FEA9C23019336
:104890004FEA9B23DFF8A8A00293089BC4F30718F4
:1048A000C5F3400904F00F0405F001050B9A0591CA
:1048B00006935146434607900094CDF80C9004951A
:1048C000384601F029FE38460BF020F91A4B024613
:1048D0003946186801F03EFD0146184801F00CFE0B
:1048E00038460AF0B9FBB36898477368834698471F
:1048F0000746FFF79BFF064600F0FEFA099000F01E
:1049000007FB089000F0DAFA099A089BBF0AB60A7A
:1049100004920593069000970196CDF808900395B0
:10492000504659464246234601F0E6FD0DB0BDE82B
:10493000F08F00BF1C300D40D059002027122700F7
:10494000DC122700F8B500F0A1F80F4B0024D3E9E2
:1049500000673A46B04238BF7A1C15460443C3E9A3
:104960000045DFF828E0DEE90001821B61EB070368
:1049700012196B41CEE9002302F00AFB18B1BDE821
:10498000F84002F095BAF8BD480A0020500A00200D
:104990000F4B104A1A6053F8042C42F0050243F8FA
:1049A000042C53F8042C42F0020243F8042C0A4A67
:1049B000136843F001031360084B00221A600422BD
:1049C00043F80C2C012243F8082C0F22DA627047BE
:1049D00014E000E047E8010008200D400C0003400F
:1049E000034BD3E90023100A40EA0360704700BF7D
:1049F000480A0020034BD3E90023D00B40EA434090
:104A0000704700BF500A0020054B18601C3B1A6815
:104A100042F001021A601A68D207FCD4704700BF46
:104A20002800034010B5064C236823F001032360DF
:104A3000FFF788FF236843F00103236010BD00BF28
:104A400010E000E038B500F021F80A4C0A4D0123CF
:104A5000A370A860FFF776FFA3784BB100F016F8BB
:104A6000064AA96893685B1A184400239060A370F3
:104A700038BD00BF94590020A05900206059002083
:104A8000014B1868704700BF840A0020074B084A92
:104A9000196804331B681268120442EA0323054AAA
:104AA0000B43106843EA0060704700BF40500D4060
:104AB00048500D404C500D4010B50446114B1B683A
:104AC000DB07FBD50BF0E4F9FFF7E0FF231A062B19
:104AD000D8BFC41D0C4B220E1A60C4F3074243F822
:104AE000042CC4F3072243F8082CE2B243F80C2C40
:104AF0000BF0CAF9054B91201C60BDE8104000F096
:104B0000B1B900BF50500D404C500D40840A0020F8
:104B100070B500F0EFFFFFF7B9FF0E4C01230E4E0A
:104B2000A3700E4BB060002591201D6000F0B2F91B
:104B3000912000F0A3F902F063FCA37843B1FFF7E2
:104B4000A5FF074AB1689368A5705B1A1844906086
:104B500070BD00BF94590020A0590020840A002095
:104B6000605900200023084A1068084A99580842F2
:104B700005D01A44D268906910F0800003D02C331D
:104B8000582BF0D10120704728200D400C10270031
:104B9000F8B50646FFF77AFF1E4A01231E499370B7
:104BA0002C2303FB06134FF6BF711C4DDC68A86075
:104BB000236C61649BB213F0500117460CD0A369BB
:104BC000DB0618D4164B53F826301BB12068C0B250
:104BD0009847F4E72368F2E713F4D06F0BD04FF453
:104BE00040732363FF236360E36AE162E362236B44
:104BF00043F001032363BB7853B1FFF747FF094A32
:104C0000A96893685B1A1844024B906000229A705E
:104C1000F8BD00BF945900200C102700A0590020B7
:104C2000880A0020605900202DE9F04F012885B046
:104C3000064600F2BF802C244443604B1D1995F9B1
:104C400020A005F12007BAF1000F9946C0F2B2800A
:104C500095F92230002BC0F2AD80594801F014F8CC
:104C6000584A59F804301168EC680B4313605168D6
:104C70006B6895F921B00B4353609168AB6895F868
:104C800022800B4393600023C4F8C83F2B690BEBD1
:104C9000CA021A6095F823305FFA88FC01939DF8E8
:104CA0000430604619462A7DCDF80CC0029300F00E
:104CB000BDF9029BDDF80CC019466046082200F0E1
:104CC000ABF94FFA88F840494FEA08389DF90420BB
:104CD00058F80100012303FA02F2024348F80120C8
:104CE0004FEA0A3A5AF8010003FA0BF202434AF873
:104CF00001205022A263A26B95F8240042F4D062F6
:104D0000A263022262634FF440722263AA69626264
:104D1000EA69A2627022E26242B2002A0C4614DB07
:104D200095F92510294D41EAC201296079791203CC
:104D300015594FB2BB402B431351002200F06CF9C0
:104D4000234A136843F4004313602C2303FB0693A8
:104D500093F8265020336FB2002F1CDB93F807A086
:104D6000EDB25FFA8AF82846414601223F0300F07F
:104D70005DF94FFA8AFA3A59012303FA0AF3134309
:104D80003B5108222846414600F046F9104A136874
:104D900043F4804313602C2303FB0696F26896F8D5
:104DA0002800136B43F00103136305B0BDE8F04F17
:104DB00000F058B805B0BDE8F08F00BF0C10270018
:104DC000654B260028200D4020940D4004410D40E5
:104DD00030D0004001289CBF014B43F820107047A1
:104DE000880A0020012808D8044B2C2202FB00303E
:104DF000C3689A699206FCD4196070470C102700AA
:104E0000014B00221A60704700500D40014B0822F0
:104E10001A60704700500D40024BA0221A605022C9
:104E20001A60704700500D40074A084B1A60084B43
:104E300080321A60074B80321A60074B80321A604A
:104E4000064B074A1A60704700E100E09C0A002008
:104E5000900A0020940A0020980A002008ED00E043
:104E600000402600044B41091A6800F01F0001238E
:104E7000834042F8213070479C0A0020044B4109CE
:104E80001A6800F01F000123834042F82130704768
:104E9000900A0020044B41091A6800F01F0001230A
:104EA000834042F821307047980A0020024B18686E
:104EB000C0F38150704700BF04200D4008B5FFF7D4
:104EC000F5FF024B53F8200008BD00BF6410270017
:104ED000054A064B1A60064B1A68064B1340B3F19D
:104EE000807FF8D1704700BF0101020100200D4012
:104EF00004200D4000000101034B04481B6803F02F
:104F000007031841704700BF04200D400048E80126
:104F1000034B04481B68C3F302231841704700BFCA
:104F200004200D400048E801024B02EBC10243F8A7
:104F300022007047A00A0020F8B507460E46094D2A
:104F4000002405EB411547FA04F3DB07E1B204D571
:104F500055F824300BB1304698470134082CF2D173
:104F6000F8BD00BFA00A00202DE9F74F019000F026
:104F7000C1FDFFF78BFD0199184E4FEA0139184F1B
:104F80000123DFF864A009F18045B860B37005F52E
:104F90005925D5F8188459F80A404FEAC10B24FA6C
:104FA0000BF448EA0400C0B2E4B2FFF7C5FF04FA0C
:104FB0000BF45FFA88F3C5F81C3449F80A40B3785B
:104FC0004BB1FFF763FD074AB96893685B1A184451
:104FD00000239060B37003B0BDE8F08F94590020B7
:104FE000A05900206059002018970D400248002168
:104FF00080220AF0CBBB00BFA00A0020034A044B6A
:105000001A60044B803A1A60704700BF80400D4020
:10501000240B0020200B0020034B01EBC0011B6878
:1050200043F82120704700BF240B0020034B01EB05
:10503000C0011B6843F82120704700BF200B0020EF
:105040000E2870B50BD1164B164E1C6844F00205A5
:105050001D60356825F03F0343F001033360124EB5
:10506000336823F0FF031A431143014331600F4BB0
:105070001B681B06FBD50E4B0E4A1B6812680E28D8
:1050800003F0FC0343EA022308BF064A9BB204BFB5
:105090001560034A9BB208BF146018B270BD00BF10
:1050A00034000144F486084008700D4000700D4043
:1050B0000C700D4010700D40024B1868B0FA80F073
:1050C0004009704700B7084070B5FFF7DFFC104E8D
:1050D000104C0123B060104D8F20A370FFF7DAFE53
:1050E0008F20FFF7CBFE286818B102F069F9002382
:1050F0002B60A37853B1FFF7C9FC084AB1689368E5
:105100005B1A1844034B906000229A7070BD00BF78
:10511000A059002094590020280B0020605900203D
:10512000064A136843F002031360536843F0020316
:105130005360936843F002039360704748200D402A
:1051400007B50C4800F0A0FDFFF7EAFF0A4B1A680C
:1051500042F002021A6000220192019A0F2A02DC38
:10516000019A0132F8E71A6822F002021A6003B0CD
:105170005DF804FBB950260054200D40064A136820
:1051800023F002031360536823F002035360936813
:1051900023F002039360704748200D40044B1868C9
:1051A00000F02200A0F1200358425841704700BF90
:1051B0004C860840024B186800F04000704700BF62
:1051C0004C86084008B50B4B93F90020002A09DBF8
:1051D000094AED2111601160E32111601A7862F033
:1051E0007F021A70FFF752FC044BD861044B012078
:1051F000D87108BD3C2A002038880840A0590020FA
:105200009459002038B505460C46134B1B689B0784
:10521000FBD4124B93F90030002B01DBFFF7D2FFD8
:105220000F4BEE221A60691E1A60A21C43F8102C64
:105230002144022000F0B6FB013C0A49240121432D
:10524000022000F0C1FB022000F0C8FB022000F0A9
:10525000DDFB002038BD00BF4C8608403C2A002002
:105260003888084002C001C0044B1A6810B142F0EF
:10527000010201E022F001021A6070470086084036
:105280000B280DD1082A0DD161B1074B013953F814
:10529000042D01F8012F054A9342F8D100207047F0
:1052A0000120704702207047C8850840A885084043
:1052B0000B280DD1082A0DD161B1074B083111F827
:1052C000012D43F8042F054A9342F8D1002070477E
:1052D0000120704702207047A4850840C48508401B
:1052E00070B52B4E336813F0400308D0294D2B685E
:1052F000DCB21B0605D5284BED221A601A6000208F
:1053000070BD042CF7D9023C8C42F4DCE4B2032CCF
:105310001BD001190139032000F04CFB631E1F490B
:105320001B010320194300F04FFB032000F056FB44
:10533000032000F06BFB032000F074FB0028FAD17F
:1053400029682D682806D6D506E02B6803702B68DF
:1053500043702B688370F3E7493949B289B204205E
:1053600008F0BEFD032005F07F0108F0B9FD3368A9
:105370005A060BD5064B1B681B0603D5084802F0DE
:105380001FF803E0044BED221A601A60204670BD3E
:105390004C860840288808403888084002C0010C24
:1053A0007804002010B5114B1B689B07FBD4104BF1
:1053B000ED221A601A600F4A12680AB1EF221A60D1
:1053C0000D4A0E4C137803F07F031370E37953B149
:1053D000FFF75CFB0A4A0B49D369C9695B1A184499
:1053E0000023D061E371012010BD00BF4C8608404E
:1053F000388808402C8608403C2A00209459002018
:1054000060590020A059002038B5A0F10B04E3B288
:105410000F2B054613D80B4B1B6813F03F0302D02C
:10542000FFF7C0FF012304EB8404074A0B34146028
:105430000BB1FFF7C7FE054BE8B21D7000E0FF207F
:1054400040B238BD488608403C8608403E0A0020ED
:1054500038B50C46072855D8DFE800F0040F1B1FAD
:1054600026543B4F012903D1FFF7ACFE002038BD85
:10547000002949D1FFF796FFF8E7A1F10B030F2BA5
:1054800042D8C8B2FFF7C0FF431C0CBF0320002066
:1054900038BD8CB2E2B21D4B02E08CB21C4BE2B2C2
:1054A000240A1A605C60E1E731F003052CD101F0B9
:1054B0000100FFF7D9FE174B14F002001A681BBF5A
:1054C000284642F0200222F020021A6008BF1A602B
:1054D00038BD01F118031F2B16D80D230E49DA0031
:1054E00051F83300844204DC8B181A790B4B1A6094
:1054F000BCE713F1FF33F1D2B8E7CCB2084B493423
:105500001C60B3E7012038BD022038BDC8850840C3
:10551000D085084024860840AC102700408608400B
:105520005886084038B50C4600296ED010286ED831
:10553000DFE800F0090F1A1C236D3344496D6D6DCF
:105540006D6062646900334B1B68003318BF012330
:1055500056E0314B05221B6803F07F030B3B93FBA6
:10556000F2F30B33DBB24BE02C4B00E02C4B1A6810
:10557000043B1B6843EA022342E02A4B00200860F8
:105580001A68243302F001020A601B6813F020033A
:1055900037D042F002020A6038BD234B1A6800235C
:1055A000D2B2224901EBC3000079904202D851F8EF
:1055B000333025E001330E2BF3D11FE01C4B1B6869
:1055C0005BB2493B1CE01B4B1B68990603D1FFF7FC
:1055D000F9FD012300E00023174A1268D207FBD52A
:1055E000164A1568493DEDB20BB1FFF7DBFE6DB20F
:1055F000256006E00B2303E01A2301E06FF0170398
:105600002360002038BD0723FAE7022038BD0120BF
:1056100038BD00BF2C8608403C860840CC85084039
:10562000D48508400086084040860840AC1027001A
:1056300058860840488608406486084060860840CE
:1056400010B50B4B1B68990603D1FFF7BBFD012377
:1056500000E00023074A1268D207FBD5064A146807
:10566000C4F300140BB1FFF79DFE204610BD00BF30
:1056700048860840648608404C8608402DE9F84377
:10568000364B93F90030002B0EDBFFF7FFF9044691
:10569000FFF798FDFFF7FAF96FF009031B1BC342F0
:1056A000F8D44FF0010801E04FF00008FFF7C8FF01
:1056B00000284CD02A4E336813F0200447D1294DDE
:1056C000294FEB7943B1FFF7E1F9284AF969D3692A
:1056D000EC715B1A1844D061FFF7D8F9244C012310
:1056E000AB71E923B8614FF00409236033689A076E
:1056F00008D409F1FF3919F0FF0903D00620FFF79C
:1057000083F9F3E733689B0704D4EE232360236017
:10571000012404E0306810F00200FBD10446AB79AC
:1057200053B1FFF7B3F9114AB96993695B1A184489
:105730000C4B906100229A71FFF7A8F90123F861E0
:10574000EB71B8F1000F05D0FFF72CFE02E002204C
:10575000BDE8F8832046BDE8F88300BF3C2A00205E
:105760004C86084094590020A05900206059002020
:1057700038880840F8B52E4E357815F0010554D11B
:105780002C4B01241C605C609C60A3F59323A3F563
:105790001473F8221A600922C3F89021152270337D
:1057A0001A6003F59B230B2203F59E731A60A3F581
:1057B0009B23A3F5F07340221A601A687F2742F0FA
:1057C00020021A60D52243F81C5CDF62DA611A4BB2
:1057D0001878FFF719FE194A8D20136843F0040367
:1057E0001360FFF73FFB164B8E201F60FFF73AFB5D
:1057F000022000F0FFF81349022000F0DBF803203C
:1058000000F0F8F803200F4900F0CCF829460E48C4
:1058100001F0BEFD337823433370FFF737F90B4BAC
:10582000D8610B4B2046DC71F8BD0020F8BD00BFED
:105830003C2A0020A8200D403E0A00208C8608400B
:10584000948608402888084078040020A059002049
:105850009459002038B503880446E3B140F2C532BC
:10586000934203D000230380032038BD822915D141
:1058700008F0DCFA08F070FA8021FFF731FD00280B
:1058800005DD80B208F026FA0C4B1B6998470C4BDB
:105890001A78520604D440F2C5332380012038BD63
:1058A00000221A70074B1D68FFF77CFDFFF762FFAF
:1058B000AB06F0D0FFF786FCEDE700BFA81127008C
:1058C0003C2A00204886084070B5FFF7DFF80B4EF1
:1058D0000B4C0123B0600B48A37001F071FD0A4B23
:1058E00000251D60A37843B1FFF7D0F8074AB168DF
:1058F0009368A5705B1A1844906070BDA059002091
:105900009459002078040020348808406059002011
:1059100070B5FFF7BBF8114B01221D46104C9A7071
:10592000104AA06011680026042918BF0E490F48CC
:105930001EBF0B7843F040030B70166001F040FD72
:10594000AB784BB1FFF7A2F8094AA16893685B1ADC
:105950001844024B90609E7070BD00BF94590020A7
:10596000A05900202C8808403C2A00207804002000
:105970006059002010B5094C00212046402209F052
:1059800005FF074B01221A602E205C60FFF76AFAC0
:10599000BDE810402F20FFF765BA00BF00000020CF
:1059A00004F00F4003289EBF014B000119507047BF
:1059B0000000002003289EBF024B03EB0010416053
:1059C000704700BF0000002003289EBF024B03EB7E
:1059D00000108160704700BF0000002003289FBFB7
:1059E000034901230A6883409CBF13430B6070473F
:1059F00028F00F4003289FBF034901230A68834012
:105A00009CBF13430B60704720F00F4003289FBFDB
:105A1000034901230A6883409CBF13430B6070470E
:105A200014F00F4003289FBF044B03EB0010806865
:105A300000F0070088BF0020704700BF0000002072
:105A4000024B4FF0FF321A60704700BF04F50F4061
:105A5000014B01221A6070474CF00F40094B1A6845
:105A600012F4801F1A46F9D1043B196821F48031E1
:105A700019601168C903FCD41A6842F400321A6034
:105A8000704700BF04200D4070B5164CFEF7FEFFB6
:105A90002378154D3BB1154A296813685B1A0344F6
:105AA000136000232370124E6860012302203168C6
:105AB000637001F0D5F930BF022001F0B5F9306014
:105AC000FEF7E4FF63784BB1084A07495368496819
:105AD0005B1A03445360034B00225A700123286071
:105AE000237070BD94590020A059002060590020F7
:105AF0002C0B002070B5144B1A681C4612F0030FD3
:105B000021D0124B1A685101FBD41A685201FCD5FE
:105B10000025FEF787FFFFF7A1FF2560022001F0B7
:105B200083F90B4B1860FEF7B1FF0A4B0A495A780C
:105B300032B10A4C4E6862685D70921B024462602A
:105B4000012208601A7070BD58200D4004200D40DD
:105B50002C0B002094590020A059002060590020EF
:105B60002DE9F0413E4B1C6814F03F0413D13D4B2E
:105B700053F8243023B1984768B10134052CF6D18D
:105B8000394D2B783BB1FEF77BFF0446FEF77EFFD5
:105B9000201A092803D8BDE8F041FFF775BF002C93
:105BA000F9D0324B1A6822F400321A60304A116878
:105BB000C902FBD4196841F4803119601368DB0312
:105BC000FCD5FEF763FF201A092803D8BDE8F04191
:105BD000FFF744BF6328274F02D92B78022B00D050
:105BE0000123254E3B60254C0220316801F038F935
:105BF000FEF74CFF2378224D3BB1224A29681368F7
:105C00005B1A0344136000232370012368606370F0
:105C100001F088FBB8B14FF00008FFF71FFFC7F88D
:105C20000080022001F000F93060FEF72FFF63785A
:105C300083B1144A696853685B1A034453600F4B7D
:105C400083F8018006E0FEF71BFF0028E3D030BF99
:105C5000BDE8F081012328602370BDE8F08100BF1A
:105C600048860840300B00203D2A002000200D40CF
:105C700004200D4058200D402C0B0020945900208A
:105C8000A0590020605900200023064A52F8231032
:105C9000814206D011B942F8230070470133052B29
:105CA000F3D17047300B0020054B00221A60054AE3
:105CB000136843F004031360034B01221A7070470A
:105CC00058200D4010ED00E03D2A002070B5FEF791
:105CD000DDFE104E104C0123B060104D9020A370DB
:105CE000FFF7D8F89020FFF7C9F8286818B101F03D
:105CF00067FB00232B60A37853B1FEF7C7FE084A69
:105D0000B16893685B1A1844034B906000229A7044
:105D100070BD00BFA059002094590020440B002002
:105D20006059002030B5184B1A78431E3AB9174A0B
:105D30001278122A03D1164A12784B2A03D001F5A1
:105D40002011273117E04A0802F12814B4F1281F66
:105D500004D014F8015D03F8015FF7E701F52011A5
:105D600027310023934205DA11F801598418E554CC
:105D70000133F7E730BD074A914204D011F80129F9
:105D800003F8012FF7E730BD2B0028002A00280078
:105D90002900280027002800164A70B515464FF044
:105DA000FF340023B2F9066056B1967A0C32002E09
:105DB00008BF1C460133052BF4D12346013417D00C
:105DC0000C2404FB03F6AA1990804FF0FF30A85171
:105DD000C8880026D080D672497A04FB035309078D
:105DE00044BF0121D1724FF6FF711981104670BD79
:105DF000002070BD840B0020F0B5224D06462F46D2
:105E00008FB00024B5F90630A3B101A8B5F904108C
:105E10000AF0B6F89DF80D3003F03603022B09D1D5
:105E200030460DF10E0109F035FD18B90C2000FBCC
:105E3000047025E00134052C05F10C05E2D10020A9
:105E400004B2214601A80AF09BF89DF80D5005F018
:105E50003603022B0AD130460DF10E0109F01AFD6E
:105E600020B9204601A9FFF797FF09E02046BDF9B8
:105E70000A102A460AF0B8F8B0F5C86FE0DB002037
:105E80000FB0F0BD840B00201F4B2DE9F0410746F9
:105E90004FF6FF7498461E888EB035B2B5F5C86FC0
:105EA0000EDA01A829460AF06BF89DF80D20930739
:105EB0001DD423B2013307D1EB19B3F5C86F02DB50
:105EC0004FF6FF701CE034462846BDF90A100AF070
:105ED0008BF823B2DA1982420646DEDCB8F90020DC
:105EE00020469A4202BF084B3F191F8008E028460F
:105EF000BDF90A100AF078F84FF6FF740646CCE7B1
:105F000000B20EB0BDE8F0818E20002070B50446CE
:105F10008EB00E4601A8214615460AF031F89DF8CC
:105F20000D3003F00602022A02D04FF0FF3041E0AC
:105F300003F0200202F0FF01002AF6D176B99DF8A5
:105F40000D3001A843F0040321468DF80D300AF00E
:105F500043F8194A0023137055B916E01B07EED514
:105F6000BDF904000A46FFF7D1FF0028E7DADCE7B5
:105F7000124A1A44516829B1B1F90410A14204BF70
:105F8000002111720C333C2BF2D10D4B03F13C017B
:105F9000B3F904200C33A24201BF4FF6FF7223F87D
:105FA000082C002203F8022C08BF23F8062C8B4291
:105FB000EED100200EB070BD3E2A0020480B00201C
:105FC000840B00202DE9F04F95B0019088463AB13E
:105FD0004046FFF759FF411C044640F0D98004E0D9
:105FE000FFF70AFF0028F3D0D0E0794A1378029235
:105FF000002B40F0CB809A46082600230593ADF88D
:106000001830DFF8D4B1734BBAF1000F03D1ABF8FD
:1060100000A083F800A01FFA8AF91D784FEAC9078B
:10602000BFB25DB1BBF800502BB2072B16DD0823C1
:10603000ADF81430684B083D1D806BE0BBF80040A4
:1060400023B2072B0BDD0823083CA4B2ADF81630B1
:10605000614BA2B2072C1A805DD95BE00024BBF82B
:1060600000303B449BB219B232B291422ADA07A8FF
:10607000039309F085FF5748002202709DF8252000
:10608000039B02F00601022902F0200109D141B967
:1060900001220270BDF82220134415449BB2ADB218
:1060A000E1E719B101339BB2013406E0520706D58E
:1060B000BDF8222013449BB21444A4B2D3E7F31AD0
:1060C0009BB200E00023A9B2A0B20A18083A1A4411
:1060D00092B20FFA82FEBEF1000FABF80020DFF89B
:1060E000F4C00BDD9CF800B0BBF1000F03D0C0F191
:1060F0000805ADB202E0C1F10804A4B2ADF8183051
:106100009CF80030ADF81450ADF8164013B9BEF14C
:10611000070F00DD0022BDF91430002B25DCBDF98E
:106120001630002B21DD2D4BB9B2B3F9004008B277
:10613000844214B2C8BF1980002C13DD07A80021C7
:10614000322209F023FB22238DF82530002507F1A8
:106150000801294407A809B2013509F03DFF2BB217
:10616000A342F4DB484609F05BFF0AF1010A083656
:10617000BAF1C80FB6B27FF440AF4046FFF784FED5
:10618000431C044604D1029A0123137000201BE033
:106190000021322207A809F0F9FA24B20199272236
:1061A0000DF1260009F0E0FC022307A82146ADF816
:1061B00022808DF8253009F00FFF204607A9FFF750
:1061C000EBFD08B10023036015B0BDE8F08F00BF00
:1061D0003E2A00203F2A00208C2000208E20002014
:1061E0002DE9F84381460D460024234E4FF00C085C
:1061F00008FB046898F808304BB988F8083048461E
:10620000FFF7FAFD0746C8F80400B0B906E001340C
:10621000052CEAD14FF0FF30BDE8F88305F0030309
:10622000012BF7D0484608210122FFF7CBFEC8F822
:1062300004000028EED0076007E00368013304D1B2
:10624000B0F9040009F0A0FE38600C2303FB0462DF
:10625000117A6343294315F00405117218BF52687F
:10626000204618BF1568F2185268F550937A01332A
:106270009372BDE8F88300BF480B002004280CD8B7
:10628000064B0C2202FB0030037A33B14168002236
:1062900002728B7A013B8B7242607047480B002080
:1062A000042870B525D80C244443134B1E19357AA5
:1062B000FDB142B1022A02D17268126802E0012ADD
:1062C00017D11A591144002913DB0C2202FB0032AA
:1062D0005268B2F90640B1EB042F0ADC14688C4214
:1062E00002DAAC0705D511600C225043195008465C
:1062F00070BD4FF0FF3070BD480B00200428F8B58A
:106300000646144621D80C234343114DEA18177A48
:10631000DFB1F80719D55768EA583B68A0189842CA
:1063200088BF9C1AFB7ADB070DD4B7F904303232F0
:10633000084602EB0322214609F0EBFE0C207043D5
:106340002B5823442B502046F8BD4FF0FF30F8BDAA
:10635000480B00202DE9F04F9FB0042800AF804685
:10636000B960144602D94FF0FF30BFE0614D0C23F5
:1063700003FB00531A7A002AF5D09207F3D55E6822
:106380000C2303FB08F305EB0309EB58B6F90610E1
:1063900003F132022244B2EB012F40F29080B6F9B1
:1063A00004A007F11000514609F0EAFD07F11A00B8
:1063B0000121FFF715FF061ED5DBB7F9161007F10F
:1063C0001A00490009B20122FFF7FCFD83460028AC
:1063D00052D04FF00009BA8AC7F80CD0002A08BF83
:1063E0004FF48072D11D21F00701ADEB010D304655
:1063F0006946FFF783FF031E0BDA00210A46BBF94B
:106400000400FFF783FD3046FFF738FFD7F80CD0C4
:10641000A9E70BD0BBF90420194609EB0222684614
:1064200032327B6009F00EFE7B689944D7F80CD0BD
:10643000002BD0D12F4A02F13C00117A59B151689A
:10644000B1F90410514501BFC2F804B09BF80A101D
:1064500001318BF80A100C328242EED101215046F4
:106460000022FFF753FD0028BBF9041008DA0846A4
:1064700000210A46FFF74AFD3046FFF7FFFE72E7AC
:1064800007F1440009F07CFDBA8A07F14400A7F83F
:1064900048207A8ABBF90410A7F8462009F09CFD31
:1064A0009BF80B20CBF8009022F001028BF80B2018
:1064B0003046FFF7E3FE0C2303FB08535FE7326827
:1064C0009342FFF650AFB6F90420B86803EB0222FE
:1064D0003232214609F0B6FD2046D9F80030234477
:1064E000C9F8003032689342C8BF33607C37BD467C
:1064F000BDE8F08F480B00200FB407B504AA52F88E
:10650000041B0448019200F039F803B05DF804EB75
:1065100004B07047880400200EB43FB5094B07AAA9
:1065200052F8041B0190049304A801AB0392059355
:1065300000F024F8019B00221A7006B05DF804EB0D
:1065400003B070474701270070B505460C46102C74
:1065500007D92B68686808491022984750B9103C41
:10656000F5E734B12B6868682246BDE870400249FF
:106570001847204670BD00BF0A1427002DE9F04FD0
:1065800080468FB0069107920026069B1B78002B51
:1065900000F05F83069B1C4613F8012B1AB9069B7B
:1065A0009C4203D10FE0252AF5D1F8E7069BD8F8E5
:1065B0000400E51A0699D8F800302A4698470028C2
:1065C00040F02A832E442378002B00F04283637826
:1065D000611C002B00F03D8300240A4611F8013BAA
:1065E0002B2B11D006D8202B11D0232B12D144F005
:1065F0000804F2E72D2B04D0302B0BD144F010040B
:10660000EBE744F00104E8E744F00604E5E744F072
:106610000204E2E7A3F1310108290DD81346002551
:106620001A4613F8011BA1F13000092811D80A22DB
:1066300002FB0515303DF3E72A2B09D1079B0132F8
:106640001D68191D002D0791B8BF44F0010400E03A
:10665000002513782E2B1CD15178531CA1F130004A
:1066600009280ED8194600270A780B46A2F13000F7
:10667000092801F101010FD80A2303FB0727303F46
:10668000F2E72A2906D1931C079A111D0791176872
:1066900002E013464FF0FF371A786C2A09D15A7876
:1066A0006C2A02D144F080040AE0013344F0600413
:1066B0000BE0682A09D15A78682A03D144F02004F3
:1066C000023302E0013344F040041A78642A3CD0DB
:1066D0001FD8462A48D00DD8252A5AD003D8002AD8
:1066E00000F0B78257E0412A4AD0452A53D144F4FA
:1066F000424450E0582A31D004D8472A4BD144F4C0
:10670000A13448E0612A38D0632A44D144F4A0641B
:1067100041E06E2A3AD007D8662A22D027D3672ACA
:1067200028D0692A11D036E0732A2CD006D86F2AD7
:1067300011D0702A2FD144F440742CE0752A07D070
:10674000782A28D144F4C85425E044F4245422E0A3
:1067500044F410641FE044F488541CE044F4B24450
:1067600019E044F4007416E044F4844413E044F463
:10677000024410E044F481340DE044F4C1340AE0F2
:1067800044F4E13407E044F4806404E044F4E06459
:1067900001E044F4C0640133069304F4E063B3F50C
:1067A000806F00F0AA8116D8B3F5807F2BD0B3F5A7
:1067B000407F7FF4EAAE079BA04914F4804F03F1B9
:1067C00004029F4818BF08460DF1330107920F4697
:1067D0001A680023C5E1B3F5C06F08D0B3F5E06FC8
:1067E00000F03182B3F5A06F7FF4CFAE00E2D8F8AD
:1067F0000030D8F80400934901229847002840F05F
:106800000B820136C1E6002FACBF24F01004012733
:1068100014F40053039304F0E00337D0402B17D057
:1068200008D8DBB1202B2AD1079B1A1D079293F9B8
:10683000002017E0602B11D0802B20D1079B07335D
:1068400023F0070303F108020792D3E900230AE0CB
:10685000079B1A1D0792B3F9002003E0079B1A1D3E
:1068600007921A68D317002A73F1000109DA52421D
:1068700063EB4303CDE900234FF0010933E000222D
:106880000023CDE900234FF000092CE0402B16D067
:1068900007D8CBB1202B20D1079B1A1D07921A785D
:1068A000EEE7602B10D0802B17D1079B073323F026
:1068B000070303F108020792D3E90023E1E7079BEE
:1068C0001A1D07921A88DBE7079B00211A1D079201
:1068D0001B681846CDE90001D5E700220023CDE969
:1068E00000234FF0000904F4C053B3F5805F0CD0CF
:1068F000B3F5C05F33D0B3F5006F4FD1DDE90023AE
:106900000DF1360ACDE9042304E0DDE900230DF1A1
:10691000360A15E0DDE9042313433AD0DDE904012A
:106920000A22002308F0B8F8DDE9040130320AF841
:10693000012D00230A2208F0AFF8CDE90401E9E7B0
:1069400052EA030125D002F0070130310AF8011D97
:10695000D10841EA4371D8080A460346F0E7384BAC
:1069600014F4804F0DF1360A344908BF1946DDE9A9
:10697000002352EA03000CD002F00F00085C4FEA3B
:10698000131E0AF8010D100940EA0370024673460F
:10699000EFE70DF1360BCAEB0B0B03E00DF1360AF6
:1069A0004FF0000B41F6080241F208035F4502EA8E
:1069B00004028CBFCBEB070700279A4202D1002FBD
:1069C00008BF012741F608018A4207EB0B030DD1EE
:1069D000DDE9000150EA010208D01B4914F4804FA0
:1069E0001A4A4FF0020C18BF0A4602E04FF0000CA2
:1069F00062460399A1B1B9F1000F0AD104F0060172
:106A000002290AD00629124904BF4FF0010C0A4698
:106A100006E04FF0010C0F4A02E00F4A4FF0010C64
:106A200063449D428CBFED1A002514F0010922D168
:106A3000E30613D52F444D461DE000BFD7132700B2
:106A4000E813270008142700FC132700F913270078
:106A5000FF13270079152700991227004046294681
:106A6000CDF80CC00092FFF76FFD009ADDF80CC066
:106A7000002840F0D180BCF1000F0DD01146D8F8AD
:106A800000306246D8F80400CDF800C09847DDF821
:106A900000C0002840F0C0803C465E44102CD8F86E
:106AA00000300DD9D8F804006C491022CDF800C090
:106AB0009847002840F0B080103CDDF800C0EDE7BA
:106AC0005CB1D8F8040065492246CDF800C098476B
:106AD000DDF800C0002840F09F80D8F80030D8F8DA
:106AE000040051465A4666449847002840F0948076
:106AF0003E44B9F1000F79D073E0079BD3F800A0B2
:106B00001A1D0792BAF1000F09D05346994699F819
:106B100000200133002AF9D1CAEB090903E0DFF8AC
:106B200040A14FF00609002F02DBB94528BFB94646
:106B30004D458CBFC9EB0505002514F0010405D1B6
:106B400040462946FFF700FD002865D1D8F80030FF
:106B5000D8F8040051464A46984700285CD14E4474
:106B60003EE052EA030E0ED002F00F0E10F80EE0D7
:106B70004FEA131C01F801ED4FEA121E4EEA037EA4
:106B800072466346EDE70B467F1A01BF30220127AC
:106B900001F1FF3301F8012C03377822BD4203F8DD
:106BA000012C4FF0300203F8022C88BFED1B4FF090
:106BB000230298BF002514F00104A3F1030903F890
:106BC000032C04D140462946FFF7BEFC20BBD8F871
:106BD0000030D8F8040049463A469847E0B93E44A8
:106BE00024B140462946FFF7AFFCA8B92E44CCE4B7
:106BF000079B012D03F104021B688CBF05F1FF35D3
:106C0000002514F0010407928DF8203008D1404689
:106C10002946FFF799FC10B14FF0FF301AE02E44DF
:106C2000D8F80030D8F8040008A9012298470028B5
:106C3000F2D16F1C2CB140462946FFF785FC002895
:106C4000EAD13E44A1E4079B1A1D1B6807921E600F
:106C50009BE430460FB0BDE8F08F00BFC71327009C
:106C600001142700F8B50388064615462BB14A2BB8
:106C700015D0002303800320F8BD174809F0D5FA8A
:106C800004462CB1201DA16809F072FA2468F8E7C7
:106C9000124B01221A704A2333800120F8BD882943
:106CA000FBD10D4809F0C1FA0446002CF3D0231D96
:106CB0009D420ED10848214609F0C1FA084B62698D
:106CC0001F681A60A2691D460AB1E06990472F60EB
:106CD000E1E72468E9E700BFC00B0020402A00205C
:106CE000D80B002010B5064B002406481C7009F094
:106CF00099FA2146BDE81040034800F049BB00BFA7
:106D0000402A0020C00B00209004002070B50446EB
:106D1000E3610B4B049D1B786561A26143B1094D92
:106D2000094B2E68201D2B6009F022FA2E6000E02E
:106D3000A1602146BDE87040044809F094BA00BF44
:106D4000402A0020D80B002090040020C00B002017
:106D500013B5034C24680094FFF7D8FF02B010BDB0
:106D6000D80B002070B5094B05461B783BB1084C89
:106D7000084B26680430236009F003FA2660294690
:106D8000BDE87040044809F06EBA00BF402A0020F8
:106D9000D80B002090040020C00B002070B5094BD8
:106DA00005461B783BB1084C084B2668043023602D
:106DB00009F0F0F926602946BDE87040044809F062
:106DC00052BA00BF402A0020D80B002090040020B7
:106DD000C00B002010B5084B04461B781BB10430D3
:106DE00000F0DEF801E0C36003612146BDE8104019
:106DF000024809F024BA00BF402A0020C00B00203E
:106E000000230649002241F82320054941F82320A8
:106E100004495A5401330C2BF3D17047A059002078
:106E2000605900209459002038B50A4B04461B5C79
:106E3000094D63B1FDF72AFE084A55F8243052F88F
:106E4000241042F824005B1A034445F8243055F816
:106E5000240038BD9459002060590020A05900201A
:106E6000014B43F8201070476059002010B50E4CBC
:106E7000236813B90D4A136010BDFDF7B1FD2168F9
:106E800091E80C001A44131A8A6842B192E8120081
:106E90002144091A8B4228BF0B469268F5E7184433
:106EA000024B186010BD00BFC40B0020C80B0020AF
:106EB000014800F085BA00BFA0040020F8B503889F
:106EC00005462BB1582B09D0002303800320F8BDC1
:106ED0001E4A136058232B800120F8BD872920D03B
:106EE0008229F7D1194F00263C68002CF2D02046A9
:106EF00009F08AF990B1E0688821224600F01CFA76
:106F000050B9E060A3680EB1B36000E03B600023BD
:106F1000A360FFF7ABFFE5E7FFF7CAFF2646A468CB
:106F2000E3E70A490B680BB90B60D3E7D8689042D6
:106F300001D19B68F7E70B6099680029CAD0C8683F
:106F400090420ABF89680B469960F5E7C40B0020A0
:106F500010B50446FFF7ACFFE3680B4A4BB113686A
:106F60003BB1A34203D1094A1268DA6007E09B688B
:106F7000F6E7064B1B68E36013681460A360BDE886
:106F80001040FFF773BF00BFC40B0020D80B0020D8
:106F9000024B1868003018BF01207047C40B002056
:106FA00010B50B4A04461368984206D183681360F3
:106FB00008E09A68A24203D01346002BF9D103E0FF
:106FC000A2689A60FFF752FF0023A360E36010BD40
:106FD000C40B0020384B30B500241C60374BB7B0D1
:106FE0001C60374B01251C60364B21461C60364B1C
:106FF00022461C60354B36481C60364B1C60364BB5
:107000001C60364B1C60364B1C60364B1C60364B8C
:107010001C60364B1C60364B1C60364B1C60364B7C
:107020001C60364B1C60364B1C6023460095019457
:1070300002940394FFF760FA324A21463248FFF780
:107040005BFA0A213148FFF757FA29463048FFF723
:10705000C7F8304D2860304808F04BFF2B68A3423A
:1070600001DA2E4815E02E4808F043FF21460022A1
:107070002868FFF715F9286804A9C822FFF73EF928
:10708000002804F1C80411DC224B1868FFF7F6F859
:10709000244808F02EFF244808F02BFF06211C4846
:1070A000FFF79EF8214B186037B030BD04A9204887
:1070B000FFF722FADAE700BF045900204859002000
:1070C00034590020F0580020445900200059002075
:1070D000351427004C590020105900200C5900206D
:1070E0005C59002020590020FC580020F458002052
:1070F000285900202C590020505900200859002000
:107100005459002080841E00BE142700F314270069
:10711000FF142700CC0B00200B1527001D1527009E
:10712000361527007B152700C1152700D0590020F0
:10713000BE15270008B503480621FFF751F8024B9A
:10714000186008BDFF142700D059002038B58368A7
:1071500004460D469BB10A4804600220A07304F166
:107160000C0098470238012801D9832D05D120460B
:107170002146BDE8384000F005B80123A37338BDAF
:10718000D80B00202DE9F8431C4A044615688946AF
:107190002B4690461A4E3768A34204D00BB11B68A9
:1071A000FAE7BDE8F88334B3A37BABB10023A37344
:1071B00045B1AC4204D028468721224608F0FBFFA7
:1071C0002D68F5E7A3683BB14C4505D0346004F168
:1071D0000C0083212A469847D8F800309C4203D1FE
:1071E0002268064B05E0134623B11A68A242FAD181
:1071F00022681A603760BDE8F88300BFDC0B00200E
:10720000D80B002010B5094B00221A70084B1C68DF
:107210005CB1E37B3BB101230022A373E273204600
:107220008221FFF793FF2468F2E710BD442A002073
:10723000DC0B0020024B1878421C1A70704700BF0C
:10724000462A0020064B8A221A70064A0023137031
:10725000054A1370054A1360054A1360704700BF62
:10726000462A0020412A0020432A0020DC0B00206F
:10727000D80B00202DE9F041214E33780BB1FFF7F8
:10728000C1FF204D2C78002C34D0DFF88CE00C228C
:107290009EF800301C495A4388181C4F895CDFF85F
:1072A0007C804268DFF878C08068013303F01F03F8
:1072B000013C3970C8F80020CCF800008EF800308E
:1072C0002C7088B9124C134B1B68236023688BB158
:1072D00033780BB1FFF796FF20683978D8F8002093
:1072E00008F069FF2368EFE7812904BF0123837356
:1072F00008F061FF337828781844BDE8F08100BFBA
:10730000442A0020432A0020E40B0020452A0020C4
:10731000D00B0020DC0B0020412A0020E00B0020D5
:10732000D40B0020024A034B10781B781844704796
:10733000432A0020442A0020F0B50C4E3478202C3B
:1073400011D00B4B0B4D1B780B4F234403F01F0345
:107350002B700C256B430134FD18A860F9546A604A
:1073600034700020F0BD0120F0BD00BF432A002092
:10737000412A0020422A0020E40B002038B5034CAB
:10738000256808F018FF256038BD00BFD80B002025
:1073900010B50A4609490C68234683420DD00BB14B
:1073A0001B68FAE748B1046008600121817383819A
:1073B0008121BDE81040FFF7E1BF10BDDC0B0020CC
:1073C00038B1837B013B012B9FBF024A0123C3736A
:1073D00013707047442A002006480023064A0749D4
:1073E00052F8232051F8231001330C2B01FB12001B
:1073F000F4D1704780841E003C11270060590020A2
:1074000010B5084C206858B1002323608168436898
:107410009847236823B1BDE810401868FDF74CBBBE
:1074200010BD00BF640D002010B50446FDF7E2FA60
:1074300094E80C001344C01A024B98428CBF002001
:10744000012010BDFEFFFF7F38B505880446672D7B
:1074500009D0792D2ED0002D32D1FFF7EBFE1B4B3A
:1074600018701B4B1D601B4808F090FF431C01D196
:1074700067231DE00A28164B07D01A687E2AF2DC23
:10748000511C1960144B9854EDE7196800254A1CEB
:107490001A60114A0D4B555428461978FFF74CFFD6
:1074A0000E4B852118682A46FFF746FF20B979233D
:1074B000238009E0852907D1054B00221A60D2E715
:1074C00000230380032038BD012038BD576500200C
:1074D000700D0020680D0020C82A0020D80B002065
:1074E0000D2810B5014615D00B4C23782BB90B484D
:1074F00008F038FF48B9012306E00A2805D10748FB
:1075000008F030FF08B1002323700548FFF758FF4B
:10751000012010BD002010BDC72A0020680D0020EA
:10752000B004002008B505480549802208F013FF83
:10753000BDE8084003480021FFF72ABF680D00207E
:10754000472A0020B0040020054A136843F00403D2
:107550001360044B1B68906943EA002080B27047B7
:1075600000700D4014700D40174A136823F00C038F
:107570001360164B01221A601A68012AFCD1144BC1
:1075800008221A60E322C3F8142203F50573194692
:10759000104B1B68DB07FBD5102000230E4A013877
:1075A000126802F0010243EA02034FEA43039BB26E
:1075B000F4D1002BF0D0094A180A03F0FE03106042
:1075C0001360EF230B60704700700D40A8200D4042
:1075D00024860840648608409C86084014700D404C
:1075E00070B505880446772D30D07E2D3FD0002D14
:1075F0004DD1FFF71FFE294B1870294B1D601D460A
:107600002B68284A264E52F823204AB126480021EA
:10761000C154936880209847336801333360EFE7A3
:10762000224A1370772320E01F4AD256002A12DB29
:107630001B4A136801331360194B1C4A1B681278EC
:107640009342F1DB1A4B1B68002BEBD0184A002346
:107650001360134AEFE7114A00201178114A52F8DB
:107660002320FFF769FE30B97E23238013E00B4B04
:107670001B788B420FD10A4B0B491A688B5C03F0C5
:107680007F038B540A4A136801331360D0E7002349
:107690000380032070BD012070BD00BF586500202D
:1076A000780D00206804002053650020482B00203E
:1076B000740D0020094B1A780023934204DA08491C
:1076C00051F82310814207D106490748CA5C62F08D
:1076D0007F02CA54FFF774BE0133EEE7482B002047
:1076E0006804002053650020C00400200C4AB82321
:1076F00003FB0022002330B553821A46094CE118DF
:107700008D782DB11C5D844202BF00248C70013243
:1077100040F24C5171338B42F0D1104630BD00BF66
:10772000980D0020542B002008B5064802F088FF71
:10773000054B01221A70FD2100225A709970DA70EF
:1077400008BD00BF917926004A2B002010B51378A0
:107750000446087A83F0020398421DD1487A537890
:10776000984219D1887A9378984215D1C87AD378FB
:10777000984211D1087B137998420DD1487B5379F7
:10778000984209D1887B9379984205D1C87BD379F7
:10779000984201D103201BE00B890F4A6BB94B893A
:1077A000B3F57F4F09D18B89FE2B06D11368C989A8
:1077B000022023F8021B13600AE0136851F8080F37
:1077C000083343F8080C486843F8040C13600120A0
:1077D000A040C0B210BD00BF840D002010B50F4CFA
:1077E0000220A17906F07CFBA379112B01D0062B96
:1077F00005D1238D618D9942A8BF194608E03A2B27
:1078000005BF94F8281094F82930002143EA01219B
:107810000120BDE8104006F063BB00BFE85900201E
:1078200010B5084C01462378012B08D1A01C082272
:1078300007F0A0FE00280CBF2046002010BD00204D
:1078400010BD00BF4A2B002008B50146102006F0ED
:1078500055FB044B04489B6800219847BDE808404D
:10786000FDF7DABAC81127006D78260010B5084672
:107870000C46114602F076FA044B1B6813B19B6864
:1078800020469847024B1C6010BD00BF940D00209D
:10789000900D0020F8B505460023114A712404FB21
:1078A0000324A278B2B9617006F01EFA26460D4F85
:1078B0000D4A3B7806F8035BC01A1568A0701D449A
:1078C00006F012FA3A782946821A304607F084FE0A
:1078D000A078F8BD01330C2BDFD14FF0FF30F8BD9D
:1078E000542B0020A0300020880D00202DE9F84303
:1078F0004FEA1219B9F10F0F80461D4602F00F042E
:107900000BD00F2C05D1B9F1000F0AD11024274656
:1079100019E0B9F1000F09D004E00F2C4FF0100965
:1079200000D1102440464A4607F056FE09EB0402F7
:107930000F2A274606DC08EB09000021C2F11002DD
:1079400007F024FFBCB1114DC7F110002E68404470
:107950003146224607F040FE022C08D1B9F10A0F49
:107960009FBFFF2388F80B30FE2388F80C30344487
:107970002C60BDE8F883B9F1000F05D040462946D8
:10798000BDE8F84308F066BDBDE8F883840D00202B
:107990002DE9F04F8E4E8F4D002387B033702B7042
:1079A000044606F043FA06F0D7F98B4A8B4B12686F
:1079B00018608DE8600099460AB1FFF70FFF04A830
:1079C0000CB9874900E0214609F09BFA854B864EA9
:1079D0001A8803933E2A40F20182D9F800B0834D01
:1079E0000BF102032B60009B06F1180093F8008056
:1079F000002308F102080BF80830FFF711FF20B947
:107A000006F10800FFF70CFF20B10BF103032B6018
:107A1000802400E0044672783178130943EA0113A8
:107A2000DBB2980840EA8313DBB212F00F0FDEB22C
:107A30006E4F01F00F010CD16B48408848B911B965
:107A400012F0F00F1FD03B6803F8016B3B6070260B
:107A50001AE079B912F0F00F0CD1296823F03F0336
:107A60001A43634B0A701B88033121F8023C6826D5
:107A7000296009E05C4A2B681068186003F8046B01
:107A80002B60602600E07826574B9A790293112AE2
:107A900008BF46F0040673075EBF3B6803F8012B7E
:107AA0003B60029BDB79402B06D0FF2B07D0012BDC
:107AB00008D146F0010609E046F0020606E046F06D
:107AC000030603E03A6802F8013B3A60029A464B2B
:107AD000128982B95A8972B99A8962B9DA8952B916
:107AE0001A8A42B95A8A32B99A8A22B9DB8A13B9F8
:107AF00044F0400013E03F48FFF792FE3E4B186011
:107B000078B142781BF80830042043EA02130BF8DE
:107B100008303849394AFFF719FE60F03F00C4B217
:107B200027E0029B30491A8948F2FE039A420CD1A1
:107B30004B8B53B98B8B43B9CB8B33B904200831B2
:107B40002E4AFFF703FE2043E9E73A68DFF8A4C0B6
:107B500096460CF1100A634603CB5345CEF800005D
:107B6000CEF804109C460EF1080EF4D11F4B1032D3
:107B70001A60DFF874A09AF81830FF2B40F08A8062
:107B80009AF8192044F0080E022A5FFA8EFE37D1C7
:107B9000BAF81A30A3BBBAF81C308BBBBAF81E3047
:107BA00073BBBAF820305BBBBAF8223043BBBAF8DB
:107BB00024302BBB9AF8263013BB3B689AF8272059
:107BC00044F00B0003F8012BC4B23B609FE000BF00
:107BD000492B0020A0300020940D0020880D0020AB
:107BE0005D172700D4590020E8590020840D00209B
:107BF000EA590020F05900207C0D0020E0590020B7
:107C00009B4B588B194688BB988B78BBD88BA8B9EF
:107C1000188C98B9588C88B993F8240070B92968E1
:107C200044F00A00C4B2084600F8012B33F8252FAF
:107C3000043121F8032C9B78837015E0C98B8C4BA1
:107C4000A1B9198C91B993F8221079B9296844F037
:107C50000900C4B2084600F8012B53F8232F06315F
:107C600041F8052C1B790371296050E0814ADFF847
:107C700018C214680CF110082746634603CB43452D
:107C8000386079609C4607F10807F6D1103414601B
:107C900074463CE00AF11800FFF7C2FD764B18600D
:107CA00050B143781BF8081044F004040B43E4B2CD
:107CB0000BF8083000200EE048F2FE03BAF8182056
:107CC0009A4210D1BAF81A306BB9BAF81C3053B9CD
:107CD000BAF81E303BB90AF1180104AAFFF736FDC5
:107CE0002043C4B213E0634ADFF89CC117680CF16B
:107CF0001008BE46634603CB4345CEF80000CEF8DD
:107D000004109C460EF1080EF4D110371760019A4A
:107D10005749282313708B79112B53D14FF2B0039D
:107D20000A8D52BA92B222F00F0080B2984217D157
:107D30004B8D5BBA23F00F031B041B0C83420FD146
:107D40002868F32303704B8D02301A0A0B8D1B0A2F
:107D500002EB031303F5AA6300F8013C286028E056
:107D6000029B43495B8D5BBA03F47F43B3F5704FCD
:107D700009D12B68F1221A700A8DA3F801204A8DCF
:107D8000120ADA700CE002F47F42B2F5704F2B68F1
:107D900008D1F2221A700A8D120A5A704A8D5A803E
:107DA000043305E0F0221A70886A053343F8040CA6
:107DB0002B60324B1A882B6823F8022B019A2B6018
:107DC00030231370009BD9F800201B78D65413443D
:107DD0005C70284B1B689B1A009A1AE0D9F80020A7
:107DE00041231370009B06F128051C78631CDBB24D
:107DF0001344324603CAAA4218605960164603F17A
:107E00000803F6D1009B29341C70019B019A1B7852
:107E10002833102013700DEB000106F06FF8184B9B
:107E2000DFF868801B68984730EA200028BF1520DB
:107E3000039BC0F17D051C88019BDFF854A01E78D0
:107E4000009BA21B93F800B00E4FCBEB05039A42A8
:107E500040F3CD80C0F17803019306F079F8019BDF
:107E600094FBF3F40134A04214DC0020D1E000BF05
:107E7000E8590020840D00207C0D0020165A0020B7
:107E80009C112700A0300020005A0020D459002067
:107E9000492B0020D9F800B05F4B3C7800221A60D3
:107EA000594622460BF10400039307F00BFCB8F887
:107EB00000205A496FEA82426FEA9242C2F30722D7
:107EC0008BF80020B8F8002004348BF801200A88D1
:107ED000E4B2501C0880110ADFF850C18BF8021080
:107EE0002D1B9AF8001025F007054D4E61448BF8C4
:107EF00003200BEB04002A46CDF808C03C70356027
:107F000007F06AFB281980B205F0E4FE06F026F8B7
:107F1000039B04461D460028A7D00DF1100B5846C0
:107F2000FFF792FC204606F051F8204606F038F89C
:107F30002B68012B99D0043B012B96D99AF800A00D
:107F4000336853441FFA83FA05233B70354B1A6894
:107F5000B8F800306FEAC3436FEAD343C3F3072393
:107F60001370B8F800305370019B23F00707376097
:107F70002D4B1B889A454BD2D9F800204FEADA01E5
:107F800011713268CAEB03039342B8BF244AD9F88F
:107F90000000B8BF1360009B376893F80080029B15
:107FA0003A4603EB0A01404407F016FB08EB0700D2
:107FB00080B205F08FFE05F0D1FF074600283FF4A0
:107FC00054AF5846FFF740FC384605F0FFFF3846EF
:107FD00005F0E6FF124B1B689A442B681FFA8AFAD9
:107FE000012B3FF442AF043B012BC1D83DE7D9F848
:107FF00000000E495844314407F0EEFAB8F800008A
:108000005844801B80B205F065FE04A8FFF71CFCF5
:10801000012007B0BDE8F08F900D002090200020D7
:108020008C0D0020880D0020D4590020E859002034
:108030002DE9F047074688461646002A47D0434CAC
:108040000025A146238ABB4215D1638A9BB10F202C
:1080500005F060FF0146204608F058FF58B1ECB229
:1080600020463146FFF716FC002827DA0027DFF804
:10807000E0A0B8460DE0B834002D5DD10125E1E760
:10808000A8450BD10AF1B80AB8F1000F10D14FF092
:1080900001083AF8063C002BF4D0F1E7504608F00E
:1080A000B3F80028EED04046FFF720FB0744E9E78D
:1080B000002F41DD20463146FFF7ECFB00283BDD79
:1080C000B82303FB0595AB8A1844A8823AE0204DFB
:1080D000FF2435F8063C4FFA84F97BB3284608F0B4
:1080E00093F810B13046FFF701FBB9F1FF3F03D120
:1080F00035F8063C03B9F4B2012E05F1B80501D0FC
:108100000126E6E765B26B1C16D0B8235D43DFF8A5
:108110003C900F2009EB0506A6F81280378205F087
:10812000F9FE0146304608F0ECFE05F1180048441F
:10813000402108F057F805E0FF2403E0B9F1FF3FC4
:10814000DAD1D8E760B2BDE8F08700BF980D002013
:10815000B00D00202DE9F04FA44CDFF8C8A287B085
:1081600000268AF80060267005F0F6FDA04DA046B6
:108170002860042005F0BCFE9E4B2A6800B21860FF
:108180005778137847EA032703F0F803C02B02D08F
:10819000E02B19D03AE090782378D278C7F30A0719
:1081A000043342EA0020394632462370FFF740FF8D
:1081B000B0F1FF3F814600F081828F4CB82303FB72
:1081C00000440126223424E01379D1789078227873
:1081D000C7F30A070532227041EA00201A463946E1
:1081E0000093FFF725FFB0F1FF3F814600F0668264
:1081F0008149B82202FB0012958A4FF0010BBD4263
:1082000034BF002501253446009BE0E1B1464F46CE
:108210007A4C296898F800504A5D02F0E003602B20
:1082200040F0B781A81C084429444D78744B5FFA8C
:1082300085FC1CF0800F18601CBF0130186012F024
:10824000100F02F0080130D1D1B9196831F8010FCF
:10825000A4F801008978E170196811F8040B19601D
:10826000830803F00F0141F060012170617803F091
:10827000300343EA801301F00F010B43637030E0D9
:1082800018686021864621701EF8011B03304FEAF2
:10829000910B0BF0300B01F00F014BEA0101617003
:1082A000BEF80010186061801BE001F0FF0E99B964
:1082B00019680878C0F3830040F06000207011F85E
:1082C00001BBA4F802E04FEA9B0000F0300040EA56
:1082D0008B106070196004E06023237000236370CA
:1082E000638002F0040303F0FF0100912BB94449BD
:1082F0000B6813F8010BA0710B6012F003020BBFA7
:108300003F4A404B13689B5C09BF13F8011BE371A4
:108310001360E1716B06C5F3011233D51CF0800FB9
:108320001DBF334998F80030096800211EBF5B1853
:108330009978090922B904F1080B9AB9114614E099
:10834000314B1878012805D1587888420CBF19465E
:10835000002100E000212D4B19600029EBD1B3462C
:108360000D4633E1294B19680231294B0F209A5CE5
:108370000391CDF808C0019205F0CCFD03990346A6
:1083800058460BE0234B0F209A5CCDF808C00192B1
:1083900005F0C0FD2049034604F10800019AFFF7EB
:1083A000A5FA05F00800DDF808C005F0030200F0AA
:1083B000FF0105F00403002836D0002B6CD1174BC9
:1083C0001B88ADF81430531E012B9FBF0C490B685E
:1083D00013F8010B0B60124B98BF8DF815009A5CD7
:1083E00004F1180005A9002354E000BFA0300020CC
:1083F000880D0020800D0020980D0020E8590020F5
:10840000840D00201D1627004A2B00207C0D002023
:108410003616270021162700251627001B162700D1
:1084200027162700492B002053B31CF0800F1DBFD7
:10843000A44998F8003009680B4618BF5B18A24998
:1084400018BF9D78087818BF05F00F03012805D1E3
:108450004D789D420CBF0D46002500E000259B4B4A
:108460001D60002D00F0AE80994B10209A5C0192A7
:1084700005F050FDA91C0346019A04F1180009E01B
:10848000944B10209D5C05F045FD2A469249034619
:1084900004F11800FFF72AFA9AF800008F4900F15A
:1084A00028038AF80030009B002B53D00B681A7801
:1084B00002F0F802F02A4DD11122A2711A7802F0CE
:1084C000040502F0F302F03AEDB2032A7CD8DFE8AB
:1084D00002F0020A1622B3F801200533228533F890
:1084E000022C62852CE0B3F801202285DA78A2F50F
:1084F000805292B2120242F0F002628509E05A788C
:10850000A2F5805292B2120242F0F00222855A88FD
:108510006285043314E05A7802331209A2F57562B9
:1085200092B2120242F0F002228513F8012C02F0FE
:108530000F02A2F5756292B2120242F0F002628559
:108540000B6025B90B6833F8022BE2850B603030E5
:108550008AF800005B4A0B6812689B1A88F80030A2
:1085600067B905F0C1FB5E4B1B78C01A9AF8003062
:108570001844283803122371607104E0A7F128031E
:108580001A1222716371A379112B1DD1A388A385BF
:108590001AE0412A40F092806A1CD2B28B1822461F
:1085A00003F1280153F8040B8B4242F8040BF9D174
:1085B00005F1290388F800309AF8003028338AF84A
:1085C000003001E0B34601E0B34600252B4600939E
:1085D00005F08AFB98F8002082426FD805F084FBF2
:1085E0003F4A40491278009BC2EB0008C1F8008066
:1085F00040F214519AF800A0DB009BB2534443446C
:108600008B425BD83CB12F4B04EB0A001968114434
:10861000424606F0E1FF002F39D056B132484FFAFA
:1086200089F3B82404FB030308EB0A0189B2998299
:10863000198495B3B8224FFA89F402FB04F32A494E
:108640002A48CA18114697822231128C06F0C4FFBC
:10865000274D05F24C5615F8012C5AB115F8033C7C
:10866000A34207D115F8020C204B294603EBC000AA
:1086700006F0B2FF7135B542EDD15FFA89F0FFF730
:1086800035F8BBF1000F0BD01A4B1F800CE0BBF18B
:10869000000F05D0002DF7D110E0BBF1000F0DD178
:1086A000144BD044A3F80080134C236823B1FFF788
:1086B00095F823685B68984701F0E8FF07B0BDE8CC
:1086C000F08F00BF880D00204A2B00207C0D002079
:1086D000361627002116270025162700840D0020B6
:1086E000A03000208C0D0020980D0020E8590020BB
:1086F000572B0020D4590020940D002037B5124B81
:10870000124D1C782B796A79C4EB032313449BB276
:10871000ADF80630BDF8063005F1080118442022F6
:1087200080B207F043FEBDF8062004F12801294479
:1087300092B207F03BFE10B140BA80B201E04FF6B2
:10874000FF7003B030BD00BFA1300020E859002009
:1087500028492DE9F04188460D78274E2835AB1978
:108760005C782648E400073402239C423DDBE9188C
:108770007218715C204F012932D002D3632902D0D4
:1087800013E001332FE0037018461C4C02F0BEFFCB
:10879000D8B998F800302278283313443B445B78EA
:1087A000134402332370BDE8F08101F0C001802939
:1087B00005D0C02905D0402912D1037005E003700F
:1087C00006E03A7E0370FF2A02D10120BDE8F08165
:1087D00004200221EA1801F017FE0220BDE8F08112
:1087E000527802321344DBB2BFE703700020BDE8C9
:1087F000F08100BFA1300020E8590020A730002000
:10880000F0B5C578124A0D44EDB2D57083780F0AE1
:108810003B44DBB293704478BB42547006781670C8
:1088200005D2601CC0B2507008B901361670C9B2CA
:108830008D420CDA0133DBB2054993703BB94B78BA
:108840000133DBB24B7013B90B7801330B70F0BD01
:10885000DC59002010B5084C014620681430FFF7A1
:10886000CFFF064A236811781975517859759178A8
:10887000D2789975DA7510BD0C5F0020DC590020A4
:1088800008B501F09BF901F0B1FE07F01AFE0023D4
:108890001149002221F813200133DBB2082BF7D154
:1088A0000E49302303FB02110132D2B200230A2AFF
:1088B00081F82530F4D10A4A4FF480611180094AC9
:1088C000002102EB43120133DBB20A2B1182F6D1F5
:1088D000054A137008BD00BFF8600020105F00203B
:1088E000942000200C610020A83000202DE9F041E8
:1088F000124F3D7805B3DFF84C8005F12703B8F837
:108900000040A34203DB0023A8F8003013E00C4E24
:10891000A4F1280205F12801641BA4B206F1280085
:108920003144521B06F0CEFEA8F80040283C23122A
:108930003371747100233B70BDE8F081A1300020D9
:10894000E8590020D45900202DE9F041034626487B
:108950000288013292B2B2F5FA4F28BF4FF480522A
:1089600000240A2C0AD0214D05EB44152E8A55BA55
:10897000ADB2AE4204F10104F3D1EAE7DFF874E0EE
:10898000028000220A2A18D0184E55017419B4F832
:108990001080571CFFB2B8F1000F0CD18EF80020E8
:1089A0000288618252BA228263B920461946102297
:1089B00006F0ECFE11E03A46E4E78EF800200020D5
:1089C000BDE8F081274603F1100E3A461868596851
:1089D000083303C273451746F7D1054B35441B795D
:1089E00020462B75BDE8F081942000200C6100200A
:1089F00054620020A830002030B50A490023082B1B
:108A00000DD0094C5A1C34F81350D2B2854204D10F
:108A100000220B7024F8132030BD1346EFE70B70D3
:108A200030BD00BFA8300020F86000202DE9F04FD5
:108A3000A14F042893B03C68BA46A04E00F09C8237
:108A40009F49A04DA04A03280D601560894616D1A4
:108A500094F8253003F00F03032B08D1A38B002BD0
:108A600040F0DA86994B08221A7000F0D1BD022B33
:108A700040F0D286002305F8073C00F008BC02282D
:108A80007AD1934A00231370924A33801380924A1A
:108A9000D3780133DBB2D37063B993780133DBB29F
:108AA00093703BB953780133DBB2537013B9137829
:108AB0000133137094F8253003F0FD02052A0DD11F
:108AC00094F826300133DBB2782B84F8263040F05E
:108AD000A386002384F8253000F09EBE002B00F012
:108AE0009B86A28B7948002A3DD094F82620511EFF
:108AF00084F82610002A40F08F8694F82720082A50
:108B000004D0591E01290AD8052A08D1002384F867
:108B100025308023037001F001FF00F087BD042A97
:108B20009CBF0321914003F00F0394BFC9B23021D1
:108B30000132013B84F8261084F82720072B00F22D
:108B40006B86DFE813F0A00308000A002C05690615
:108B50002C0569062C05002296E30423037001F01E
:108B6000DDFE00F085BD03F00F03032B40F05486BB
:108B70000823037000F04CBD052811D1574B1B682A
:108B80001B8A002B00F048860C3D1560514A0023DB
:108B900013803B6033804D4B08220D601A70E9E171
:108BA00015F83C3C3C3D03F0F003602B40F034866C
:108BB0002B796A791B0231889818884200F32C8639
:108BC0002832134433802B7AFF2B00F02586444B48
:108BD000AA1D3F4F434C1A6000223A702270AA79B6
:108BE0009846B2B901232370FFF7B2FD012800F0C7
:108BF000138603D3022800F00B860AE03B7803F1CA
:108C000028022A44C8F800205278083303EBC20334
:108C10003B70354800F070FE002840F0C3803248B9
:108C200000F010FF002840F0BD802A7E2E4BFF2A66
:108C3000A3F118036AD048F2FE00198B814265D077
:108C40001989814262D079B9598969B9998959B923
:108C5000D98949B91B8A3BB9698A244B21B9998AB8
:108C600011B9DB8A002B51D0298B204B79B9598B54
:108C700069B9998B59B9D98B49B9198C39B9598CBA
:108C800029B9998C19B9DB8CB3F5807F3ED0338834
:108C9000B3F5A06F04D9022000214FF4A06206E0D2
:108CA000EB79124C012B23D800210A46032001F056
:108CB000ABFB00F0ADBD00BF0C5F0020D45900201D
:108CC000085F0020245A0020D8590020FC5E0020B4
:108CD000A130002008610020A3300020045F0020A4
:108CE000005F0020A2300020005A0020E859002038
:108CF00002F096FD002840F08F85E3798B4A013B16
:108D0000E37113680133136000F082BD48F2FE0383
:108D10002989994240F08085298B854B81B9598BEF
:108D200071B9998B61B9D98B51B9198C41B9598CE9
:108D300031B9998C21B9DB8CB3F5807F00F06C855B
:108D4000FF2A00F069857B4800F0B6FD0246002846
:108D500040F0628501200221A9E72CD8BBF1060F63
:108D600000F03B81BBF1110F00F09A80BBF1000FC6
:108D700073D121780093CB076FD46F4A41F0010182
:108D80001170FFF7E5FC012800F04685009B34D206
:108D90003A7802F12801294419604B78083202EB35
:108DA000C3023A70D8F80020644B92F800B0BBF1CF
:108DB0002B0FD2D131E0BBF13A0F52D004D8BBF126
:108DC0002C0F00F0298548E0BBF13B0F00F0248513
:108DD000BBF13C0F41D123785749980704D5580679
:108DE0003BD443F0400301E043F002030B70FFF774
:108DF000AFFC012800F0108503D3022800F008859D
:108E0000D0E73B7803F128022A44C8F800205278C2
:108E1000083303EBC2033B70C4E7207800F0040E74
:108E20000EF0FF01BEF1000F17D1434A40F00400DD
:108E300010703A7802F12800284490F803E0BEF15F
:108E4000000F02D004202A3231E71860437808323C
:108E500002EBC3023A4B1A70A4E704200121521B13
:108E600025E707F0BFFA4FF6FF73984240F0D4842D
:108E70003B782833E85C01F0F5FB3B782833EA18AF
:108E8000E85C517801F09EFA012801BF00232C4ACA
:108E9000338013703388002B00F0BE8400F0B8BC20
:108EA000FFF724FDB5F82A8085F806B0B8F1000F69
:108EB00000F0B284234F244B3B603C68234B9C4220
:108EC0002FD294E80F000DF1280E8EE80F00238AB0
:108ED00023B3984522D1638A13B12A8D9A421DD1BA
:108EE000BDF82830A3B9BDF82A308BB9BDF82C30B5
:108EF00073B9BDF82E305BB9BDF8303043B9BDF859
:108F000032302BB9BDF8343013B9BDF836300BB35D
:108F10000F487146102206F02DFBD8B120343C607A
:108F2000CBE7012004210022C1E600BF1059002038
:108F3000E8590020005A0020A2300020005F0020E5
:108F4000A1300020045F00200C6100204C62002052
:108F5000F0590020BB490220BB4A33880870BB4946
:108F6000303BC9F800200A60B94A33800023CAF8B0
:108F70000030138001F0D2FCB54B1A88002A00F0B3
:108F80004B8402F13003B34C9BB23380283B6371B6
:108F90001912B14B08321B6852BA2171197DA28592
:108FA0000022E2851A8AE17122855A8A112162859E
:108FB000A17104F1180602AD0FCB85E80F0086E819
:108FC0000F0004F10800314600F09AFDA34B3C3439
:108FD0001C6002F06BFD00F015BCFFF787FC85F804
:108FE00006B007F002FA4FF6FF739842994C40F032
:108FF0001384B4F82A80B8F1000F00F00D84B4F89F
:1090000028B0BBF1000F00F00784934B12AC1B6833
:109010000FCB04E90F00924C234694F825C0BCF115
:10902000000F13D0228A424510D1628A5A450DD1D1
:109030008C480EA910220193CDF800C006F09AFAD0
:10904000DDF800C0019B002800F03781864A3034EB
:109050009442E2D195F8352002F03F02022A13D162
:109060008249834F8946A1F800800022082A0AD04D
:10907000804931F8121001328845D2B2F6D100226F
:109080003A70964656E03A7095F83520714B510784
:1090900000F1C283142283F835203C223280502212
:1090A00083F8342093F8332093F8314093F82F005D
:1090B00083F82F2093F8322093F82E106C4F83F80A
:1090C0002E2093F82D2083F82D4093F82C4001306A
:1090D0003C7093F83070C0B283F8321083F83120BE
:1090E00083F82C7083F8304083F8330060B9013185
:1090F000C9B283F8321039B90132D2B283F83120C3
:1091000012B9621C83F830202B8D584A554C1380BD
:109110006A8D6B852A8504F1100594E80F0085E8B7
:109120000F002046294600F0EBFC56E3072C0ED03A
:109130000132D2B20A2A16D0302101FB023101F1EC
:1091400020004479002CF1D13A700C4610E0BEF1B9
:10915000000F04D080799EF826108842E8D9302488
:1091600004FB023EE4E774463A70002C00F054839E
:10917000032384F8263084F82430042384F8233031
:10918000384BCAF800400FCB84E80F003A4B01205F
:109190001A784FF0000A22765A7884F82500627611
:1091A0009A78DB78A276E37695F82C30A083237545
:1091B00095F82D3084F822A0637595F82E3084F848
:1091C00027A0A37595F82F30A4F81080A4F812B04A
:1091D000E375FFF73FFB95F8343003F0F002502AB7
:1091E00051D9264A1B09053B9800964653461178EB
:1091F000834245DAEA1892F83C10002940D0012950
:1092000001D101331CE0022915D192F83DC0BCF117
:10921000040F10D18EF800103B7092F83E1092F8B7
:109220003F3043EA0123402BA9F8003028BF4023F8
:10923000E383238427E0EA1892F83D2002B3134425
:10924000DBB2D5E7FC5E0020185A0020D859002078
:1092500008610020E8590020045F0020085F00201A
:10926000105F0020F0590020F060002092200020C4
:10927000A8300020F8600020A3300020A930002092
:109280008EF800103B701022AB4B83F83520AA4BB0
:1092900093F8352042F0020283F83520022283F849
:1092A0003C20042283F83D20002283F83E20402207
:1092B00083F83F20328060224FE295F835309F4A94
:1092C00003F00401CAF80040107001F0FF0821B15A
:1092D000202384F825001370EEE1974A0CF00F0C60
:1092E00092F83420BCF1020F4FEA12124FEA8201C9
:1092F000934A11703288A2F12802A2EB010292B2C5
:10930000328003D103F03F01122905E0BCF1010FC7
:1093100003D103F03F01022916D00AB99A0713D0EE
:10932000A98DA28A914204D1834AD18DE28A9142C9
:109330000AD09F0740F10A82BCF1010FA3D0BCF113
:10934000020F40F00382A2E7D80652D5A18B002974
:109350004FD004F11800FFF753FA7A4B95F830100C
:109360001878754A884244D192F8311093F801C0B8
:109370008C453ED192F832E09978714539D192F816
:109380003320DB78934234D1E37694F8273020768B
:1093900084F819C0A1761BBB94F8243094F82610E9
:1093A00094F82200591AA1EBD001C9B25FFA81FEEC
:1093B0001EF0800F94F82330084418BF4942A3EBF5
:1093C000930318BF5FFA81FE03EB0E02C0B2D3B263
:1093D00084F8233003EBD00384F8220084F824308F
:1093E000564B01221A7094F8243084F8263000235A
:1093F000A38394F82510DFF844B101F00F02013A7D
:10940000072A00F20982DFE812F008002500A50013
:109410005A017C019601A1014C019BF80030474A9A
:10942000D9070FD5032384F82530308840231370E3
:109430000023A383002800F0E88042231370FFF785
:1094400009FAE2E095F8353003F03F03022B40F0D3
:10945000E38118E79BF80020D30761D595F8352004
:1094600002F03F02122A5BD1334B93F8343003F001
:10947000F002502A38D9344A1B099646053B117828
:109480002F489B0098452BDA05EB080292F83C1018
:1094900031B3012902D108F101081EE0022916D1D9
:1094A00092F83DC0BCF1040F11D192F83F308EF814
:1094B000001092F83E10254A43EA0123402B138006
:1094C00028BF402380F80080E38323840CE005EB71
:1094D000080292F83D201AB190445FFA88F8D1E76B
:1094E0008EF8001080F80080032384F8253095F86A
:1094F0002C300120237595F82D30637595F82E30AA
:10950000A37595F82F30E375FFF7A4F90B4A4223B2
:1095100013700F4A0023A38333803B70138077E0DE
:1095200020228BF8002001F0F9F9DAF8003000224F
:1095300083F82520A8E500BFE8590020FC5E002044
:10954000A8300020DC590020A93000209220002003
:109550000861002095F83520D70725D5C80623D403
:10956000A28B002A40F058813088013080B2FFF78A
:1095700071F99BF80020338842F010018BF800103D
:109580001BB1AB4B42F012021A7001F0C7F9012374
:10959000A383082384F82530002384F82730112280
:1095A000A44B83F83520D4E093060DD595F83A0006
:1095B00095F83B2042EA0022D9F800001044C9F88F
:1095C00000003088821A3280308848B1CF0607D434
:1095D0009BF8002042F002028BF80020FFF73AF9D6
:1095E00095F8361095F83720208C02EB012292B2C4
:1095F000914982420A8000D802B908809BF8003065
:109600000A889907E28300F007818C4B00221A80B8
:1096100001F084F9864B1A78884B02F0200000F0A4
:10962000FF0128B100221A8084F825201422B7E710
:1096300002F0100000F0FF0540B119800123A38360
:10964000042384F8253084F82710A8E7198861B12D
:10965000D20748BFA583A28B32B9E28B914288BF63
:109660001A801B88A38300E01A80002384F8273027
:10967000734B1B68C9F80030704B1B882BB1A38B50
:109680001BB13C333380182207E0694B1B789F07DE
:1096900040F1C2803C2333801022664B83F8352092
:1096A00059E09BF80030DD0740F1B680002384F8D4
:1096B00025305F4B10221A7001F030F9ACE0308891
:1096C00008B1FFF7C7F895F8352012F001020FD066
:1096D0009BF80020D00745BF072284F825200622EA
:1096E000002246BF84F82620A28384F8252016E0B5
:1096F0009BF80030D9071BD5052384F82530A283B9
:109700008AE0308808B1FFF7A5F895F83520D20730
:109710000ED5072284F82520002284F82620012077
:10972000FFF798F810228BF8002001F0F7F80DE011
:1097300033885BB970E09BF80030DB076CD50723FA
:1097400084F82530002384F8263065E0102385F85E
:1097500035303C233380374B502283F83420237D2F
:10976000344D06AF85F83030637D05F1180E85F86D
:109770003130A37D85F83230E37D85F83330237EA8
:1097800085F82C30637E85F82D30A37E85F82E3049
:10979000E37E85F82F30238A2B85638A6B85294BDE
:1097A0001B680FCB87E80F008EE80F0005F108005B
:1097B000714600F0A5F994F8253003F0100303F08A
:1097C000FF022BB1002385F8373085F8363004E0EE
:1097D000402385F8362085F83730164C0623A371D0
:1097E000194B1B79E3713388283B1A1263710023EC
:1097F000227184F83B3084F83A30238706F0F5FD77
:10980000C04320870B4B60221A7000225A705A8086
:10981000074B00221A7007E00C4A002313700C4A11
:1098200033801370024A137013B0BDE8F08F00BF8D
:10983000FC5E0020E85900209220002008610020F2
:10984000D8590020045F002054620020A13000207D
:10985000A23000202DE9F3410446154D00910E463B
:1098600090461F460195234612480321202206F008
:10987000C9FD01282B4616D12A6804F11001107089
:1098800020462A68023250F8044B884242F8044BC2
:10989000F9D11868089B86744361099B80F813808E
:1098A0000777836100E0002002B0BDE8F08100BFCF
:1098B0000C0F00205063002070B506460B4D0C4B7A
:1098C0002B602C680B4B9C420BD2237833B1A27CCB
:1098D000A01C3146D20805F04DFE20B120342C608A
:1098E000EFE7002070BD012070BD00BF0C0F00200D
:1098F00050630020B063002013B5084C802203465B
:109900000092019406480321202206F07BFD08B94D
:10991000206800E0002002B010BD00BF100F002042
:109920006C62002010B50C4A0C4B136013680C4994
:109930008B420DD2197849B1411C02D0997C8142E9
:1099400004D148F2FE015C888C4202D02033ECE75F
:109950000023184610BD00BF100F00206C620020CD
:10996000CC62002037B504460F4D8023009301954B
:1099700023460E480521122206F044FD01282B46FD
:109980000ED12A6804F11001107020462A680232B4
:1099900050F8044B884242F8044BF9D1186800E0B3
:1099A000002003B030BD00BF080F0020F06200208F
:1099B000F7B50546204C802300930E4617460194C8
:1099C0001E48032120222B4606F01CFD012830D121
:1099D0002A46236805F1100118702368023352F8F3
:1099E000040B8A4243F8040BF9D12068C77416B9F6
:1099F0000123037505E0002303753146183006F096
:109A0000E2FB23680E480121997402234370FF2270
:109A10000023027043808380C38003818372C172FC
:109A200002736B7B4373EB89C381FFF79BFF206855
:109A300000E0002003B0F0BD100F00206C62002099
:109A40009620002013B5084C802203460092019412
:109A500006480521122206F0D5FC08B9206800E06E
:109A6000002002B010BD00BF080F0020F0620020EF
:109A700038B50546C8B10D48022200244270FF23C4
:109A80000122C27244808480C48004818472037382
:109A90000370EB7B43732B8AC381FFF7D3FF044A28
:109AA000106008B106F0D2FC2C7038BD9620002062
:109AB000080F002010B50E4B0E4C236020680E4B93
:109AC00098420ED203784BB1037D3BB91830FDF7B5
:109AD000ABFC18B1074B1868FFF7CAFF23682033A7
